{"abi":[{"type":"receive","stateMutability":"payable"},{"type":"function","name":"duration","inputs":[],"outputs":[{"name":"","type":"uint256","internalType":"uint256"}],"stateMutability":"view"},{"type":"function","name":"end","inputs":[],"outputs":[{"name":"","type":"uint256","internalType":"uint256"}],"stateMutability":"view"},{"type":"function","name":"initialize","inputs":[{"name":"beneficiary","type":"address","internalType":"address"},{"name":"startTimestamp","type":"uint64","internalType":"uint64"},{"name":"durationSeconds","type":"uint64","internalType":"uint64"}],"outputs":[],"stateMutability":"nonpayable"},{"type":"function","name":"owner","inputs":[],"outputs":[{"name":"","type":"address","internalType":"address"}],"stateMutability":"view"},{"type":"function","name":"releasable","inputs":[{"name":"token","type":"address","internalType":"address"}],"outputs":[{"name":"","type":"uint256","internalType":"uint256"}],"stateMutability":"view"},{"type":"function","name":"releasable","inputs":[],"outputs":[{"name":"","type":"uint256","internalType":"uint256"}],"stateMutability":"view"},{"type":"function","name":"release","inputs":[{"name":"token","type":"address","internalType":"address"}],"outputs":[],"stateMutability":"nonpayable"},{"type":"function","name":"release","inputs":[],"outputs":[],"stateMutability":"nonpayable"},{"type":"function","name":"released","inputs":[],"outputs":[{"name":"","type":"uint256","internalType":"uint256"}],"stateMutability":"view"},{"type":"function","name":"released","inputs":[{"name":"token","type":"address","internalType":"address"}],"outputs":[{"name":"","type":"uint256","internalType":"uint256"}],"stateMutability":"view"},{"type":"function","name":"renounceOwnership","inputs":[],"outputs":[],"stateMutability":"nonpayable"},{"type":"function","name":"start","inputs":[],"outputs":[{"name":"","type":"uint256","internalType":"uint256"}],"stateMutability":"view"},{"type":"function","name":"transferOwnership","inputs":[{"name":"newOwner","type":"address","internalType":"address"}],"outputs":[],"stateMutability":"nonpayable"},{"type":"function","name":"vestedAmount","inputs":[{"name":"timestamp","type":"uint64","internalType":"uint64"}],"outputs":[{"name":"","type":"uint256","internalType":"uint256"}],"stateMutability":"view"},{"type":"function","name":"vestedAmount","inputs":[{"name":"token","type":"address","internalType":"address"},{"name":"timestamp","type":"uint64","internalType":"uint64"}],"outputs":[{"name":"","type":"uint256","internalType":"uint256"}],"stateMutability":"view"},{"type":"event","name":"ERC20Released","inputs":[{"name":"token","type":"address","indexed":true,"internalType":"address"},{"name":"amount","type":"uint256","indexed":false,"internalType":"uint256"}],"anonymous":false},{"type":"event","name":"EtherReleased","inputs":[{"name":"amount","type":"uint256","indexed":false,"internalType":"uint256"}],"anonymous":false},{"type":"event","name":"Initialized","inputs":[{"name":"version","type":"uint64","indexed":false,"internalType":"uint64"}],"anonymous":false},{"type":"event","name":"OwnershipTransferred","inputs":[{"name":"previousOwner","type":"address","indexed":true,"internalType":"address"},{"name":"newOwner","type":"address","indexed":true,"internalType":"address"}],"anonymous":false},{"type":"error","name":"FailedCall","inputs":[]},{"type":"error","name":"InsufficientBalance","inputs":[{"name":"balance","type":"uint256","internalType":"uint256"},{"name":"needed","type":"uint256","internalType":"uint256"}]},{"type":"error","name":"InvalidInitialization","inputs":[]},{"type":"error","name":"NotInitializing","inputs":[]},{"type":"error","name":"OwnableInvalidOwner","inputs":[{"name":"owner","type":"address","internalType":"address"}]},{"type":"error","name":"OwnableUnauthorizedAccount","inputs":[{"name":"account","type":"address","internalType":"address"}]},{"type":"error","name":"SafeERC20FailedOperation","inputs":[{"name":"token","type":"address","internalType":"address"}]}],"bytecode":{"object":"0x60808060405234601557610b62908161001a8239f35b5f80fdfe6080604052600436101561001a575b3615610018575f80fd5b005b5f3560e01c80630a17b06b146106fa5780630fb5a6b4146106c557806319165587146105c4578063715018a61461055d578063810ec23b1461053157806386d1a69f1461047e5780638da5cb5b1461044a57806396132521146104215780639852595c146103f5578063989a83661461020f578063a3f8eace146101ce578063be9a65551461019c578063efbe1c1c1461014e578063f2fde38b146101255763fbccedae0361000e5734610121575f366003190112610121576020610119610104476100ff6001600160401b034216915f516020610acd5f395f51905f525490610769565b6108f9565b5f516020610acd5f395f51905f52549061087b565b604051908152f35b5f80fd5b3461012157602036600319011261012157610018610141610753565b6101496109d7565b610888565b34610121575f3660031901126101215760206101196001600160401b035f516020610aed5f395f51905f5254166001600160401b035f516020610aed5f395f51905f525460401c1690610769565b34610121575f3660031901126101215760206001600160401b035f516020610aed5f395f51905f525416604051908152f35b346101215760203660031901126101215760206101196101ec610753565b6102086102026001600160401b034216836107c2565b9161078a565b549061087b565b3461012157606036600319011261012157610228610753565b61023061073d565b90604435906001600160401b0382168203610121575f516020610b0d5f395f51905f5254926001600160401b0360ff8560401c16159416801590816103ed575b60011490816103e3575b1590816103da575b506103cb576102cd6001600160401b039285600185195f516020610b0d5f395f51905f525416175f516020610b0d5f395f51905f5255610396575b6102c5610a81565b610149610a81565b6102d5610a81565b166001600160401b03195f516020610aed5f395f51905f525416175f516020610aed5f395f51905f525567ffffffffffffffff60401b5f516020610aed5f395f51905f52549160401b169067ffffffffffffffff60401b1916175f516020610aed5f395f51905f525561034457005b60ff60401b195f516020610b0d5f395f51905f5254165f516020610b0d5f395f51905f52557fc7f505b2f371ae2175ee4913f4499e1f2633a7b5936321eed1cdaeb6115181d2602060405160018152a1005b6801000000000000000060ff60401b195f516020610b0d5f395f51905f525416175f516020610b0d5f395f51905f52556102bd565b63f92ee8a960e01b5f5260045ffd5b90501585610282565b303b15915061027a565b859150610270565b34610121576020366003190112610121576020610418610413610753565b61078a565b54604051908152f35b34610121575f3660031901126101215760205f516020610acd5f395f51905f5254604051908152f35b34610121575f366003190112610121575f516020610aad5f395f51905f52546040516001600160a01b039091168152602090f35b34610121575f366003190112610121576100186104b8476100ff6001600160401b034216915f516020610acd5f395f51905f525490610769565b6104db6104d45f516020610acd5f395f51905f5254809361087b565b8092610769565b5f516020610acd5f395f51905f52557fda9d4e5f101b8b9b1c5b76d0c5a9f7923571acfc02376aa076b75a8c080c956b6020604051838152a15f516020610aad5f395f51905f52546001600160a01b0316610a0a565b3461012157604036600319011261012157602061011961054f610753565b61055761073d565b906107c2565b34610121575f366003190112610121576105756109d7565b5f516020610aad5f395f51905f5280546001600160a01b031981169091555f906001600160a01b03167f8be0079c531659141344cd1fd0a4f28419497f9722a3daafe3b4186f6b6457e08280a3005b34610121576020366003190112610121576105dd610753565b6105fc6105f36001600160401b034216836107c2565b6102088361078a565b906106068161078a565b610611838254610769565b905560018060a01b031690817fc0e523490dd523c33b1878c9eb14ff46991e3f5b2cd33710918618f2a39cba1b6020604051848152a260018060a01b035f516020610aad5f395f51905f525416906040519163a9059cbb60e01b5f5260045260245260205f60448180865af19060015f51148216156106a5575b501561069357005b635274afe760e01b5f5260045260245ffd5b60018215166106bd5750813b15153d1516168261068b565b3d5f823e3d90fd5b34610121575f3660031901126101215760206001600160401b035f516020610aed5f395f51905f525460401c16604051908152f35b34610121576020366003190112610121576004356001600160401b0381168103610121576101196020916100ff475f516020610acd5f395f51905f525490610769565b602435906001600160401b038216820361012157565b600435906001600160a01b038216820361012157565b9190820180921161077657565b634e487b7160e01b5f52601160045260245ffd5b6001600160a01b03165f9081527fa1eac494560f7591e4da38ed031587f09556afdfc4399dd2e205b935fdfa39016020526040902090565b6040516370a0823160e01b81523060048201529091906020816024816001600160a01b0387165afa908115610870575f91610813575b506100ff906108096108109461078a565b5490610769565b90565b905060203d602011610869575b601f8101601f191682016001600160401b038111838210176108555760209183916040528101031261012157516108106107f8565b634e487b7160e01b5f52604160045260245ffd5b503d610820565b6040513d5f823e3d90fd5b9190820391821161077657565b6001600160a01b031680156108e6575f516020610aad5f395f51905f5280546001600160a01b0319811683179091556001600160a01b03167f8be0079c531659141344cd1fd0a4f28419497f9722a3daafe3b4186f6b6457e05f80a3565b631e4fbdf760e01b5f525f60045260245ffd5b906001600160401b03805f516020610aed5f395f51905f52541691169081105f146109245750505f90565b6109606001600160401b035f516020610aed5f395f51905f5254166001600160401b035f516020610aed5f395f51905f525460401c1690610769565b811061096a575090565b61098c906001600160401b035f516020610aed5f395f51905f5254169061087b565b90818102918183041490151715610776576001600160401b035f516020610aed5f395f51905f525460401c169081156109c3570490565b634e487b7160e01b5f52601260045260245ffd5b5f516020610aad5f395f51905f52546001600160a01b031633036109f757565b63118cdaa760e01b5f523360045260245ffd5b814710610a6a5760405160208101908082106001600160401b03831117610855575f9384938480949381946040525260018060a01b03165af115610a4a57565b3d15610a5b576040513d5f823e3d90fd5b63d6bda27560e01b5f5260045ffd5b504763cf47918160e01b5f5260045260245260445ffd5b60ff5f516020610b0d5f395f51905f525460401c1615610a9d57565b631afcd79f60e31b5f5260045ffdfe9016d09d72d40fdae2fd8ceac6b6234c7706214fd39c1cd1e609a0528c199300a1eac494560f7591e4da38ed031587f09556afdfc4399dd2e205b935fdfa3900a1eac494560f7591e4da38ed031587f09556afdfc4399dd2e205b935fdfa3902f0c57e16840df040f15088dc2f81fe391c3923bec73e23a9662efc9c229c6a00a2646970667358221220fd44767ce869db77c2c417d782b46e2e5c511e8ed28d19af3577d99dc3018e4164736f6c634300081b0033","linkReferences":{}},"methodIdentifiers":{"duration()":"0fb5a6b4","end()":"efbe1c1c","initialize(address,uint64,uint64)":"989a8366","owner()":"8da5cb5b","releasable()":"fbccedae","releasable(address)":"a3f8eace","release()":"86d1a69f","release(address)":"19165587","released()":"96132521","released(address)":"9852595c","renounceOwnership()":"715018a6","start()":"be9a6555","transferOwnership(address)":"f2fde38b","vestedAmount(address,uint64)":"810ec23b","vestedAmount(uint64)":"0a17b06b"},"id":46}