{"abi":[{"type":"constructor","inputs":[],"stateMutability":"nonpayable"},{"type":"function","name":"MAX_BATCH_SIZE","inputs":[],"outputs":[{"name":"","type":"uint256","internalType":"uint256"}],"stateMutability":"view"},{"type":"function","name":"MIN_UPDATE_INTERVAL","inputs":[],"outputs":[{"name":"","type":"uint256","internalType":"uint256"}],"stateMutability":"view"},{"type":"function","name":"UPGRADE_INTERFACE_VERSION","inputs":[],"outputs":[{"name":"","type":"string","internalType":"string"}],"stateMutability":"view"},{"type":"function","name":"authorizedOracles","inputs":[{"name":"","type":"address","internalType":"address"}],"outputs":[{"name":"","type":"bool","internalType":"bool"}],"stateMutability":"view"},{"type":"function","name":"batchUpdateLevels","inputs":[{"name":"updates","type":"tuple[]","internalType":"struct LevelOracle.LevelUpdate[]","components":[{"name":"personaId","type":"uint256","internalType":"uint256"},{"name":"professionId","type":"uint256","internalType":"uint256"},{"name":"newLevel","type":"uint8","internalType":"uint8"},{"name":"realScore","type":"uint256","internalType":"uint256"},{"name":"timestamp","type":"uint256","internalType":"uint256"}]},{"name":"expectedNonce","type":"uint256","internalType":"uint256"}],"outputs":[],"stateMutability":"nonpayable"},{"type":"function","name":"canUpdate","inputs":[{"name":"personaId","type":"uint256","internalType":"uint256"},{"name":"professionId","type":"uint256","internalType":"uint256"}],"outputs":[{"name":"","type":"bool","internalType":"bool"}],"stateMutability":"view"},{"type":"function","name":"getCurrentNonce","inputs":[],"outputs":[{"name":"","type":"uint256","internalType":"uint256"}],"stateMutability":"view"},{"type":"function","name":"getUpdateKey","inputs":[{"name":"personaId","type":"uint256","internalType":"uint256"},{"name":"professionId","type":"uint256","internalType":"uint256"}],"outputs":[{"name":"","type":"bytes32","internalType":"bytes32"}],"stateMutability":"pure"},{"type":"function","name":"initialize","inputs":[{"name":"owner_","type":"address","internalType":"address"},{"name":"professionRegistry_","type":"address","internalType":"address"},{"name":"initialOracle_","type":"address","internalType":"address"}],"outputs":[],"stateMutability":"nonpayable"},{"type":"function","name":"lastUpdateTimestamp","inputs":[{"name":"","type":"bytes32","internalType":"bytes32"}],"outputs":[{"name":"","type":"uint256","internalType":"uint256"}],"stateMutability":"view"},{"type":"function","name":"nonce","inputs":[],"outputs":[{"name":"","type":"uint256","internalType":"uint256"}],"stateMutability":"view"},{"type":"function","name":"owner","inputs":[],"outputs":[{"name":"","type":"address","internalType":"address"}],"stateMutability":"view"},{"type":"function","name":"professionRegistry","inputs":[],"outputs":[{"name":"","type":"address","internalType":"contract IProfessionRegistry"}],"stateMutability":"view"},{"type":"function","name":"proxiableUUID","inputs":[],"outputs":[{"name":"","type":"bytes32","internalType":"bytes32"}],"stateMutability":"view"},{"type":"function","name":"renounceOwnership","inputs":[],"outputs":[],"stateMutability":"nonpayable"},{"type":"function","name":"resetNonce","inputs":[{"name":"newNonce","type":"uint256","internalType":"uint256"}],"outputs":[],"stateMutability":"nonpayable"},{"type":"function","name":"setAuthorizedOracle","inputs":[{"name":"oracle","type":"address","internalType":"address"},{"name":"authorized","type":"bool","internalType":"bool"}],"outputs":[],"stateMutability":"nonpayable"},{"type":"function","name":"setProfessionRegistry","inputs":[{"name":"newRegistry","type":"address","internalType":"address"}],"outputs":[],"stateMutability":"nonpayable"},{"type":"function","name":"totalUpdatesProcessed","inputs":[],"outputs":[{"name":"","type":"uint256","internalType":"uint256"}],"stateMutability":"view"},{"type":"function","name":"transferOwnership","inputs":[{"name":"newOwner","type":"address","internalType":"address"}],"outputs":[],"stateMutability":"nonpayable"},{"type":"function","name":"updateLevel","inputs":[{"name":"personaId","type":"uint256","internalType":"uint256"},{"name":"professionId","type":"uint256","internalType":"uint256"},{"name":"newLevel","type":"uint8","internalType":"uint8"},{"name":"realScore","type":"uint256","internalType":"uint256"}],"outputs":[],"stateMutability":"nonpayable"},{"type":"function","name":"upgradeToAndCall","inputs":[{"name":"newImplementation","type":"address","internalType":"address"},{"name":"data","type":"bytes","internalType":"bytes"}],"outputs":[],"stateMutability":"payable"},{"type":"event","name":"BatchUpdateProcessed","inputs":[{"name":"count","type":"uint256","indexed":false,"internalType":"uint256"},{"name":"newNonce","type":"uint256","indexed":false,"internalType":"uint256"}],"anonymous":false},{"type":"event","name":"Initialized","inputs":[{"name":"version","type":"uint64","indexed":false,"internalType":"uint64"}],"anonymous":false},{"type":"event","name":"LevelUpdateProcessed","inputs":[{"name":"personaId","type":"uint256","indexed":true,"internalType":"uint256"},{"name":"professionId","type":"uint256","indexed":true,"internalType":"uint256"},{"name":"oldLevel","type":"uint8","indexed":false,"internalType":"uint8"},{"name":"newLevel","type":"uint8","indexed":false,"internalType":"uint8"},{"name":"realScore","type":"uint256","indexed":false,"internalType":"uint256"}],"anonymous":false},{"type":"event","name":"OracleAuthorized","inputs":[{"name":"oracle","type":"address","indexed":true,"internalType":"address"},{"name":"authorized","type":"bool","indexed":false,"internalType":"bool"}],"anonymous":false},{"type":"event","name":"OwnershipTransferred","inputs":[{"name":"previousOwner","type":"address","indexed":true,"internalType":"address"},{"name":"newOwner","type":"address","indexed":true,"internalType":"address"}],"anonymous":false},{"type":"event","name":"Upgraded","inputs":[{"name":"implementation","type":"address","indexed":true,"internalType":"address"}],"anonymous":false},{"type":"error","name":"AddressEmptyCode","inputs":[{"name":"target","type":"address","internalType":"address"}]},{"type":"error","name":"BatchTooLarge","inputs":[{"name":"size","type":"uint256","internalType":"uint256"}]},{"type":"error","name":"ERC1967InvalidImplementation","inputs":[{"name":"implementation","type":"address","internalType":"address"}]},{"type":"error","name":"ERC1967NonPayable","inputs":[]},{"type":"error","name":"EmptyBatch","inputs":[]},{"type":"error","name":"FailedCall","inputs":[]},{"type":"error","name":"InvalidInitialization","inputs":[]},{"type":"error","name":"InvalidNonce","inputs":[{"name":"expected","type":"uint256","internalType":"uint256"},{"name":"provided","type":"uint256","internalType":"uint256"}]},{"type":"error","name":"NotAuthorizedOracle","inputs":[{"name":"caller","type":"address","internalType":"address"}]},{"type":"error","name":"NotInitializing","inputs":[]},{"type":"error","name":"OwnableInvalidOwner","inputs":[{"name":"owner","type":"address","internalType":"address"}]},{"type":"error","name":"OwnableUnauthorizedAccount","inputs":[{"name":"account","type":"address","internalType":"address"}]},{"type":"error","name":"UUPSUnauthorizedCallContext","inputs":[]},{"type":"error","name":"UUPSUnsupportedProxiableUUID","inputs":[{"name":"slot","type":"bytes32","internalType":"bytes32"}]},{"type":"error","name":"UpdateTooFrequent","inputs":[{"name":"personaId","type":"uint256","internalType":"uint256"},{"name":"professionId","type":"uint256","internalType":"uint256"}]},{"type":"error","name":"ZeroAddress","inputs":[]}],"bytecode":{"object":"0x60a080604052346100c257306080525f5160206110155f395f51905f525460ff8160401c166100b3576002600160401b03196001600160401b03821601610060575b604051610f4e90816100c7823960805181818161082301526108ff0152f35b6001600160401b0319166001600160401b039081175f5160206110155f395f51905f525581527fc7f505b2f371ae2175ee4913f4499e1f2633a7b5936321eed1cdaeb6115181d290602090a15f80610041565b63f92ee8a960e01b5f5260045ffd5b5f80fdfe60806040526004361015610011575f80fd5b5f3560e01c80631ff2d6f614610aac57806336a5754414610a8f5780633a60c386146106075780634f1ef2861461087757806352d1902d1461081157806361c992a3146107d45780636f454a5b1461078a578063715018a6146107235780638da5cb5b146106ef5780639c9d8459146106a9578063a162a86914610682578063ad3cb1cc14610624578063affed0e014610607578063bd3be27c146105eb578063c0a91375146105d0578063c0c53b8b146103d7578063c7a6de4d14610344578063c9a8ce68146102f3578063cb2f2e131461017f578063cfdbf25414610164578063e4f269ec1461013a5763f2fde38b1461010b575f80fd5b3461013657602036600319011261013657610134610127610acd565b61012f610be4565b610b73565b005b5f80fd5b34610136576020366003190112610136576004355f526002602052602060405f2054604051908152f35b34610136575f36600319011261013657602060405160648152f35b346101365760403660031901126101365760043567ffffffffffffffff811161013657366023820112156101365780600401359067ffffffffffffffff82116101365760248101906024369160a0850201011161013657602435335f52600160205260ff60405f205416156102e05782156102d157606483116102be576004548082036102a95750505f5b828110610251577f8b9dbc828d420ef70ece1d0f6d0b5cce895dd20744b47cf0851c99e15128346c604084610240600454610b65565b8060045582519182526020820152a1005b61025c818484610b41565b3590602061026b828686610b41565b0135604061027a838787610b41565b01359260ff84168403610136576001936102a392606061029b868a8a610b41565b013592610c17565b0161020a565b6306427aeb60e01b5f5260045260245260445ffd5b8263533dcfcf60e11b5f5260045260245ffd5b63c2e5347d60e01b5f5260045ffd5b6323dcdd9b60e01b5f523360045260245ffd5b346101365761030a61030436610b05565b90610b1b565b5f52600260205260405f2054610e10810180911161033057602090604051904210158152f35b634e487b7160e01b5f52601160045260245ffd5b346101365760403660031901126101365761035d610acd565b6024359081151580920361013657610373610be4565b6001600160a01b03169081156103c85760207f82a8fb1e779ea45ad427cc612e47087f5386a567e49dce488185e40646fa48d591835f526001825260405f2060ff1981541660ff8316179055604051908152a2005b63d92e233d60e01b5f5260045ffd5b34610136576060366003190112610136576103f0610acd565b6024356001600160a01b03811690819003610136576044356001600160a01b0381169190829003610136575f516020610ef95f395f51905f52549260ff8460401c16159367ffffffffffffffff8116801590816105c8575b60011490816105be575b1590816105b5575b506105a65767ffffffffffffffff1981166001175f516020610ef95f395f51905f52558461057a575b506001600160a01b038116158015610572575b801561056a575b6103c8576104b5906104ad610e01565b61012f610e01565b6bffffffffffffffffffffffff60a01b5f5416175f55805f52600160205260405f20600160ff198254161790557f82a8fb1e779ea45ad427cc612e47087f5386a567e49dce488185e40646fa48d5602060405160018152a261051357005b68ff0000000000000000195f516020610ef95f395f51905f5254165f516020610ef95f395f51905f52557fc7f505b2f371ae2175ee4913f4499e1f2633a7b5936321eed1cdaeb6115181d2602060405160018152a1005b50821561049d565b508115610496565b68ffffffffffffffffff191668010000000000000001175f516020610ef95f395f51905f525584610483565b63f92ee8a960e01b5f5260045ffd5b9050158661045a565b303b159150610452565b869150610448565b346101365760206105e361030436610b05565b604051908152f35b34610136575f366003190112610136576020604051610e108152f35b34610136575f366003190112610136576020600454604051908152f35b34610136575f3660031901126101365760408051906106438183610ae3565b600582526020820191640352e302e360dc1b83528151928391602083525180918160208501528484015e5f828201840152601f01601f19168101030190f35b34610136575f366003190112610136575f546040516001600160a01b039091168152602090f35b346101365760803660031901126101365760443560ff8116810361013657335f52600160205260ff60405f205416156102e0576101349060643590602435600435610c17565b34610136575f366003190112610136575f516020610eb95f395f51905f52546040516001600160a01b039091168152602090f35b34610136575f3660031901126101365761073b610be4565b5f516020610eb95f395f51905f5280546001600160a01b031981169091555f906001600160a01b03167f8be0079c531659141344cd1fd0a4f28419497f9722a3daafe3b4186f6b6457e08280a3005b34610136576020366003190112610136576107a3610acd565b6107ab610be4565b6001600160a01b031680156103c8576bffffffffffffffffffffffff60a01b5f5416175f555f80f35b34610136576020366003190112610136576001600160a01b036107f5610acd565b165f526001602052602060ff60405f2054166040519015158152f35b34610136575f366003190112610136577f00000000000000000000000000000000000000000000000000000000000000006001600160a01b031630036108685760206040515f516020610ed95f395f51905f528152f35b63703e46dd60e11b5f5260045ffd5b60403660031901126101365761088b610acd565b6024359067ffffffffffffffff8211610136573660238301121561013657816004013567ffffffffffffffff8111610a7b57604051926108d5601f8301601f191660200185610ae3565b818452366024838301011161013657815f9260246020930183870137840101526001600160a01b037f000000000000000000000000000000000000000000000000000000000000000016308114908115610a59575b5061086857610937610be4565b6040516352d1902d60e01b81526001600160a01b0382169290602081600481875afa5f9181610a25575b506109795783634c9c8ce360e01b5f5260045260245ffd5b805f516020610ed95f395f51905f52859203610a135750823b15610a01575f516020610ed95f395f51905f5280546001600160a01b031916821790557fbc7cd75a20ee27fd9adebab32041f755214dbc6bffa90cc0225b39da2e5c2d3b5f80a28051156109e95761013491610e2c565b5050346109f257005b63b398979f60e01b5f5260045ffd5b634c9c8ce360e01b5f5260045260245ffd5b632a87526960e21b5f5260045260245ffd5b9091506020813d602011610a51575b81610a4160209383610ae3565b8101031261013657519085610961565b3d9150610a34565b5f516020610ed95f395f51905f52546001600160a01b0316141590508361092a565b634e487b7160e01b5f52604160045260245ffd5b34610136575f366003190112610136576020600354604051908152f35b3461013657602036600319011261013657610ac5610be4565b600480359055005b600435906001600160a01b038216820361013657565b90601f8019910116810190811067ffffffffffffffff821117610a7b57604052565b6040906003190112610136576004359060243590565b906040519060208201928352604082015260408152610b3b606082610ae3565b51902090565b9190811015610b515760a0020190565b634e487b7160e01b5f52603260045260245ffd5b5f1981146103305760010190565b6001600160a01b03168015610bd1575f516020610eb95f395f51905f5280546001600160a01b0319811683179091556001600160a01b03167f8be0079c531659141344cd1fd0a4f28419497f9722a3daafe3b4186f6b6457e05f80a3565b631e4fbdf760e01b5f525f60045260245ffd5b5f516020610eb95f395f51905f52546001600160a01b03163303610c0457565b63118cdaa760e01b5f523360045260245ffd5b919092610c248484610b1b565b905f90825f52600260205260405f2054610e108101809111610330574210610dea5760018060a01b035f5416604051637182ef5160e11b815286600482015287602482015260c081604481855afa5f9181610d4f575b50610c89575050505050505050565b6020015160ff1692813b15610136575f886084898360ff6040519b8c958694639c9d845960e01b86526004860152602485015216968760448401528860648401525af1948515610d44577f63988e123494e310004ed66fc932a30801e74f54d4debc3e9424977007030ff296606096610d2f575b5081526002602052604042912055610d16600354610b65565b60035560ff6040519316835260208301526040820152a3565b610d3c9192505f90610ae3565b5f905f610cfd565b6040513d5f823e3d90fd5b90915060c0813d60c011610de2575b81610d6b60c09383610ae3565b81010312610136576040519060c0820182811067ffffffffffffffff821117610a7b576040528051825260208101519060ff821682036101365760a0916020840152604081015160408401526060810151606084015260808101516080840152015180151581036101365760a0820152905f610c7a565b3d9150610d5e565b85856372012c9960e11b5f5260045260245260445ffd5b60ff5f516020610ef95f395f51905f525460401c1615610e1d57565b631afcd79f60e31b5f5260045ffd5b905f8091602081519101845af48080610ea5575b15610e605750506040513d81523d5f602083013e60203d82010160405290565b15610e8557639996b31560e01b5f9081526001600160a01b0391909116600452602490fd5b3d15610e96576040513d5f823e3d90fd5b63d6bda27560e01b5f5260045ffd5b503d151580610e405750813b1515610e4056fe9016d09d72d40fdae2fd8ceac6b6234c7706214fd39c1cd1e609a0528c199300360894a13ba1a3210667c828492db98dca3e2076cc3735a920a3ca505d382bbcf0c57e16840df040f15088dc2f81fe391c3923bec73e23a9662efc9c229c6a00a264697066735822122036e620cb22f17a1d92e07ff7d25db7eb2d7d2f7d548f23bb8c5693a652caaf0b64736f6c634300081b0033f0c57e16840df040f15088dc2f81fe391c3923bec73e23a9662efc9c229c6a00","linkReferences":{}},"methodIdentifiers":{"MAX_BATCH_SIZE()":"cfdbf254","MIN_UPDATE_INTERVAL()":"bd3be27c","UPGRADE_INTERFACE_VERSION()":"ad3cb1cc","authorizedOracles(address)":"61c992a3","batchUpdateLevels((uint256,uint256,uint8,uint256,uint256)[],uint256)":"cb2f2e13","canUpdate(uint256,uint256)":"c9a8ce68","getCurrentNonce()":"3a60c386","getUpdateKey(uint256,uint256)":"c0a91375","initialize(address,address,address)":"c0c53b8b","lastUpdateTimestamp(bytes32)":"e4f269ec","nonce()":"affed0e0","owner()":"8da5cb5b","professionRegistry()":"a162a869","proxiableUUID()":"52d1902d","renounceOwnership()":"715018a6","resetNonce(uint256)":"1ff2d6f6","setAuthorizedOracle(address,bool)":"c7a6de4d","setProfessionRegistry(address)":"6f454a5b","totalUpdatesProcessed()":"36a57544","transferOwnership(address)":"f2fde38b","updateLevel(uint256,uint256,uint8,uint256)":"9c9d8459","upgradeToAndCall(address,bytes)":"4f1ef286"},"id":67}