{"abi":[{"type":"function","name":"allowance","inputs":[{"name":"owner","type":"address","internalType":"address"},{"name":"spender","type":"address","internalType":"address"},{"name":"id","type":"uint256","internalType":"uint256"}],"outputs":[{"name":"","type":"uint256","internalType":"uint256"}],"stateMutability":"view"},{"type":"function","name":"approve","inputs":[{"name":"spender","type":"address","internalType":"address"},{"name":"id","type":"uint256","internalType":"uint256"},{"name":"amount","type":"uint256","internalType":"uint256"}],"outputs":[{"name":"","type":"bool","internalType":"bool"}],"stateMutability":"nonpayable"},{"type":"function","name":"balanceOf","inputs":[{"name":"owner","type":"address","internalType":"address"},{"name":"id","type":"uint256","internalType":"uint256"}],"outputs":[{"name":"","type":"uint256","internalType":"uint256"}],"stateMutability":"view"},{"type":"function","name":"isOperator","inputs":[{"name":"owner","type":"address","internalType":"address"},{"name":"spender","type":"address","internalType":"address"}],"outputs":[{"name":"","type":"bool","internalType":"bool"}],"stateMutability":"view"},{"type":"function","name":"setOperator","inputs":[{"name":"spender","type":"address","internalType":"address"},{"name":"approved","type":"bool","internalType":"bool"}],"outputs":[{"name":"","type":"bool","internalType":"bool"}],"stateMutability":"nonpayable"},{"type":"function","name":"supportsInterface","inputs":[{"name":"interfaceId","type":"bytes4","internalType":"bytes4"}],"outputs":[{"name":"","type":"bool","internalType":"bool"}],"stateMutability":"view"},{"type":"function","name":"transfer","inputs":[{"name":"receiver","type":"address","internalType":"address"},{"name":"id","type":"uint256","internalType":"uint256"},{"name":"amount","type":"uint256","internalType":"uint256"}],"outputs":[{"name":"","type":"bool","internalType":"bool"}],"stateMutability":"nonpayable"},{"type":"function","name":"transferFrom","inputs":[{"name":"sender","type":"address","internalType":"address"},{"name":"receiver","type":"address","internalType":"address"},{"name":"id","type":"uint256","internalType":"uint256"},{"name":"amount","type":"uint256","internalType":"uint256"}],"outputs":[{"name":"","type":"bool","internalType":"bool"}],"stateMutability":"nonpayable"},{"type":"event","name":"Approval","inputs":[{"name":"owner","type":"address","indexed":true,"internalType":"address"},{"name":"spender","type":"address","indexed":true,"internalType":"address"},{"name":"id","type":"uint256","indexed":true,"internalType":"uint256"},{"name":"amount","type":"uint256","indexed":false,"internalType":"uint256"}],"anonymous":false},{"type":"event","name":"OperatorSet","inputs":[{"name":"owner","type":"address","indexed":true,"internalType":"address"},{"name":"spender","type":"address","indexed":true,"internalType":"address"},{"name":"approved","type":"bool","indexed":false,"internalType":"bool"}],"anonymous":false},{"type":"event","name":"Transfer","inputs":[{"name":"caller","type":"address","indexed":false,"internalType":"address"},{"name":"sender","type":"address","indexed":true,"internalType":"address"},{"name":"receiver","type":"address","indexed":true,"internalType":"address"},{"name":"id","type":"uint256","indexed":true,"internalType":"uint256"},{"name":"amount","type":"uint256","indexed":false,"internalType":"uint256"}],"anonymous":false},{"type":"error","name":"ERC6909InsufficientAllowance","inputs":[{"name":"spender","type":"address","internalType":"address"},{"name":"allowance","type":"uint256","internalType":"uint256"},{"name":"needed","type":"uint256","internalType":"uint256"},{"name":"id","type":"uint256","internalType":"uint256"}]},{"type":"error","name":"ERC6909InsufficientBalance","inputs":[{"name":"sender","type":"address","internalType":"address"},{"name":"balance","type":"uint256","internalType":"uint256"},{"name":"needed","type":"uint256","internalType":"uint256"},{"name":"id","type":"uint256","internalType":"uint256"}]},{"type":"error","name":"ERC6909InvalidApprover","inputs":[{"name":"approver","type":"address","internalType":"address"}]},{"type":"error","name":"ERC6909InvalidReceiver","inputs":[{"name":"receiver","type":"address","internalType":"address"}]},{"type":"error","name":"ERC6909InvalidSender","inputs":[{"name":"sender","type":"address","internalType":"address"}]},{"type":"error","name":"ERC6909InvalidSpender","inputs":[{"name":"spender","type":"address","internalType":"address"}]}],"bytecode":{"object":"0x608080604052346015576105d5908161001a8239f35b5f80fdfe6080806040526004361015610012575f80fd5b5f3560e01c908162fdd58e146103e75750806301ffc9a714610391578063095bcdb614610379578063426a8493146102fa578063558a72971461023d578063598af9e7146101e3578063b6363cf21461018c5763fe99049a14610073575f80fd5b346101885760803660031901126101885761008c610425565b61009461043b565b6001600160a01b0382169160643591604435913385141580610165575b6100cb575b6100c0945061047b565b602060405160018152f35b5f85815260026020908152604080832033845282528083208684529091529020545f1981106100fb575b506100b6565b8481106101375784906100c0965f52600260205260405f2060018060a01b0333165f5260205260405f20855f526020520360405f20555f6100f5565b604051632c51fead60e11b815233600482015260248101919091526044810185905260648101849052608490fd5b505f85815260016020908152604080832033845290915290205460ff16156100b1565b5f80fd5b34610188576040366003190112610188576101a5610425565b6101ad61043b565b9060018060a01b03165f52600160205260405f209060018060a01b03165f52602052602060ff60405f2054166040519015158152f35b34610188576060366003190112610188576101fc610425565b61020461043b565b6001600160a01b039182165f90815260026020908152604080832094909316825292835281812060443582528352819020549051908152f35b3461018857604036600319011261018857610256610425565b602435908115158092036101885733156102e7576001600160a01b03169081156102d457335f52600160205260405f20825f5260205260405f2060ff1981541660ff83161790556040519081527fceb576d9f15e4e200fdb5096d64d5dfd667e16def20c1eefd14256d8e3faa26760203392a3602060405160018152f35b636f65f46560e01b5f525f60045260245ffd5b63198ecd5360e31b5f525f60045260245ffd5b346101885761030836610451565b909133156102e7576001600160a01b03169081156102d457335f52600260205260405f20825f5260205260405f20835f526020528060405f20556040519081527fb3fd5071835887567a0671151121894ddccc2842f1d10bedad13e0d17cace9a760203392a4602060405160018152f35b34610188576100c061038a36610451565b913361047b565b346101885760203660031901126101885760043563ffffffff60e01b811680910361018857602090630f632fb360e01b81149081156103d6575b506040519015158152f35b6301ffc9a760e01b149050826103cb565b34610188576040366003190112610188576020906001600160a01b0361040b610425565b165f525f825260405f206024355f52825260405f20548152f35b600435906001600160a01b038216820361018857565b602435906001600160a01b038216820361018857565b6060906003190112610188576004356001600160a01b038116810361018857906024359060443590565b91926001600160a01b03831691821561058c576001600160a01b031692831561057957825f525f60205260405f20855f5260205260405f20549082821061054057508190835f525f60205260405f20865f526020520360405f2055825f525f60205260405f20845f5260205260405f2080549180830180931161052c577f1b3d7edb2e9c0b0e7c525b20aaaef0f5940d2ed71663c7d39266ecafac72885992604092558151903382526020820152a4565b634e487b7160e01b5f52601160045260245ffd5b6040516302c6d3fb60e61b81526001600160a01b0391909116600482015260248101919091526044810182905260648101859052608490fd5b630b8bbd6160e41b5f525f60045260245ffd5b6301486a4160e71b5f525f60045260245ffdfea264697066735822122065324f4fc8a0594a0a1a07e753d5983326fa67a3c7e9d8fdbba70c77f70c2eb964736f6c634300081b0033","linkReferences":{}},"methodIdentifiers":{"allowance(address,address,uint256)":"598af9e7","approve(address,uint256,uint256)":"426a8493","balanceOf(address,uint256)":"00fdd58e","isOperator(address,address)":"b6363cf2","setOperator(address,bool)":"558a7297","supportsInterface(bytes4)":"01ffc9a7","transfer(address,uint256,uint256)":"095bcdb6","transferFrom(address,address,uint256,uint256)":"fe99049a"},"id":526}