{"abi":[{"type":"constructor","inputs":[],"stateMutability":"nonpayable"},{"type":"receive","stateMutability":"payable"},{"type":"function","name":"BASE_REFERRAL_REWARD","inputs":[],"outputs":[{"name":"","type":"uint256","internalType":"uint256"}],"stateMutability":"view"},{"type":"function","name":"LEVEL_BONUS_PER_LEVEL","inputs":[],"outputs":[{"name":"","type":"uint256","internalType":"uint256"}],"stateMutability":"view"},{"type":"function","name":"MAX_LEADERBOARD_SIZE","inputs":[],"outputs":[{"name":"","type":"uint256","internalType":"uint256"}],"stateMutability":"view"},{"type":"function","name":"MAX_REFERRAL_DEPTH","inputs":[],"outputs":[{"name":"","type":"uint256","internalType":"uint256"}],"stateMutability":"view"},{"type":"function","name":"PRECISION","inputs":[],"outputs":[{"name":"","type":"uint256","internalType":"uint256"}],"stateMutability":"view"},{"type":"function","name":"TIER2_REWARD","inputs":[],"outputs":[{"name":"","type":"uint256","internalType":"uint256"}],"stateMutability":"view"},{"type":"function","name":"TIER3_REWARD","inputs":[],"outputs":[{"name":"","type":"uint256","internalType":"uint256"}],"stateMutability":"view"},{"type":"function","name":"UPGRADE_INTERFACE_VERSION","inputs":[],"outputs":[{"name":"","type":"string","internalType":"string"}],"stateMutability":"view"},{"type":"function","name":"claimRewards","inputs":[],"outputs":[],"stateMutability":"nonpayable"},{"type":"function","name":"createReferralCode","inputs":[{"name":"personaId","type":"uint256","internalType":"uint256"},{"name":"code","type":"string","internalType":"string"}],"outputs":[],"stateMutability":"nonpayable"},{"type":"function","name":"getLeaderboard","inputs":[{"name":"limit","type":"uint256","internalType":"uint256"}],"outputs":[{"name":"","type":"tuple[]","internalType":"struct ReferralSystem.LeaderboardEntry[]","components":[{"name":"personaId","type":"uint256","internalType":"uint256"},{"name":"referralCount","type":"uint256","internalType":"uint256"},{"name":"totalEarnings","type":"uint256","internalType":"uint256"}]}],"stateMutability":"view"},{"type":"function","name":"getPendingRewards","inputs":[{"name":"user","type":"address","internalType":"address"}],"outputs":[{"name":"","type":"uint256","internalType":"uint256"}],"stateMutability":"view"},{"type":"function","name":"getPersonaReferralCode","inputs":[{"name":"personaId","type":"uint256","internalType":"uint256"}],"outputs":[{"name":"","type":"tuple","internalType":"struct ReferralSystem.ReferralCode","components":[{"name":"personaId","type":"uint256","internalType":"uint256"},{"name":"owner","type":"address","internalType":"address"},{"name":"code","type":"string","internalType":"string"},{"name":"uses","type":"uint256","internalType":"uint256"},{"name":"totalEarnings","type":"uint256","internalType":"uint256"},{"name":"createdAt","type":"uint256","internalType":"uint256"},{"name":"active","type":"bool","internalType":"bool"}]}],"stateMutability":"view"},{"type":"function","name":"getPersonaStats","inputs":[{"name":"personaId","type":"uint256","internalType":"uint256"}],"outputs":[{"name":"referralCount","type":"uint256","internalType":"uint256"},{"name":"totalEarnings","type":"uint256","internalType":"uint256"}],"stateMutability":"view"},{"type":"function","name":"getReferralChain","inputs":[{"name":"personaId","type":"uint256","internalType":"uint256"}],"outputs":[{"name":"","type":"tuple","internalType":"struct ReferralSystem.ReferralChain","components":[{"name":"tier1PersonaId","type":"uint256","internalType":"uint256"},{"name":"tier2PersonaId","type":"uint256","internalType":"uint256"},{"name":"tier3PersonaId","type":"uint256","internalType":"uint256"}]}],"stateMutability":"view"},{"type":"function","name":"getReferralCode","inputs":[{"name":"code","type":"string","internalType":"string"}],"outputs":[{"name":"","type":"tuple","internalType":"struct ReferralSystem.ReferralCode","components":[{"name":"personaId","type":"uint256","internalType":"uint256"},{"name":"owner","type":"address","internalType":"address"},{"name":"code","type":"string","internalType":"string"},{"name":"uses","type":"uint256","internalType":"uint256"},{"name":"totalEarnings","type":"uint256","internalType":"uint256"},{"name":"createdAt","type":"uint256","internalType":"uint256"},{"name":"active","type":"bool","internalType":"bool"}]}],"stateMutability":"view"},{"type":"function","name":"initialize","inputs":[{"name":"owner_","type":"address","internalType":"address"},{"name":"personaRegistry_","type":"address","internalType":"address"}],"outputs":[],"stateMutability":"nonpayable"},{"type":"function","name":"isValidCode","inputs":[{"name":"code","type":"string","internalType":"string"}],"outputs":[{"name":"","type":"bool","internalType":"bool"}],"stateMutability":"view"},{"type":"function","name":"owner","inputs":[],"outputs":[{"name":"","type":"address","internalType":"address"}],"stateMutability":"view"},{"type":"function","name":"personaRegistry","inputs":[],"outputs":[{"name":"","type":"address","internalType":"contract IPersonaRegistry"}],"stateMutability":"view"},{"type":"function","name":"proxiableUUID","inputs":[],"outputs":[{"name":"","type":"bytes32","internalType":"bytes32"}],"stateMutability":"view"},{"type":"function","name":"recordReferral","inputs":[{"name":"newPersonaId","type":"uint256","internalType":"uint256"},{"name":"referralCode","type":"string","internalType":"string"}],"outputs":[],"stateMutability":"payable"},{"type":"function","name":"renounceOwnership","inputs":[],"outputs":[],"stateMutability":"nonpayable"},{"type":"function","name":"totalReferrals","inputs":[],"outputs":[{"name":"","type":"uint256","internalType":"uint256"}],"stateMutability":"view"},{"type":"function","name":"totalRewardsPaid","inputs":[],"outputs":[{"name":"","type":"uint256","internalType":"uint256"}],"stateMutability":"view"},{"type":"function","name":"transferOwnership","inputs":[{"name":"newOwner","type":"address","internalType":"address"}],"outputs":[],"stateMutability":"nonpayable"},{"type":"function","name":"upgradeToAndCall","inputs":[{"name":"newImplementation","type":"address","internalType":"address"},{"name":"data","type":"bytes","internalType":"bytes"}],"outputs":[],"stateMutability":"payable"},{"type":"event","name":"Initialized","inputs":[{"name":"version","type":"uint64","indexed":false,"internalType":"uint64"}],"anonymous":false},{"type":"event","name":"OwnershipTransferred","inputs":[{"name":"previousOwner","type":"address","indexed":true,"internalType":"address"},{"name":"newOwner","type":"address","indexed":true,"internalType":"address"}],"anonymous":false},{"type":"event","name":"ReferralCodeCreated","inputs":[{"name":"personaId","type":"uint256","indexed":true,"internalType":"uint256"},{"name":"code","type":"string","indexed":false,"internalType":"string"}],"anonymous":false},{"type":"event","name":"ReferralRewardEarned","inputs":[{"name":"personaId","type":"uint256","indexed":true,"internalType":"uint256"},{"name":"amount","type":"uint256","indexed":false,"internalType":"uint256"},{"name":"tier","type":"uint8","indexed":false,"internalType":"uint8"}],"anonymous":false},{"type":"event","name":"ReferralUsed","inputs":[{"name":"newPersonaId","type":"uint256","indexed":true,"internalType":"uint256"},{"name":"referrerPersonaId","type":"uint256","indexed":true,"internalType":"uint256"},{"name":"code","type":"string","indexed":false,"internalType":"string"}],"anonymous":false},{"type":"event","name":"RewardsClaimed","inputs":[{"name":"user","type":"address","indexed":true,"internalType":"address"},{"name":"amount","type":"uint256","indexed":false,"internalType":"uint256"}],"anonymous":false},{"type":"event","name":"Upgraded","inputs":[{"name":"implementation","type":"address","indexed":true,"internalType":"address"}],"anonymous":false},{"type":"error","name":"AddressEmptyCode","inputs":[{"name":"target","type":"address","internalType":"address"}]},{"type":"error","name":"AlreadyReferred","inputs":[]},{"type":"error","name":"CodeAlreadyExists","inputs":[]},{"type":"error","name":"CodeNotActive","inputs":[]},{"type":"error","name":"ERC1967InvalidImplementation","inputs":[{"name":"implementation","type":"address","internalType":"address"}]},{"type":"error","name":"ERC1967NonPayable","inputs":[]},{"type":"error","name":"FailedCall","inputs":[]},{"type":"error","name":"InvalidCode","inputs":[]},{"type":"error","name":"InvalidInitialization","inputs":[]},{"type":"error","name":"NoRewardsToClaim","inputs":[]},{"type":"error","name":"NotInitializing","inputs":[]},{"type":"error","name":"NotPersonaOwner","inputs":[]},{"type":"error","name":"OwnableInvalidOwner","inputs":[{"name":"owner","type":"address","internalType":"address"}]},{"type":"error","name":"OwnableUnauthorizedAccount","inputs":[{"name":"account","type":"address","internalType":"address"}]},{"type":"error","name":"ReentrancyGuardReentrantCall","inputs":[]},{"type":"error","name":"SelfReferralNotAllowed","inputs":[]},{"type":"error","name":"TransferFailed","inputs":[]},{"type":"error","name":"UUPSUnauthorizedCallContext","inputs":[]},{"type":"error","name":"UUPSUnsupportedProxiableUUID","inputs":[{"name":"slot","type":"bytes32","internalType":"bytes32"}]},{"type":"error","name":"ZeroAddress","inputs":[]}],"bytecode":{"object":"0x60a080604052346100e65760017f9b779b17422d0df92223018b32b4d1fa46e071723d6817e2486d003becc55f0055306080525f516020611f175f395f51905f525460ff8160401c166100d7576002600160401b03196001600160401b03821601610084575b604051611e2c90816100eb8239608051818181610d180152610dbb0152f35b6001600160401b0319166001600160401b039081175f516020611f175f395f51905f525581527fc7f505b2f371ae2175ee4913f4499e1f2633a7b5936321eed1cdaeb6115181d290602090a15f80610065565b63f92ee8a960e01b5f5260045ffd5b5f80fdfe6080604052600436101561001a575b3615610018575f80fd5b005b5f3560e01c8063024b53fc1461160357806312befd03146115925780631588609314611576578063196f49141461155957806325ed64a0146114cf578063372500ab146113f0578063419168ce146110d7578063485cc95514610f375780634f1ef28614610d6c57806352d1902d14610d0657806366d0447814610b88578063715018a614610b2157806374958e3514610b0457806383dbb7aa14610add57806389e59ea014610ac25780638da5cb5b14610a8e578063a34b46fe1461094c578063a78d11ec14610289578063aaf5eb681461026d578063ad3cb1cc14610222578063db87714214610167578063de9f3bb6146101e8578063e8eebf2e146101cd578063f2fde38b146101a4578063f6ed20171461016c578063fc22c2fd146101675763fd1ab1620361000e5734610163575f3660031901126101635760206040516103e88152f35b5f80fd5b61188f565b34610163576020366003190112610163576001600160a01b0361018d6117d1565b165f526006602052602060405f2054604051908152f35b34610163576020366003190112610163576100186101c06117d1565b6101c8611c8c565b611af5565b34610163575f36600319011261016357602060405160c88152f35b34610163576020366003190112610163576040600435805f526004602052815f2054905f526005602052815f205482519182526020820152f35b34610163575f3660031901126101635761026960405161024360408261181d565b60058152640352e302e360dc1b60208201526040519182916020835260208301906116eb565b0390f35b34610163575f3660031901126101635760206040516127108152f35b6102923661179e565b9161029b611c54565b6102ae6102a9368585611859565b611b77565b6040516102da6020828180820195805191829101875e81015f838201520301601f19810183528261181d565b5190205f52600160205260405f209260ff6006850154161561093d575f80546040516314f9dc8b60e01b8152600481018590529190829060249082906001600160a01b03165afa9081156106df575f91610923575b506020015160018501546001600160a01b0390811691161461091457815f52600360205260405f205461090557610364611919565b84548082525f52600360205260405f2060405161038081611802565b81549081815260406002600185015494602084019586520154910152806108e8575b5050825f52600360205260405f20815181556020820180516001830155604083019160028351910155600387016103d98154611ae7565b905586545f52600460205260405f206103f28154611ae7565b90556103ff600754611ae7565b60075534159283156105ce575b50508554600954925090505f805b8381106105a6575b50158061059c575b61055d575b50509290915f925b60095484101561051357600184018085116104ff575b6009548110156104f35780610463600192611aa7565b90549060031b1c5f52600460205260405f205461047f87611aa7565b90549060031b1c5f52600460205260405f20541061049e575b0161044d565b6104ee6104aa87611aa7565b90549060031b1c6104e56104bd84611aa7565b90549060031b1c6104cd8a611aa7565b90919082549060031b91821b915f19901b1916179055565b6104cd83611aa7565b610498565b50600190930192610437565b634e487b7160e01b5f52601160045260245ffd5b7fe54f7d2d31d965047e28742ef7aed144b907f7a1aefbc785ddc3b1bdfdf2652e8584549361054760405192839283611a69565b0390a360015f516020611db75f395f51905f5255005b68010000000000000000821015610588576104cd8260016105819401600955611aa7565b848061042f565b634e487b7160e01b5f52604160045260245ffd5b506064821061042a565b826105b082611aa7565b90549060031b1c146105c45760010161041a565b5050600187610422565b805190816107cf575b5050805190816106ea575b5050805191826105f3575b8061040c565b5f80546040516314f9dc8b60e01b81526004810195909552849060249082906001600160a01b03165afa9283156106df575f936106bb575b50606434029034820460641417156104ff577feaaebc79d4602e9079b3d4185a203ceaa6bb7bc0120ea5290b6bbe12e72ed7c6916127106040920493602060018060a01b03910151165f526006602052815f20610689858254611937565b905580515f526005602052815f206106a2858254611937565b90555192815190815260036020820152a28480806105ed565b6106d89193503d805f833e6106d0818361181d565b81019061198a565b918761062b565b6040513d5f823e3d90fd5b5f80546040516314f9dc8b60e01b81526004810194909452839060249082906001600160a01b03165afa9182156106df575f926107b3575b5061012c340234810461012c148517156104ff577feaaebc79d4602e9079b3d4185a203ceaa6bb7bc0120ea5290b6bbe12e72ed7c6916127106040920493602060018060a01b03910151165f526006602052815f20610782858254611937565b905580515f526005602052815f2061079b858254611937565b90555192815190815260026020820152a286806105e2565b6107c89192503d805f833e6106d0818361181d565b9088610722565b5f80546040516314f9dc8b60e01b81526004810194909452839060249082906001600160a01b03165afa9182156106df575f926108cc575b506103e834023481046103e8148617156104ff577feaaebc79d4602e9079b3d4185a203ceaa6bb7bc0120ea5290b6bbe12e72ed7c6916127106040920493602060018060a01b03910151165f526006602052815f20610867858254611937565b905580515f526005602052815f20610880858254611937565b905580515f526002602052815f2054806108ac575b505192815190815260016020820152a287806105d7565b5f5260016020526004825f20016108c4858254611937565b90558b610895565b6108e19192503d805f833e6106d0818361181d565b9089610807565b602083015251806108fa575b806103a2565b6040820152856108f4565b637aabdfe360e01b5f5260045ffd5b6341a31fa560e11b5f5260045ffd5b61093791503d805f833e6106d0818361181d565b8561032f565b63c6236f6f60e01b5f5260045ffd5b34610163576020366003190112610163576004356009548082105f14610a8757505b61097781611a90565b90610985604051928361181d565b808252601f1961099482611a90565b015f5b818110610a705750505f5b818110610a0d57826040518091602082016020835281518091526020604084019201905f5b8181106109d5575050500390f35b9193509160206060826109ff60019488516040809180518452602081015160208501520151910152565b0194019101918493926109c7565b80610a19600192611aa7565b90549060031b1c805f52600460205260405f2054815f52600560205260405f20549060405192610a4884611802565b835260208301526040820152610a5e8286611ad3565b52610a698185611ad3565b50016109a2565b602090610a7b611919565b82828701015201610997565b905061096e565b34610163575f366003190112610163575f516020611d775f395f51905f52546040516001600160a01b039091168152602090f35b34610163575f36600319011261016357602060405160038152f35b34610163575f366003190112610163575f546040516001600160a01b039091168152602090f35b34610163575f366003190112610163576020600854604051908152f35b34610163575f36600319011261016357610b39611c8c565b5f516020611d775f395f51905f5280546001600160a01b031981169091555f906001600160a01b03167f8be0079c531659141344cd1fd0a4f28419497f9722a3daafe3b4186f6b6457e08280a3005b34610163576020366003190112610163576004356001600160401b038111610163576102a9610bbe610bce923690600401611771565b610bc66118aa565b503691611859565b604051610bfa6020828180820195805191829101875e81015f838201520301601f19810183528261181d565b5190205f52600160205260405f20604051610c14816117e7565b8154815260018201546001600160a01b031660208201526040516002830180545f91610c3f826118e1565b8085529160018116908115610ce15750600114610ca6575b6102698560ff60068988610c6d818a038261181d565b60408501526003810154606085015260048101546080850152600581015460a0850152015416151560c08201526040519182918261170f565b5f908152602081209092505b818310610cc757505081016020018382610c57565b600181602092949394548385880101520191019190610cb2565b60ff191660208087019190915292151560051b85019092019250859150839050610c57565b34610163575f366003190112610163577f00000000000000000000000000000000000000000000000000000000000000006001600160a01b03163003610d5d5760206040515f516020611d975f395f51905f528152f35b63703e46dd60e11b5f5260045ffd5b604036600319011261016357610d806117d1565b6024356001600160401b038111610163573660238201121561016357610db0903690602481600401359101611859565b906001600160a01b037f000000000000000000000000000000000000000000000000000000000000000016308114908115610f15575b50610d5d57610df3611c8c565b6040516352d1902d60e01b81526001600160a01b0382169290602081600481875afa5f9181610ee1575b50610e355783634c9c8ce360e01b5f5260045260245ffd5b805f516020611d975f395f51905f52859203610ecf5750823b15610ebd575f516020611d975f395f51905f5280546001600160a01b031916821790557fbc7cd75a20ee27fd9adebab32041f755214dbc6bffa90cc0225b39da2e5c2d3b5f80a2805115610ea55761001891611cea565b505034610eae57005b63b398979f60e01b5f5260045ffd5b634c9c8ce360e01b5f5260045260245ffd5b632a87526960e21b5f5260045260245ffd5b9091506020813d602011610f0d575b81610efd6020938361181d565b8101031261016357519085610e1d565b3d9150610ef0565b5f516020611d975f395f51905f52546001600160a01b03161415905083610de6565b3461016357604036600319011261016357610f506117d1565b6024356001600160a01b03811690819003610163575f516020611dd75f395f51905f52549160ff8360401c1615926001600160401b038116801590816110cf575b60011490816110c5575b1590816110bc575b506110ad5767ffffffffffffffff1981166001175f516020611dd75f395f51905f525583611081575b506001600160a01b038116158015611079575b61106a57610ff790610fef611cbf565b6101c8611cbf565b6bffffffffffffffffffffffff60a01b5f5416175f5561101357005b68ff0000000000000000195f516020611dd75f395f51905f5254165f516020611dd75f395f51905f52557fc7f505b2f371ae2175ee4913f4499e1f2633a7b5936321eed1cdaeb6115181d2602060405160018152a1005b63d92e233d60e01b5f5260045ffd5b508115610fdf565b68ffffffffffffffffff191668010000000000000001175f516020611dd75f395f51905f525583610fcc565b63f92ee8a960e01b5f5260045ffd5b90501585610fa3565b303b159150610f9b565b859150610f91565b34610163576110e53661179e565b5f80546040516314f9dc8b60e01b8152600481018690529394939190829060249082906001600160a01b03165afa9081156106df575f916113d6575b50602001516001600160a01b031633036113c7576111436102a9368386611859565b60405161116f6020828180820195805191829101875e81015f838201520301601f19810183528261181d565b51902092835f52600160205260ff600660405f200154166113b857825f52600260205260405f20546113b857604051936111a8856117e7565b838552602085013381526111bd368585611859565b9560408101968752606081015f8152608082015f815260a083019142835260c084019460018652865f52600160205260405f2094518555600185019060018060a01b039051166bffffffffffffffffffffffff60a01b825416179055600284019951998a516001600160401b0381116105885761123a82546118e1565b601f8111611373575b506020601f82116001146112e857908060069796959493927ff53fa90e4442dfd6ffc9aa1636754a6b52db5a60aabb6ed7cb14dd2db95346879d9e5f926112dd575b50508160011b915f199060031b1c19161790555b516003840155516004830155516005820155019051151560ff80198354169116179055845f52600260205260405f20556112d860405192839283611a69565b0390a2005b015190508e80611285565b601f19821690835f52805f20915f5b81811061135b57509183917ff53fa90e4442dfd6ffc9aa1636754a6b52db5a60aabb6ed7cb14dd2db95346879e9f60069a999897969560019510611343575b505050811b019055611299565b01515f1960f88460031b161c191690558e8080611336565b8f8301518455600190930192602092830192016112f7565b825f5260205f20601f830160051c810191602084106113ae575b601f0160051c01905b8181106113a35750611243565b5f8155600101611396565b909150819061138d565b636b3d055d60e11b5f5260045ffd5b637cbd610160e01b5f5260045ffd5b6113ea91503d805f833e6106d0818361181d565b84611121565b34610163575f36600319011261016357611408611c54565b335f52600660205260405f205480156114c057335f5260066020525f604081205561143581600854611937565b6008555f80808084335af13d156114bb573d6114508161183e565b9061145e604051928361181d565b81525f60203d92013e5b156114ac576040519081527ffc30cddea38e2bf4d6ea7d3f9ed3b6ad7f176419f4963bd81318067a4aee73fe60203392a260015f516020611db75f395f51905f5255005b6312171d8360e31b5f5260045ffd5b611468565b6373380d9960e01b5f5260045ffd5b34610163576020366003190112610163576004356001600160401b038111610163576102a961150561150c923690600401611771565b3691611859565b6040516115386020828180820195805191829101875e81015f838201520301601f19810183528261181d565b5190205f526001602052602060ff600660405f200154166040519015158152f35b34610163575f366003190112610163576020600754604051908152f35b34610163575f36600319011261016357602060405161012c8152f35b34610163576020366003190112610163576115ab611919565b506004355f526003602052606060405f206002604051916115cb83611802565b80548352600181015460208401520154604082015261160160405180926040809180518452602081015160208501520151910152565bf35b346101635760203660031901126101635761161c6118aa565b506004355f52600260205260405f205480156116dc575f52600160205260405f20604051611649816117e7565b8154815260018201546001600160a01b031660208201526040516002830180545f91611674826118e1565b8085529160018116908115610ce157506001146116a1576102698560ff60068988610c6d818a038261181d565b5f908152602081209092505b8183106116c257505081016020018382610c57565b6001816020929493945483858801015201910191906116ad565b633303523160e11b5f5260045ffd5b805180835260209291819084018484015e5f828201840152601f01601f1916010190565b602081528151602082015260018060a01b03602083015116604082015260e060c061174960408501518360608601526101008501906116eb565b9360608101516080850152608081015160a085015260a0810151828501520151151591015290565b9181601f84011215610163578235916001600160401b038311610163576020838186019501011161016357565b9060406003198301126101635760043591602435906001600160401b038211610163576117cd91600401611771565b9091565b600435906001600160a01b038216820361016357565b60e081019081106001600160401b0382111761058857604052565b606081019081106001600160401b0382111761058857604052565b90601f801991011681019081106001600160401b0382111761058857604052565b6001600160401b03811161058857601f01601f191660200190565b9291926118658261183e565b91611873604051938461181d565b829481845281830111610163578281602093845f960137010152565b34610163575f36600319011261016357602060405160648152f35b604051906118b7826117e7565b5f60c083828152826020820152606060408201528260608201528260808201528260a08201520152565b90600182811c9216801561190f575b60208310146118fb57565b634e487b7160e01b5f52602260045260245ffd5b91607f16916118f0565b6040519061192682611802565b5f6040838281528260208201520152565b919082018092116104ff57565b81601f820112156101635780519061195b8261183e565b92611969604051948561181d565b8284526020838301011161016357815f9260208093018386015e8301015290565b602081830312610163578051906001600160401b03821161016357019061010082820312610163576040519161010083018381106001600160401b03821117610588576040528051835260208101516001600160a01b038116810361016357602084015260408101516001600160401b0381116101635782611a0d918301611944565b604084015260608101516001600160401b0381116101635760e092611a33918301611944565b60608401526080810151608084015260a081015160a084015260c081015160c0840152015180151581036101635760e082015290565b90918060409360208452816020850152848401375f828201840152601f01601f1916010190565b6001600160401b0381116105885760051b60200190565b600954811015611abf5760095f5260205f2001905f90565b634e487b7160e01b5f52603260045260245ffd5b8051821015611abf5760209160051b010190565b5f1981146104ff5760010190565b6001600160a01b03168015611b53575f516020611d775f395f51905f5280546001600160a01b0319811683179091556001600160a01b03167f8be0079c531659141344cd1fd0a4f28419497f9722a3daafe3b4186f6b6457e05f80a3565b631e4fbdf760e01b5f525f60045260245ffd5b908151811015611abf570160200190565b90815191611b848361183e565b92611b92604051948561181d565b808452611ba1601f199161183e565b013660208501375f5b8151811015611c50576041611bbf8284611b66565b5160f81c101580611c38575b15611c0e576020611bdc8284611b66565b5160f81c019060ff82116104ff5760019160f81b6001600160f81b0319165f1a611c068287611b66565b535b01611baa565b6001906001600160f81b0319611c248285611b66565b51165f1a611c328287611b66565b53611c08565b50605a611c458284611b66565b5160f81c1115611bcb565b5050565b60025f516020611db75f395f51905f525414611c7d5760025f516020611db75f395f51905f5255565b633ee5aeb560e01b5f5260045ffd5b5f516020611d775f395f51905f52546001600160a01b03163303611cac57565b63118cdaa760e01b5f523360045260245ffd5b60ff5f516020611dd75f395f51905f525460401c1615611cdb57565b631afcd79f60e31b5f5260045ffd5b905f8091602081519101845af48080611d63575b15611d1e5750506040513d81523d5f602083013e60203d82010160405290565b15611d4357639996b31560e01b5f9081526001600160a01b0391909116600452602490fd5b3d15611d54576040513d5f823e3d90fd5b63d6bda27560e01b5f5260045ffd5b503d151580611cfe5750813b1515611cfe56fe9016d09d72d40fdae2fd8ceac6b6234c7706214fd39c1cd1e609a0528c199300360894a13ba1a3210667c828492db98dca3e2076cc3735a920a3ca505d382bbc9b779b17422d0df92223018b32b4d1fa46e071723d6817e2486d003becc55f00f0c57e16840df040f15088dc2f81fe391c3923bec73e23a9662efc9c229c6a00a264697066735822122039e521209610bc7e6e619a5f05d3a011f45a5d74498529a3d0f1a89f4e7c791464736f6c634300081b0033f0c57e16840df040f15088dc2f81fe391c3923bec73e23a9662efc9c229c6a00","linkReferences":{}},"methodIdentifiers":{"BASE_REFERRAL_REWARD()":"fd1ab162","LEVEL_BONUS_PER_LEVEL()":"e8eebf2e","MAX_LEADERBOARD_SIZE()":"db877142","MAX_REFERRAL_DEPTH()":"89e59ea0","PRECISION()":"aaf5eb68","TIER2_REWARD()":"15886093","TIER3_REWARD()":"fc22c2fd","UPGRADE_INTERFACE_VERSION()":"ad3cb1cc","claimRewards()":"372500ab","createReferralCode(uint256,string)":"419168ce","getLeaderboard(uint256)":"a34b46fe","getPendingRewards(address)":"f6ed2017","getPersonaReferralCode(uint256)":"024b53fc","getPersonaStats(uint256)":"de9f3bb6","getReferralChain(uint256)":"12befd03","getReferralCode(string)":"66d04478","initialize(address,address)":"485cc955","isValidCode(string)":"25ed64a0","owner()":"8da5cb5b","personaRegistry()":"83dbb7aa","proxiableUUID()":"52d1902d","recordReferral(uint256,string)":"a78d11ec","renounceOwnership()":"715018a6","totalReferrals()":"196f4914","totalRewardsPaid()":"74958e35","transferOwnership(address)":"f2fde38b","upgradeToAndCall(address,bytes)":"4f1ef286"},"id":4}