{"abi":[{"type":"function","name":"verify","inputs":[{"name":"key","type":"bytes","internalType":"bytes"},{"name":"hash","type":"bytes32","internalType":"bytes32"},{"name":"signature","type":"bytes","internalType":"bytes"}],"outputs":[{"name":"","type":"bytes4","internalType":"bytes4"}],"stateMutability":"view"}],"bytecode":{"object":"0x608080604052346015576104f8908161001a8239f35b5f80fdfe60806040526004361015610011575f80fd5b5f3560e01c63024ad31814610024575f80fd5b346101515760603660031901126101515760043567ffffffffffffffff811161015157610055903690600401610155565b9060443567ffffffffffffffff811161015157610076903690600401610155565b919092810160408282031261015157813567ffffffffffffffff811161015157816100a29184016101ff565b9160208101359067ffffffffffffffff8211610151576020925f926100c792016101ff565b936100ed604051968488019260243584528589526100e660408a610183565b36916101b9565b95604051918291518091835e8101838152039060025afa1561014657610114925f5161021d565b1561013657602062495a6360e31b5b6040516001600160e01b03199091168152f35b60206001600160e01b0319610123565b6040513d5f823e3d90fd5b5f80fd5b9181601f840112156101515782359167ffffffffffffffff8311610151576020838186019501011161015157565b90601f8019910116810190811067ffffffffffffffff8211176101a557604052565b634e487b7160e01b5f52604160045260245ffd5b92919267ffffffffffffffff82116101a557604051916101e3601f8201601f191660200184610183565b829481845281830111610151578281602093845f960137010152565b9080601f830112156101515781602061021a933591016101b9565b90565b9092805192610100841080156103d6575b6103cd57601f198401945f5b858110610381575b5061024f939495506103e1565b92901561036f578083016011198101519091906001600160f81b031916603160f81b0361031e57720181898068304b0432400b281820100828002160651b906bffffffffffffffffffffffff19906034905b0360025b8181106102f0575060208601516001600160f01b031916600160f01b1495866102de575b50505050826102d757505090565b5114919050565b0160200151161492505f8080806102c9565b602081880101516001600160f81b031916600160f81b01610313576001016102a5565b505050505050505f90565b600f198201516001600160f81b031916602f60f81b0361036757700181798058304b0432400b28182010082160751b906dffffffffffffffffffffffffffff19906032906102a1565b505050505f90565b634e487b715f5260126020526024601cfd5b8681108782180287186020818401015160208287010151908181105f146103aa57505050610242565b1190889082156103c3575b50506103135760200161023a565b149050875f6103b5565b50505050505f90565b50845184141561022e565b92906103ec8361048d565b61046b5760209061045684519183875196608082845194816040519c8d978289019d8e5260408901528960608901528051918291018589015e8601908382015f8152815193849201905e0101905f8252805192839101825e015f815203601f198101875286610183565b80859486518160055afa948181520101604052565b509150506040519061047e602083610183565b5f8083523660208401375f9190565b5f5b81518110156104bb57818101602001516001600160f81b0319166104b55760010161048f565b50505f90565b505060019056fea26469706673582212208f2c71227ed04457cd62ea21d57199869c9351efda6ae23c40df2353e0ecbbbe64736f6c634300081b0033","linkReferences":{}},"methodIdentifiers":{"verify(bytes,bytes32,bytes)":"024ad318"},"id":345}