{"abi":[{"type":"function","name":"allowance","inputs":[{"name":"owner","type":"address","internalType":"address"},{"name":"spender","type":"address","internalType":"address"},{"name":"id","type":"uint256","internalType":"uint256"}],"outputs":[{"name":"","type":"uint256","internalType":"uint256"}],"stateMutability":"view"},{"type":"function","name":"approve","inputs":[{"name":"spender","type":"address","internalType":"address"},{"name":"id","type":"uint256","internalType":"uint256"},{"name":"amount","type":"uint256","internalType":"uint256"}],"outputs":[{"name":"","type":"bool","internalType":"bool"}],"stateMutability":"nonpayable"},{"type":"function","name":"balanceOf","inputs":[{"name":"owner","type":"address","internalType":"address"},{"name":"id","type":"uint256","internalType":"uint256"}],"outputs":[{"name":"","type":"uint256","internalType":"uint256"}],"stateMutability":"view"},{"type":"function","name":"decimals","inputs":[{"name":"id","type":"uint256","internalType":"uint256"}],"outputs":[{"name":"","type":"uint8","internalType":"uint8"}],"stateMutability":"view"},{"type":"function","name":"isOperator","inputs":[{"name":"owner","type":"address","internalType":"address"},{"name":"spender","type":"address","internalType":"address"}],"outputs":[{"name":"","type":"bool","internalType":"bool"}],"stateMutability":"view"},{"type":"function","name":"name","inputs":[{"name":"id","type":"uint256","internalType":"uint256"}],"outputs":[{"name":"","type":"string","internalType":"string"}],"stateMutability":"view"},{"type":"function","name":"setOperator","inputs":[{"name":"spender","type":"address","internalType":"address"},{"name":"approved","type":"bool","internalType":"bool"}],"outputs":[{"name":"","type":"bool","internalType":"bool"}],"stateMutability":"nonpayable"},{"type":"function","name":"supportsInterface","inputs":[{"name":"interfaceId","type":"bytes4","internalType":"bytes4"}],"outputs":[{"name":"","type":"bool","internalType":"bool"}],"stateMutability":"view"},{"type":"function","name":"symbol","inputs":[{"name":"id","type":"uint256","internalType":"uint256"}],"outputs":[{"name":"","type":"string","internalType":"string"}],"stateMutability":"view"},{"type":"function","name":"transfer","inputs":[{"name":"receiver","type":"address","internalType":"address"},{"name":"id","type":"uint256","internalType":"uint256"},{"name":"amount","type":"uint256","internalType":"uint256"}],"outputs":[{"name":"","type":"bool","internalType":"bool"}],"stateMutability":"nonpayable"},{"type":"function","name":"transferFrom","inputs":[{"name":"sender","type":"address","internalType":"address"},{"name":"receiver","type":"address","internalType":"address"},{"name":"id","type":"uint256","internalType":"uint256"},{"name":"amount","type":"uint256","internalType":"uint256"}],"outputs":[{"name":"","type":"bool","internalType":"bool"}],"stateMutability":"nonpayable"},{"type":"event","name":"Approval","inputs":[{"name":"owner","type":"address","indexed":true,"internalType":"address"},{"name":"spender","type":"address","indexed":true,"internalType":"address"},{"name":"id","type":"uint256","indexed":true,"internalType":"uint256"},{"name":"amount","type":"uint256","indexed":false,"internalType":"uint256"}],"anonymous":false},{"type":"event","name":"ERC6909DecimalsUpdated","inputs":[{"name":"id","type":"uint256","indexed":true,"internalType":"uint256"},{"name":"newDecimals","type":"uint8","indexed":false,"internalType":"uint8"}],"anonymous":false},{"type":"event","name":"ERC6909NameUpdated","inputs":[{"name":"id","type":"uint256","indexed":true,"internalType":"uint256"},{"name":"newName","type":"string","indexed":false,"internalType":"string"}],"anonymous":false},{"type":"event","name":"ERC6909SymbolUpdated","inputs":[{"name":"id","type":"uint256","indexed":true,"internalType":"uint256"},{"name":"newSymbol","type":"string","indexed":false,"internalType":"string"}],"anonymous":false},{"type":"event","name":"OperatorSet","inputs":[{"name":"owner","type":"address","indexed":true,"internalType":"address"},{"name":"spender","type":"address","indexed":true,"internalType":"address"},{"name":"approved","type":"bool","indexed":false,"internalType":"bool"}],"anonymous":false},{"type":"event","name":"Transfer","inputs":[{"name":"caller","type":"address","indexed":false,"internalType":"address"},{"name":"sender","type":"address","indexed":true,"internalType":"address"},{"name":"receiver","type":"address","indexed":true,"internalType":"address"},{"name":"id","type":"uint256","indexed":true,"internalType":"uint256"},{"name":"amount","type":"uint256","indexed":false,"internalType":"uint256"}],"anonymous":false},{"type":"error","name":"ERC6909InsufficientAllowance","inputs":[{"name":"spender","type":"address","internalType":"address"},{"name":"allowance","type":"uint256","internalType":"uint256"},{"name":"needed","type":"uint256","internalType":"uint256"},{"name":"id","type":"uint256","internalType":"uint256"}]},{"type":"error","name":"ERC6909InsufficientBalance","inputs":[{"name":"sender","type":"address","internalType":"address"},{"name":"balance","type":"uint256","internalType":"uint256"},{"name":"needed","type":"uint256","internalType":"uint256"},{"name":"id","type":"uint256","internalType":"uint256"}]},{"type":"error","name":"ERC6909InvalidApprover","inputs":[{"name":"approver","type":"address","internalType":"address"}]},{"type":"error","name":"ERC6909InvalidReceiver","inputs":[{"name":"receiver","type":"address","internalType":"address"}]},{"type":"error","name":"ERC6909InvalidSender","inputs":[{"name":"sender","type":"address","internalType":"address"}]},{"type":"error","name":"ERC6909InvalidSpender","inputs":[{"name":"spender","type":"address","internalType":"address"}]}],"bytecode":{"object":"0x6080806040523460155761079d908161001a8239f35b5f80fdfe60806040526004361015610011575f80fd5b5f3560e01c8062ad800c146104b4578062fdd58e1461047157806301ffc9a71461041b578063095bcdb6146104035780633f47e662146103d3578063426a8493146103545780634e41a1fb14610317578063558a72971461025a578063598af9e714610200578063b6363cf2146101a95763fe99049a14610090575f80fd5b346101a55760803660031901126101a5576100a9610508565b6100b161051e565b6001600160a01b0382169160643591604435913385141580610182575b6100e8575b6100dd9450610643565b602060405160018152f35b5f85815260026020908152604080832033845282528083208684529091529020545f198110610118575b506100d3565b8481106101545784906100dd965f52600260205260405f2060018060a01b0333165f5260205260405f20855f526020520360405f20555f610112565b604051632c51fead60e11b815233600482015260248101919091526044810185905260648101849052608490fd5b505f85815260016020908152604080832033845290915290205460ff16156100ce565b5f80fd5b346101a55760403660031901126101a5576101c2610508565b6101ca61051e565b9060018060a01b03165f52600160205260405f209060018060a01b03165f52602052602060ff60405f2054166040519015158152f35b346101a55760603660031901126101a557610219610508565b61022161051e565b6001600160a01b039182165f90815260026020908152604080832094909316825292835281812060443582528352819020549051908152f35b346101a55760403660031901126101a557610273610508565b602435908115158092036101a5573315610304576001600160a01b03169081156102f157335f52600160205260405f20825f5260205260405f2060ff1981541660ff83161790556040519081527fceb576d9f15e4e200fdb5096d64d5dfd667e16def20c1eefd14256d8e3faa26760203392a3602060405160018152f35b636f65f46560e01b5f525f60045260245ffd5b63198ecd5360e31b5f525f60045260245ffd5b346101a55760203660031901126101a5576004355f526003602052610350610344600160405f200161055e565b604051918291826104de565b0390f35b346101a55761036236610534565b90913315610304576001600160a01b03169081156102f157335f52600260205260405f20825f5260205260405f20835f526020528060405f20556040519081527fb3fd5071835887567a0671151121894ddccc2842f1d10bedad13e0d17cace9a760203392a4602060405160018152f35b346101a55760203660031901126101a5576004355f526003602052602060ff600260405f20015416604051908152f35b346101a5576100dd61041436610534565b9133610643565b346101a55760203660031901126101a55760043563ffffffff60e01b81168091036101a557602090630f632fb360e01b8114908115610460575b506040519015158152f35b6301ffc9a760e01b14905082610455565b346101a55760403660031901126101a5576001600160a01b03610492610508565b165f525f60205260405f206024355f52602052602060405f2054604051908152f35b346101a55760203660031901126101a5576004355f52600360205261035061034460405f2061055e565b602060409281835280519182918282860152018484015e5f828201840152601f01601f1916010190565b600435906001600160a01b03821682036101a557565b602435906001600160a01b03821682036101a557565b60609060031901126101a5576004356001600160a01b03811681036101a557906024359060443590565b90604051915f908054908160011c91600181168015610639575b6020841081146106255783875290811561060757506001146105cf575b5050829003601f01601f1916820167ffffffffffffffff8111838210176105bb57604052565b634e487b7160e01b5f52604160045260245ffd5b9091505f5260205f205f905b8282106105f15750602091508301015f80610595565b60018160209254838589010152019101906105db565b9150506020925060ff191682850152151560051b8301015f80610595565b634e487b7160e01b5f52602260045260245ffd5b92607f1692610578565b91926001600160a01b038316918215610754576001600160a01b031692831561074157825f525f60205260405f20855f5260205260405f20549082821061070857508190835f525f60205260405f20865f526020520360405f2055825f525f60205260405f20845f5260205260405f208054918083018093116106f4577f1b3d7edb2e9c0b0e7c525b20aaaef0f5940d2ed71663c7d39266ecafac72885992604092558151903382526020820152a4565b634e487b7160e01b5f52601160045260245ffd5b6040516302c6d3fb60e61b81526001600160a01b0391909116600482015260248101919091526044810182905260648101859052608490fd5b630b8bbd6160e41b5f525f60045260245ffd5b6301486a4160e71b5f525f60045260245ffdfea2646970667358221220fd4ae2664143b66274b1c93b707efe78522a01bc64fef857870a6ff7e96b294464736f6c634300081b0033","linkReferences":{}},"methodIdentifiers":{"allowance(address,address,uint256)":"598af9e7","approve(address,uint256,uint256)":"426a8493","balanceOf(address,uint256)":"00fdd58e","decimals(uint256)":"3f47e662","isOperator(address,address)":"b6363cf2","name(uint256)":"00ad800c","setOperator(address,bool)":"558a7297","supportsInterface(bytes4)":"01ffc9a7","symbol(uint256)":"4e41a1fb","transfer(address,uint256,uint256)":"095bcdb6","transferFrom(address,address,uint256,uint256)":"fe99049a"},"id":276}