{"abi":[{"type":"constructor","inputs":[],"stateMutability":"nonpayable"},{"type":"receive","stateMutability":"payable"},{"type":"function","name":"MAX_LEVEL","inputs":[],"outputs":[{"name":"","type":"uint8","internalType":"uint8"}],"stateMutability":"view"},{"type":"function","name":"SCORE_PRECISION","inputs":[],"outputs":[{"name":"","type":"uint256","internalType":"uint256"}],"stateMutability":"view"},{"type":"function","name":"UPGRADE_INTERFACE_VERSION","inputs":[],"outputs":[{"name":"","type":"string","internalType":"string"}],"stateMutability":"view"},{"type":"function","name":"addProfessionToPersona","inputs":[{"name":"personaId","type":"uint256","internalType":"uint256"},{"name":"professionId","type":"uint256","internalType":"uint256"}],"outputs":[],"stateMutability":"payable"},{"type":"function","name":"createProfession","inputs":[{"name":"name","type":"string","internalType":"string"},{"name":"category","type":"string","internalType":"string"},{"name":"description","type":"string","internalType":"string"}],"outputs":[{"name":"professionId","type":"uint256","internalType":"uint256"}],"stateMutability":"nonpayable"},{"type":"function","name":"getActiveProfessions","inputs":[],"outputs":[{"name":"","type":"tuple[]","internalType":"struct IProfessionRegistry.Profession[]","components":[{"name":"id","type":"uint256","internalType":"uint256"},{"name":"name","type":"string","internalType":"string"},{"name":"category","type":"string","internalType":"string"},{"name":"description","type":"string","internalType":"string"},{"name":"isActive","type":"bool","internalType":"bool"},{"name":"createdAt","type":"uint256","internalType":"uint256"}]}],"stateMutability":"view"},{"type":"function","name":"getPersonaProfession","inputs":[{"name":"personaId","type":"uint256","internalType":"uint256"},{"name":"professionId","type":"uint256","internalType":"uint256"}],"outputs":[{"name":"","type":"tuple","internalType":"struct IProfessionRegistry.PersonaProfession","components":[{"name":"professionId","type":"uint256","internalType":"uint256"},{"name":"level","type":"uint8","internalType":"uint8"},{"name":"realScore","type":"uint256","internalType":"uint256"},{"name":"addedAt","type":"uint256","internalType":"uint256"},{"name":"lastLevelChange","type":"uint256","internalType":"uint256"},{"name":"exists","type":"bool","internalType":"bool"}]}],"stateMutability":"view"},{"type":"function","name":"getPersonaProfessions","inputs":[{"name":"personaId","type":"uint256","internalType":"uint256"}],"outputs":[{"name":"","type":"tuple[]","internalType":"struct IProfessionRegistry.PersonaProfession[]","components":[{"name":"professionId","type":"uint256","internalType":"uint256"},{"name":"level","type":"uint8","internalType":"uint8"},{"name":"realScore","type":"uint256","internalType":"uint256"},{"name":"addedAt","type":"uint256","internalType":"uint256"},{"name":"lastLevelChange","type":"uint256","internalType":"uint256"},{"name":"exists","type":"bool","internalType":"bool"}]}],"stateMutability":"view"},{"type":"function","name":"getProfession","inputs":[{"name":"professionId","type":"uint256","internalType":"uint256"}],"outputs":[{"name":"","type":"tuple","internalType":"struct IProfessionRegistry.Profession","components":[{"name":"id","type":"uint256","internalType":"uint256"},{"name":"name","type":"string","internalType":"string"},{"name":"category","type":"string","internalType":"string"},{"name":"description","type":"string","internalType":"string"},{"name":"isActive","type":"bool","internalType":"bool"},{"name":"createdAt","type":"uint256","internalType":"uint256"}]}],"stateMutability":"view"},{"type":"function","name":"getProfessionAddPrice","inputs":[],"outputs":[{"name":"","type":"uint256","internalType":"uint256"}],"stateMutability":"view"},{"type":"function","name":"initialize","inputs":[{"name":"owner_","type":"address","internalType":"address"},{"name":"personaRegistry_","type":"address","internalType":"address"},{"name":"levelOracle_","type":"address","internalType":"address"},{"name":"professionAddPrice_","type":"uint256","internalType":"uint256"}],"outputs":[],"stateMutability":"nonpayable"},{"type":"function","name":"levelOracle","inputs":[],"outputs":[{"name":"","type":"address","internalType":"address"}],"stateMutability":"view"},{"type":"function","name":"mergeProfessions","inputs":[{"name":"fromIds","type":"uint256[]","internalType":"uint256[]"},{"name":"toId","type":"uint256","internalType":"uint256"}],"outputs":[],"stateMutability":"nonpayable"},{"type":"function","name":"owner","inputs":[],"outputs":[{"name":"","type":"address","internalType":"address"}],"stateMutability":"view"},{"type":"function","name":"personaRegistry","inputs":[],"outputs":[{"name":"","type":"address","internalType":"contract IPersonaRegistry"}],"stateMutability":"view"},{"type":"function","name":"professionAddPrice","inputs":[],"outputs":[{"name":"","type":"uint256","internalType":"uint256"}],"stateMutability":"view"},{"type":"function","name":"proxiableUUID","inputs":[],"outputs":[{"name":"","type":"bytes32","internalType":"bytes32"}],"stateMutability":"view"},{"type":"function","name":"renounceOwnership","inputs":[],"outputs":[],"stateMutability":"nonpayable"},{"type":"function","name":"setLevelOracle","inputs":[{"name":"newOracle","type":"address","internalType":"address"}],"outputs":[],"stateMutability":"nonpayable"},{"type":"function","name":"setPersonaRegistry","inputs":[{"name":"newRegistry","type":"address","internalType":"address"}],"outputs":[],"stateMutability":"nonpayable"},{"type":"function","name":"setProfessionAddPrice","inputs":[{"name":"newPrice","type":"uint256","internalType":"uint256"}],"outputs":[],"stateMutability":"nonpayable"},{"type":"function","name":"transferOwnership","inputs":[{"name":"newOwner","type":"address","internalType":"address"}],"outputs":[],"stateMutability":"nonpayable"},{"type":"function","name":"updateLevel","inputs":[{"name":"personaId","type":"uint256","internalType":"uint256"},{"name":"professionId","type":"uint256","internalType":"uint256"},{"name":"newLevel","type":"uint8","internalType":"uint8"},{"name":"realScore","type":"uint256","internalType":"uint256"}],"outputs":[],"stateMutability":"nonpayable"},{"type":"function","name":"updateProfession","inputs":[{"name":"professionId","type":"uint256","internalType":"uint256"},{"name":"name","type":"string","internalType":"string"},{"name":"isActive","type":"bool","internalType":"bool"}],"outputs":[],"stateMutability":"nonpayable"},{"type":"function","name":"upgradeToAndCall","inputs":[{"name":"newImplementation","type":"address","internalType":"address"},{"name":"data","type":"bytes","internalType":"bytes"}],"outputs":[],"stateMutability":"payable"},{"type":"function","name":"withdraw","inputs":[{"name":"to","type":"address","internalType":"address payable"}],"outputs":[],"stateMutability":"nonpayable"},{"type":"event","name":"Initialized","inputs":[{"name":"version","type":"uint64","indexed":false,"internalType":"uint64"}],"anonymous":false},{"type":"event","name":"LevelUpdated","inputs":[{"name":"personaId","type":"uint256","indexed":true,"internalType":"uint256"},{"name":"professionId","type":"uint256","indexed":true,"internalType":"uint256"},{"name":"newLevel","type":"uint8","indexed":false,"internalType":"uint8"}],"anonymous":false},{"type":"event","name":"OwnershipTransferred","inputs":[{"name":"previousOwner","type":"address","indexed":true,"internalType":"address"},{"name":"newOwner","type":"address","indexed":true,"internalType":"address"}],"anonymous":false},{"type":"event","name":"ProfessionAdded","inputs":[{"name":"personaId","type":"uint256","indexed":true,"internalType":"uint256"},{"name":"professionId","type":"uint256","indexed":true,"internalType":"uint256"},{"name":"price","type":"uint256","indexed":false,"internalType":"uint256"}],"anonymous":false},{"type":"event","name":"ProfessionCreated","inputs":[{"name":"professionId","type":"uint256","indexed":true,"internalType":"uint256"},{"name":"name","type":"string","indexed":false,"internalType":"string"},{"name":"category","type":"string","indexed":false,"internalType":"string"}],"anonymous":false},{"type":"event","name":"ProfessionRemoved","inputs":[{"name":"personaId","type":"uint256","indexed":true,"internalType":"uint256"},{"name":"professionId","type":"uint256","indexed":true,"internalType":"uint256"}],"anonymous":false},{"type":"event","name":"ProfessionUpdated","inputs":[{"name":"professionId","type":"uint256","indexed":true,"internalType":"uint256"},{"name":"name","type":"string","indexed":false,"internalType":"string"},{"name":"isActive","type":"bool","indexed":false,"internalType":"bool"}],"anonymous":false},{"type":"event","name":"ProfessionsMerged","inputs":[{"name":"fromIds","type":"uint256[]","indexed":false,"internalType":"uint256[]"},{"name":"toId","type":"uint256","indexed":true,"internalType":"uint256"}],"anonymous":false},{"type":"event","name":"Upgraded","inputs":[{"name":"implementation","type":"address","indexed":true,"internalType":"address"}],"anonymous":false},{"type":"error","name":"AddressEmptyCode","inputs":[{"name":"target","type":"address","internalType":"address"}]},{"type":"error","name":"ERC1967InvalidImplementation","inputs":[{"name":"implementation","type":"address","internalType":"address"}]},{"type":"error","name":"ERC1967NonPayable","inputs":[]},{"type":"error","name":"FailedCall","inputs":[]},{"type":"error","name":"InsufficientPayment","inputs":[{"name":"required","type":"uint256","internalType":"uint256"},{"name":"provided","type":"uint256","internalType":"uint256"}]},{"type":"error","name":"InvalidInitialization","inputs":[]},{"type":"error","name":"InvalidLevel","inputs":[{"name":"level","type":"uint8","internalType":"uint8"}]},{"type":"error","name":"InvalidParameter","inputs":[{"name":"param","type":"string","internalType":"string"}]},{"type":"error","name":"NotInitializing","inputs":[]},{"type":"error","name":"NotOracle","inputs":[{"name":"caller","type":"address","internalType":"address"}]},{"type":"error","name":"NotPersonaOwner","inputs":[{"name":"personaId","type":"uint256","internalType":"uint256"},{"name":"caller","type":"address","internalType":"address"}]},{"type":"error","name":"OwnableInvalidOwner","inputs":[{"name":"owner","type":"address","internalType":"address"}]},{"type":"error","name":"OwnableUnauthorizedAccount","inputs":[{"name":"account","type":"address","internalType":"address"}]},{"type":"error","name":"PersonaProfessionExists","inputs":[{"name":"personaId","type":"uint256","internalType":"uint256"},{"name":"professionId","type":"uint256","internalType":"uint256"}]},{"type":"error","name":"PersonaProfessionNotExists","inputs":[{"name":"personaId","type":"uint256","internalType":"uint256"},{"name":"professionId","type":"uint256","internalType":"uint256"}]},{"type":"error","name":"ProfessionDoesNotExist","inputs":[{"name":"professionId","type":"uint256","internalType":"uint256"}]},{"type":"error","name":"ProfessionNotActive","inputs":[{"name":"professionId","type":"uint256","internalType":"uint256"}]},{"type":"error","name":"ReentrancyGuardReentrantCall","inputs":[]},{"type":"error","name":"TransferFailed","inputs":[]},{"type":"error","name":"UUPSUnauthorizedCallContext","inputs":[]},{"type":"error","name":"UUPSUnsupportedProxiableUUID","inputs":[{"name":"slot","type":"bytes32","internalType":"bytes32"}]},{"type":"error","name":"ZeroAddress","inputs":[]}],"bytecode":{"object":"0x60a080604052346100e65760017f9b779b17422d0df92223018b32b4d1fa46e071723d6817e2486d003becc55f0055306080525f5160206120545f395f51905f525460ff8160401c166100d7576002600160401b03196001600160401b03821601610084575b604051611f6990816100eb823960805181818161109b015261131f0152f35b6001600160401b0319166001600160401b039081175f5160206120545f395f51905f525581527fc7f505b2f371ae2175ee4913f4499e1f2633a7b5936321eed1cdaeb6115181d290602090a15f80610065565b63f92ee8a960e01b5f5260045ffd5b5f80fdfe608080604052600436101561001c575b50361561001a575f80fd5b005b5f3560e01c90816324d13938146118c5575080632d8c727a1461187e57806349f101d31461149b5780634f1ef286146112d057806350d25dd81461113c57806351cff8d9146110ef57806352d1902d1461108957806356bcc5691461106c5780636a7e377314610ff95780636b3d079714610c29578063715018a614610bc25780637b7719e9146109f357806382735293146109cb57806383dbb7aa146109a45780638da5cb5b1461097057806395d1507c1461092b5780639c9d8459146107db578063a49062d4146107c0578063ad3cb1cc14610775578063b2b6c51414610617578063c3445ca3146105fb578063ce48926214610472578063cf756fdf14610294578063dc48fb4614610273578063e305dea2146101735763f2fde38b14610146575f61000f565b3461016f57602036600319011261016f5761001a6101626118df565b61016a611dc2565b611d51565b5f80fd5b3461016f5761019561018436611a33565b61018f929192611d21565b50611df5565b90805f52600660205260405f20825f5260205260ff600560405f200154161561025e575f52600660205260405f20905f5260205260c060405f2060ff6005604051926101e084611922565b80548452826001820154166020850152600281015460408501526003810154606085015260048101546080850152015416151560a082015261025c604051809260a080918051845260ff602082015116602085015260408101516040850152606081015160608501526080810151608085015201511515910152565bf35b6320aab8a160e21b5f5260045260245260445ffd5b3461016f57602036600319011261016f5761028c611dc2565b600435600355005b3461016f57608036600319011261016f576102ad6118df565b6024356001600160a01b0381169081900361016f576044356001600160a01b038116919082900361016f575f516020611f145f395f51905f52549260ff8460401c1615936001600160401b0381168015908161046a575b6001149081610460575b159081610457575b506104485767ffffffffffffffff1981166001175f516020611f145f395f51905f52558461041c575b506001600160a01b038116158015610414575b801561040c575b6103fd5761037190610369611e1c565b61016a611e1c565b6001600160601b0360a01b5f5416175f556001600160601b0360a01b600154161760015560643560035560016002556103a657005b68ff0000000000000000195f516020611f145f395f51905f5254165f516020611f145f395f51905f52557fc7f505b2f371ae2175ee4913f4499e1f2633a7b5936321eed1cdaeb6115181d2602060405160018152a1005b63d92e233d60e01b5f5260045ffd5b508215610359565b508115610352565b68ffffffffffffffffff191668010000000000000001175f516020611f145f395f51905f52558461033f565b63f92ee8a960e01b5f5260045ffd5b90501586610316565b303b15915061030e565b869150610304565b3461016f57602036600319011261016f57600435805f52600760205260405f2080549061049e82611b3f565b926104ac604051948561193d565b828452601f196104bb84611b3f565b015f5b8181106105e45750505f5b83811061055757846040518091602082016020835281518091526020604084019201905f5b8181106104fc575050500390f35b91935091602060c082610549600194885160a080918051845260ff602082015116602085015260408101516040850152606081015160608501526080810151608085015201511515910152565b0194019101918493926104ee565b600190825f52600660205260405f206105708286611b0a565b90549060031b1c5f5260205260405f2060ff60056040519261059184611922565b805484528286820154166020850152600281015460408501526003810154606085015260048101546080850152015416151560a08201526105d28288611b88565b526105dd8187611b88565b50016104c9565b6020906105ef611d21565b828289010152016104be565b3461016f575f36600319011261016f5760206040516127108152f35b3461016f57604036600319011261016f576004356001600160401b03811161016f573660238201121561016f5780600401356001600160401b03811161016f5760248201908060051b92602484369201011161016f5760243592610679611dc2565b835f52600460205260405f205415610762575f5b8281106106e3575060405160208082528101839052916001600160fb1b031061016f5781816040927f80e1886815097b378a11f62a80148ef50818023ce6b37349c24886fcf24183ce95848401378101030190a2005b6106ee818486611d11565b355f52600460205260405f205415610744578061070e6001928587611d11565b355f526004602052600460405f200160ff198154169055610730818587611d11565b355f5260086020528560405f20550161068d565b61074f908385611d11565b3563fa2dbacd60e01b5f5260045260245ffd5b8363fa2dbacd60e01b5f5260045260245ffd5b3461016f575f36600319011261016f576107bc60405161079660408261193d565b60058152640352e302e360dc1b60208201526040519182916020835260208301906119af565b0390f35b3461016f575f36600319011261016f57602060405160058152f35b3461016f57608036600319011261016f576004356044359060ff821680920361016f57600154606435906001600160a01b03163303610918578215801561090e575b6108fb5761271081116108c957610835602435611df5565b92825f52600660205260405f20845f5260205260405f209060ff600583015416156108b1577fcf18f873b3ce6f3f23ade76ba9735e0b34b2766ae34bbbb65393380e4509589f926002836001602095018460ff825416036108a6575b805460ff1916851790550155604051908152a3005b426004830155610891565b5050506320aab8a160e21b5f5260045260245260445ffd5b6040516305519d6f60e51b81526020600482015260096024820152687265616c53636f726560b81b6044820152606490fd5b82633d98c85560e21b5f5260045260245ffd5b506005831161081d565b63037d3e0960e61b5f523360045260245ffd5b3461016f57602036600319011261016f576109446118df565b61094c611dc2565b6001600160a01b031680156103fd576001600160601b0360a01b5f5416175f555f80f35b3461016f575f36600319011261016f575f516020611ed45f395f51905f52546040516001600160a01b039091168152602090f35b3461016f575f36600319011261016f575f546040516001600160a01b039091168152602090f35b3461016f575f36600319011261016f576001546040516001600160a01b039091168152602090f35b3461016f57606036600319011261016f576004356024356001600160401b03811161016f57610a269036906004016118f5565b91906044359283151580850361016f57610a3e611dc2565b835f52600460205260405f20541561076257835f526004602052600160405f2001946001600160401b038311610bae57610a8283610a7c8854611a57565b88611a8f565b5f95601f8411600114610b265790610af991610ad685807f7ad3200bbd437d249b18cb6fe7b0ea379d51ff06fb4e3438f11c422692a83518999a5f91610b1b575b508160011b915f199060031b1c19161790565b90555b865f526004602052600460405f20019060ff801983541691151516179055565b610b10604051938493604085526040850191611b1f565b9060208301520390a2005b90508801358b610ac3565b601f198416815f5260205f20905f5b818110610b965750907f7ad3200bbd437d249b18cb6fe7b0ea379d51ff06fb4e3438f11c422692a83518979886610af995949310610b7d575b5050600185811b019055610ad9565b8701355f19600388901b60f8161c191690558880610b6e565b878a013583556020998a019960019093019201610b35565b634e487b7160e01b5f52604160045260245ffd5b3461016f575f36600319011261016f57610bda611dc2565b5f516020611ed45f395f51905f5280546001600160a01b031981169091555f906001600160a01b03167f8be0079c531659141344cd1fd0a4f28419497f9722a3daafe3b4186f6b6457e08280a3005b610c3236611a33565b60027f9b779b17422d0df92223018b32b4d1fa46e071723d6817e2486d003becc55f005414610fea5760027f9b779b17422d0df92223018b32b4d1fa46e071723d6817e2486d003becc55f00555f80546040516314f9dc8b60e01b8152600481018590529190829060249082906001600160a01b03165afa908115610fdf575f91610ee9575b50602001516001600160a01b03163303610ed257805f52600460205260ff600460405f2001541615610ec057610ced90611df5565b90805f52600660205260405f20825f5260205260ff600560405f20015416610eab57600354803410610e955750610dac604051610d2981611922565b83815260056020820160018152604083015f815260608401428152608085019142835260ff60a087019460018652895f52600660205260405f208b5f5260205260405f2097518855511660ff60018801911660ff1982541617905551600286015551600385015551600484015551151591019060ff801983541691151516179055565b805f52600760205260405f208054600160401b811015610bae57610dda81610df29360018794018155611b0a565b90919082549060031b91821b915f19901b1916179055565b7f9d32ee2041256f1f548f473c7452525aea4fa2940e128c09cff0123cfbf20da06020604051348152a3600354803411610e4d575b60017f9b779b17422d0df92223018b32b4d1fa46e071723d6817e2486d003becc55f0055005b3403348111610e81575f80808093335af1610e66611c9c565b5015610e725780610e27565b6312171d8360e31b5f5260045ffd5b634e487b7160e01b5f52601160045260245ffd5b63b99e2ab760e01b5f526004523460245260445ffd5b639c67959f60e01b5f5260045260245260445ffd5b635739492760e01b5f5260045260245ffd5b506323e5256560e11b5f526004523360245260445ffd5b90503d805f833e610efa818361193d565b81019060208183031261016f578051906001600160401b03821161016f5701906101008282031261016f576040519161010083018381106001600160401b03821117610bae576040528051835260208101516001600160a01b038116810361016f57602084015260408101516001600160401b03811161016f5782610f80918301611ccb565b604084015260608101516001600160401b03811161016f5760e092610fa6918301611ccb565b60608401526080810151608084015260a081015160a084015260c081015160c08401520151801515810361016f5760e082015283610cb8565b6040513d5f823e3d90fd5b633ee5aeb560e01b5f5260045ffd5b3461016f57602036600319011261016f57611012611b56565b5061101e600435611df5565b805f52600460205260405f20541561105a575f5260046020526107bc61104660405f20611c3c565b6040519182916020835260208301906119d3565b63fa2dbacd60e01b5f5260045260245ffd5b3461016f575f36600319011261016f576020600354604051908152f35b3461016f575f36600319011261016f577f00000000000000000000000000000000000000000000000000000000000000006001600160a01b031630036110e05760206040515f516020611ef45f395f51905f528152f35b63703e46dd60e11b5f5260045ffd5b3461016f57602036600319011261016f576004356001600160a01b0381169081900361016f5761111d611dc2565b80156103fd575f8080809347905af1611134611c9c565b5015610e7257005b3461016f575f36600319011261016f575f5f600554905b81811061128d575061116482611b3f565b91611172604051938461193d565b808352611181601f1991611b3f565b015f5b8181106112765750505f5f5b8281106111fe57836040518091602082016020835281518091526040830190602060408260051b8601019301915f905b8282106111cf57505050500390f35b919360019193955060206111ee8192603f198a820301865288516119d3565b96019201920185949391926111c0565b8061120a600192611ade565b90549060031b1c5f52600460205260ff600460405f2001541661122e575b01611190565b61123781611ade565b90549060031b1c5f52600460205261127060405f209361125f61125982611a49565b95611c3c565b6112698289611b88565b5286611b88565b50611228565b602090611281611b56565b82828701015201611184565b61129681611ade565b90549060031b1c5f52600460205260ff600460405f200154166112bc575b600101611153565b916112c8600191611a49565b9290506112b4565b604036600319011261016f576112e46118df565b6024356001600160401b03811161016f573660238201121561016f57611314903690602481600401359101611979565b906001600160a01b037f000000000000000000000000000000000000000000000000000000000000000016308114908115611479575b506110e057611357611dc2565b6040516352d1902d60e01b81526001600160a01b0382169290602081600481875afa5f9181611445575b506113995783634c9c8ce360e01b5f5260045260245ffd5b805f516020611ef45f395f51905f528592036114335750823b15611421575f516020611ef45f395f51905f5280546001600160a01b031916821790557fbc7cd75a20ee27fd9adebab32041f755214dbc6bffa90cc0225b39da2e5c2d3b5f80a28051156114095761001a91611e47565b50503461141257005b63b398979f60e01b5f5260045ffd5b634c9c8ce360e01b5f5260045260245ffd5b632a87526960e21b5f5260045260245ffd5b9091506020813d602011611471575b816114616020938361193d565b8101031261016f57519085611381565b3d9150611454565b5f516020611ef45f395f51905f52546001600160a01b0316141590508361134a565b3461016f57606036600319011261016f576004356001600160401b03811161016f576114cb9036906004016118f5565b906024356001600160401b03811161016f576114eb9036906004016118f5565b6044356001600160401b03811161016f5761150a9036906004016118f5565b611515949194611dc2565b6002549461152286611a49565b6002556040519161153283611922565b868352611565611543368a87611979565b926020850193845261155636888a611979565b92604086019384523691611979565b6060840190815260808401916001835260a0850193428552895f52600460205260405f20955186556001860190518051906001600160401b038211610bae576115b8826115b28554611a57565b85611a8f565b602090601f831160011461181b576115e792915f9183611737575b50508160011b915f199060031b1c19161790565b90555b51805160028601916001600160401b038211610bae5761160e826115b28554611a57565b602090601f83116001146117b85761163c92915f91836117ad5750508160011b915f199060031b1c19161790565b90555b51805160038501916001600160401b038211610bae57611663826115b28554611a57565b602090601f8311600114611742578260059695936116b5959361169a935f926117375750508160011b915f199060031b1c19161790565b90555b511515600485019060ff801983541691151516179055565b5191015560055494600160401b861015610bae5761172c85947f2151030c1e3b4554d2faed68d2e423027a2a25d7741cec3286b57c49a2055e3e9461170887610dda8b600160209d016005556005611b0a565b61171f604051958695604087526040870191611b1f565b918483038a860152611b1f565b0390a2604051908152f35b015190508e806115d3565b90601f19831691845f52815f20925f5b818110611795575092600192859260059998966116b598961061177d575b505050811b01905561169d565b01515f1960f88460031b161c191690558d8080611770565b92936020600181928786015181550195019301611752565b015190508d806115d3565b90601f19831691845f52815f20925f5b81811061180357509084600195949392106117eb575b505050811b01905561163f565b01515f1960f88460031b161c191690558c80806117de565b929360206001819287860151815501950193016117c8565b90601f19831691845f52815f20925f5b818110611866575090846001959493921061184e575b505050811b0190556115ea565b01515f1960f88460031b161c191690558d8080611841565b9293602060018192878601518155019501930161182b565b3461016f57602036600319011261016f576118976118df565b61189f611dc2565b6001600160a01b031680156103fd576001600160601b0360a01b60015416176001555f80f35b3461016f575f36600319011261016f576020906003548152f35b600435906001600160a01b038216820361016f57565b9181601f8401121561016f578235916001600160401b03831161016f576020838186019501011161016f57565b60c081019081106001600160401b03821117610bae57604052565b90601f801991011681019081106001600160401b03821117610bae57604052565b6001600160401b038111610bae57601f01601f191660200190565b9291926119858261195e565b91611993604051938461193d565b82948184528183011161016f578281602093845f960137010152565b805180835260209291819084018484015e5f828201840152601f01601f1916010190565b908151815260a080611a1e611a0c6119fa602087015160c0602088015260c08701906119af565b604087015186820360408801526119af565b606086015185820360608701526119af565b93608081015115156080850152015191015290565b604090600319011261016f576004359060243590565b5f198114610e815760010190565b90600182811c92168015611a85575b6020831014611a7157565b634e487b7160e01b5f52602260045260245ffd5b91607f1691611a66565b601f8211611a9c57505050565b5f5260205f20906020601f840160051c83019310611ad4575b601f0160051c01905b818110611ac9575050565b5f8155600101611abe565b9091508190611ab5565b600554811015611af65760055f5260205f2001905f90565b634e487b7160e01b5f52603260045260245ffd5b8054821015611af6575f5260205f2001905f90565b908060209392818452848401375f828201840152601f01601f1916010190565b6001600160401b038111610bae5760051b60200190565b60405190611b6382611922565b5f60a08382815260606020820152606060408201526060808201528260808201520152565b8051821015611af65760209160051b010190565b9060405191825f825492611baf84611a57565b8084529360018116908115611c1a5750600114611bd6575b50611bd49250038361193d565b565b90505f9291925260205f20905f915b818310611bfe575050906020611bd4928201015f611bc7565b6020919350806001915483858901015201910190918492611be5565b905060209250611bd494915060ff191682840152151560051b8201015f611bc7565b90604051611c4981611922565b60a06005829480548452611c5f60018201611b9c565b6020850152611c7060028201611b9c565b6040850152611c8160038201611b9c565b606085015260ff600482015416151560808501520154910152565b3d15611cc6573d90611cad8261195e565b91611cbb604051938461193d565b82523d5f602084013e565b606090565b81601f8201121561016f57805190611ce28261195e565b92611cf0604051948561193d565b8284526020838301011161016f57815f9260208093018386015e8301015290565b9190811015611af65760051b0190565b60405190611d2e82611922565b5f60a0838281528260208201528260408201528260608201528260808201520152565b6001600160a01b03168015611daf575f516020611ed45f395f51905f5280546001600160a01b0319811683179091556001600160a01b03167f8be0079c531659141344cd1fd0a4f28419497f9722a3daafe3b4186f6b6457e05f80a3565b631e4fbdf760e01b5f525f60045260245ffd5b5f516020611ed45f395f51905f52546001600160a01b03163303611de257565b63118cdaa760e01b5f523360045260245ffd5b5b805f52600860205260405f205415611e19575f52600860205260405f2054611df6565b90565b60ff5f516020611f145f395f51905f525460401c1615611e3857565b631afcd79f60e31b5f5260045ffd5b905f8091602081519101845af48080611ec0575b15611e7b5750506040513d81523d5f602083013e60203d82010160405290565b15611ea057639996b31560e01b5f9081526001600160a01b0391909116600452602490fd5b3d15611eb1576040513d5f823e3d90fd5b63d6bda27560e01b5f5260045ffd5b503d151580611e5b5750813b1515611e5b56fe9016d09d72d40fdae2fd8ceac6b6234c7706214fd39c1cd1e609a0528c199300360894a13ba1a3210667c828492db98dca3e2076cc3735a920a3ca505d382bbcf0c57e16840df040f15088dc2f81fe391c3923bec73e23a9662efc9c229c6a00a2646970667358221220ee7b21a62cfdbed42c2cd1fad9c927b60b97c7c7a6a5e429bfeace6643087cc164736f6c634300081b0033f0c57e16840df040f15088dc2f81fe391c3923bec73e23a9662efc9c229c6a00","linkReferences":{}},"methodIdentifiers":{"MAX_LEVEL()":"a49062d4","SCORE_PRECISION()":"c3445ca3","UPGRADE_INTERFACE_VERSION()":"ad3cb1cc","addProfessionToPersona(uint256,uint256)":"6b3d0797","createProfession(string,string,string)":"49f101d3","getActiveProfessions()":"50d25dd8","getPersonaProfession(uint256,uint256)":"e305dea2","getPersonaProfessions(uint256)":"ce489262","getProfession(uint256)":"6a7e3773","getProfessionAddPrice()":"56bcc569","initialize(address,address,address,uint256)":"cf756fdf","levelOracle()":"82735293","mergeProfessions(uint256[],uint256)":"b2b6c514","owner()":"8da5cb5b","personaRegistry()":"83dbb7aa","professionAddPrice()":"24d13938","proxiableUUID()":"52d1902d","renounceOwnership()":"715018a6","setLevelOracle(address)":"2d8c727a","setPersonaRegistry(address)":"95d1507c","setProfessionAddPrice(uint256)":"dc48fb46","transferOwnership(address)":"f2fde38b","updateLevel(uint256,uint256,uint8,uint256)":"9c9d8459","updateProfession(uint256,string,bool)":"7b7719e9","upgradeToAndCall(address,bytes)":"4f1ef286","withdraw(address)":"51cff8d9"},"id":3}