{"abi":[{"type":"constructor","inputs":[],"stateMutability":"nonpayable"},{"type":"receive","stateMutability":"payable"},{"type":"function","name":"MAX_PAYEES","inputs":[],"outputs":[{"name":"","type":"uint256","internalType":"uint256"}],"stateMutability":"view"},{"type":"function","name":"PRECISION","inputs":[],"outputs":[{"name":"","type":"uint256","internalType":"uint256"}],"stateMutability":"view"},{"type":"function","name":"UPGRADE_INTERFACE_VERSION","inputs":[],"outputs":[{"name":"","type":"string","internalType":"string"}],"stateMutability":"view"},{"type":"function","name":"authorizedSources","inputs":[{"name":"","type":"address","internalType":"address"}],"outputs":[{"name":"","type":"bool","internalType":"bool"}],"stateMutability":"view"},{"type":"function","name":"emergencyWithdraw","inputs":[],"outputs":[],"stateMutability":"nonpayable"},{"type":"function","name":"getPayees","inputs":[],"outputs":[{"name":"","type":"tuple[]","internalType":"struct PaymentSplitter.Payee[]","components":[{"name":"addr","type":"address","internalType":"address payable"},{"name":"share","type":"uint256","internalType":"uint256"},{"name":"name","type":"string","internalType":"string"}]}],"stateMutability":"view"},{"type":"function","name":"getPendingPayment","inputs":[{"name":"payeeIndex","type":"uint256","internalType":"uint256"}],"outputs":[{"name":"","type":"uint256","internalType":"uint256"}],"stateMutability":"view"},{"type":"function","name":"getTotalPending","inputs":[],"outputs":[{"name":"","type":"uint256","internalType":"uint256"}],"stateMutability":"view"},{"type":"function","name":"initialize","inputs":[{"name":"owner_","type":"address","internalType":"address"},{"name":"initialPayees_","type":"tuple[]","internalType":"struct PaymentSplitter.Payee[]","components":[{"name":"addr","type":"address","internalType":"address payable"},{"name":"share","type":"uint256","internalType":"uint256"},{"name":"name","type":"string","internalType":"string"}]}],"outputs":[],"stateMutability":"nonpayable"},{"type":"function","name":"owner","inputs":[],"outputs":[{"name":"","type":"address","internalType":"address"}],"stateMutability":"view"},{"type":"function","name":"payees","inputs":[{"name":"","type":"uint256","internalType":"uint256"}],"outputs":[{"name":"addr","type":"address","internalType":"address payable"},{"name":"share","type":"uint256","internalType":"uint256"},{"name":"name","type":"string","internalType":"string"}],"stateMutability":"view"},{"type":"function","name":"proxiableUUID","inputs":[],"outputs":[{"name":"","type":"bytes32","internalType":"bytes32"}],"stateMutability":"view"},{"type":"function","name":"receivedFromSource","inputs":[{"name":"","type":"address","internalType":"address"}],"outputs":[{"name":"","type":"uint256","internalType":"uint256"}],"stateMutability":"view"},{"type":"function","name":"releaseAll","inputs":[],"outputs":[],"stateMutability":"nonpayable"},{"type":"function","name":"releaseToPayee","inputs":[{"name":"payeeIndex","type":"uint256","internalType":"uint256"}],"outputs":[],"stateMutability":"nonpayable"},{"type":"function","name":"releasedToPayee","inputs":[{"name":"","type":"address","internalType":"address"}],"outputs":[{"name":"","type":"uint256","internalType":"uint256"}],"stateMutability":"view"},{"type":"function","name":"renounceOwnership","inputs":[],"outputs":[],"stateMutability":"nonpayable"},{"type":"function","name":"setAuthorizedSource","inputs":[{"name":"source","type":"address","internalType":"address"},{"name":"authorized","type":"bool","internalType":"bool"}],"outputs":[],"stateMutability":"nonpayable"},{"type":"function","name":"setPayees","inputs":[{"name":"newPayees","type":"tuple[]","internalType":"struct PaymentSplitter.Payee[]","components":[{"name":"addr","type":"address","internalType":"address payable"},{"name":"share","type":"uint256","internalType":"uint256"},{"name":"name","type":"string","internalType":"string"}]}],"outputs":[],"stateMutability":"nonpayable"},{"type":"function","name":"totalReceived","inputs":[],"outputs":[{"name":"","type":"uint256","internalType":"uint256"}],"stateMutability":"view"},{"type":"function","name":"totalReleased","inputs":[],"outputs":[{"name":"","type":"uint256","internalType":"uint256"}],"stateMutability":"view"},{"type":"function","name":"totalShares","inputs":[],"outputs":[{"name":"","type":"uint256","internalType":"uint256"}],"stateMutability":"view"},{"type":"function","name":"transferOwnership","inputs":[{"name":"newOwner","type":"address","internalType":"address"}],"outputs":[],"stateMutability":"nonpayable"},{"type":"function","name":"upgradeToAndCall","inputs":[{"name":"newImplementation","type":"address","internalType":"address"},{"name":"data","type":"bytes","internalType":"bytes"}],"outputs":[],"stateMutability":"payable"},{"type":"event","name":"Initialized","inputs":[{"name":"version","type":"uint64","indexed":false,"internalType":"uint64"}],"anonymous":false},{"type":"event","name":"OwnershipTransferred","inputs":[{"name":"previousOwner","type":"address","indexed":true,"internalType":"address"},{"name":"newOwner","type":"address","indexed":true,"internalType":"address"}],"anonymous":false},{"type":"event","name":"PayeesUpdated","inputs":[{"name":"payees","type":"tuple[]","indexed":false,"internalType":"struct PaymentSplitter.Payee[]","components":[{"name":"addr","type":"address","internalType":"address payable"},{"name":"share","type":"uint256","internalType":"uint256"},{"name":"name","type":"string","internalType":"string"}]}],"anonymous":false},{"type":"event","name":"PaymentReceived","inputs":[{"name":"from","type":"address","indexed":true,"internalType":"address"},{"name":"amount","type":"uint256","indexed":false,"internalType":"uint256"}],"anonymous":false},{"type":"event","name":"PaymentReleased","inputs":[{"name":"to","type":"address","indexed":true,"internalType":"address"},{"name":"amount","type":"uint256","indexed":false,"internalType":"uint256"}],"anonymous":false},{"type":"event","name":"SourceAuthorized","inputs":[{"name":"source","type":"address","indexed":true,"internalType":"address"},{"name":"authorized","type":"bool","indexed":false,"internalType":"bool"}],"anonymous":false},{"type":"event","name":"Upgraded","inputs":[{"name":"implementation","type":"address","indexed":true,"internalType":"address"}],"anonymous":false},{"type":"error","name":"AddressEmptyCode","inputs":[{"name":"target","type":"address","internalType":"address"}]},{"type":"error","name":"ERC1967InvalidImplementation","inputs":[{"name":"implementation","type":"address","internalType":"address"}]},{"type":"error","name":"ERC1967NonPayable","inputs":[]},{"type":"error","name":"FailedCall","inputs":[]},{"type":"error","name":"InvalidInitialization","inputs":[]},{"type":"error","name":"InvalidShares","inputs":[]},{"type":"error","name":"NoPayeesToRelease","inputs":[]},{"type":"error","name":"NotInitializing","inputs":[]},{"type":"error","name":"OwnableInvalidOwner","inputs":[{"name":"owner","type":"address","internalType":"address"}]},{"type":"error","name":"OwnableUnauthorizedAccount","inputs":[{"name":"account","type":"address","internalType":"address"}]},{"type":"error","name":"ReentrancyGuardReentrantCall","inputs":[]},{"type":"error","name":"TooManyPayees","inputs":[]},{"type":"error","name":"TransferFailed","inputs":[]},{"type":"error","name":"UUPSUnauthorizedCallContext","inputs":[]},{"type":"error","name":"UUPSUnsupportedProxiableUUID","inputs":[{"name":"slot","type":"bytes32","internalType":"bytes32"}]},{"type":"error","name":"ZeroAddress","inputs":[]},{"type":"error","name":"ZeroAmount","inputs":[]}],"bytecode":{"object":"0x60a080604052346100e65760017f9b779b17422d0df92223018b32b4d1fa46e071723d6817e2486d003becc55f0055306080525f5160206116d15f395f51905f525460ff8160401c166100d7576002600160401b03196001600160401b03821601610084575b6040516115e690816100eb82396080518181816108e301526109e70152f35b6001600160401b0319166001600160401b039081175f5160206116d15f395f51905f525581527fc7f505b2f371ae2175ee4913f4499e1f2633a7b5936321eed1cdaeb6115181d290602090a15f80610065565b63f92ee8a960e01b5f5260045ffd5b5f80fdfe60806040526004361015610083575b3615610018575f80fd5b341561007457335f52600260205260405f20610035348254610f27565b905561004334600454610f27565b6004556040513481527f6ef95f06320e7a25a04a175ca677b7052bdd97131872c2192525a629f51be77060203392a2005b631f2a200560e01b5f5260045ffd5b5f3560e01c80630cdd154314610d28578063189dcaa114610cf057806327f3811314610b9b5780633a98ef3914610b7e5780633bd0540014610b635780634f1ef2861461096f5780635213298d1461093757806352d1902d146108d15780635be7fde8146107b35780635ecc86e81461079857806363037b0c146107245780636f04be5014610593578063715018a61461052c578063724f2cdc146105065780638da5cb5b146104d2578063964ebf4214610495578063a3c2c46214610478578063aaf5eb681461045c578063ad3cb1cc14610411578063c5b47110146102f9578063db2e21bc14610258578063e33b7de31461023b578063f0a13a4c146101be5763f2fde38b0361000e57346101ba5760203660031901126101ba576101b86101ab610d96565b6101b3610ff9565b610f88565b005b5f80fd5b346101ba5760403660031901126101ba576101d7610d96565b602435908115158092036101ba5760207f156964222630dfa2c9995108d1518962b131fb3525191a58194ce136ca42780791610211610ff9565b60018060a01b031692835f526006825260405f2060ff1981541660ff8316179055604051908152a2005b346101ba575f3660031901126101ba576020600554604051908152f35b346101ba575f3660031901126101ba57610270610ff9565b478015610074575f8080808460018060a01b035f5160206115115f395f51905f5254165af161029d610f34565b50156102ea575f5160206115115f395f51905f52546040519182526001600160a01b0316907fdf20fd1e76bc69d672e4814fafb2c449bba3a5369d8359adf9e05e6fde87b05690602090a2005b6312171d8360e31b5f5260045ffd5b346101ba5760203660031901126101ba57600435610315611421565b5f54811015610402574780156100745761034061271091600161033785610e0e565b50015490610f00565b049081156100745761035181610e0e565b50546001600160a01b03165f9081526003602052604090208054610376908490610f27565b905561038482600554610f27565b6005555f8080808561039586610e0e565b50546001600160a01b03165af16103aa610f34565b50156102ea5760206103dc7fdf20fd1e76bc69d672e4814fafb2c449bba3a5369d8359adf9e05e6fde87b05692610e0e565b50546040519384526001600160a01b031692a260015f5160206115715f395f51905f5255005b63989cf87360e01b5f5260045ffd5b346101ba575f3660031901126101ba57610458604051610432604082610dd0565b60058152640352e302e360dc1b6020820152604051918291602083526020830190610dac565b0390f35b346101ba575f3660031901126101ba5760206040516127108152f35b346101ba575f3660031901126101ba576020600454604051908152f35b346101ba5760203660031901126101ba576001600160a01b036104b6610d96565b165f526006602052602060ff60405f2054166040519015158152f35b346101ba575f3660031901126101ba575f5160206115115f395f51905f52546040516001600160a01b039091168152602090f35b346101ba5760203660031901126101ba576020610524600435610f63565b604051908152f35b346101ba575f3660031901126101ba57610544610ff9565b5f5160206115115f395f51905f5280546001600160a01b031981169091555f906001600160a01b03167f8be0079c531659141344cd1fd0a4f28419497f9722a3daafe3b4186f6b6457e08280a3005b346101ba5760403660031901126101ba576105ac610d96565b60243567ffffffffffffffff81116101ba576105cc903690600401610d65565b5f5160206115915f395f51905f5254604081901c60ff161593929067ffffffffffffffff81168015908161071c575b6001149081610712575b159081610709575b506106fa5767ffffffffffffffff1981166001175f5160206115915f395f51905f5255846106ce575b506001600160a01b038316156106bf5761065d61066293610655611459565b6101b3611459565b611078565b61066857005b68ff0000000000000000195f5160206115915f395f51905f5254165f5160206115915f395f51905f52557fc7f505b2f371ae2175ee4913f4499e1f2633a7b5936321eed1cdaeb6115181d2602060405160018152a1005b63d92e233d60e01b5f5260045ffd5b68ffffffffffffffffff191668010000000000000001175f5160206115915f395f51905f525584610636565b63f92ee8a960e01b5f5260045ffd5b9050158661060d565b303b159150610605565b8691506105fb565b346101ba5760203660031901126101ba576004355f548110156101ba5761074a90610e0e565b5060018060a01b03815416610458600261077a6001850154946107736040518094819301610e7f565b0382610dd0565b60405193849384526020840152606060408401526060830190610dac565b346101ba575f3660031901126101ba576020604051600a8152f35b346101ba575f3660031901126101ba576107cb611421565b478015610074575f5415610402575f5b5f548110156108be576127106107fe60016107f584610e0e565b50015484610f00565b049081610810575b60019150016107db565b61081981610e0e565b50546001600160a01b03165f908152600360205260409020805461083e908490610f27565b905561084c82600554610f27565b6005555f8080808561085d86610e0e565b50546001600160a01b03165af1610872610f34565b50156102ea576001917fdf20fd1e76bc69d672e4814fafb2c449bba3a5369d8359adf9e05e6fde87b05660206108a784610e0e565b50858060a01b0390541692604051908152a2610806565b60015f5160206115715f395f51905f5255005b346101ba575f3660031901126101ba577f00000000000000000000000000000000000000000000000000000000000000006001600160a01b031630036109285760206040515f5160206115515f395f51905f528152f35b63703e46dd60e11b5f5260045ffd5b346101ba5760203660031901126101ba576001600160a01b03610958610d96565b165f526002602052602060405f2054604051908152f35b60403660031901126101ba57610983610d96565b6024359067ffffffffffffffff82116101ba57366023830112156101ba5781600401356109af81610df2565b926109bd6040519485610dd0565b81845236602483830101116101ba57815f9260246020930183870137840101526001600160a01b037f000000000000000000000000000000000000000000000000000000000000000016308114908115610b41575b5061092857610a1f610ff9565b6040516352d1902d60e01b81526001600160a01b0382169290602081600481875afa5f9181610b0d575b50610a615783634c9c8ce360e01b5f5260045260245ffd5b805f5160206115515f395f51905f52859203610afb5750823b15610ae9575f5160206115515f395f51905f5280546001600160a01b031916821790557fbc7cd75a20ee27fd9adebab32041f755214dbc6bffa90cc0225b39da2e5c2d3b5f80a2805115610ad1576101b891611484565b505034610ada57005b63b398979f60e01b5f5260045ffd5b634c9c8ce360e01b5f5260045260245ffd5b632a87526960e21b5f5260045260245ffd5b9091506020813d602011610b39575b81610b2960209383610dd0565b810103126101ba57519085610a49565b3d9150610b1c565b5f5160206115515f395f51905f52546001600160a01b03161415905083610a12565b346101ba575f3660031901126101ba57602047604051908152f35b346101ba575f3660031901126101ba576020600154604051908152f35b346101ba575f3660031901126101ba575f5467ffffffffffffffff8111610cdc5760405190610bd060208260051b0183610dd0565b8082525f80805260208301915f5160206115315f395f51905f5291835b828210610c7c57848660405191829160208301906020845251809152604083019060408160051b85010192915f905b828210610c2b57505050500390f35b91936001919395506020610c6c8192603f198a8203018652606060408a51878060a01b03815116845285810151868501520151918160408201520190610dac565b9601920192018594939192610c1c565b6040516060810181811067ffffffffffffffff821117610cdc57600192600392602092604052848060a01b0388541681528488015483820152604051610cc9816107738160028d01610e7f565b6040820152815201940191019092610bed565b634e487b7160e01b5f52604160045260245ffd5b346101ba5760203660031901126101ba576001600160a01b03610d11610d96565b165f526003602052602060405f2054604051908152f35b346101ba5760203660031901126101ba5760043567ffffffffffffffff81116101ba57610d5c6101b8913690600401610d65565b9061065d610ff9565b9181601f840112156101ba5782359167ffffffffffffffff83116101ba576020808501948460051b0101116101ba57565b600435906001600160a01b03821682036101ba57565b805180835260209291819084018484015e5f828201840152601f01601f1916010190565b90601f8019910116810190811067ffffffffffffffff821117610cdc57604052565b67ffffffffffffffff8111610cdc57601f01601f191660200190565b5f54811015610e33575f8080526003919091025f5160206115315f395f51905f520191565b634e487b7160e01b5f52603260045260245ffd5b90600182811c92168015610e75575b6020831014610e6157565b634e487b7160e01b5f52602260045260245ffd5b91607f1691610e56565b5f9291815491610e8e83610e47565b8083529260018116908115610ee35750600114610eaa57505050565b5f9081526020812093945091925b838310610ec9575060209250010190565b600181602092949394548385870101520191019190610eb8565b915050602093945060ff929192191683830152151560051b010190565b81810292918115918404141715610f1357565b634e487b7160e01b5f52601160045260245ffd5b91908201809211610f1357565b3d15610f5e573d90610f4582610df2565b91610f536040519384610dd0565b82523d5f602084013e565b606090565b5f54811015610f8357610f7f6127109160016103374792610e0e565b0490565b505f90565b6001600160a01b03168015610fe6575f5160206115115f395f51905f5280546001600160a01b0319811683179091556001600160a01b03167f8be0079c531659141344cd1fd0a4f28419497f9722a3daafe3b4186f6b6457e05f80a3565b631e4fbdf760e01b5f525f60045260245ffd5b5f5160206115115f395f51905f52546001600160a01b0316330361101957565b63118cdaa760e01b5f523360045260245ffd5b9190811015610e335760051b81013590605e19813603018212156101ba570190565b356001600160a01b03811681036101ba5790565b81811061106d575050565b5f8155600101611062565b9190600a8111611412575f805b8282106113ce576127109150036113bf575f545f805580611317575b5090915f915b8083106111685750505061271060015560405160208101602082525f548091526040820160408260051b840101915f80525f5160206115315f395f51905f52915f905b82821061111e575050505090807fc3e2f95d2d74c5bb86b475baa7ac04e91da5f09820b05c34fcbc670a61d1e336920390a1565b909192936020600361115a6060600194603f198b8203018752858060a01b038a54168152858a0154858201528160408201520160028901610e7f565b9601920192019092916110ea565b61117683828495969461102c565b935f5468010000000000000000811015610cdc5780600161119992015f55610e0e565b611304576002906001600160a01b036111b18861104e565b82546001600160a01b031916911617815560208701356001820155019460408101359036819003601e19018212156101ba570194853567ffffffffffffffff81116101ba5780360360208801136101ba5761120c8254610e47565b601f81116112c9575b505f96601f821160011461125c5760019495969782915f9261124e575b50505f19600383901b1c191690841b1790555b019192906110a7565b602092500101355f80611232565b601f19821690835f5260205f20915f5b8181106112af575090600196979899848895949310611293575b505050811b019055611245565b01602001355f19600384901b60f8161c191690555f8080611286565b999260206001819282878701013581550194019a0161126c565b6112f490835f5260205f20601f840160051c810191602085106112fa575b601f0160051c0190611062565b5f611215565b90915081906112e7565b634e487b7160e01b5f525f60045260245ffd5b80600302906003820403610f13575f80525f5160206115315f395f51905f52015f5160206115315f395f51905f525b81811061135357506110a1565b805f600392555f60018201556002810161136d8154610e47565b908161137c575b505001611346565b81601f5f93116001146113935750555b5f80611374565b818352602083206113af91601f0160051c810190600101611062565b808252816020812091555561138c565b636edcc52360e01b5f5260045ffd5b6001600160a01b036113e96113e484868961102c565b61104e565b16156106bf5761140a600191602061140285878a61102c565b013590610f27565b910190611085565b63070f6fab60e41b5f5260045ffd5b60025f5160206115715f395f51905f52541461144a5760025f5160206115715f395f51905f5255565b633ee5aeb560e01b5f5260045ffd5b60ff5f5160206115915f395f51905f525460401c161561147557565b631afcd79f60e31b5f5260045ffd5b905f8091602081519101845af480806114fd575b156114b85750506040513d81523d5f602083013e60203d82010160405290565b156114dd57639996b31560e01b5f9081526001600160a01b0391909116600452602490fd5b3d156114ee576040513d5f823e3d90fd5b63d6bda27560e01b5f5260045ffd5b503d1515806114985750813b151561149856fe9016d09d72d40fdae2fd8ceac6b6234c7706214fd39c1cd1e609a0528c199300290decd9548b62a8d60345a988386fc84ba6bc95484008f6362f93160ef3e563360894a13ba1a3210667c828492db98dca3e2076cc3735a920a3ca505d382bbc9b779b17422d0df92223018b32b4d1fa46e071723d6817e2486d003becc55f00f0c57e16840df040f15088dc2f81fe391c3923bec73e23a9662efc9c229c6a00a2646970667358221220c93c3086880eecedeb3d9998a3827b970b83b500a730d0b792436efc27a05b9e64736f6c634300081b0033f0c57e16840df040f15088dc2f81fe391c3923bec73e23a9662efc9c229c6a00","linkReferences":{}},"methodIdentifiers":{"MAX_PAYEES()":"5ecc86e8","PRECISION()":"aaf5eb68","UPGRADE_INTERFACE_VERSION()":"ad3cb1cc","authorizedSources(address)":"964ebf42","emergencyWithdraw()":"db2e21bc","getPayees()":"27f38113","getPendingPayment(uint256)":"724f2cdc","getTotalPending()":"3bd05400","initialize(address,(address,uint256,string)[])":"6f04be50","owner()":"8da5cb5b","payees(uint256)":"63037b0c","proxiableUUID()":"52d1902d","receivedFromSource(address)":"5213298d","releaseAll()":"5be7fde8","releaseToPayee(uint256)":"c5b47110","releasedToPayee(address)":"189dcaa1","renounceOwnership()":"715018a6","setAuthorizedSource(address,bool)":"f0a13a4c","setPayees((address,uint256,string)[])":"0cdd1543","totalReceived()":"a3c2c462","totalReleased()":"e33b7de3","totalShares()":"3a98ef39","transferOwnership(address)":"f2fde38b","upgradeToAndCall(address,bytes)":"4f1ef286"},"id":650}