{"abi":[{"type":"function","name":"ADMIN_ROLE","inputs":[],"outputs":[{"name":"","type":"uint64","internalType":"uint64"}],"stateMutability":"view"},{"type":"function","name":"PUBLIC_ROLE","inputs":[],"outputs":[{"name":"","type":"uint64","internalType":"uint64"}],"stateMutability":"view"},{"type":"function","name":"canCall","inputs":[{"name":"caller","type":"address","internalType":"address"},{"name":"target","type":"address","internalType":"address"},{"name":"selector","type":"bytes4","internalType":"bytes4"}],"outputs":[{"name":"immediate","type":"bool","internalType":"bool"},{"name":"delay","type":"uint32","internalType":"uint32"}],"stateMutability":"view"},{"type":"function","name":"cancel","inputs":[{"name":"caller","type":"address","internalType":"address"},{"name":"target","type":"address","internalType":"address"},{"name":"data","type":"bytes","internalType":"bytes"}],"outputs":[{"name":"","type":"uint32","internalType":"uint32"}],"stateMutability":"nonpayable"},{"type":"function","name":"consumeScheduledOp","inputs":[{"name":"caller","type":"address","internalType":"address"},{"name":"data","type":"bytes","internalType":"bytes"}],"outputs":[],"stateMutability":"nonpayable"},{"type":"function","name":"execute","inputs":[{"name":"target","type":"address","internalType":"address"},{"name":"data","type":"bytes","internalType":"bytes"}],"outputs":[{"name":"","type":"uint32","internalType":"uint32"}],"stateMutability":"payable"},{"type":"function","name":"expiration","inputs":[],"outputs":[{"name":"","type":"uint32","internalType":"uint32"}],"stateMutability":"view"},{"type":"function","name":"getAccess","inputs":[{"name":"roleId","type":"uint64","internalType":"uint64"},{"name":"account","type":"address","internalType":"address"}],"outputs":[{"name":"since","type":"uint48","internalType":"uint48"},{"name":"currentDelay","type":"uint32","internalType":"uint32"},{"name":"pendingDelay","type":"uint32","internalType":"uint32"},{"name":"effect","type":"uint48","internalType":"uint48"}],"stateMutability":"view"},{"type":"function","name":"getNonce","inputs":[{"name":"id","type":"bytes32","internalType":"bytes32"}],"outputs":[{"name":"","type":"uint32","internalType":"uint32"}],"stateMutability":"view"},{"type":"function","name":"getRoleAdmin","inputs":[{"name":"roleId","type":"uint64","internalType":"uint64"}],"outputs":[{"name":"","type":"uint64","internalType":"uint64"}],"stateMutability":"view"},{"type":"function","name":"getRoleGrantDelay","inputs":[{"name":"roleId","type":"uint64","internalType":"uint64"}],"outputs":[{"name":"","type":"uint32","internalType":"uint32"}],"stateMutability":"view"},{"type":"function","name":"getRoleGuardian","inputs":[{"name":"roleId","type":"uint64","internalType":"uint64"}],"outputs":[{"name":"","type":"uint64","internalType":"uint64"}],"stateMutability":"view"},{"type":"function","name":"getSchedule","inputs":[{"name":"id","type":"bytes32","internalType":"bytes32"}],"outputs":[{"name":"","type":"uint48","internalType":"uint48"}],"stateMutability":"view"},{"type":"function","name":"getTargetAdminDelay","inputs":[{"name":"target","type":"address","internalType":"address"}],"outputs":[{"name":"","type":"uint32","internalType":"uint32"}],"stateMutability":"view"},{"type":"function","name":"getTargetFunctionRole","inputs":[{"name":"target","type":"address","internalType":"address"},{"name":"selector","type":"bytes4","internalType":"bytes4"}],"outputs":[{"name":"","type":"uint64","internalType":"uint64"}],"stateMutability":"view"},{"type":"function","name":"grantRole","inputs":[{"name":"roleId","type":"uint64","internalType":"uint64"},{"name":"account","type":"address","internalType":"address"},{"name":"executionDelay","type":"uint32","internalType":"uint32"}],"outputs":[],"stateMutability":"nonpayable"},{"type":"function","name":"hasRole","inputs":[{"name":"roleId","type":"uint64","internalType":"uint64"},{"name":"account","type":"address","internalType":"address"}],"outputs":[{"name":"isMember","type":"bool","internalType":"bool"},{"name":"executionDelay","type":"uint32","internalType":"uint32"}],"stateMutability":"view"},{"type":"function","name":"hashOperation","inputs":[{"name":"caller","type":"address","internalType":"address"},{"name":"target","type":"address","internalType":"address"},{"name":"data","type":"bytes","internalType":"bytes"}],"outputs":[{"name":"","type":"bytes32","internalType":"bytes32"}],"stateMutability":"view"},{"type":"function","name":"initialize","inputs":[{"name":"initialAdmin","type":"address","internalType":"address"}],"outputs":[],"stateMutability":"nonpayable"},{"type":"function","name":"isTargetClosed","inputs":[{"name":"target","type":"address","internalType":"address"}],"outputs":[{"name":"","type":"bool","internalType":"bool"}],"stateMutability":"view"},{"type":"function","name":"labelRole","inputs":[{"name":"roleId","type":"uint64","internalType":"uint64"},{"name":"label","type":"string","internalType":"string"}],"outputs":[],"stateMutability":"nonpayable"},{"type":"function","name":"minSetback","inputs":[],"outputs":[{"name":"","type":"uint32","internalType":"uint32"}],"stateMutability":"view"},{"type":"function","name":"multicall","inputs":[{"name":"data","type":"bytes[]","internalType":"bytes[]"}],"outputs":[{"name":"results","type":"bytes[]","internalType":"bytes[]"}],"stateMutability":"nonpayable"},{"type":"function","name":"renounceRole","inputs":[{"name":"roleId","type":"uint64","internalType":"uint64"},{"name":"callerConfirmation","type":"address","internalType":"address"}],"outputs":[],"stateMutability":"nonpayable"},{"type":"function","name":"revokeRole","inputs":[{"name":"roleId","type":"uint64","internalType":"uint64"},{"name":"account","type":"address","internalType":"address"}],"outputs":[],"stateMutability":"nonpayable"},{"type":"function","name":"schedule","inputs":[{"name":"target","type":"address","internalType":"address"},{"name":"data","type":"bytes","internalType":"bytes"},{"name":"when","type":"uint48","internalType":"uint48"}],"outputs":[{"name":"operationId","type":"bytes32","internalType":"bytes32"},{"name":"nonce","type":"uint32","internalType":"uint32"}],"stateMutability":"nonpayable"},{"type":"function","name":"setGrantDelay","inputs":[{"name":"roleId","type":"uint64","internalType":"uint64"},{"name":"newDelay","type":"uint32","internalType":"uint32"}],"outputs":[],"stateMutability":"nonpayable"},{"type":"function","name":"setRoleAdmin","inputs":[{"name":"roleId","type":"uint64","internalType":"uint64"},{"name":"admin","type":"uint64","internalType":"uint64"}],"outputs":[],"stateMutability":"nonpayable"},{"type":"function","name":"setRoleGuardian","inputs":[{"name":"roleId","type":"uint64","internalType":"uint64"},{"name":"guardian","type":"uint64","internalType":"uint64"}],"outputs":[],"stateMutability":"nonpayable"},{"type":"function","name":"setTargetAdminDelay","inputs":[{"name":"target","type":"address","internalType":"address"},{"name":"newDelay","type":"uint32","internalType":"uint32"}],"outputs":[],"stateMutability":"nonpayable"},{"type":"function","name":"setTargetClosed","inputs":[{"name":"target","type":"address","internalType":"address"},{"name":"closed","type":"bool","internalType":"bool"}],"outputs":[],"stateMutability":"nonpayable"},{"type":"function","name":"setTargetFunctionRole","inputs":[{"name":"target","type":"address","internalType":"address"},{"name":"selectors","type":"bytes4[]","internalType":"bytes4[]"},{"name":"roleId","type":"uint64","internalType":"uint64"}],"outputs":[],"stateMutability":"nonpayable"},{"type":"function","name":"updateAuthority","inputs":[{"name":"target","type":"address","internalType":"address"},{"name":"newAuthority","type":"address","internalType":"address"}],"outputs":[],"stateMutability":"nonpayable"},{"type":"event","name":"Initialized","inputs":[{"name":"version","type":"uint64","indexed":false,"internalType":"uint64"}],"anonymous":false},{"type":"event","name":"OperationCanceled","inputs":[{"name":"operationId","type":"bytes32","indexed":true,"internalType":"bytes32"},{"name":"nonce","type":"uint32","indexed":true,"internalType":"uint32"}],"anonymous":false},{"type":"event","name":"OperationExecuted","inputs":[{"name":"operationId","type":"bytes32","indexed":true,"internalType":"bytes32"},{"name":"nonce","type":"uint32","indexed":true,"internalType":"uint32"}],"anonymous":false},{"type":"event","name":"OperationScheduled","inputs":[{"name":"operationId","type":"bytes32","indexed":true,"internalType":"bytes32"},{"name":"nonce","type":"uint32","indexed":true,"internalType":"uint32"},{"name":"schedule","type":"uint48","indexed":false,"internalType":"uint48"},{"name":"caller","type":"address","indexed":false,"internalType":"address"},{"name":"target","type":"address","indexed":false,"internalType":"address"},{"name":"data","type":"bytes","indexed":false,"internalType":"bytes"}],"anonymous":false},{"type":"event","name":"RoleAdminChanged","inputs":[{"name":"roleId","type":"uint64","indexed":true,"internalType":"uint64"},{"name":"admin","type":"uint64","indexed":true,"internalType":"uint64"}],"anonymous":false},{"type":"event","name":"RoleGrantDelayChanged","inputs":[{"name":"roleId","type":"uint64","indexed":true,"internalType":"uint64"},{"name":"delay","type":"uint32","indexed":false,"internalType":"uint32"},{"name":"since","type":"uint48","indexed":false,"internalType":"uint48"}],"anonymous":false},{"type":"event","name":"RoleGranted","inputs":[{"name":"roleId","type":"uint64","indexed":true,"internalType":"uint64"},{"name":"account","type":"address","indexed":true,"internalType":"address"},{"name":"delay","type":"uint32","indexed":false,"internalType":"uint32"},{"name":"since","type":"uint48","indexed":false,"internalType":"uint48"},{"name":"newMember","type":"bool","indexed":false,"internalType":"bool"}],"anonymous":false},{"type":"event","name":"RoleGuardianChanged","inputs":[{"name":"roleId","type":"uint64","indexed":true,"internalType":"uint64"},{"name":"guardian","type":"uint64","indexed":true,"internalType":"uint64"}],"anonymous":false},{"type":"event","name":"RoleLabel","inputs":[{"name":"roleId","type":"uint64","indexed":true,"internalType":"uint64"},{"name":"label","type":"string","indexed":false,"internalType":"string"}],"anonymous":false},{"type":"event","name":"RoleRevoked","inputs":[{"name":"roleId","type":"uint64","indexed":true,"internalType":"uint64"},{"name":"account","type":"address","indexed":true,"internalType":"address"}],"anonymous":false},{"type":"event","name":"TargetAdminDelayUpdated","inputs":[{"name":"target","type":"address","indexed":true,"internalType":"address"},{"name":"delay","type":"uint32","indexed":false,"internalType":"uint32"},{"name":"since","type":"uint48","indexed":false,"internalType":"uint48"}],"anonymous":false},{"type":"event","name":"TargetClosed","inputs":[{"name":"target","type":"address","indexed":true,"internalType":"address"},{"name":"closed","type":"bool","indexed":false,"internalType":"bool"}],"anonymous":false},{"type":"event","name":"TargetFunctionRoleUpdated","inputs":[{"name":"target","type":"address","indexed":true,"internalType":"address"},{"name":"selector","type":"bytes4","indexed":false,"internalType":"bytes4"},{"name":"roleId","type":"uint64","indexed":true,"internalType":"uint64"}],"anonymous":false},{"type":"error","name":"AccessManagerAlreadyScheduled","inputs":[{"name":"operationId","type":"bytes32","internalType":"bytes32"}]},{"type":"error","name":"AccessManagerBadConfirmation","inputs":[]},{"type":"error","name":"AccessManagerExpired","inputs":[{"name":"operationId","type":"bytes32","internalType":"bytes32"}]},{"type":"error","name":"AccessManagerInvalidInitialAdmin","inputs":[{"name":"initialAdmin","type":"address","internalType":"address"}]},{"type":"error","name":"AccessManagerLockedRole","inputs":[{"name":"roleId","type":"uint64","internalType":"uint64"}]},{"type":"error","name":"AccessManagerNotReady","inputs":[{"name":"operationId","type":"bytes32","internalType":"bytes32"}]},{"type":"error","name":"AccessManagerNotScheduled","inputs":[{"name":"operationId","type":"bytes32","internalType":"bytes32"}]},{"type":"error","name":"AccessManagerUnauthorizedAccount","inputs":[{"name":"msgsender","type":"address","internalType":"address"},{"name":"roleId","type":"uint64","internalType":"uint64"}]},{"type":"error","name":"AccessManagerUnauthorizedCall","inputs":[{"name":"caller","type":"address","internalType":"address"},{"name":"target","type":"address","internalType":"address"},{"name":"selector","type":"bytes4","internalType":"bytes4"}]},{"type":"error","name":"AccessManagerUnauthorizedCancel","inputs":[{"name":"msgsender","type":"address","internalType":"address"},{"name":"caller","type":"address","internalType":"address"},{"name":"target","type":"address","internalType":"address"},{"name":"selector","type":"bytes4","internalType":"bytes4"}]},{"type":"error","name":"AccessManagerUnauthorizedConsume","inputs":[{"name":"target","type":"address","internalType":"address"}]},{"type":"error","name":"AddressEmptyCode","inputs":[{"name":"target","type":"address","internalType":"address"}]},{"type":"error","name":"FailedCall","inputs":[]},{"type":"error","name":"InsufficientBalance","inputs":[{"name":"balance","type":"uint256","internalType":"uint256"},{"name":"needed","type":"uint256","internalType":"uint256"}]},{"type":"error","name":"InvalidInitialization","inputs":[]},{"type":"error","name":"NotInitializing","inputs":[]},{"type":"error","name":"SafeCastOverflowedUintDowncast","inputs":[{"name":"bits","type":"uint8","internalType":"uint8"},{"name":"value","type":"uint256","internalType":"uint256"}]}],"bytecode":{"object":"0x608080604052346015576127f2908161001a8239f35b5f80fdfe60806040526004361015610011575f80fd5b5f5f3560e01c806308d6122d146114725780630b0a93ba1461143e57806312be87271461141b578063167bd3951461138357806318ff183c146112f15780631cff79cd1461118e57806325c471a01461113f5780633078f114146110e457806330cae187146110495780633adc277a1461101a5780633ca7c02a14610ff85780634136a33c14610fb95780634665096d14610f9b5780634c1da1e214610f695780635296295214610eaa578063530dd45614610e685780636d5115bd14610dfa57806375b238fc14610dde578063853551b814610d3857806394c7d7ee14610c72578063a166aa8914610c44578063a64d95ce14610b3f578063abd9bd2a14610b1a578063ac9650d81461096d578063b700961314610928578063b7d2b162146108f5578063c4d66de814610772578063cc1b6c8114610754578063d1f856ee1461070f578063d22b598914610626578063d6bb62c61461042a578063f801a698146101d75763fe0776f514610185575f80fd5b346101d45760403660031901126101d45761019e6115bc565b6101a6611576565b90336001600160a01b038316036101c557906101c191612107565b5080f35b635f159e6360e01b8352600483fd5b80fd5b50346101d45760603660031901126101d4576101f1611560565b906024356001600160401b038111610426576102119036906004016115e8565b919060443565ffffffffffff81168091036104225761023284838733611aff565b905061024e63ffffffff6102454261270d565b92168092611a2e565b90158015610407575b6103ce579065ffffffffffff809216908180821191180218169061027d84828733611887565b938484525f51602061275d5f395f51905f5260205265ffffffffffff60408520541680151590816103bd575b506103a957604095849361039a87947f82a2da5dee54ea8021c6545b4444620291e07ee83be6dd57edb175062715f3b494868b99525f51602061275d5f395f51905f52602052600163ffffffff8a8a205460301c160163ffffffff81169989898c9b525f51602061275d5f395f51905f5260205281812065ffffffffffff881665ffffffffffff198254161790558981525f51602061275d5f395f51905f52602052209069ffffffff00000000000082549160301b169069ffffffff00000000000019161790558a51948594855233602086015260018060a01b03168b850152608060608501526080840191611838565b0390a382519182526020820152f35b63813e945960e01b84526004859052602484fd5b6103c791506120b1565b155f6102a9565b606484876103dc8887611b46565b6381c6f24b60e01b8352336004526001600160a01b039091166024526001600160e01b031916604452fd5b508115158015610257575065ffffffffffff81168210610257565b8280fd5b5080fd5b50346101d4576104529061043d3661166b565b61044a8183949793611b46565b928685611887565b918284525f51602061275d5f395f51905f5260205265ffffffffffff604085205416155f1461048f5763060a299b60e41b84526004839052602484fd5b6001600160a01b031690338203610519575b5050602092508082525f51602061275d5f395f51905f5283526040822065ffffffffffff1981541690558082525f51602061275d5f395f51905f52835263ffffffff604083205460301c1680917fbd9ac67a6e2f6463b80927326310338bcbb4bdb7936ce1365ea3e01067e7b9f76040519480a38152f35b335f9081527f7b4501b7c347294b6ab7642a0f3ba6ad26efef1601fdfb1d54a7ff5bc6709097602052604090205465ffffffffffff811695906105679060301c6001600160701b0316612074565b50508615159687610609575b505060018060a01b0316948585525f51602061277d5f395f51905f52602052604085209163ffffffff60e01b16918286526020526105c6336105c16001600160401b036040892054166116f3565b6119d8565b5090159081610600575b50156104a157608492508460405192630ff89d4760e21b8452336004850152602484015260448301526064820152fd5b9050155f6105d0565b90965065ffffffffffff61061c4261270d565b161015955f610573565b50346101d45760403660031901126101d457610640611560565b7fa56b76017453f399ec2327ba00375dbfb1fd070ff854341ad6191e6a2e2de19c610669611658565b91610672611a60565b60018060a01b0316918284525f51602061277d5f395f51905f526020526106a9816001600160701b036001604088200154166125e2565b91908486525f51602061277d5f395f51905f526020526001600160701b036001604088200191166001600160701b03198254161790556107096040519283928390929165ffffffffffff60209163ffffffff604085019616845216910152565b0390a280f35b50346101d45760403660031901126101d45761073a61072c6115bc565b610734611576565b906119d8565b60408051921515835263ffffffff91909116602083015290f35b50346101d457806003193601126101d4576020604051620697808152f35b50346101d45760203660031901126101d45761078c611560565b5f51602061279d5f395f51905f5254906001600160401b0360ff8360401c16159216801590816108ed575b60011490816108e3575b1590816108da575b506108cb578160016001600160401b03195f51602061279d5f395f51905f525416175f51602061279d5f395f51905f5255610896575b6108076126e2565b61080f6126e2565b6001600160a01b038116156108825761082790611d08565b5061082f5780f35b60ff60401b195f51602061279d5f395f51905f5254165f51602061279d5f395f51905f52557fc7f505b2f371ae2175ee4913f4499e1f2633a7b5936321eed1cdaeb6115181d2602060405160018152a180f35b630409d6d160e11b83526004839052602483fd5b6801000000000000000060ff60401b195f51602061279d5f395f51905f525416175f51602061279d5f395f51905f52556107ff565b63f92ee8a960e01b8352600483fd5b9050155f6107c9565b303b1591506107c1565b8391506107b7565b50346101d45760403660031901126101d4576101c16109126115bc565b61091a611576565b90610923611a60565b612107565b50346101d45760603660031901126101d457610942611560565b61094a611576565b604435916001600160e01b0319831683036109695761073a9350611915565b8380fd5b50346101d45760203660031901126101d4576004356001600160401b0381116104265761099e90369060040161158c565b9060206040516109ae8282611764565b84815281810191601f1981013684376109c6856118d6565b936109d46040519586611764565b858552601f196109e3876118d6565b01875b818110610b0b57505036819003601e190190875b87811015610a93578060051b82013583811215610a8f578201908135916001600160401b038311610a8b5785018236038113610a8b5782610a69610a6f928d898c6001986040519687958487013784018281018481528e519283915e010190815203601f198101835282611764565b306120e5565b610a79828a6118ed565b52610a8481896118ed565b50016109fa565b8a80fd5b8980fd5b88848860405191808301818452825180915260408401918060408360051b870101940192865b838810610ac65786860387f35b9091929394838080600193603f198b8203018752818a518051918291828552018484015e86838284010152601f80199101160101970193019701969093929193610ab9565b606087820185015283016109e6565b50346101d4576020610b37610b2e3661166b565b92919091611887565b604051908152f35b50346101d45760403660031901126101d457610b596115bc565b610b61611658565b610b69611a60565b6001600160401b038216916001600160401b038314610c305781816001610bcb7ffeb69018ee8b8fd50ea86348f1267d07673379f72cffdeccec63853ee8ce8b48956001600160701b0383610bc0610bd3986116bd565b015460801c166125e2565b9490926116bd565b0180546dffffffffffffffffffffffffffff60801b191660809290921b6dffffffffffffffffffffffffffff60801b169190911790556040805163ffffffff909216825265ffffffffffff90921660208201529081908101610709565b63061c6a4360e21b84526004839052602484fd5b50346101d45760203660031901126101d4576020610c68610c63611560565b611858565b6040519015158152f35b50346101d457610c8136611615565b91604051638fb3603760e01b8152602081600481335afa908115610d2d578591610ce6575b506001600160e01b03191663704c9fc960e01b01610cd35791610cce916101c1933390611887565b611b5c565b630641fee960e31b845233600452602484fd5b90506020813d602011610d25575b81610d0160209383611764565b81010312610d2157516001600160e01b031981168103610d21575f610ca6565b8480fd5b3d9150610cf4565b6040513d87823e3d90fd5b50346101d45760403660031901126101d457610d526115bc565b602435906001600160401b03821161042257610d7a6001600160401b039236906004016115e8565b929091610d85611a60565b169182158015610dce575b610c3057907f1256f5b5ecb89caec12db449738f2fbcd1ba5806cf38f35413f4e5c15bf6a45091610709604051928392602084526020840191611838565b506001600160401b038314610d90565b50346101d457806003193601126101d457602090604051908152f35b50346101d45760403660031901126101d457610e14611560565b6024359063ffffffff60e01b8216809203610422576001600160a01b031682525f51602061277d5f395f51905f5260209081526040808420928452918152918190205490516001600160401b039091168152f35b50346101d45760203660031901126101d45760206001600160401b036001610e96610e916115bc565b6116bd565b0154166001600160401b0360405191168152f35b50346101d45760403660031901126101d457610ec46115bc565b610ecc6115d2565b610ed4611a60565b6001600160401b0382169182158015610f59575b610c3057906001610f006001600160401b03936116bd565b0180546fffffffffffffffff00000000000000001916604083901b6fffffffffffffffff00000000000000001617905516907f7a8059630b897b5de4c08ade69f8b90c3ead1f8596d62d10b6c4d14a0afb4ae28380a380f35b506001600160401b038314610ee8565b50346101d45760203660031901126101d4576020610f8d610f88611560565b611800565b63ffffffff60405191168152f35b50346101d457806003193601126101d457602060405162093a808152f35b50346101d45760203660031901126101d45763ffffffff604060209260043581525f51602061275d5f395f51905f528452205460301c16604051908152f35b50346101d457806003193601126101d45760206040516001600160401b038152f35b50346101d45760203660031901126101d45760206110396004356117ca565b65ffffffffffff60405191168152f35b50346101d45760403660031901126101d4576110636115bc565b61106b6115d2565b611073611a60565b6001600160401b03821691821580156110d4575b610c305790600161109f6001600160401b03936116bd565b01828216831982541617905516907f1fd6dd7631312dfac2205b52913f99de03b4d7e381d5d27d3dbfe0713e6e63408380a380f35b506001600160401b038314611087565b50346101d45760403660031901126101d457608063ffffffff65ffffffffffff8161111e6111106115bc565b611118611576565b90611785565b93929590918560405197168752166020860152166040840152166060820152f35b50346101d45760603660031901126101d4576111596115bc565b611161611576565b906044359063ffffffff82168203610969576101c19261117f611a60565b6111888261170f565b91611ef9565b5061119836611615565b90916111a682848333611aff565b939015806112e3575b6112d5576111bf83828433611887565b63ffffffff869516158015906112bc575b6112aa575b505f51602061273d5f395f51905f5254926112186111f38284611b46565b6001600160a01b0385165f9081526001600160e01b0319919091166020526040902090565b5f51602061273d5f395f51905f52556001600160401b038111611296576040519161124d601f8301601f191660200184611764565b81835236828201116112925795602082849382998361127498970137830101523491611c41565b505f51602061273d5f395f51905f525563ffffffff60405191168152f35b8680fd5b634e487b7160e01b86526041600452602486fd5b6112b5919450611b5c565b925f6111d5565b5065ffffffffffff6112cd826117ca565b1615156111d0565b906103dc6064938693611b46565b5063ffffffff8416156111af565b503461137f57604036600319011261137f5761130b611560565b611313611576565b9061131c611a60565b6001600160a01b031690813b1561137f57604051637a9e5e4b60e01b81526001600160a01b039091166004820152905f908290602490829084905af1801561137457611366575080f35b61137291505f90611764565b005b6040513d5f823e3d90fd5b5f80fd5b3461137f57604036600319011261137f5761139c611560565b6024359081151580920361137f5760207f90d4e7bb7e5d933792b3562e1741306f8be94837e1348dacef9b6f1df56eb138916113d6611a60565b6001600160a01b03165f8181525f51602061277d5f395f51905f528352604090819020600101805460ff60701b1916607087901b60ff60701b161790555193845292a2005b3461137f57602036600319011261137f576020610f8d6114396115bc565b61170f565b3461137f57602036600319011261137f57602061146161145c6115bc565b6116f3565b6001600160401b0360405191168152f35b3461137f57606036600319011261137f5761148b611560565b6024356001600160401b03811161137f576114aa90369060040161158c565b9190604435906001600160401b03821680920361137f576114cc939293611a60565b6001600160a01b03909316925f5b83811015611372578060051b8201359063ffffffff60e01b821680920361137f5783867f9ea6790c7dadfd01c9f8b9762b3682607af2c7e79e05a9f9fdf5580dde9491516020600195835f525f51602061277d5f395f51905f52825260405f20815f52825260405f20856001600160401b0319825416179055604051908152a3016114da565b600435906001600160a01b038216820361137f57565b602435906001600160a01b038216820361137f57565b9181601f8401121561137f578235916001600160401b03831161137f576020808501948460051b01011161137f57565b600435906001600160401b038216820361137f57565b602435906001600160401b038216820361137f57565b9181601f8401121561137f578235916001600160401b03831161137f576020838186019501011161137f57565b90604060031983011261137f576004356001600160a01b038116810361137f5791602435906001600160401b03821161137f57611654916004016115e8565b9091565b6024359063ffffffff8216820361137f57565b606060031982011261137f576004356001600160a01b038116810361137f57916024356001600160a01b038116810361137f5791604435906001600160401b03821161137f57611654916004016115e8565b6001600160401b03165f527f40c6c8c28789853c7efd823ab20824bbd71718a8a5915e855f6f288c9a26ad0160205260405f2090565b60016117066001600160401b03926116bd565b015460401c1690565b6001600160701b036001611725611730936116bd565b015460801c16612074565b505090565b604081019081106001600160401b0382111761175057604052565b634e487b7160e01b5f52604160045260245ffd5b90601f801991011681019081106001600160401b0382111761175057604052565b9061179765ffffffffffff93926116bd565b9060018060a01b03165f5260205260405f2054906117c06001600160701b038360301c16612074565b9490931693909291565b5f525f51602061275d5f395f51905f5260205265ffffffffffff60405f2054166117f3816120b1565b156117fd57505f90565b90565b6001600160a01b03165f9081525f51602061277d5f395f51905f526020526040902060010154611730906001600160701b0316612074565b908060209392818452848401375f828201840152601f01601f1916010190565b6001600160a01b03165f9081525f51602061277d5f395f51905f52602052604090206001015460701c60ff1690565b604080516001600160a01b039283166020820190815292909316908301526060808301529290916118d09183916118c2916080840191611838565b03601f198101835282611764565b51902090565b6001600160401b0381116117505760051b60200190565b80518210156119015760209160051b010190565b634e487b7160e01b5f52603260045260245ffd5b91909161192183611858565b1561192f575050505f905f90565b6001600160a01b038116300361197857505f51602061273d5f395f51905f52546001600160a01b039092165f9081526001600160e01b0319909116602052604090205b14905f90565b906119be9260018060a01b03165f525f51602061277d5f395f51905f5260205260405f209063ffffffff60e01b165f526020526001600160401b0360405f2054166119d8565b9190156119d15763ffffffff8216159190565b5f91508190565b6001600160401b03818116036119f15750506001905f90565b65ffffffffffff9291611a0391611785565b505092168015159081611a1557509190565b905065ffffffffffff611a274261270d565b1610159190565b9065ffffffffffff8091169116019065ffffffffffff8211611a4c57565b634e487b7160e01b5f52601160045260245ffd5b611a6a36336121a2565b9015611a735750565b63ffffffff16611aa8576001600160401b03611a8e366122ae565b50905063f07e038f60e01b5f52336004521660245260445ffd5b611afc6040516020810190338252306040820152606080820152611af481602060808201368152365f838301375f823683010152601f19601f360116010103601f198101835282611764565b519020611b5c565b50565b909291906001600160a01b0384163003611b1d576116549350612253565b9192906004841015611b3357505050505f905f90565b61165493611b4091611b46565b91611915565b9060041161137f57356001600160e01b03191690565b5f8181525f51602061275d5f395f51905f526020526040902054909190603081901c63ffffffff169065ffffffffffff1680611ba5578363060a299b60e41b5f5260045260245ffd5b65ffffffffffff611bb54261270d565b16811115611bd05783630c65b5bd60e11b5f5260045260245ffd5b611bdd90939192936120b1565b611c2f578190805f525f51602061275d5f395f51905f5260205260405f2065ffffffffffff1981541690557f76a2a46953689d4861a5d3f6ed883ad7e6af674a21f8e162707159fc9dde614d5f80a390565b631e2975b960e21b5f5260045260245ffd5b91804710611cc657815f92916020849351920190855af18080611cb3575b15611c6e5750506117fd6125c9565b15611c9357639996b31560e01b5f9081526001600160a01b0391909116600452602490fd5b3d15611ca4576040513d5f823e3d90fd5b63d6bda27560e01b5f5260045ffd5b503d151580611c5f5750813b1515611c5f565b4763cf47918160e01b5f5260045260245260445ffd5b906601000000000000600160a01b0382549160301b16906601000000000000600160a01b031916179055565b6001600160a01b0381165f9081527f7b4501b7c347294b6ab7642a0f3ba6ad26efef1601fdfb1d54a7ff5bc6709097602052604090205465ffffffffffff1615908115611e38575f7ff98448b987f1428e0e230e1f3c6e2ce15b5693eaf31827fbd0b1ec4b424ae7cf6060611d8583611d804261270d565b611a2e565b93611e0e604051611d9581611735565b65ffffffffffff871681526001600160701b03602082018781528780527f40c6c8c28789853c7efd823ab20824bbd71718a8a5915e855f6f288c9a26ad016020526040882060018060a01b038616895260205265ffffffffffff8060408a209451161665ffffffffffff19845416178355511690611cdc565b6040805185815265ffffffffffff96909616602087015285018690526001600160a01b031693a390565b6001600160a01b0381165f9081527f7b4501b7c347294b6ab7642a0f3ba6ad26efef1601fdfb1d54a7ff5bc67090976020526040812054611ef4927ff98448b987f1428e0e230e1f3c6e2ce15b5693eaf31827fbd0b1ec4b424ae7cf9160609190611eb090859060301c6001600160701b031661267a565b95908580527f40c6c8c28789853c7efd823ab20824bbd71718a8a5915e855f6f288c9a26ad016020526040862060018060a01b038416875260205260408620611cdc565b611e0e565b909291926001600160401b038216916001600160401b038314612061577ff98448b987f1428e0e230e1f3c6e2ce15b5693eaf31827fbd0b1ec4b424ae7cf9165ffffffffffff82611f4b6060946116bd565b60018060a01b0384165f526020528160405f2054161597885f1461200457611f86611fdf9163ffffffff611f7e4261270d565b911690611a2e565b916001600160701b0360405191611f9c83611735565b8585168352611fb7602084019163ffffffff8d1683526116bd565b60018060a01b0388165f52602052858060405f20945116168619845416178355511690611cdc565b63ffffffff6040519716875216602086015285604086015260018060a01b031693a390565b5061205c81612015612045936116bd565b60018060a01b0386165f5260205261203d896001600160701b0360405f205460301c1661267a565b9390916116bd565b60018060a01b0386165f5260205260405f20611cdc565b611fdf565b8263061c6a4360e21b5f5260045260245ffd5b61207d4261270d565b63ffffffff82169165ffffffffffff604082901c8116921682116120a5575090915f91508190565b60201c63ffffffff1692565b65ffffffffffff62093a8091160165ffffffffffff8111611a4c5765ffffffffffff806120dd4261270d565b169116111590565b905f8091602081519101845af48080611cb35715611c6e5750506117fd6125c9565b906001600160401b038216916001600160401b0383146120615761212a816116bd565b60018060a01b0383165f5260205265ffffffffffff60405f2054161561219b57612153906116bd565b6001600160a01b03919091165f8181526020929092526040822082905591907ff229baa593af28c41b1d16b748cd7688f0c83aaf92d4be41c44005defe84c1669080a3600190565b5050505f90565b90600481106121fe576001600160a01b038216301461221e576121c5905f612453565b929091158061220f575b612206576121dc916119d8565b90156121fe5763ffffffff808093169116908180821191180218169081159190565b50505f905f90565b5050505f905f90565b5061221930611858565b6121cf565b905060041161137f575f51602061273d5f395f51905f5254305f90815280356001600160e01b03191660205260409020611972565b919060048210612206576001600160a01b038316301461227757906121c591612453565b6122819250611b46565b5f51602061273d5f395f51905f5254305f9081526001600160e01b03199092166020526040909120611972565b5f9060048110612449578060041161137f575f356001600160e01b031916906310a6aa3760e31b82148015612439575b8015612429575b8015612419575b8015612409575b6123fd5763063fc60f60e21b821480156123ed575b80156123dd575b6123ad5763012e238d60e51b8214801561239d575b61235c57503082525f51602061277d5f395f51905f52602052604082209082526020526001600160401b036040822054169181929190565b90506024116101d457806101d457506004356001600160401b038116810361137f5760016123916001600160401b03926116bd565b01541690600191905f90565b50635be958b160e11b8214612324565b91505060241161137f576004356001600160a01b0381169081900361137f576123d590611800565b6001915f9190565b506308d6122d60e01b821461230f565b5063167bd39560e01b8214612308565b5050506001905f905f90565b5063d22b598960e01b82146122f3565b50635326cae760e11b82146122ec565b5063294b14a960e11b82146122e5565b506330cae18760e01b82146122de565b50505f905f905f90565b60048210612449576001600160e01b031961246e8383611b46565b16916310a6aa3760e31b831480156125b9575b80156125a9575b8015612599575b8015612589575b6123fd5763063fc60f60e21b83148015612579575b8015612569575b6125425763012e238d60e51b83148015612532575b612501575050305f525f51602061277d5f395f51905f5260205260405f20905f526020526001600160401b0360405f205416905f91905f90565b90915060241161137f57600401356001600160401b038116810361137f5760016123916001600160401b03926116bd565b50635be958b160e11b83146124c7565b90915060241161137f576004013560018060a01b03811680910361137f576123d590611800565b506308d6122d60e01b83146124b2565b5063167bd39560e01b83146124ab565b5063d22b598960e01b8314612496565b50635326cae760e11b831461248f565b5063294b14a960e11b8314612488565b506330cae18760e01b8314612481565b604051903d82523d5f602084013e60203d830101604052565b6125f363ffffffff91939293612074565b505092168063ffffffff84168181115f14612660570363ffffffff8111611a4c5761264163ffffffff8067ffffffff00000000935b16806206978011816206978018021816611d804261270d565b9360201b166dffffffffffff00000000000000008460401b1617179190565b505067ffffffff0000000061264163ffffffff805f612628565b61268b63ffffffff91939293612074565b505092168063ffffffff84168181115f146126c9570363ffffffff8111611a4c5761264163ffffffff67ffffffff00000000925b16611d804261270d565b505067ffffffff0000000061264163ffffffff5f6126bf565b60ff5f51602061279d5f395f51905f525460401c16156126fe57565b631afcd79f60e31b5f5260045ffd5b65ffffffffffff81116127255765ffffffffffff1690565b6306dfcc6560e41b5f52603060045260245260445ffdfe40c6c8c28789853c7efd823ab20824bbd71718a8a5915e855f6f288c9a26ad0340c6c8c28789853c7efd823ab20824bbd71718a8a5915e855f6f288c9a26ad0240c6c8c28789853c7efd823ab20824bbd71718a8a5915e855f6f288c9a26ad00f0c57e16840df040f15088dc2f81fe391c3923bec73e23a9662efc9c229c6a00a26469706673582212201fccd3fb1c1927024ba0e9ca8fe88b62d57bf67be5e644dae5f6fa8692b8f5f864736f6c634300081b0033","linkReferences":{}},"methodIdentifiers":{"ADMIN_ROLE()":"75b238fc","PUBLIC_ROLE()":"3ca7c02a","canCall(address,address,bytes4)":"b7009613","cancel(address,address,bytes)":"d6bb62c6","consumeScheduledOp(address,bytes)":"94c7d7ee","execute(address,bytes)":"1cff79cd","expiration()":"4665096d","getAccess(uint64,address)":"3078f114","getNonce(bytes32)":"4136a33c","getRoleAdmin(uint64)":"530dd456","getRoleGrantDelay(uint64)":"12be8727","getRoleGuardian(uint64)":"0b0a93ba","getSchedule(bytes32)":"3adc277a","getTargetAdminDelay(address)":"4c1da1e2","getTargetFunctionRole(address,bytes4)":"6d5115bd","grantRole(uint64,address,uint32)":"25c471a0","hasRole(uint64,address)":"d1f856ee","hashOperation(address,address,bytes)":"abd9bd2a","initialize(address)":"c4d66de8","isTargetClosed(address)":"a166aa89","labelRole(uint64,string)":"853551b8","minSetback()":"cc1b6c81","multicall(bytes[])":"ac9650d8","renounceRole(uint64,address)":"fe0776f5","revokeRole(uint64,address)":"b7d2b162","schedule(address,bytes,uint48)":"f801a698","setGrantDelay(uint64,uint32)":"a64d95ce","setRoleAdmin(uint64,uint64)":"30cae187","setRoleGuardian(uint64,uint64)":"52962952","setTargetAdminDelay(address,uint32)":"d22b5989","setTargetClosed(address,bool)":"167bd395","setTargetFunctionRole(address,bytes4[],uint64)":"08d6122d","updateAuthority(address,address)":"18ff183c"},"id":41}