{"abi":[{"type":"constructor","inputs":[],"stateMutability":"nonpayable"},{"type":"receive","stateMutability":"payable"},{"type":"function","name":"MAX_TIER","inputs":[],"outputs":[{"name":"","type":"uint8","internalType":"uint8"}],"stateMutability":"view"},{"type":"function","name":"UPGRADE_INTERFACE_VERSION","inputs":[],"outputs":[{"name":"","type":"string","internalType":"string"}],"stateMutability":"view"},{"type":"function","name":"approve","inputs":[{"name":"to","type":"address","internalType":"address"},{"name":"tokenId","type":"uint256","internalType":"uint256"}],"outputs":[],"stateMutability":"nonpayable"},{"type":"function","name":"balanceOf","inputs":[{"name":"owner","type":"address","internalType":"address"}],"outputs":[{"name":"","type":"uint256","internalType":"uint256"}],"stateMutability":"view"},{"type":"function","name":"baseUri","inputs":[],"outputs":[{"name":"","type":"string","internalType":"string"}],"stateMutability":"view"},{"type":"function","name":"getApproved","inputs":[{"name":"tokenId","type":"uint256","internalType":"uint256"}],"outputs":[{"name":"","type":"address","internalType":"address"}],"stateMutability":"view"},{"type":"function","name":"getSkin","inputs":[{"name":"tokenId","type":"uint256","internalType":"uint256"}],"outputs":[{"name":"","type":"tuple","internalType":"struct ISkinNFT.Skin","components":[{"name":"tokenId","type":"uint256","internalType":"uint256"},{"name":"personaId","type":"uint256","internalType":"uint256"},{"name":"professionId","type":"uint256","internalType":"uint256"},{"name":"tier","type":"uint8","internalType":"uint8"},{"name":"level","type":"uint8","internalType":"uint8"},{"name":"customImageUri","type":"string","internalType":"string"},{"name":"mintedAt","type":"uint256","internalType":"uint256"}]}],"stateMutability":"view"},{"type":"function","name":"getSkinByPersonaProfession","inputs":[{"name":"personaId","type":"uint256","internalType":"uint256"},{"name":"professionId","type":"uint256","internalType":"uint256"}],"outputs":[{"name":"","type":"tuple","internalType":"struct ISkinNFT.Skin","components":[{"name":"tokenId","type":"uint256","internalType":"uint256"},{"name":"personaId","type":"uint256","internalType":"uint256"},{"name":"professionId","type":"uint256","internalType":"uint256"},{"name":"tier","type":"uint8","internalType":"uint8"},{"name":"level","type":"uint8","internalType":"uint8"},{"name":"customImageUri","type":"string","internalType":"string"},{"name":"mintedAt","type":"uint256","internalType":"uint256"}]}],"stateMutability":"view"},{"type":"function","name":"getSkinsByPersona","inputs":[{"name":"personaId","type":"uint256","internalType":"uint256"}],"outputs":[{"name":"","type":"uint256[]","internalType":"uint256[]"}],"stateMutability":"view"},{"type":"function","name":"initialize","inputs":[{"name":"owner_","type":"address","internalType":"address"},{"name":"personaRegistry_","type":"address","internalType":"address"},{"name":"professionRegistry_","type":"address","internalType":"address"}],"outputs":[],"stateMutability":"nonpayable"},{"type":"function","name":"isApprovedForAll","inputs":[{"name":"owner","type":"address","internalType":"address"},{"name":"operator","type":"address","internalType":"address"}],"outputs":[{"name":"","type":"bool","internalType":"bool"}],"stateMutability":"view"},{"type":"function","name":"mintSkin","inputs":[{"name":"personaId","type":"uint256","internalType":"uint256"},{"name":"professionId","type":"uint256","internalType":"uint256"}],"outputs":[{"name":"tokenId","type":"uint256","internalType":"uint256"}],"stateMutability":"payable"},{"type":"function","name":"name","inputs":[],"outputs":[{"name":"","type":"string","internalType":"string"}],"stateMutability":"view"},{"type":"function","name":"owner","inputs":[],"outputs":[{"name":"","type":"address","internalType":"address"}],"stateMutability":"view"},{"type":"function","name":"ownerOf","inputs":[{"name":"tokenId","type":"uint256","internalType":"uint256"}],"outputs":[{"name":"","type":"address","internalType":"address"}],"stateMutability":"view"},{"type":"function","name":"personaRegistry","inputs":[],"outputs":[{"name":"","type":"address","internalType":"contract IPersonaRegistry"}],"stateMutability":"view"},{"type":"function","name":"professionRegistry","inputs":[],"outputs":[{"name":"","type":"address","internalType":"contract IProfessionRegistry"}],"stateMutability":"view"},{"type":"function","name":"proxiableUUID","inputs":[],"outputs":[{"name":"","type":"bytes32","internalType":"bytes32"}],"stateMutability":"view"},{"type":"function","name":"renounceOwnership","inputs":[],"outputs":[],"stateMutability":"nonpayable"},{"type":"function","name":"safeTransferFrom","inputs":[{"name":"from","type":"address","internalType":"address"},{"name":"to","type":"address","internalType":"address"},{"name":"tokenId","type":"uint256","internalType":"uint256"}],"outputs":[],"stateMutability":"nonpayable"},{"type":"function","name":"safeTransferFrom","inputs":[{"name":"from","type":"address","internalType":"address"},{"name":"to","type":"address","internalType":"address"},{"name":"tokenId","type":"uint256","internalType":"uint256"},{"name":"data","type":"bytes","internalType":"bytes"}],"outputs":[],"stateMutability":"nonpayable"},{"type":"function","name":"setApprovalForAll","inputs":[{"name":"operator","type":"address","internalType":"address"},{"name":"approved","type":"bool","internalType":"bool"}],"outputs":[],"stateMutability":"nonpayable"},{"type":"function","name":"setBaseUri","inputs":[{"name":"newBaseUri","type":"string","internalType":"string"}],"outputs":[],"stateMutability":"nonpayable"},{"type":"function","name":"setCustomImage","inputs":[{"name":"tokenId","type":"uint256","internalType":"uint256"},{"name":"imageUri","type":"string","internalType":"string"}],"outputs":[],"stateMutability":"nonpayable"},{"type":"function","name":"setPersonaRegistry","inputs":[{"name":"newRegistry","type":"address","internalType":"address"}],"outputs":[],"stateMutability":"nonpayable"},{"type":"function","name":"setProfessionRegistry","inputs":[{"name":"newRegistry","type":"address","internalType":"address"}],"outputs":[],"stateMutability":"nonpayable"},{"type":"function","name":"setTierPrices","inputs":[{"name":"prices","type":"uint256[]","internalType":"uint256[]"}],"outputs":[],"stateMutability":"nonpayable"},{"type":"function","name":"supportsInterface","inputs":[{"name":"interfaceId","type":"bytes4","internalType":"bytes4"}],"outputs":[{"name":"","type":"bool","internalType":"bool"}],"stateMutability":"view"},{"type":"function","name":"symbol","inputs":[],"outputs":[{"name":"","type":"string","internalType":"string"}],"stateMutability":"view"},{"type":"function","name":"syncLevel","inputs":[{"name":"tokenId","type":"uint256","internalType":"uint256"},{"name":"newLevel","type":"uint8","internalType":"uint8"}],"outputs":[],"stateMutability":"nonpayable"},{"type":"function","name":"tierPrices","inputs":[{"name":"","type":"uint256","internalType":"uint256"}],"outputs":[{"name":"","type":"uint256","internalType":"uint256"}],"stateMutability":"view"},{"type":"function","name":"tokenByIndex","inputs":[{"name":"index","type":"uint256","internalType":"uint256"}],"outputs":[{"name":"","type":"uint256","internalType":"uint256"}],"stateMutability":"view"},{"type":"function","name":"tokenOfOwnerByIndex","inputs":[{"name":"owner","type":"address","internalType":"address"},{"name":"index","type":"uint256","internalType":"uint256"}],"outputs":[{"name":"","type":"uint256","internalType":"uint256"}],"stateMutability":"view"},{"type":"function","name":"tokenURI","inputs":[{"name":"tokenId","type":"uint256","internalType":"uint256"}],"outputs":[{"name":"","type":"string","internalType":"string"}],"stateMutability":"view"},{"type":"function","name":"totalSupply","inputs":[],"outputs":[{"name":"","type":"uint256","internalType":"uint256"}],"stateMutability":"view"},{"type":"function","name":"transferFrom","inputs":[{"name":"from","type":"address","internalType":"address"},{"name":"to","type":"address","internalType":"address"},{"name":"tokenId","type":"uint256","internalType":"uint256"}],"outputs":[],"stateMutability":"nonpayable"},{"type":"function","name":"transferOwnership","inputs":[{"name":"newOwner","type":"address","internalType":"address"}],"outputs":[],"stateMutability":"nonpayable"},{"type":"function","name":"upgradeSkin","inputs":[{"name":"tokenId","type":"uint256","internalType":"uint256"}],"outputs":[],"stateMutability":"payable"},{"type":"function","name":"upgradeToAndCall","inputs":[{"name":"newImplementation","type":"address","internalType":"address"},{"name":"data","type":"bytes","internalType":"bytes"}],"outputs":[],"stateMutability":"payable"},{"type":"function","name":"withdraw","inputs":[{"name":"to","type":"address","internalType":"address payable"}],"outputs":[],"stateMutability":"nonpayable"},{"type":"event","name":"Approval","inputs":[{"name":"owner","type":"address","indexed":true,"internalType":"address"},{"name":"approved","type":"address","indexed":true,"internalType":"address"},{"name":"tokenId","type":"uint256","indexed":true,"internalType":"uint256"}],"anonymous":false},{"type":"event","name":"ApprovalForAll","inputs":[{"name":"owner","type":"address","indexed":true,"internalType":"address"},{"name":"operator","type":"address","indexed":true,"internalType":"address"},{"name":"approved","type":"bool","indexed":false,"internalType":"bool"}],"anonymous":false},{"type":"event","name":"Initialized","inputs":[{"name":"version","type":"uint64","indexed":false,"internalType":"uint64"}],"anonymous":false},{"type":"event","name":"OwnershipTransferred","inputs":[{"name":"previousOwner","type":"address","indexed":true,"internalType":"address"},{"name":"newOwner","type":"address","indexed":true,"internalType":"address"}],"anonymous":false},{"type":"event","name":"SkinMetadataUpdated","inputs":[{"name":"tokenId","type":"uint256","indexed":true,"internalType":"uint256"}],"anonymous":false},{"type":"event","name":"SkinMinted","inputs":[{"name":"tokenId","type":"uint256","indexed":true,"internalType":"uint256"},{"name":"personaId","type":"uint256","indexed":true,"internalType":"uint256"},{"name":"professionId","type":"uint256","indexed":true,"internalType":"uint256"},{"name":"tier","type":"uint8","indexed":false,"internalType":"uint8"}],"anonymous":false},{"type":"event","name":"SkinUpgraded","inputs":[{"name":"tokenId","type":"uint256","indexed":true,"internalType":"uint256"},{"name":"newTier","type":"uint8","indexed":false,"internalType":"uint8"}],"anonymous":false},{"type":"event","name":"Transfer","inputs":[{"name":"from","type":"address","indexed":true,"internalType":"address"},{"name":"to","type":"address","indexed":true,"internalType":"address"},{"name":"tokenId","type":"uint256","indexed":true,"internalType":"uint256"}],"anonymous":false},{"type":"event","name":"Upgraded","inputs":[{"name":"implementation","type":"address","indexed":true,"internalType":"address"}],"anonymous":false},{"type":"error","name":"AddressEmptyCode","inputs":[{"name":"target","type":"address","internalType":"address"}]},{"type":"error","name":"ERC1967InvalidImplementation","inputs":[{"name":"implementation","type":"address","internalType":"address"}]},{"type":"error","name":"ERC1967NonPayable","inputs":[]},{"type":"error","name":"ERC721EnumerableForbiddenBatchMint","inputs":[]},{"type":"error","name":"ERC721IncorrectOwner","inputs":[{"name":"sender","type":"address","internalType":"address"},{"name":"tokenId","type":"uint256","internalType":"uint256"},{"name":"owner","type":"address","internalType":"address"}]},{"type":"error","name":"ERC721InsufficientApproval","inputs":[{"name":"operator","type":"address","internalType":"address"},{"name":"tokenId","type":"uint256","internalType":"uint256"}]},{"type":"error","name":"ERC721InvalidApprover","inputs":[{"name":"approver","type":"address","internalType":"address"}]},{"type":"error","name":"ERC721InvalidOperator","inputs":[{"name":"operator","type":"address","internalType":"address"}]},{"type":"error","name":"ERC721InvalidOwner","inputs":[{"name":"owner","type":"address","internalType":"address"}]},{"type":"error","name":"ERC721InvalidReceiver","inputs":[{"name":"receiver","type":"address","internalType":"address"}]},{"type":"error","name":"ERC721InvalidSender","inputs":[{"name":"sender","type":"address","internalType":"address"}]},{"type":"error","name":"ERC721NonexistentToken","inputs":[{"name":"tokenId","type":"uint256","internalType":"uint256"}]},{"type":"error","name":"ERC721OutOfBoundsIndex","inputs":[{"name":"owner","type":"address","internalType":"address"},{"name":"index","type":"uint256","internalType":"uint256"}]},{"type":"error","name":"FailedCall","inputs":[]},{"type":"error","name":"InsufficientPayment","inputs":[{"name":"required","type":"uint256","internalType":"uint256"},{"name":"provided","type":"uint256","internalType":"uint256"}]},{"type":"error","name":"InvalidInitialization","inputs":[]},{"type":"error","name":"InvalidParameter","inputs":[{"name":"param","type":"string","internalType":"string"}]},{"type":"error","name":"MaxTierReached","inputs":[{"name":"tokenId","type":"uint256","internalType":"uint256"}]},{"type":"error","name":"NotInitializing","inputs":[]},{"type":"error","name":"NotPersonaOwner","inputs":[{"name":"personaId","type":"uint256","internalType":"uint256"},{"name":"caller","type":"address","internalType":"address"}]},{"type":"error","name":"NotSkinOwner","inputs":[{"name":"tokenId","type":"uint256","internalType":"uint256"},{"name":"caller","type":"address","internalType":"address"}]},{"type":"error","name":"OwnableInvalidOwner","inputs":[{"name":"owner","type":"address","internalType":"address"}]},{"type":"error","name":"OwnableUnauthorizedAccount","inputs":[{"name":"account","type":"address","internalType":"address"}]},{"type":"error","name":"PersonaDoesNotHaveProfession","inputs":[{"name":"personaId","type":"uint256","internalType":"uint256"},{"name":"professionId","type":"uint256","internalType":"uint256"}]},{"type":"error","name":"ReentrancyGuardReentrantCall","inputs":[]},{"type":"error","name":"SkinAlreadyExists","inputs":[{"name":"personaId","type":"uint256","internalType":"uint256"},{"name":"professionId","type":"uint256","internalType":"uint256"}]},{"type":"error","name":"SkinDoesNotExist","inputs":[{"name":"tokenId","type":"uint256","internalType":"uint256"}]},{"type":"error","name":"SoulboundToken","inputs":[]},{"type":"error","name":"TransferFailed","inputs":[]},{"type":"error","name":"UUPSUnauthorizedCallContext","inputs":[]},{"type":"error","name":"UUPSUnsupportedProxiableUUID","inputs":[{"name":"slot","type":"bytes32","internalType":"bytes32"}]},{"type":"error","name":"ZeroAddress","inputs":[]}],"bytecode":{"object":"0x60a080604052346100e65760017f9b779b17422d0df92223018b32b4d1fa46e071723d6817e2486d003becc55f0055306080525f516020613ff35f395f51905f525460ff8160401c166100d7576002600160401b03196001600160401b03821601610084575b604051613f0890816100eb8239608051818181611b220152611ca90152f35b6001600160401b0319166001600160401b039081175f516020613ff35f395f51905f525581527fc7f505b2f371ae2175ee4913f4499e1f2633a7b5936321eed1cdaeb6115181d290602090a15f80610065565b63f92ee8a960e01b5f5260045ffd5b5f80fdfe60e080604052600436101561001c575b50361561001a575f80fd5b005b5f3560e01c90816301ffc9a7146121f05750806306fdde0314612133578063081812fc146120ea578063095ea7b314611ffe57806318160ddd14611fd557806323b872dd14611fbe5780632a5dd91514611efe5780632f745c5914611e80578063300eccab14611e5457806342842e0e14611e255780634f1ef28614611c6b5780634f6ccce714611bc357806351cff8d914611b7657806352d1902d14611b1057806354b4bb1b14611a6a5780636352211e14611a3a578063657827db146119bb5780636cb7615a146119575780636f454a5b1461191057806370a08231146118e5578063715018a61461187e57806383dbb7aa146118575780638da5cb5b1461182357806395d1507c146117de57806395d89b411461172157806398e4f581146116675780639abc8320146115b05780639e27cf62146114b6578063a0bcfc7f1461136a578063a162a86914611342578063a22cb465146112aa578063a733c0dc146109de578063ad3cb1cc14610997578063af3a19c71461097c578063b88d4fde14610922578063c0c53b8b146103d9578063c87b56dd146103a2578063e985e9c514610356578063f2fde38b1461032d5763f6c49eac146101e0575f61000f565b34610329576040366003190112610329576004356024356001600160401b03811161032957610213903690600401612503565b61021e839293613884565b815f526008602052600460405f2001906001600160401b038111610315576102508161024a845461242b565b8461299c565b5f601f82116001146102b357819061027f9394955f926102a8575b50508160011b915f199060031b1c19161790565b90555b7f36ba8f89288ac8dba27f109b14a5f64a3b94233faeb047cc502689f78897a80f5f80a2005b013590505f8061026b565b601f19821694835f5260205f20915f5b8781106102fd5750836001959697106102e4575b505050811b019055610282565b01355f19600384901b60f8161c191690555f80806102d7565b909260206001819286860135815501940191016102c3565b634e487b7160e01b5f52604160045260245ffd5b5f80fd5b346103295760203660031901126103295761001a610349612299565b610351613819565b613779565b346103295760403660031901126103295761036f612299565b61038061037a6122af565b91612875565b9060018060a01b03165f52602052602060ff60405f2054166040519015158152f35b34610329576020366003190112610329576103d56103c1600435612aea565b604051918291602083526020830190612275565b0390f35b34610329576060366003190112610329576103f2612299565b6103fa6122af565b6044356001600160a01b03811690819003610329575f516020613e935f395f51905f52549160ff8360401c1615926001600160401b0381168015908161091a575b6001149081610910575b159081610907575b506108f85767ffffffffffffffff1981166001175f516020613e935f395f51905f5255836108cc575b506001600160a01b0384161580156108bb575b80156108b3575b6108a45760409384516104a38682612335565b600a81526956616c7565736b696e7360b01b60208201528551906104c78783612335565b60058252642b29a5a4a760d91b60208301526104e1613b86565b6104e9613b86565b8051906001600160401b038211610315576105115f516020613dd35f395f51905f525461242b565b601f8111610835575b50602090601f831160011461079a5761054992915f918361069f5750508160011b915f199060031b1c19161790565b5f516020613dd35f395f51905f52555b8051906001600160401b038211610315576105815f516020613eb35f395f51905f525461242b565b601f811161072b575b50602090601f83116001146106aa5791806105be926105e695945f9261069f5750508160011b915f199060031b1c19161790565b5f516020613eb35f395f51905f52555b6105d6613b86565b6105de613b86565b610351613b86565b60018060a01b03166001600160601b0360a01b5f5416175f556001600160601b0360a01b60015416176001556611c37937e08000600455662386f26fc1000060055566470de4df82000060065566b1a2bc2ec50000600755600160025561064957005b60207fc7f505b2f371ae2175ee4913f4499e1f2633a7b5936321eed1cdaeb6115181d29168ff0000000000000000195f516020613e935f395f51905f5254165f516020613e935f395f51905f52555160018152a1005b01519050898061026b565b90601f198316915f516020613eb35f395f51905f525f52815f20925f5b81811061071357509160019391856105e6979694106106fb575b505050811b015f516020613eb35f395f51905f52556105ce565b01515f1960f88460031b161c191690558880806106e1565b929360206001819287860151815501950193016106c7565b5f516020613eb35f395f51905f525f527ff4bad0a69248f59680a4f2b3000328cec71a413447c96781cfe5996daa8c456e601f840160051c81019160208510610790575b601f0160051c01905b818110610785575061058a565b5f8155600101610778565b909150819061076f565b90601f198316915f516020613dd35f395f51905f525f527f37c58c799b6609234b945e882912ee9ad34948a1dfaa20a97485e1a7752bbf81925f5b81811061081d5750908460019594939210610805575b505050811b015f516020613dd35f395f51905f5255610559565b01515f1960f88460031b161c191690558880806107eb565b929360206001819287860151815501950193016107d5565b5f516020613dd35f395f51905f525f527f37c58c799b6609234b945e882912ee9ad34948a1dfaa20a97485e1a7752bbf81601f840160051c8101916020851061089a575b601f0160051c01905b81811061088f575061051a565b5f8155600101610882565b9091508190610879565b63d92e233d60e01b5f5260045ffd5b508115610490565b506001600160a01b03811615610489565b68ffffffffffffffffff191668010000000000000001175f516020613e935f395f51905f525584610476565b63f92ee8a960e01b5f5260045ffd5b9050158661044d565b303b159150610445565b85915061043b565b346103295760803660031901126103295761093b612299565b6109436122af565b90604435606435926001600160401b0384116103295761096a61001a943690600401612371565b92610976838383612530565b336138d1565b34610329575f36600319011261032957602060405160048152f35b34610329575f366003190112610329576103d56040516109b8604082612335565b60058152640352e302e360dc1b6020820152604051918291602083526020830190612275565b6109e7366123b7565b6109ef61384c565b5f80546040516314f9dc8b60e01b8152600481018590529190829060249082906001600160a01b03165afa908115610ec7575f916111b6575b50602001516001600160a01b0316330361119f57600154604051637182ef5160e11b815260048101849052602481018390529060c090829060449082906001600160a01b03165afa5f918161117e575b50610a9457509063fde6ad2f60e01b5f5260045260245260445ffd5b60a001511561116857815f52600960205260405f20815f5260205260405f20546111525760045480341061113c5750600254905f19821461101c5760018201600255602092604051610ae68582612335565b5f81523315611129576001600160a01b03610b0085613b4d565b16151580611121575b61111257610b1684613b4d565b6001600160a01b03811680158015929190836110d6575b610b36336128ad565b805460010190555f8881527f80bb2b638cc20bc4d0a60d66940f3ab4a00c1d7b313497ca82fb0b4ab00793028a526040812080546001600160a01b03191633908117909155899184907fddf252ad1be2c89b69c2b068fc378daa952ba7f163c4a11628f55a4df523b3ef9080a415611030575f516020613e335f395f51905f5254875f527f645e039705490088daad89bae25049a34f4a9072d398537b1ab2425f24cbed03895260405f2055610beb87612aa1565b3303610fc9575b50610fb65784333b610ed2575b5050600154604051637182ef5160e11b815260048101839052602481018490529060c090829060449082906001600160a01b03165afa908115610ec75760ff9186915f91610e98575b5001511660405190610c59826122ff565b84825285820190838252610ce4604084019186835260ff6060860191600183526080870190815260405194610c8e8c87612335565b5f865260a0880195865260c08801964288528b5f5260088d5260405f2098518955516001890155516002880155818060038901945116168219845416178355511661ff0082549160081b169061ff001916179055565b51805160048401916001600160401b03821161031557610d0e82610d08855461242b565b8561299c565b8890601f8311600114610e31579180610d409260059695945f92610e265750508160011b915f199060031b1c19161790565b90555b51910155805f526009845260405f20825f5284528260405f2055805f52600a845260405f208054600160401b81101561031557610d8a81610da293600188940181556128e5565b90919082549060031b91821b915f19901b1916179055565b827f03459d8ee52a9a6c395a912e43f214fb635db68b19a82faefc26fd3ac3d710e48560405160018152a4600454803411610df2575b5060015f516020613e535f395f51905f5255604051908152f35b5f8080610e0081943461298f565b335af1610e0b6128fa565b5015610e175782610dd8565b6312171d8360e31b5f5260045ffd5b015190508b8061026b565b90601f19831691845f528a5f20925f5b8c828210610e8257505091600193918560059897969410610e6a575b505050811b019055610d43565b01515f1960f88460031b161c191690558a8080610e5d565b6001859682939686015181550195019301610e41565b610eba915060c03d60c011610ec0575b610eb28183612335565b810190612a3e565b87610c48565b503d610ea8565b6040513d5f823e3d90fd5b610f0a9160405180938192630a85bd0160e11b83523360048401525f6024840152886044840152608060648401526084830190612275565b03815f335af15f9181610f76575b50610f455784610f266128fa565b8051919082610f4257633250574960e11b5f523360045260245ffd5b01fd5b6001600160e01b03191663757a42ff60e11b01610f63578484610bff565b633250574960e11b5f523360045260245ffd5b9091508581813d8311610faf575b610f8e8183612335565b8101031261032957516001600160e01b031981168103610329579086610f18565b503d610f84565b6339e3563760e11b5f525f60045260245ffd5b610fd233612960565b5f19810190811161101c57335f525f516020613d935f395f51905f52885260405f20815f5288528660405f2055865f525f516020613d735f395f51905f52885260405f2055610bf2565b634e487b7160e01b5f52601160045260245ffd5b338114610beb5761104082612960565b875f525f516020613d735f395f51905f52895260405f205490825f525f516020613d935f395f51905f528a5260405f20918181036110a2575b50885f525f516020613d735f395f51905f528a525f60408120555f5288525f6040812055610beb565b815f52828b5260405f2054815f52838c528060405f20555f525f516020613d735f395f51905f528b5260405f20558a611079565b5f8881525f516020613e735f395f51905f526020526040902080546001600160a01b0319169055611106836128ad565b80545f19019055610b2d565b636e10574960e01b5f5260045ffd5b506001610b09565b633250574960e11b5f525f60045260245ffd5b63b99e2ab760e01b5f526004523460245260445ffd5b90638a4017f960e01b5f5260045260245260445ffd5b9063fde6ad2f60e01b5f5260045260245260445ffd5b61119891925060c03d60c011610ec057610eb28183612335565b9084610a78565b506323e5256560e11b5f526004523360245260445ffd5b90503d805f833e6111c78183612335565b810190602081830312610329578051906001600160401b038211610329570161010081830312610329576040519161010083018381106001600160401b03821117610315576040528151835260208201516001600160a01b038116810361032957602084015260408201516001600160401b038111610329578161124c9184016129eb565b60408401526060820151916001600160401b0383116103295761127660e09261129f9483016129eb565b60608501526080810151608085015260a081015160a085015260c081015160c085015201612a31565b60e082015283610a28565b34610329576040366003190112610329576112c3612299565b60243590811515809203610329576001600160a01b031690811561132f576112ea33612875565b825f5260205260405f2060ff1981541660ff83161790556040519081527f17307eab39ab6107e8899845ad3d59bd9653f200f220920489ca2b5937696c3160203392a3005b50630b61174360e31b5f5260045260245ffd5b34610329575f366003190112610329576001546040516001600160a01b039091168152602090f35b34610329576020366003190112610329576004356001600160401b0381116103295761139a903690600401612503565b6113a2613819565b6001600160401b038111610315576113bb60035461242b565b601f8111611466575b505f601f82116001146114015781906113f1935f926113f65750508160011b915f199060031b1c19161790565b600355005b01359050838061026b565b601f198216925f516020613db35f395f51905f52915f5b85811061144e57508360019510611435575b505050811b01600355005b01355f19600384901b60f8161c1916905582808061142a565b90926020600181928686013581550194019101611418565b60035f525f516020613db35f395f51905f52601f830160051c810191602084106114ac575b601f0160051c01905b8181106114a157506113c4565b5f8155600101611494565b909150819061148b565b6020366003190112610329576004356114cd61384c565b6114d681613884565b805f526008602052600360405f20019060ff825416600481101561159d578060040154928334106115865760ff821461101c5760ff6020918160017f8ce8d57e43850fdfd52dbc8e96fb3620fe004fd2fdfe233d667d76e8c637981295011682198254161781555416604051908152a2803411611561575b60015f516020613e535f395f51905f5255005b5f808061156f81943461298f565b335af161157a6128fa565b5015610e17578061154e565b8363b99e2ab760e01b5f526004523460245260445ffd5b5063e941119960e01b5f5260045260245ffd5b34610329575f366003190112610329576040515f6003546115d08161242b565b808452906001811690811561164357506001146115f8575b6103d5836103c181850382612335565b60035f9081525f516020613db35f395f51905f52939250905b808210611629575090915081016020016103c16115e8565b919260018160209254838588010152019101909291611611565b60ff191660208086019190915291151560051b840190910191506103c190506115e8565b3461032957602036600319011261032957600435611683612929565b50611699815f52600860205260405f2054151590565b1561170f575f5260086020526103d560405f206005604051916116bb836122ff565b80548352600181015460208401526002810154604084015260ff6003820154818116606086015260081c1660808401526116f760048201612463565b60a0840152015460c0820152604051918291826123cd565b632ee8d30b60e11b5f5260045260245ffd5b34610329575f366003190112610329576040515f5f516020613eb35f395f51905f525461174d8161242b565b80845290600181169081156116435750600114611774576103d5836103c181850382612335565b5f516020613eb35f395f51905f525f9081527ff4bad0a69248f59680a4f2b3000328cec71a413447c96781cfe5996daa8c456e939250905b8082106117c4575090915081016020016103c16115e8565b9192600181602092548385880101520191019092916117ac565b34610329576020366003190112610329576117f7612299565b6117ff613819565b6001600160a01b031680156108a4576001600160601b0360a01b5f5416175f555f80f35b34610329575f366003190112610329575f516020613df35f395f51905f52546040516001600160a01b039091168152602090f35b34610329575f366003190112610329575f546040516001600160a01b039091168152602090f35b34610329575f36600319011261032957611896613819565b5f516020613df35f395f51905f5280546001600160a01b031981169091555f906001600160a01b03167f8be0079c531659141344cd1fd0a4f28419497f9722a3daafe3b4186f6b6457e08280a3005b34610329576020366003190112610329576020611908611903612299565b612960565b604051908152f35b3461032957602036600319011261032957611929612299565b611931613819565b6001600160a01b031680156108a4576001600160601b0360a01b60015416176001555f80f35b3461032957611965366123b7565b9061196e612929565b505f52600960205260405f20905f5260205260405f205480156119a8575f5260086020526103d560405f206005604051916116bb836122ff565b632ee8d30b60e11b5f525f60045260245ffd5b346103295760403660031901126103295760043560243560ff81168103610329576119e4613819565b6119f9825f52600860205260405f2054151590565b15611a275761028290825f526008602052600360405f20019061ff0082549160081b169061ff001916179055565b50632ee8d30b60e11b5f5260045260245ffd5b34610329576020366003190112610329576020611a586004356137ea565b6040516001600160a01b039091168152f35b34610329576020366003190112610329576004355f52600a60205260405f20604051806020835491828152019081935f5260205f20905f5b818110611afa5750505081611ab8910382612335565b604051918291602083019060208452518091526040830191905f5b818110611ae1575050500390f35b8251845285945060209384019390920191600101611ad3565b8254845260209093019260019283019201611aa2565b34610329575f366003190112610329577f00000000000000000000000000000000000000000000000000000000000000006001600160a01b03163003611b675760206040515f516020613e135f395f51905f528152f35b63703e46dd60e11b5f5260045ffd5b34610329576020366003190112610329576004356001600160a01b0381169081900361032957611ba4613819565b80156108a4575f8080809347905af1611bbb6128fa565b5015610e1757005b34610329576020366003190112610329576004355f516020613e335f395f51905f5254811015611c55575f516020613e335f395f51905f5254811015611c41575f516020613e335f395f51905f525f527fa42f15e5d656f8155fd7419d740a6073999f19cd6e061449ce4a257150545bf20154604051908152602090f35b634e487b7160e01b5f52603260045260245ffd5b63295f44f760e21b5f525f60045260245260445ffd5b604036600319011261032957611c7f612299565b6024356001600160401b03811161032957611c9e903690600401612371565b906001600160a01b037f000000000000000000000000000000000000000000000000000000000000000016308114908115611e03575b50611b6757611ce1613819565b6040516352d1902d60e01b81526001600160a01b0382169290602081600481875afa5f9181611dcf575b50611d235783634c9c8ce360e01b5f5260045260245ffd5b805f516020613e135f395f51905f52859203611dbd5750823b15611dab575f516020613e135f395f51905f5280546001600160a01b031916821790557fbc7cd75a20ee27fd9adebab32041f755214dbc6bffa90cc0225b39da2e5c2d3b5f80a2805115611d935761001a91613ce6565b505034611d9c57005b63b398979f60e01b5f5260045ffd5b634c9c8ce360e01b5f5260045260245ffd5b632a87526960e21b5f5260045260245ffd5b9091506020813d602011611dfb575b81611deb60209383612335565b8101031261032957519085611d0b565b3d9150611dde565b5f516020613e135f395f51905f52546001600160a01b03161415905083611cd4565b346103295761001a611e36366122c5565b9060405192611e46602085612335565b5f8452610976838383612530565b346103295760203660031901126103295760043560048110156103295760209060040154604051908152f35b3461032957604036600319011261032957611e99612299565b60243590611ea681612960565b821015611ee15760018060a01b03165f525f516020613d935f395f51905f5260205260405f20905f52602052602060405f2054604051908152f35b63295f44f760e21b5f5260018060a01b031660045260245260445ffd5b34610329576020366003190112610329576004356001600160401b03811161032957366023820112156103295780600401356001600160401b038111610329573660248260051b8401011161032957611f55613819565b60048103611f88575f5b600481101561001a5781811015611c415760019060248160051b85010135816004015501611f5f565b6040516305519d6f60e51b815260206004820152600d60248201526c0e0e4d2c6cae640d8cadccee8d609b1b6044820152606490fd5b346103295761001a611fcf366122c5565b91612530565b34610329575f3660031901126103295760205f516020613e335f395f51905f5254604051908152f35b3461032957604036600319011261032957612017612299565b602435612023816137ea565b331515806120d7575b806120b4575b6120a15781906001600160a01b0384811691167f8c5be1e5ebec7d5bd14f71427d1e84f3dd0314c0f7b2291e5b200ac8c7c3b9255f80a45f9081525f516020613e735f395f51905f526020526040902080546001600160a01b0319166001600160a01b03909216919091179055005b63a9fbf51f60e01b5f523360045260245ffd5b506120be81612875565b335f908152602091909152604090205460ff1615612032565b506001600160a01b03811633141561202c565b34610329576020366003190112610329576020611a5860043561210c816137ea565b505f9081525f516020613e735f395f51905f5260205260409020546001600160a01b031690565b34610329575f366003190112610329576040515f5f516020613dd35f395f51905f525461215f8161242b565b80845290600181169081156116435750600114612186576103d5836103c181850382612335565b5f516020613dd35f395f51905f525f9081527f37c58c799b6609234b945e882912ee9ad34948a1dfaa20a97485e1a7752bbf81939250905b8082106121d6575090915081016020016103c16115e8565b9192600181602092548385880101520191019092916121be565b34610329576020366003190112610329576004359063ffffffff60e01b82168092036103295760209163780e9d6360e01b8114908115612232575b5015158152f35b6380ac58cd60e01b811491508115612264575b8115612253575b508361222b565b6301ffc9a760e01b1490508361224c565b635b5e139f60e01b81149150612245565b805180835260209291819084018484015e5f828201840152601f01601f1916010190565b600435906001600160a01b038216820361032957565b602435906001600160a01b038216820361032957565b6060906003190112610329576004356001600160a01b038116810361032957906024356001600160a01b0381168103610329579060443590565b60e081019081106001600160401b0382111761031557604052565b60c081019081106001600160401b0382111761031557604052565b90601f801991011681019081106001600160401b0382111761031557604052565b6001600160401b03811161031557601f01601f191660200190565b81601f820112156103295780359061238882612356565b926123966040519485612335565b8284526020838301011161032957815f926020809301838601378301015290565b6040906003190112610329576004359060243590565b6020815281516020820152602082015160408201526040820151606082015260ff606083015116608082015260ff60808301511660a082015260e060c061242260a08501518383860152610100850190612275565b93015191015290565b90600182811c92168015612459575b602083101461244557565b634e487b7160e01b5f52602260045260245ffd5b91607f169161243a565b9060405191825f8254926124768461242b565b80845293600181169081156124e1575060011461249d575b5061249b92500383612335565b565b90505f9291925260205f20905f915b8183106124c557505090602061249b928201015f61248e565b60209193508060019154838589010152019101909184926124ac565b90506020925061249b94915060ff191682840152151560051b8201015f61248e565b9181601f84011215610329578235916001600160401b038311610329576020838186019501011161032957565b9091906001600160a01b0383168015611129576001600160a01b0361255484613b4d565b1615158061286d575b6111125761256a83613b4d565b90331515806127bf575b506001600160a01b0382169485158015612783575b612592826128ad565b60018154019055855f527f80bb2b638cc20bc4d0a60d66940f3ab4a00c1d7b313497ca82fb0b4ab007930260205260405f20836001600160601b0360a01b8254161790558583887fddf252ad1be2c89b69c2b068fc378daa952ba7f163c4a11628f55a4df523b3ef5f80a4156126d6575f516020613e335f395f51905f5254855f527f645e039705490088daad89bae25049a34f4a9072d398537b1ab2425f24cbed0360205260405f205561264685612aa1565b81860361267e575b5050506001600160a01b031680830361266657505050565b6364283d7b60e01b5f5260045260245260445260645ffd5b61268790612960565b5f1981019190821161101c575f525f516020613d935f395f51905f5260205260405f20815f526020528360405f2055835f525f516020613d735f395f51905f5260205260405f20555f8061264e565b858214612646576126e683612960565b855f525f516020613d735f395f51905f5260205260405f205490875f525f516020613d935f395f51905f5260205260405f209181810361274c575b50865f525f516020613d735f395f51905f526020525f60408120555f526020525f6040812055612646565b815f528260205260405f2054815f52836020528060405f20555f525f516020613d735f395f51905f5260205260405f20555f612721565b5f8681525f516020613e735f395f51905f526020526040902080546001600160a01b03191690556127b3846128ad565b80545f19019055612589565b80612807575b156127d0575f612574565b836001600160a01b0383166127f157637e27328960e01b5f5260045260245ffd5b63177e802f60e01b5f523360045260245260445ffd5b506001600160a01b0382163314801561284b575b806127c557505f8481525f516020613e735f395f51905f5260205260409020546001600160a01b031633146127c5565b5061285582612875565b335f908152602091909152604090205460ff1661281b565b50600161255d565b6001600160a01b03165f9081527f80bb2b638cc20bc4d0a60d66940f3ab4a00c1d7b313497ca82fb0b4ab00793056020526040902090565b6001600160a01b03165f9081527f80bb2b638cc20bc4d0a60d66940f3ab4a00c1d7b313497ca82fb0b4ab00793036020526040902090565b8054821015611c41575f5260205f2001905f90565b3d15612924573d9061290b82612356565b916129196040519384612335565b82523d5f602084013e565b606090565b60405190612936826122ff565b5f60c083828152826020820152826040820152826060820152826080820152606060a08201520152565b6001600160a01b0381161561297c57612978906128ad565b5490565b6322718ad960e21b5f525f60045260245ffd5b9190820391821161101c57565b601f82116129a957505050565b5f5260205f20906020601f840160051c830193106129e1575b601f0160051c01905b8181106129d6575050565b5f81556001016129cb565b90915081906129c2565b81601f8201121561032957805190612a0282612356565b92612a106040519485612335565b8284526020838301011161032957815f9260208093018386015e8301015290565b5190811515820361032957565b908160c09103126103295760405190612a568261231a565b80518252602081015160ff8116810361032957612a999160a091602085015260408101516040850152606081015160608501526080810151608085015201612a31565b60a082015290565b5f516020613e335f395f51905f525490600160401b82101561031557610d8a82600161249b94015f516020613e335f395f51905f52555f516020613e335f395f51905f526128e5565b90612b00825f52600860205260405f2054151590565b15611a2757815f52600860205260405f2060a052600354612b208161242b565b6136ba575060015460a05160020154604051636a7e377360e01b8152600481018290529093915f90829060249082906001600160a01b03165afa5f91816135e0575b506135d65750604051612b76604082612335565b60078152662ab735b737bbb760c91b6020820152915b60a0516003015460ff81166001036134df57604051612bac604082612335565b6007815266119b989c181c9b60c91b602082015294604051612bcf604082612335565b600781526604668826a6a6c760cb1b6020820152935b602060c081905260405190612bfa9082612335565b5f8152965f975b60ff891660ff8660081c16811015612cce57601e0260ff811690810361101c5760780160ff811161101c5760ff91612cc560276009612c4386600196166139e0565b936040519481869251809160c0510160c05185015e820190681e3a32bc3a103c1e9160b91b60c0518301528051809160c05101602984015e60c0519101017f2220793d223238302220666f6e742d73697a653d223234223e2623393733333b83820152661e17ba32bc3a1f60c91b602982015203016007810184520182612335565b99011697612c01565b50613484959850601f9392613227600d6074601960289661020761322c976134899f8d9f9060c460039f92612d0760ff602995166139e0565b966040516080527f3c73766720786d6c6e733d22687474703a2f2f7777772e77332e6f72672f323060c05160805101527f30302f737667222076696577426f783d223020302033303020343030223e000060406080510152651e3232b3399f60d11b605e60805101527f3c6c696e6561724772616469656e742069643d226267222078313d2230252220606460805101527f79313d223025222078323d2231303025222079323d2231303025223e00000000608460805101527f3c73746f70206f66667365743d22302522207374796c653d2273746f702d636f60a06080510152633637b91d60e11b60c060805101528051809160c0510184608051015e608051016211179f60e91b838201527f3c73746f70206f66667365743d223130302522207374796c653d2273746f702d60c78201526531b7b637b91d60d11b60e78201528151809260c0510160ed83015e01016211179f60e91b83820152701e17b634b732b0b923b930b234b2b73a1f60791b602c820152661e17b232b3399f60c91b603d8201527f3c726563742077696474683d2233303022206865696768743d2234303022206660448201527f696c6c3d2275726c2823626729222072783d223230222f3e000000000000000060648201527f3c7265637420783d2232302220793d223230222077696474683d223236302220607c8201527f6865696768743d22333630222066696c6c3d2272676261283235352c3235352c609c82015272191a9a96181718949110393c1e91189a91179f60691b60bc8201527f3c7465787420783d223135302220793d2238302220666f6e742d66616d696c7960cf8201527f3d22417269616c2220666f6e742d73697a653d223234222066696c6c3d22776860ef8201527f6974652220746578742d616e63686f723d226d6964646c652220666f6e742d7761010f8201527f65696768743d22626f6c64223e56414c5545534b494e3c2f746578743e00000061012f8201527f3c636972636c652063783d22313530222063793d223136302220723d2235302261014c8201527f2066696c6c3d2272676261283235352c3235352c3235352c302e3229222f3e0061016c8201527f3c7465787420783d223135302220793d223137302220666f6e742d73697a653d61018b8201527f2233322220746578742d616e63686f723d226d6964646c65223e2623313238316101ab8201526918181d9e17ba32bc3a1f60b11b6101cb8201527f3c7465787420783d223135302220793d223234302220666f6e742d66616d696c6101d58201527f793d22417269616c2220666f6e742d73697a653d223136222066696c6c3d22776101f58201527f686974652220746578742d616e63686f723d226d6964646c65223e00000000006102158201528151809260c0510161023083015e0101661e17ba32bc3a1f60c91b83820152711e33903334b6361e9111a323221b9818111f60711b61020e8201528151809260c0510161022083015e0101631e17b39f60e11b838201527f3c7465787420783d223135302220793d223334302220666f6e742d66616d696c601d8201527f793d22417269616c2220666f6e742d73697a653d223134222066696c6c3d2272603d8201527f676261283235352c3235352c3235352c302e37292220746578742d616e63686f605d8201526f0391e9136b4b2323632911f2a34b2b9160851b607d8201528151809260c05101608d83015e0101661e17ba32bc3a1f60c91b82820152651e17b9bb339f60d11b607b82015260805190030160121981016080515201608051612335565b6139e0565b95603361323a608051613bb1565b93605161325561324f600160a05101546139e0565b926139e0565b91603461327260ff6132688189166139e0565b9760081c166139e0565b97816040519d8e737b226e616d65223a2256616c7565736b696e202360601b60c051820152815192839260c0510191015e8d0161088b60f21b838201527f226465736372697074696f6e223a22412056616c7565736b696e73207265707560368201526b1d185d1a5bdb88139195088b60a21b60568201527f22696d616765223a22646174613a696d6167652f7376672b786d6c3b626173656062820152620d8d0b60ea1b60828201528151809260c05101608583015e010161088b60f21b838201526d2261747472696275746573223a5b60901b60538201527f7b2274726169745f74797065223a22506572736f6e61204944222c2276616c7560618201526232911d60e91b60818201528151809260c05101608483015e0101611f4b60f21b838201527f7b2274726169745f74797065223a2250726f66657373696f6e204944222c227660358201526530b63ab2911d60d11b60558201528151809260c05101605b83015e0101611f4b60f21b838201527f7b2274726169745f74797065223a2254696572222c2276616c7565223a000000602a8201528151809260c05101604783015e0101611f4b60f21b838201527f7b2274726169745f74797065223a224c6576656c222c2276616c7565223a000060218201528151809260c05101603f83015e0101607d60f81b60c051820152615d7d60f01b60218201528360c051910301601c19810184520182612335565b613bb1565b6134dc603d60405180937f646174613a6170706c69636174696f6e2f6a736f6e3b6261736536342c00000060c0518301528051809160c051018484015e81015f838201520301601f198101835282612335565b90565b60ff8116600203613535576040516134f8604082612335565b60078152662334323939453160c81b60208201529460405161351b604082612335565b60078152662333313832434560c81b602082015293612be5565b60ff811660030361358b5760405161354e604082612335565b60078152662339463741454160c81b602082015294604051613571604082612335565b60078152662338303541443560c81b602082015293612be5565b604051613599604082612335565b60078152662346364530354560c81b6020820152946040516135bc604082612335565b60078152662344363945324560c81b602082015293612be5565b6020015191612b8c565b9091503d805f833e6135f28183612335565b810190602081830312610329578051906001600160401b03821161032957019060c08282031261032957604051916136298361231a565b8051835260208101516001600160401b038111610329578261364c9183016129eb565b602084015260408101516001600160401b03811161032957826136709183016129eb565b604084015260608101516001600160401b0381116103295760a0926136969183016129eb565b60608401526136a760808201612a31565b6080840152015160a0820152905f612b62565b90916136c5906139e0565b60405180925f906136d58161242b565b9060018116908115613755575060011461370c575b50602090836134dc945192839101825e015f815203601f198101835282612335565b905060035f525f516020613db35f395f51905f525f905b82821061373957505081016020016134dc6136ea565b6020919293508060019154838589010152019101849291613723565b60ff1916602085810191909152821515909202840190910191506134dc90506136ea565b6001600160a01b031680156137d7575f516020613df35f395f51905f5280546001600160a01b0319811683179091556001600160a01b03167f8be0079c531659141344cd1fd0a4f28419497f9722a3daafe3b4186f6b6457e05f80a3565b631e4fbdf760e01b5f525f60045260245ffd5b6137f381613b4d565b906001600160a01b03821615613807575090565b637e27328960e01b5f5260045260245ffd5b5f516020613df35f395f51905f52546001600160a01b0316330361383957565b63118cdaa760e01b5f523360045260245ffd5b60025f516020613e535f395f51905f5254146138755760025f516020613e535f395f51905f5255565b633ee5aeb560e01b5f5260045ffd5b613899815f52600860205260405f2054151590565b1561170f576138a7816137ea565b336001600160a01b03909116036138bb5750565b63b842e01b60e01b5f526004523360245260445ffd5b823b6138df575b5050505050565b604051630a85bd0160e11b81526001600160a01b03918216600482015291811660248301526044820193909352608060648201529116916020908290819061392b906084830190612275565b03815f865af15f918161399b575b5061396757506139476128fa565b805190816139625782633250574960e11b5f5260045260245ffd5b602001fd5b6001600160e01b03191663757a42ff60e11b0161398957505f808080806138d8565b633250574960e11b5f5260045260245ffd5b9091506020813d6020116139d8575b816139b760209383612335565b8101031261032957516001600160e01b03198116810361032957905f613939565b3d91506139aa565b805f9172184f03e93ff9f4daa797ed6e38ed64bf6a1f0160401b821015613b2a575b806d04ee2d6d415b85acef8100000000600a921015613b0f575b662386f26fc10000811015613afb575b6305f5e100811015613aea575b612710811015613adb575b6064811015613acd575b1015613ac2575b600a60216001840193613a6785612356565b94613a756040519687612335565b808652613a84601f1991612356565b013660208701378401015b5f1901916f181899199a1a9b1b9c1cb0b131b232b360811b8282061a8353048015613abd57600a9091613a8f565b505090565b600190910190613a55565b606460029104930192613a4e565b61271060049104930192613a44565b6305f5e10060089104930192613a39565b662386f26fc1000060109104930192613a2c565b6d04ee2d6d415b85acef810000000060209104930192613a1c565b506040915072184f03e93ff9f4daa797ed6e38ed64bf6a1f0160401b8104613a02565b5f9081527f80bb2b638cc20bc4d0a60d66940f3ab4a00c1d7b313497ca82fb0b4ab007930260205260409020546001600160a01b031690565b60ff5f516020613e935f395f51905f525460401c1615613ba257565b631afcd79f60e31b5f5260045ffd5b90815115613cd05781516002810180911161101c5760039004600281901b91906001600160fe1b0381160361101c57604051917f4142434445464748494a4b4c4d4e4f505152535455565758595a616263646566601f527f6768696a6b6c6d6e6f707172737475767778797a303132333435363738392b2f603f52602083018480518101602081018051915f82525b808910613c945750602095969750906003929152510680600114613c7f57600214613c72575b50808452830101604052565b603d905f1901535f613c66565b50603d90815f1982015360011901535f613c66565b939760036004910198603f8a51818160121c165183538181600c1c16516001840153818160061c16516002840153165160038201530193613c40565b9050604051613ce0602082612335565b5f815290565b905f8091602081519101845af48080613d5f575b15613d1a5750506040513d81523d5f602083013e60203d82010160405290565b15613d3f57639996b31560e01b5f9081526001600160a01b0391909116600452602490fd5b3d15613d50576040513d5f823e3d90fd5b63d6bda27560e01b5f5260045ffd5b503d151580613cfa5750813b1515613cfa56fe645e039705490088daad89bae25049a34f4a9072d398537b1ab2425f24cbed01645e039705490088daad89bae25049a34f4a9072d398537b1ab2425f24cbed00c2575a0e9e593c00f959f8c92f12db2869c3395a3b0502d05e2516446f71f85b80bb2b638cc20bc4d0a60d66940f3ab4a00c1d7b313497ca82fb0b4ab00793009016d09d72d40fdae2fd8ceac6b6234c7706214fd39c1cd1e609a0528c199300360894a13ba1a3210667c828492db98dca3e2076cc3735a920a3ca505d382bbc645e039705490088daad89bae25049a34f4a9072d398537b1ab2425f24cbed029b779b17422d0df92223018b32b4d1fa46e071723d6817e2486d003becc55f0080bb2b638cc20bc4d0a60d66940f3ab4a00c1d7b313497ca82fb0b4ab0079304f0c57e16840df040f15088dc2f81fe391c3923bec73e23a9662efc9c229c6a0080bb2b638cc20bc4d0a60d66940f3ab4a00c1d7b313497ca82fb0b4ab0079301a2646970667358221220ade20cb327f430f231c475823d13d7d3a36e8ba9a4595e1837b054ef749b9a1464736f6c634300081b0033f0c57e16840df040f15088dc2f81fe391c3923bec73e23a9662efc9c229c6a00","linkReferences":{}},"methodIdentifiers":{"MAX_TIER()":"af3a19c7","UPGRADE_INTERFACE_VERSION()":"ad3cb1cc","approve(address,uint256)":"095ea7b3","balanceOf(address)":"70a08231","baseUri()":"9abc8320","getApproved(uint256)":"081812fc","getSkin(uint256)":"98e4f581","getSkinByPersonaProfession(uint256,uint256)":"6cb7615a","getSkinsByPersona(uint256)":"54b4bb1b","initialize(address,address,address)":"c0c53b8b","isApprovedForAll(address,address)":"e985e9c5","mintSkin(uint256,uint256)":"a733c0dc","name()":"06fdde03","owner()":"8da5cb5b","ownerOf(uint256)":"6352211e","personaRegistry()":"83dbb7aa","professionRegistry()":"a162a869","proxiableUUID()":"52d1902d","renounceOwnership()":"715018a6","safeTransferFrom(address,address,uint256)":"42842e0e","safeTransferFrom(address,address,uint256,bytes)":"b88d4fde","setApprovalForAll(address,bool)":"a22cb465","setBaseUri(string)":"a0bcfc7f","setCustomImage(uint256,string)":"f6c49eac","setPersonaRegistry(address)":"95d1507c","setProfessionRegistry(address)":"6f454a5b","setTierPrices(uint256[])":"2a5dd915","supportsInterface(bytes4)":"01ffc9a7","symbol()":"95d89b41","syncLevel(uint256,uint8)":"657827db","tierPrices(uint256)":"300eccab","tokenByIndex(uint256)":"4f6ccce7","tokenOfOwnerByIndex(address,uint256)":"2f745c59","tokenURI(uint256)":"c87b56dd","totalSupply()":"18160ddd","transferFrom(address,address,uint256)":"23b872dd","transferOwnership(address)":"f2fde38b","upgradeSkin(uint256)":"9e27cf62","upgradeToAndCall(address,bytes)":"4f1ef286","withdraw(address)":"51cff8d9"},"id":66}