{"abi":[{"type":"function","name":"allowance","inputs":[{"name":"owner","type":"address","internalType":"address"},{"name":"spender","type":"address","internalType":"address"},{"name":"id","type":"uint256","internalType":"uint256"}],"outputs":[{"name":"","type":"uint256","internalType":"uint256"}],"stateMutability":"view"},{"type":"function","name":"approve","inputs":[{"name":"spender","type":"address","internalType":"address"},{"name":"id","type":"uint256","internalType":"uint256"},{"name":"amount","type":"uint256","internalType":"uint256"}],"outputs":[{"name":"","type":"bool","internalType":"bool"}],"stateMutability":"nonpayable"},{"type":"function","name":"balanceOf","inputs":[{"name":"owner","type":"address","internalType":"address"},{"name":"id","type":"uint256","internalType":"uint256"}],"outputs":[{"name":"","type":"uint256","internalType":"uint256"}],"stateMutability":"view"},{"type":"function","name":"decimals","inputs":[{"name":"id","type":"uint256","internalType":"uint256"}],"outputs":[{"name":"","type":"uint8","internalType":"uint8"}],"stateMutability":"view"},{"type":"function","name":"isOperator","inputs":[{"name":"owner","type":"address","internalType":"address"},{"name":"spender","type":"address","internalType":"address"}],"outputs":[{"name":"","type":"bool","internalType":"bool"}],"stateMutability":"view"},{"type":"function","name":"name","inputs":[{"name":"id","type":"uint256","internalType":"uint256"}],"outputs":[{"name":"","type":"string","internalType":"string"}],"stateMutability":"view"},{"type":"function","name":"setOperator","inputs":[{"name":"spender","type":"address","internalType":"address"},{"name":"approved","type":"bool","internalType":"bool"}],"outputs":[{"name":"","type":"bool","internalType":"bool"}],"stateMutability":"nonpayable"},{"type":"function","name":"supportsInterface","inputs":[{"name":"interfaceId","type":"bytes4","internalType":"bytes4"}],"outputs":[{"name":"","type":"bool","internalType":"bool"}],"stateMutability":"view"},{"type":"function","name":"symbol","inputs":[{"name":"id","type":"uint256","internalType":"uint256"}],"outputs":[{"name":"","type":"string","internalType":"string"}],"stateMutability":"view"},{"type":"function","name":"transfer","inputs":[{"name":"receiver","type":"address","internalType":"address"},{"name":"id","type":"uint256","internalType":"uint256"},{"name":"amount","type":"uint256","internalType":"uint256"}],"outputs":[{"name":"","type":"bool","internalType":"bool"}],"stateMutability":"nonpayable"},{"type":"function","name":"transferFrom","inputs":[{"name":"sender","type":"address","internalType":"address"},{"name":"receiver","type":"address","internalType":"address"},{"name":"id","type":"uint256","internalType":"uint256"},{"name":"amount","type":"uint256","internalType":"uint256"}],"outputs":[{"name":"","type":"bool","internalType":"bool"}],"stateMutability":"nonpayable"},{"type":"event","name":"Approval","inputs":[{"name":"owner","type":"address","indexed":true,"internalType":"address"},{"name":"spender","type":"address","indexed":true,"internalType":"address"},{"name":"id","type":"uint256","indexed":true,"internalType":"uint256"},{"name":"amount","type":"uint256","indexed":false,"internalType":"uint256"}],"anonymous":false},{"type":"event","name":"ERC6909DecimalsUpdated","inputs":[{"name":"id","type":"uint256","indexed":true,"internalType":"uint256"},{"name":"newDecimals","type":"uint8","indexed":false,"internalType":"uint8"}],"anonymous":false},{"type":"event","name":"ERC6909NameUpdated","inputs":[{"name":"id","type":"uint256","indexed":true,"internalType":"uint256"},{"name":"newName","type":"string","indexed":false,"internalType":"string"}],"anonymous":false},{"type":"event","name":"ERC6909SymbolUpdated","inputs":[{"name":"id","type":"uint256","indexed":true,"internalType":"uint256"},{"name":"newSymbol","type":"string","indexed":false,"internalType":"string"}],"anonymous":false},{"type":"event","name":"Initialized","inputs":[{"name":"version","type":"uint64","indexed":false,"internalType":"uint64"}],"anonymous":false},{"type":"event","name":"OperatorSet","inputs":[{"name":"owner","type":"address","indexed":true,"internalType":"address"},{"name":"spender","type":"address","indexed":true,"internalType":"address"},{"name":"approved","type":"bool","indexed":false,"internalType":"bool"}],"anonymous":false},{"type":"event","name":"Transfer","inputs":[{"name":"caller","type":"address","indexed":false,"internalType":"address"},{"name":"sender","type":"address","indexed":true,"internalType":"address"},{"name":"receiver","type":"address","indexed":true,"internalType":"address"},{"name":"id","type":"uint256","indexed":true,"internalType":"uint256"},{"name":"amount","type":"uint256","indexed":false,"internalType":"uint256"}],"anonymous":false},{"type":"error","name":"ERC6909InsufficientAllowance","inputs":[{"name":"spender","type":"address","internalType":"address"},{"name":"allowance","type":"uint256","internalType":"uint256"},{"name":"needed","type":"uint256","internalType":"uint256"},{"name":"id","type":"uint256","internalType":"uint256"}]},{"type":"error","name":"ERC6909InsufficientBalance","inputs":[{"name":"sender","type":"address","internalType":"address"},{"name":"balance","type":"uint256","internalType":"uint256"},{"name":"needed","type":"uint256","internalType":"uint256"},{"name":"id","type":"uint256","internalType":"uint256"}]},{"type":"error","name":"ERC6909InvalidApprover","inputs":[{"name":"approver","type":"address","internalType":"address"}]},{"type":"error","name":"ERC6909InvalidReceiver","inputs":[{"name":"receiver","type":"address","internalType":"address"}]},{"type":"error","name":"ERC6909InvalidSender","inputs":[{"name":"sender","type":"address","internalType":"address"}]},{"type":"error","name":"ERC6909InvalidSpender","inputs":[{"name":"spender","type":"address","internalType":"address"}]},{"type":"error","name":"InvalidInitialization","inputs":[]},{"type":"error","name":"NotInitializing","inputs":[]}],"bytecode":{"object":"0x60808060405234601557610897908161001a8239f35b5f80fdfe60806040526004361015610011575f80fd5b5f3560e01c8062ad800c146104af578062fdd58e1461046057806301ffc9a71461040a578063095bcdb6146103f25780633f47e662146103a3578063426a8493146103275780634e41a1fb146102cb578063558a729714610211578063598af9e7146101da578063b6363cf21461018e5763fe99049a14610090575f80fd5b3461018a57608036600319011261018a576100a9610522565b6100b1610538565b60643590604435906001600160a01b03841633141580610167575b6100e5575b6100da936106f6565b602060405160018152f35b6100f08233866106cd565b5f1981106100ff575b506100d1565b8381106101395793836100da956101158361065d565b60018060a01b0333165f5260205260405f20855f526020520360405f2055936100f9565b604051632c51fead60e11b815233600482015260248101919091526044810193909352506064820152608490fd5b5061017184610695565b335f908152602091909152604090205460ff16156100cc565b5f80fd5b3461018a57604036600319011261018a576101a7610522565b6101b86101b2610538565b91610695565b9060018060a01b03165f52602052602060ff60405f2054166040519015158152f35b3461018a57606036600319011261018a5760206102096101f8610522565b610200610538565b604435916106cd565b604051908152f35b3461018a57604036600319011261018a5761022a610522565b6024359081151580920361018a5733156102b8576001600160a01b03169081156102a55761025733610695565b825f5260205260405f2060ff1981541660ff83161790556040519081527fceb576d9f15e4e200fdb5096d64d5dfd667e16def20c1eefd14256d8e3faa26760203392a3602060405160018152f35b636f65f46560e01b5f525f60045260245ffd5b63198ecd5360e31b5f525f60045260245ffd5b3461018a57602036600319011261018a576004355f527fa0651e3d105d335a33d7d04897e080112be09c416f44637d6543e5b47885f800602052610323610317600160405f2001610578565b604051918291826104f8565b0390f35b3461018a576103353661054e565b909133156102b8576001600160a01b03169081156102a5576103563361065d565b825f5260205260405f20835f526020528060405f20556040519081527fb3fd5071835887567a0671151121894ddccc2842f1d10bedad13e0d17cace9a760203392a4602060405160018152f35b3461018a57602036600319011261018a576004355f527fa0651e3d105d335a33d7d04897e080112be09c416f44637d6543e5b47885f800602052602060ff600260405f20015416604051908152f35b3461018a576100da6104033661054e565b91336106f6565b3461018a57602036600319011261018a5760043563ffffffff60e01b811680910361018a57602090630f632fb360e01b811490811561044f575b506040519015158152f35b6301ffc9a760e01b14905082610444565b3461018a57604036600319011261018a57610479610522565b60018060a01b03165f525f5160206108425f395f51905f5260205260405f206024355f52602052602060405f2054604051908152f35b3461018a57602036600319011261018a576004355f527fa0651e3d105d335a33d7d04897e080112be09c416f44637d6543e5b47885f80060205261032361031760405f20610578565b602060409281835280519182918282860152018484015e5f828201840152601f01601f1916010190565b600435906001600160a01b038216820361018a57565b602435906001600160a01b038216820361018a57565b606090600319011261018a576004356001600160a01b038116810361018a57906024359060443590565b90604051915f908054908160011c91600181168015610653575b60208410811461063f5783875290811561062157506001146105e9575b5050829003601f01601f1916820167ffffffffffffffff8111838210176105d557604052565b634e487b7160e01b5f52604160045260245ffd5b9091505f5260205f205f905b82821061060b5750602091508301015f806105af565b60018160209254838589010152019101906105f5565b9150506020925060ff191682850152151560051b8301015f806105af565b634e487b7160e01b5f52602260045260245ffd5b92607f1692610592565b6001600160a01b03165f9081527f9e75074fe7582401cc58901f6bda367c4d687c51437956963a7c06ef5cfaf9026020526040902090565b6001600160a01b03165f9081527f9e75074fe7582401cc58901f6bda367c4d687c51437956963a7c06ef5cfaf9016020526040902090565b6106d69061065d565b9060018060a01b03165f5260205260405f20905f5260205260405f205490565b91926001600160a01b03831691821561082e576001600160a01b031692831561081b57825f525f5160206108425f395f51905f5260205260405f20855f5260205260405f2054908282106107e257508190835f525f5160206108425f395f51905f5260205260405f20865f526020520360405f2055825f525f5160206108425f395f51905f5260205260405f20845f5260205260405f208054918083018093116107ce577f1b3d7edb2e9c0b0e7c525b20aaaef0f5940d2ed71663c7d39266ecafac72885992604092558151903382526020820152a4565b634e487b7160e01b5f52601160045260245ffd5b6040516302c6d3fb60e61b81526001600160a01b0391909116600482015260248101919091526044810182905260648101859052608490fd5b630b8bbd6160e41b5f525f60045260245ffd5b6301486a4160e71b5f525f60045260245ffdfe9e75074fe7582401cc58901f6bda367c4d687c51437956963a7c06ef5cfaf900a26469706673582212200ab016d91c23f58e4570b97612435e8ba29452f04a5d037f8c8feb969a5d8dd864736f6c634300081b0033","linkReferences":{}},"methodIdentifiers":{"allowance(address,address,uint256)":"598af9e7","approve(address,uint256,uint256)":"426a8493","balanceOf(address,uint256)":"00fdd58e","decimals(uint256)":"3f47e662","isOperator(address,address)":"b6363cf2","name(uint256)":"00ad800c","setOperator(address,bool)":"558a7297","supportsInterface(bytes4)":"01ffc9a7","symbol(uint256)":"4e41a1fb","transfer(address,uint256,uint256)":"095bcdb6","transferFrom(address,address,uint256,uint256)":"fe99049a"},"id":90}