{"abi":[{"type":"function","name":"allowance","inputs":[{"name":"owner","type":"address","internalType":"address"},{"name":"spender","type":"address","internalType":"address"},{"name":"id","type":"uint256","internalType":"uint256"}],"outputs":[{"name":"","type":"uint256","internalType":"uint256"}],"stateMutability":"view"},{"type":"function","name":"approve","inputs":[{"name":"spender","type":"address","internalType":"address"},{"name":"id","type":"uint256","internalType":"uint256"},{"name":"amount","type":"uint256","internalType":"uint256"}],"outputs":[{"name":"","type":"bool","internalType":"bool"}],"stateMutability":"nonpayable"},{"type":"function","name":"balanceOf","inputs":[{"name":"owner","type":"address","internalType":"address"},{"name":"id","type":"uint256","internalType":"uint256"}],"outputs":[{"name":"","type":"uint256","internalType":"uint256"}],"stateMutability":"view"},{"type":"function","name":"isOperator","inputs":[{"name":"owner","type":"address","internalType":"address"},{"name":"spender","type":"address","internalType":"address"}],"outputs":[{"name":"","type":"bool","internalType":"bool"}],"stateMutability":"view"},{"type":"function","name":"setOperator","inputs":[{"name":"spender","type":"address","internalType":"address"},{"name":"approved","type":"bool","internalType":"bool"}],"outputs":[{"name":"","type":"bool","internalType":"bool"}],"stateMutability":"nonpayable"},{"type":"function","name":"supportsInterface","inputs":[{"name":"interfaceId","type":"bytes4","internalType":"bytes4"}],"outputs":[{"name":"","type":"bool","internalType":"bool"}],"stateMutability":"view"},{"type":"function","name":"totalSupply","inputs":[{"name":"id","type":"uint256","internalType":"uint256"}],"outputs":[{"name":"","type":"uint256","internalType":"uint256"}],"stateMutability":"view"},{"type":"function","name":"transfer","inputs":[{"name":"receiver","type":"address","internalType":"address"},{"name":"id","type":"uint256","internalType":"uint256"},{"name":"amount","type":"uint256","internalType":"uint256"}],"outputs":[{"name":"","type":"bool","internalType":"bool"}],"stateMutability":"nonpayable"},{"type":"function","name":"transferFrom","inputs":[{"name":"sender","type":"address","internalType":"address"},{"name":"receiver","type":"address","internalType":"address"},{"name":"id","type":"uint256","internalType":"uint256"},{"name":"amount","type":"uint256","internalType":"uint256"}],"outputs":[{"name":"","type":"bool","internalType":"bool"}],"stateMutability":"nonpayable"},{"type":"event","name":"Approval","inputs":[{"name":"owner","type":"address","indexed":true,"internalType":"address"},{"name":"spender","type":"address","indexed":true,"internalType":"address"},{"name":"id","type":"uint256","indexed":true,"internalType":"uint256"},{"name":"amount","type":"uint256","indexed":false,"internalType":"uint256"}],"anonymous":false},{"type":"event","name":"Initialized","inputs":[{"name":"version","type":"uint64","indexed":false,"internalType":"uint64"}],"anonymous":false},{"type":"event","name":"OperatorSet","inputs":[{"name":"owner","type":"address","indexed":true,"internalType":"address"},{"name":"spender","type":"address","indexed":true,"internalType":"address"},{"name":"approved","type":"bool","indexed":false,"internalType":"bool"}],"anonymous":false},{"type":"event","name":"Transfer","inputs":[{"name":"caller","type":"address","indexed":false,"internalType":"address"},{"name":"sender","type":"address","indexed":true,"internalType":"address"},{"name":"receiver","type":"address","indexed":true,"internalType":"address"},{"name":"id","type":"uint256","indexed":true,"internalType":"uint256"},{"name":"amount","type":"uint256","indexed":false,"internalType":"uint256"}],"anonymous":false},{"type":"error","name":"ERC6909InsufficientAllowance","inputs":[{"name":"spender","type":"address","internalType":"address"},{"name":"allowance","type":"uint256","internalType":"uint256"},{"name":"needed","type":"uint256","internalType":"uint256"},{"name":"id","type":"uint256","internalType":"uint256"}]},{"type":"error","name":"ERC6909InsufficientBalance","inputs":[{"name":"sender","type":"address","internalType":"address"},{"name":"balance","type":"uint256","internalType":"uint256"},{"name":"needed","type":"uint256","internalType":"uint256"},{"name":"id","type":"uint256","internalType":"uint256"}]},{"type":"error","name":"ERC6909InvalidApprover","inputs":[{"name":"approver","type":"address","internalType":"address"}]},{"type":"error","name":"ERC6909InvalidReceiver","inputs":[{"name":"receiver","type":"address","internalType":"address"}]},{"type":"error","name":"ERC6909InvalidSender","inputs":[{"name":"sender","type":"address","internalType":"address"}]},{"type":"error","name":"ERC6909InvalidSpender","inputs":[{"name":"spender","type":"address","internalType":"address"}]},{"type":"error","name":"InvalidInitialization","inputs":[]},{"type":"error","name":"NotInitializing","inputs":[]}],"bytecode":{"object":"0x608080604052346015576106c8908161001a8239f35b5f80fdfe60806040526004361015610011575f80fd5b5f3560e01c8062fdd58e146103e957806301ffc9a714610393578063095bcdb61461037b578063426a8493146102ff578063558a729714610245578063598af9e71461020e578063b6363cf2146101c2578063bd85b039146101795763fe99049a1461007b575f80fd5b3461017557608036600319011261017557610094610438565b61009c61044e565b60643590604435906001600160a01b03841633141580610152575b6100d0575b6100c593610527565b602060405160018152f35b6100db8233866104fe565b5f1981106100ea575b506100bc565b8381106101245793836100c5956101008361048e565b60018060a01b0333165f5260205260405f20855f526020520360405f2055936100e4565b604051632c51fead60e11b815233600482015260248101919091526044810193909352506064820152608490fd5b5061015c846104c6565b335f908152602091909152604090205460ff16156100b7565b5f80fd5b34610175576020366003190112610175576004355f527f9cc5ac148333cfaf4365d2d67a9c6e8fab8e8f4df7b569f769d68102db719600602052602060405f2054604051908152f35b34610175576040366003190112610175576101db610438565b6101ec6101e661044e565b916104c6565b9060018060a01b03165f52602052602060ff60405f2054166040519015158152f35b3461017557606036600319011261017557602061023d61022c610438565b61023461044e565b604435916104fe565b604051908152f35b346101755760403660031901126101755761025e610438565b602435908115158092036101755733156102ec576001600160a01b03169081156102d95761028b336104c6565b825f5260205260405f2060ff1981541660ff83161790556040519081527fceb576d9f15e4e200fdb5096d64d5dfd667e16def20c1eefd14256d8e3faa26760203392a3602060405160018152f35b636f65f46560e01b5f525f60045260245ffd5b63198ecd5360e31b5f525f60045260245ffd5b346101755761030d36610464565b909133156102ec576001600160a01b03169081156102d95761032e3361048e565b825f5260205260405f20835f526020528060405f20556040519081527fb3fd5071835887567a0671151121894ddccc2842f1d10bedad13e0d17cace9a760203392a4602060405160018152f35b34610175576100c561038c36610464565b9133610527565b346101755760203660031901126101755760043563ffffffff60e01b811680910361017557602090630f632fb360e01b81149081156103d8575b506040519015158152f35b6301ffc9a760e01b149050826103cd565b3461017557604036600319011261017557610402610438565b60018060a01b03165f525f5160206106735f395f51905f5260205260405f206024355f52602052602060405f2054604051908152f35b600435906001600160a01b038216820361017557565b602435906001600160a01b038216820361017557565b6060906003190112610175576004356001600160a01b038116810361017557906024359060443590565b6001600160a01b03165f9081527f9e75074fe7582401cc58901f6bda367c4d687c51437956963a7c06ef5cfaf9026020526040902090565b6001600160a01b03165f9081527f9e75074fe7582401cc58901f6bda367c4d687c51437956963a7c06ef5cfaf9016020526040902090565b6105079061048e565b9060018060a01b03165f5260205260405f20905f5260205260405f205490565b91926001600160a01b03831691821561065f576001600160a01b031692831561064c57825f525f5160206106735f395f51905f5260205260405f20855f5260205260405f20549082821061061357508190835f525f5160206106735f395f51905f5260205260405f20865f526020520360405f2055825f525f5160206106735f395f51905f5260205260405f20845f5260205260405f208054918083018093116105ff577f1b3d7edb2e9c0b0e7c525b20aaaef0f5940d2ed71663c7d39266ecafac72885992604092558151903382526020820152a4565b634e487b7160e01b5f52601160045260245ffd5b6040516302c6d3fb60e61b81526001600160a01b0391909116600482015260248101919091526044810182905260648101859052608490fd5b630b8bbd6160e41b5f525f60045260245ffd5b6301486a4160e71b5f525f60045260245ffdfe9e75074fe7582401cc58901f6bda367c4d687c51437956963a7c06ef5cfaf900a2646970667358221220031377dd323162426153551ee20b1b8c625dcca40068211a608f9b41f5ca376464736f6c634300081b0033","linkReferences":{}},"methodIdentifiers":{"allowance(address,address,uint256)":"598af9e7","approve(address,uint256,uint256)":"426a8493","balanceOf(address,uint256)":"00fdd58e","isOperator(address,address)":"b6363cf2","setOperator(address,bool)":"558a7297","supportsInterface(bytes4)":"01ffc9a7","totalSupply(uint256)":"bd85b039","transfer(address,uint256,uint256)":"095bcdb6","transferFrom(address,address,uint256,uint256)":"fe99049a"},"id":91}