{"abi":[{"type":"function","name":"eip712Domain","inputs":[],"outputs":[{"name":"fields","type":"bytes1","internalType":"bytes1"},{"name":"name","type":"string","internalType":"string"},{"name":"version","type":"string","internalType":"string"},{"name":"chainId","type":"uint256","internalType":"uint256"},{"name":"verifyingContract","type":"address","internalType":"address"},{"name":"salt","type":"bytes32","internalType":"bytes32"},{"name":"extensions","type":"uint256[]","internalType":"uint256[]"}],"stateMutability":"view"},{"type":"function","name":"execute","inputs":[{"name":"request","type":"tuple","internalType":"struct ERC2771ForwarderUpgradeable.ForwardRequestData","components":[{"name":"from","type":"address","internalType":"address"},{"name":"to","type":"address","internalType":"address"},{"name":"value","type":"uint256","internalType":"uint256"},{"name":"gas","type":"uint256","internalType":"uint256"},{"name":"deadline","type":"uint48","internalType":"uint48"},{"name":"data","type":"bytes","internalType":"bytes"},{"name":"signature","type":"bytes","internalType":"bytes"}]}],"outputs":[],"stateMutability":"payable"},{"type":"function","name":"executeBatch","inputs":[{"name":"requests","type":"tuple[]","internalType":"struct ERC2771ForwarderUpgradeable.ForwardRequestData[]","components":[{"name":"from","type":"address","internalType":"address"},{"name":"to","type":"address","internalType":"address"},{"name":"value","type":"uint256","internalType":"uint256"},{"name":"gas","type":"uint256","internalType":"uint256"},{"name":"deadline","type":"uint48","internalType":"uint48"},{"name":"data","type":"bytes","internalType":"bytes"},{"name":"signature","type":"bytes","internalType":"bytes"}]},{"name":"refundReceiver","type":"address","internalType":"address payable"}],"outputs":[],"stateMutability":"payable"},{"type":"function","name":"initialize","inputs":[{"name":"name","type":"string","internalType":"string"}],"outputs":[],"stateMutability":"nonpayable"},{"type":"function","name":"nonces","inputs":[{"name":"owner","type":"address","internalType":"address"}],"outputs":[{"name":"","type":"uint256","internalType":"uint256"}],"stateMutability":"view"},{"type":"function","name":"verify","inputs":[{"name":"request","type":"tuple","internalType":"struct ERC2771ForwarderUpgradeable.ForwardRequestData","components":[{"name":"from","type":"address","internalType":"address"},{"name":"to","type":"address","internalType":"address"},{"name":"value","type":"uint256","internalType":"uint256"},{"name":"gas","type":"uint256","internalType":"uint256"},{"name":"deadline","type":"uint48","internalType":"uint48"},{"name":"data","type":"bytes","internalType":"bytes"},{"name":"signature","type":"bytes","internalType":"bytes"}]}],"outputs":[{"name":"","type":"bool","internalType":"bool"}],"stateMutability":"view"},{"type":"event","name":"EIP712DomainChanged","inputs":[],"anonymous":false},{"type":"event","name":"ExecutedForwardRequest","inputs":[{"name":"signer","type":"address","indexed":true,"internalType":"address"},{"name":"nonce","type":"uint256","indexed":false,"internalType":"uint256"},{"name":"success","type":"bool","indexed":false,"internalType":"bool"}],"anonymous":false},{"type":"event","name":"Initialized","inputs":[{"name":"version","type":"uint64","indexed":false,"internalType":"uint64"}],"anonymous":false},{"type":"error","name":"ERC2771ForwarderExpiredRequest","inputs":[{"name":"deadline","type":"uint48","internalType":"uint48"}]},{"type":"error","name":"ERC2771ForwarderInvalidSigner","inputs":[{"name":"signer","type":"address","internalType":"address"},{"name":"from","type":"address","internalType":"address"}]},{"type":"error","name":"ERC2771ForwarderMismatchedValue","inputs":[{"name":"requestedValue","type":"uint256","internalType":"uint256"},{"name":"msgValue","type":"uint256","internalType":"uint256"}]},{"type":"error","name":"ERC2771UntrustfulTarget","inputs":[{"name":"target","type":"address","internalType":"address"},{"name":"forwarder","type":"address","internalType":"address"}]},{"type":"error","name":"FailedCall","inputs":[]},{"type":"error","name":"InsufficientBalance","inputs":[{"name":"balance","type":"uint256","internalType":"uint256"},{"name":"needed","type":"uint256","internalType":"uint256"}]},{"type":"error","name":"InvalidAccountNonce","inputs":[{"name":"account","type":"address","internalType":"address"},{"name":"currentNonce","type":"uint256","internalType":"uint256"}]},{"type":"error","name":"InvalidInitialization","inputs":[]},{"type":"error","name":"NotInitializing","inputs":[]}],"bytecode":{"object":"0x60808060405234601557611360908161001a8239f35b5f80fdfe60806040526004361015610011575f80fd5b5f3560e01c806319d8d38c14610ae65780637ecebe0014610a9457806384b0196e1461094a578063ccf96b4a146106f5578063df905caf146105025763f62d18881461005b575f80fd5b346104fe5760203660031901126104fe5760043567ffffffffffffffff81116104fe57366023820112156104fe5761009d903690602481600401359101610ba2565b5f51602061130b5f395f51905f525460ff8160401c16159067ffffffffffffffff8116801590816104f6575b60011490816104ec575b1590816104e3575b506104d45767ffffffffffffffff1981166001175f51602061130b5f395f51905f5255816104a8575b5061010d611109565b6040519061011c604083610b80565b60018252603160f81b6020830152610132611109565b825167ffffffffffffffff811161039f5761015a5f5160206112ab5f395f51905f5254610ecb565b601f8111610439575b506020601f82116001146103be57819293945f926103b3575b50508160011b915f199060031b1c1916175f5160206112ab5f395f51905f52555b815167ffffffffffffffff811161039f576101c55f5160206112cb5f395f51905f5254610ecb565b601f8111610330575b50602092601f82116001146102b757928192935f926102ac575b50508160011b915f199060031b1c1916175f5160206112cb5f395f51905f52555b5f7fa16a46d94261c7517cc8ff89f61c0ce93598e3c849801011dee649a6a557d100555f7fa16a46d94261c7517cc8ff89f61c0ce93598e3c849801011dee649a6a557d1015561025557005b68ff0000000000000000195f51602061130b5f395f51905f5254165f51602061130b5f395f51905f52557fc7f505b2f371ae2175ee4913f4499e1f2633a7b5936321eed1cdaeb6115181d2602060405160018152a1005b015190505f806101e8565b601f198216935f5160206112cb5f395f51905f525f52805f20915f5b8681106103185750836001959610610300575b505050811b015f5160206112cb5f395f51905f5255610209565b01515f1960f88460031b161c191690555f80806102e6565b919260206001819286850151815501940192016102d3565b5f5160206112cb5f395f51905f525f527f5f9ce34815f8e11431c7bb75a8e6886a91478f7ffc1dbb0a98dc240fddd76b75601f830160051c81019160208410610395575b601f0160051c01905b81811061038a57506101ce565b5f815560010161037d565b9091508190610374565b634e487b7160e01b5f52604160045260245ffd5b015190505f8061017c565b601f198216905f5160206112ab5f395f51905f525f52805f20915f5b81811061042157509583600195969710610409575b505050811b015f5160206112ab5f395f51905f525561019d565b01515f1960f88460031b161c191690555f80806103ef565b9192602060018192868b0151815501940192016103da565b5f5160206112ab5f395f51905f525f527f42ad5d3e1f2e6e70edcf6d991b8a3023d3fca8047a131592f9edb9fd9b89d57d601f830160051c8101916020841061049e575b601f0160051c01905b8181106104935750610163565b5f8155600101610486565b909150819061047d565b68ffffffffffffffffff191668010000000000000001175f51602061130b5f395f51905f52555f610104565b63f92ee8a960e01b5f5260045ffd5b9050155f6100db565b303b1591506100d3565b8391506100c9565b5f80fd5b61050b36610b28565b6040810135908134036106de575f9161052382610c66565b92919082156106ae57811561068857801561065a5782610652575b508161064a575b50610564575b5050501561055557005b63d6bda27560e01b5f5260045ffd5b9091925060018060a01b031690815f525f5160206112eb5f395f51905f526020525f8060408120928354936001850190556060860135956105a760208201610c3f565b916105c76105ff601460206105bf60a087018761107f565b949096610c3f565b9360405194818692848401998a378201906bffffffffffffffffffffffff199060601b16838201520301600b19810184520182610b80565b519288f192603f5a9104116106485760407f842fb24a83793558587a3dab2be7674da4a51d09c5542d6dd354e5d0ea70813c9181519081528415156020820152a281808061054b565bfe5b905085610545565b91508661053e565b8361066487610c3f565b636422d02b60e11b5f9081526001600160a01b039283166004529116602452604490fd5b65ffffffffffff61069b60808801610c53565b634a777ac560e11b5f521660045260245ffd5b6106ba60208701610c3f565b63d2650cd160e01b5f9081526001600160a01b039190911660045230602452604490fd5b506370647f7960e01b5f526004523460245260445ffd5b60403660031901126104fe5760043567ffffffffffffffff81116104fe57366023820112156104fe57806004013567ffffffffffffffff81116104fe576024820191602436918360051b0101116104fe57602435916001600160a01b0383168084036104fe5715915f915f935f925b80841061079f575050505034810361078957508061077e57005b610787916110b2565b005b6370647f7960e01b5f526004523460245260445ffd5b909192936107bc9060406107b4878588610be8565b013590610c1e565b936107c8818386610be8565b5f90846107d482610c66565b93610910575b82610908575b5081610900575b5061081c575b505015610800575b600101929190610764565b9461081460019160406107b4898689610be8565b9590506107f5565b90915060018060a01b0316805f525f5160206112eb5f395f51905f5260205260405f208054906001820190555f80606085013594604061085e60208301610c3f565b61086b60a084018461107f565b6108b56014602061087e88979597610c3f565b938551948186928484019a8b378201906bffffffffffffffffffffffff199060601b16838201520301600b19810184520182610b80565b519301359088f192603f5a9104116106485760407f842fb24a83793558587a3dab2be7674da4a51d09c5542d6dd354e5d0ea70813c9181519081528415156020820152a288806107ed565b90508b6107e7565b91508c6107e0565b821561093e57811561092b57806107da578361066486610c3f565b65ffffffffffff61069b60808701610c53565b6106ba60208601610c3f565b346104fe575f3660031901126104fe577fa16a46d94261c7517cc8ff89f61c0ce93598e3c849801011dee649a6a557d100541580610a6b575b15610a2e576109d2610993610f03565b61099b610fd2565b60206109e0604051926109ae8385610b80565b5f84525f368137604051958695600f60f81b875260e08588015260e0870190610b5c565b908582036040870152610b5c565b4660608501523060808501525f60a085015283810360c08501528180845192838152019301915f5b828110610a1757505050500390f35b835185528695509381019392810192600101610a08565b60405162461bcd60e51b81526020600482015260156024820152741152540dcc4c8e88155b9a5b9a5d1a585b1a5e9959605a1b6044820152606490fd5b507fa16a46d94261c7517cc8ff89f61c0ce93598e3c849801011dee649a6a557d1015415610983565b346104fe5760203660031901126104fe576004356001600160a01b03811681036104fe576001600160a01b03165f9081525f5160206112eb5f395f51905f526020908152604090912054604051908152f35b346104fe576020610afe610af936610b28565b610c66565b509082610b20575b5081610b18575b506040519015158152f35b905082610b0d565b915083610b06565b60206003198201126104fe576004359067ffffffffffffffff82116104fe5760e09082900360031901126104fe5760040190565b805180835260209291819084018484015e5f828201840152601f01601f1916010190565b90601f8019910116810190811067ffffffffffffffff82111761039f57604052565b92919267ffffffffffffffff821161039f5760405191610bcc601f8201601f191660200184610b80565b8294818452818301116104fe578281602093845f960137010152565b9190811015610c0a5760051b8101359060de19813603018212156104fe570190565b634e487b7160e01b5f52603260045260245ffd5b91908201809211610c2b57565b634e487b7160e01b5f52601160045260245ffd5b356001600160a01b03811681036104fe5790565b3565ffffffffffff811681036104fe5790565b90610c7082610c3f565b6020830191610dfc6042610c8385610c3f565b93610cb6610c9088610c3f565b6001600160a01b03165f9081525f5160206112eb5f395f51905f52602052604090205490565b94608088019565ffffffffffff610ccc88610c53565b610ce3610cdc60a08d018d61107f565b3691610ba2565b60208151910120926040519460208601967f7f96328b83274ebc7c1cf4f7a3abda602b51a78b7fa1d86a2ce353d75e587cac885260018060a01b0316604087015260018060a01b0316606086015260408c0135608086015260608c013560a086015260c08501521660e08301526101008201526101008152610d6761012082610b80565b519020610d726111fb565b610d7a611265565b6040519060208201927f8b73c3c69bb8fe3d512ecc4cf759cc79239f7b179b0ffacaa9a75d522b39400f8452604083015260608201524660808201523060a082015260a08152610dcb60c082610b80565b519020906040519161190160f01b83526002830152602282015220610df6610cdc60c088018861107f565b90611134565b506004819492941015610eb7575f610e176020921596610c3f565b6040518381019063572b6c0560e01b825230602482015260248152610e3d604482610b80565b51915afa903d5f519083610eab575b5082610e9f575b50610e5d90610c53565b9484610e77575b509365ffffffffffff4291161015929190565b9093506001600160a01b0390610e8c90610c3f565b166001600160a01b03831614925f610e64565b15159150610e5d610e53565b6020111592505f610e4c565b634e487b7160e01b5f52602160045260245ffd5b90600182811c92168015610ef9575b6020831014610ee557565b634e487b7160e01b5f52602260045260245ffd5b91607f1691610eda565b604051905f825f5160206112ab5f395f51905f525491610f2283610ecb565b8083529260018116908115610fb35750600114610f48575b610f4692500383610b80565b565b505f5160206112ab5f395f51905f525f90815290917f42ad5d3e1f2e6e70edcf6d991b8a3023d3fca8047a131592f9edb9fd9b89d57d5b818310610f97575050906020610f4692820101610f3a565b6020919350806001915483858901015201910190918492610f7f565b60209250610f4694915060ff191682840152151560051b820101610f3a565b604051905f825f5160206112cb5f395f51905f525491610ff183610ecb565b8083529260018116908115610fb3575060011461101457610f4692500383610b80565b505f5160206112cb5f395f51905f525f90815290917f5f9ce34815f8e11431c7bb75a8e6886a91478f7ffc1dbb0a98dc240fddd76b755b818310611063575050906020610f4692820101610f3a565b602091935080600191548385890101520191019091849261104b565b903590601e19813603018212156104fe570180359067ffffffffffffffff82116104fe576020019181360383136104fe57565b8147106110f2575f8080938193826040516110ce602082610b80565b526001600160a01b03165af1156110e157565b3d15610555576040513d5f823e3d90fd5b504763cf47918160e01b5f5260045260245260445ffd5b60ff5f51602061130b5f395f51905f525460401c161561112557565b631afcd79f60e31b5f5260045ffd5b81519190604183036111645761115d9250602082015190606060408401519301515f1a9061116e565b9192909190565b50505f9160029190565b91907f7fffffffffffffffffffffffffffffff5d576e7357a4501ddfe92f46681b20a084116111f0579160209360809260ff5f9560405194855216868401526040830152606082015282805260015afa156111e5575f516001600160a01b038116156111db57905f905f90565b505f906001905f90565b6040513d5f823e3d90fd5b5050505f9160039190565b611203610f03565b8051908115611213576020012090565b50507fa16a46d94261c7517cc8ff89f61c0ce93598e3c849801011dee649a6a557d1005480156112405790565b507fc5d2460186f7233c927e7db2dcc703c0e500b653ca82273b7bfad8045d85a47090565b61126d610fd2565b805190811561127d576020012090565b50507fa16a46d94261c7517cc8ff89f61c0ce93598e3c849801011dee649a6a557d101548015611240579056fea16a46d94261c7517cc8ff89f61c0ce93598e3c849801011dee649a6a557d102a16a46d94261c7517cc8ff89f61c0ce93598e3c849801011dee649a6a557d1035ab42ced628888259c08ac98db1eb0cf702fc1501344311d8b100cd1bfe4bb00f0c57e16840df040f15088dc2f81fe391c3923bec73e23a9662efc9c229c6a00a264697066735822122048355ab5af15f60aae391c7a013e269759fefaeb42f4ae0e821afc355c72d82764736f6c634300081b0033","linkReferences":{}},"methodIdentifiers":{"eip712Domain()":"84b0196e","execute((address,address,uint256,uint256,uint48,bytes,bytes))":"df905caf","executeBatch((address,address,uint256,uint256,uint48,bytes,bytes)[],address)":"ccf96b4a","initialize(string)":"f62d1888","nonces(address)":"7ecebe00","verify((address,address,uint256,uint256,uint48,bytes,bytes))":"19d8d38c"},"id":68}