{"abi":[{"type":"function","name":"allowance","inputs":[{"name":"owner","type":"address","internalType":"address"},{"name":"spender","type":"address","internalType":"address"},{"name":"id","type":"uint256","internalType":"uint256"}],"outputs":[{"name":"","type":"uint256","internalType":"uint256"}],"stateMutability":"view"},{"type":"function","name":"approve","inputs":[{"name":"spender","type":"address","internalType":"address"},{"name":"id","type":"uint256","internalType":"uint256"},{"name":"amount","type":"uint256","internalType":"uint256"}],"outputs":[{"name":"","type":"bool","internalType":"bool"}],"stateMutability":"nonpayable"},{"type":"function","name":"balanceOf","inputs":[{"name":"owner","type":"address","internalType":"address"},{"name":"id","type":"uint256","internalType":"uint256"}],"outputs":[{"name":"","type":"uint256","internalType":"uint256"}],"stateMutability":"view"},{"type":"function","name":"isOperator","inputs":[{"name":"owner","type":"address","internalType":"address"},{"name":"spender","type":"address","internalType":"address"}],"outputs":[{"name":"","type":"bool","internalType":"bool"}],"stateMutability":"view"},{"type":"function","name":"setOperator","inputs":[{"name":"spender","type":"address","internalType":"address"},{"name":"approved","type":"bool","internalType":"bool"}],"outputs":[{"name":"","type":"bool","internalType":"bool"}],"stateMutability":"nonpayable"},{"type":"function","name":"supportsInterface","inputs":[{"name":"interfaceId","type":"bytes4","internalType":"bytes4"}],"outputs":[{"name":"","type":"bool","internalType":"bool"}],"stateMutability":"view"},{"type":"function","name":"totalSupply","inputs":[{"name":"id","type":"uint256","internalType":"uint256"}],"outputs":[{"name":"","type":"uint256","internalType":"uint256"}],"stateMutability":"view"},{"type":"function","name":"transfer","inputs":[{"name":"receiver","type":"address","internalType":"address"},{"name":"id","type":"uint256","internalType":"uint256"},{"name":"amount","type":"uint256","internalType":"uint256"}],"outputs":[{"name":"","type":"bool","internalType":"bool"}],"stateMutability":"nonpayable"},{"type":"function","name":"transferFrom","inputs":[{"name":"sender","type":"address","internalType":"address"},{"name":"receiver","type":"address","internalType":"address"},{"name":"id","type":"uint256","internalType":"uint256"},{"name":"amount","type":"uint256","internalType":"uint256"}],"outputs":[{"name":"","type":"bool","internalType":"bool"}],"stateMutability":"nonpayable"},{"type":"event","name":"Approval","inputs":[{"name":"owner","type":"address","indexed":true,"internalType":"address"},{"name":"spender","type":"address","indexed":true,"internalType":"address"},{"name":"id","type":"uint256","indexed":true,"internalType":"uint256"},{"name":"amount","type":"uint256","indexed":false,"internalType":"uint256"}],"anonymous":false},{"type":"event","name":"OperatorSet","inputs":[{"name":"owner","type":"address","indexed":true,"internalType":"address"},{"name":"spender","type":"address","indexed":true,"internalType":"address"},{"name":"approved","type":"bool","indexed":false,"internalType":"bool"}],"anonymous":false},{"type":"event","name":"Transfer","inputs":[{"name":"caller","type":"address","indexed":false,"internalType":"address"},{"name":"sender","type":"address","indexed":true,"internalType":"address"},{"name":"receiver","type":"address","indexed":true,"internalType":"address"},{"name":"id","type":"uint256","indexed":true,"internalType":"uint256"},{"name":"amount","type":"uint256","indexed":false,"internalType":"uint256"}],"anonymous":false},{"type":"error","name":"ERC6909InsufficientAllowance","inputs":[{"name":"spender","type":"address","internalType":"address"},{"name":"allowance","type":"uint256","internalType":"uint256"},{"name":"needed","type":"uint256","internalType":"uint256"},{"name":"id","type":"uint256","internalType":"uint256"}]},{"type":"error","name":"ERC6909InsufficientBalance","inputs":[{"name":"sender","type":"address","internalType":"address"},{"name":"balance","type":"uint256","internalType":"uint256"},{"name":"needed","type":"uint256","internalType":"uint256"},{"name":"id","type":"uint256","internalType":"uint256"}]},{"type":"error","name":"ERC6909InvalidApprover","inputs":[{"name":"approver","type":"address","internalType":"address"}]},{"type":"error","name":"ERC6909InvalidReceiver","inputs":[{"name":"receiver","type":"address","internalType":"address"}]},{"type":"error","name":"ERC6909InvalidSender","inputs":[{"name":"sender","type":"address","internalType":"address"}]},{"type":"error","name":"ERC6909InvalidSpender","inputs":[{"name":"spender","type":"address","internalType":"address"}]}],"bytecode":{"object":"0x6080806040523460155761060a908161001a8239f35b5f80fdfe6080806040526004361015610012575f80fd5b5f3560e01c908162fdd58e1461041c5750806301ffc9a7146103c6578063095bcdb6146103ae578063426a84931461032f578063558a729714610272578063598af9e714610218578063b6363cf2146101c1578063bd85b039146101975763fe99049a1461007e575f80fd5b346101935760803660031901126101935761009761045a565b61009f610470565b6001600160a01b0382169160643591604435913385141580610170575b6100d6575b6100cb94506104b0565b602060405160018152f35b5f85815260026020908152604080832033845282528083208684529091529020545f198110610106575b506100c1565b8481106101425784906100cb965f52600260205260405f2060018060a01b0333165f5260205260405f20855f526020520360405f20555f610100565b604051632c51fead60e11b815233600482015260248101919091526044810185905260648101849052608490fd5b505f85815260016020908152604080832033845290915290205460ff16156100bc565b5f80fd5b34610193576020366003190112610193576004355f526003602052602060405f2054604051908152f35b34610193576040366003190112610193576101da61045a565b6101e2610470565b9060018060a01b03165f52600160205260405f209060018060a01b03165f52602052602060ff60405f2054166040519015158152f35b346101935760603660031901126101935761023161045a565b610239610470565b6001600160a01b039182165f90815260026020908152604080832094909316825292835281812060443582528352819020549051908152f35b346101935760403660031901126101935761028b61045a565b6024359081151580920361019357331561031c576001600160a01b031690811561030957335f52600160205260405f20825f5260205260405f2060ff1981541660ff83161790556040519081527fceb576d9f15e4e200fdb5096d64d5dfd667e16def20c1eefd14256d8e3faa26760203392a3602060405160018152f35b636f65f46560e01b5f525f60045260245ffd5b63198ecd5360e31b5f525f60045260245ffd5b346101935761033d36610486565b9091331561031c576001600160a01b031690811561030957335f52600260205260405f20825f5260205260405f20835f526020528060405f20556040519081527fb3fd5071835887567a0671151121894ddccc2842f1d10bedad13e0d17cace9a760203392a4602060405160018152f35b34610193576100cb6103bf36610486565b91336104b0565b346101935760203660031901126101935760043563ffffffff60e01b811680910361019357602090630f632fb360e01b811490811561040b575b506040519015158152f35b6301ffc9a760e01b14905082610400565b34610193576040366003190112610193576020906001600160a01b0361044061045a565b165f525f825260405f206024355f52825260405f20548152f35b600435906001600160a01b038216820361019357565b602435906001600160a01b038216820361019357565b6060906003190112610193576004356001600160a01b038116810361019357906024359060443590565b91926001600160a01b0383169182156105c1576001600160a01b03169283156105ae57825f525f60205260405f20855f5260205260405f20549082821061057557508190835f525f60205260405f20865f526020520360405f2055825f525f60205260405f20845f5260205260405f20805491808301809311610561577f1b3d7edb2e9c0b0e7c525b20aaaef0f5940d2ed71663c7d39266ecafac72885992604092558151903382526020820152a4565b634e487b7160e01b5f52601160045260245ffd5b6040516302c6d3fb60e61b81526001600160a01b0391909116600482015260248101919091526044810182905260648101859052608490fd5b630b8bbd6160e41b5f525f60045260245ffd5b6301486a4160e71b5f525f60045260245ffdfea2646970667358221220ebb18b69457842caf8355b3e3ba481c94076256e13a26f8abcf56afefa35097464736f6c634300081b0033","linkReferences":{}},"methodIdentifiers":{"allowance(address,address,uint256)":"598af9e7","approve(address,uint256,uint256)":"426a8493","balanceOf(address,uint256)":"00fdd58e","isOperator(address,address)":"b6363cf2","setOperator(address,bool)":"558a7297","supportsInterface(bytes4)":"01ffc9a7","totalSupply(uint256)":"bd85b039","transfer(address,uint256,uint256)":"095bcdb6","transferFrom(address,address,uint256,uint256)":"fe99049a"},"id":277}