{"abi":[{"type":"function","name":"verify","inputs":[{"name":"key","type":"bytes","internalType":"bytes"},{"name":"hash","type":"bytes32","internalType":"bytes32"},{"name":"signature","type":"bytes","internalType":"bytes"}],"outputs":[{"name":"","type":"bytes4","internalType":"bytes4"}],"stateMutability":"view"}],"bytecode":{"object":"0x60808060405234601557611225908161001a8239f35b5f80fdfe60806040526004361015610011575f80fd5b5f3560e01c63024ad31814610024575f80fd5b346104845760603660031901126104845760043567ffffffffffffffff8111610484576100559036906004016104a7565b9060443567ffffffffffffffff81116104845761007961007f9136906004016104a7565b906105a6565b90928361049c575b836100c3575b5050505f146100b357602062495a6360e31b5b6040516001600160e01b03199091168152f35b60206001600160e01b03196100a0565b90919250604051926024356020850152602084526100e26040856104f1565b816020116104845780359160401161048457602001359060c083360312610484576040519260c0840184811067ffffffffffffffff8211176104885760405280358452602084019060208101358252604085019060408101358252606086019660608201358852608082013567ffffffffffffffff811161048457820136601f820112156104845761017b903690602081359101610563565b916080880192835260a08101359067ffffffffffffffff8211610484570136601f82011215610484576101b5903690602081359101610563565b60a0880193818552602484515111998a610442575b5089610348575b50505086610327575b86610306575b866102b9575b866101fa575b5050505050505f808061008d565b602080929394959697505f91519351604051918183925191829101835e8101838152039060025afa156102ae575f6020918151610257848060405180948280830197805191829101895e82019083820152030180845201826104f1565b604051918291518091835e8101838152039060025afa156102ae575f5193519051906102868484848489610693565b9095901561029f5750505050505b5f80808080806101ec565b6102a995506107af565b610294565b6040513d5f823e3d90fd5b809650518051602010156102f25760400151600160fb1b808216149081156102e3575b50956101e6565b600160fc1b161590505f6102dc565b634e487b7160e01b5f52603260045260245ffd5b809650518051602010156102f25760400151600160fa1b90811614956101e0565b809650518051602010156102f25760400151600160f81b90811614956101da565b519298509061035690610b2a565b90604051906103a16001602d846020808201976c1131b430b63632b733b2911d1160991b89528051918291018484015e8101601160f91b838201520301601e198101855201836104f1565b8151840180851161042e578151908180821091180218938480821091180284189060206103ce8387610599565b92806103f26103dc86610547565b956103ea60405197886104f1565b808752610547565b8584019890601f1901368a3703920101855e51905190818114938461041f575b50505050955f80806101d1565b2091201490505f808080610412565b634e487b7160e01b5f52601160045260245ffd5b90995051601474113a3cb832911d113bb2b130baba34371733b2ba1160591b6affffffffffffffffffffff19602084860101511614910182511116985f6101ca565b5f80fd5b634e487b7160e01b5f52604160045260245ffd5b604081149350610087565b9181601f840112156104845782359167ffffffffffffffff8311610484576020838186019501011161048457565b6060810190811067ffffffffffffffff82111761048857604052565b90601f8019910116810190811067ffffffffffffffff82111761048857604052565b90939293848311610484578411610484578101920390565b359060208110610539575090565b5f199060200360031b1b1690565b67ffffffffffffffff811161048857601f01601f191660200190565b92919261056f82610547565b9161057d60405193846104f1565b829481845281830111610484578281602093845f960137010152565b9190820391821161042e57565b91908260c0821061068b5781608011610484576105ca607f1983016080830161052b565b908260a011610484576105e4609f19840160a0830161052b565b90601f19840184811161042e5782848210918215610681575b50506106785761063161062a61061e86858161062461061e828b818b610513565b9061052b565b96610513565b9385610599565b601f19810190811161042e5710928315610658575b5050506106535760019190565b5f9190565b610663929350610599565b601f19810190811161042e57105f8080610646565b505050505f9190565b109050825f6105fd565b9250505f9190565b909192936106a18484610c28565b15801561079e575b156106ba5750505050505f90600190565b6020945f9460a094604051948552878501526040840152606083015260808201528280526101005afa1561079c575f51156106f757600190600190565b60205f60a06040517fbb5a52f42f9c9261ed4361f59422a1e30036e7c32b270c8807a419feca6050238152600584820152600160408201527fa71af64de5126a4a4e02b7922d66ce9415ce88a4c9d25514d91082c8725ac95760608201527f5d47723c8fbe580bb369fec9c2665d8e30a435b9932645482e7c9f11e872296b60808201528280526101005afa1561079c575f5115610796575f90600190565b5f905f90565bfe5b506107a98186610c8c565b156106a9565b919093926107bd8286610c28565b158015610b19575b610b1057604051936102006107da81876104f1565b5f5b818110610afb5750506020926109765f9360c0936040516107fc816104d5565b8681528688820152866040820152895260405191610819836104d5565b825286820152600160408201528588019081528761096760405161083c816104d5565b7f6b17d1f2e12c4247f8bce6e563a440f277037d812deb33a0f4a13945d898c29681527f4fe342e2fe1a7f9b8ee7eb4a7c0f9e162bce33576b315ececbb6406837bf51f58982015260016040820152608083019081526109586109496108a28651610d41565b92604086019384526108b48151610d41565b9061010087019182526108ca8851865190610d7e565b96606081019788526108df8951835190610d7e565b60a08201526108f18651835190610d7e565b8c8201526109028851835190610d7e565b60e08201526109148951845190610d7e565b6101208201526109278651845190610d7e565b61014082015261016061093d8951855190610d7e565b91015251905190610d7e565b6101808d018181529551610d7e565b6101a08c015251835190610d7e565b6101c08a015251905190610d7e565b6101e087015260405190848252848083015284604083015260608201527fffffffff00000000ffffffffffffffffbce6faada7179e84f3b9cac2fc63254f60808201525f5160206111d05f395f51905f5260a082015260055afa5f519015610ae957805f5160206111d05f395f51905f52809286959495099309905f905f925f945f915b60808310610a25575050505091610a1f915f5160206111d05f395f51905f529361111a565b50061490565b86610ac7575b8160fe1c600c8260fc1c16176040610a438287610d30565b510151610a5f575b5060019060021b9160021b920191906109fa565b969195909482610aa357505050610a768583610d30565b51519360016040610a966020610a8c8a88610d30565b5101519886610d30565b5101519695945b90610a4b565b90610abc9291610ab66001989987610d30565b51610e9c565b969195909594610a9d565b9395610ad89195610ade9397610d9d565b91610d9d565b959194909493610a2b565b634e487b715f5260126020526024601cfd5b602090610b06610d12565b81890152016107dc565b50505050505f90565b50610b248482610c8c565b156107c5565b90815115610c12578151600281901b906001600160fe1b0381160361042e576002810180911161042e576003900490604051917f4142434445464748494a4b4c4d4e4f505152535455565758595a616263646566601f526106707f6768696a6b6c6d6e6f707172737475767778797a303132333435363738392b2f18603f5260208301938080510160208101908151925f83525b818110610bd8575050528083528201602001604052909150565b60036004910197603f8951818160121c165183538181600c1c16516001840153818160061c16516002840153165160038201530196610bbe565b9050604051610c226020826104f1565b5f815290565b908115159182610c75575b5081610c6b575b81610c43575090565b7f7fffffff800000007fffffffffffffffde737d56d38bcf4279dce5617e3192a89150111590565b8015159150610c3a565b5f5160206111d05f395f51905f521191505f610c33565b600160601b63ffffffff60c01b03197f5ac635d8aa3a93e7b3ebbd55769886bc651d06b0cc53b0f63bce3c3e27d2604b8183816003600160601b0363ffffffff60c01b031981838009080908600160601b63ffffffff60c01b03198380091491600163ffffffff60601b0360601b191190600163ffffffff60601b0360601b1911161690565b60405190610d1f826104d5565b5f6040838281528260208201520152565b9060108110156102f25760051b0190565b610d6190610d4d610d12565b508051906040602082015191015191610d9d565b9060405192610d6f846104d5565b83526020830152604082015290565b610d6191610d8a610d12565b5080516040602083015192015192610e9c565b929091600160601b63ffffffff60c01b0319838009600160601b63ffffffff60c01b0319828009600160601b63ffffffff60c01b0319908190819080096003600160601b0363ffffffff60c01b031909600160601b63ffffffff60c01b0319808880096003090894600160601b63ffffffff60c01b031990819083900960040994600160601b63ffffffff60c01b03198087600209600160601b63ffffffff60c01b0319908103908380090895600160601b63ffffffff60c01b031992839081908009600809600160601b63ffffffff60c01b03199081039290918290898203900890090892600160601b63ffffffff60c01b03199182910960020990565b9193905f945f945f94604081015190600163ffffffff60601b0360601b19828009600160601b63ffffffff60c01b031984800992600160601b63ffffffff60c01b03198086860960208501510991600160601b63ffffffff60c01b031983810381808585098a09089351600160601b63ffffffff60c01b03199086900990600160601b63ffffffff60c01b0319908282039082908b090890811585151694855f1461104f575050505050600114610f54575b50505050565b929650909450919250600160601b63ffffffff60c01b031984800990600160601b63ffffffff60c01b0319908190819080096003600160601b0363ffffffff60c01b031909600160601b63ffffffff60c01b0319808880096003090894600160601b63ffffffff60c01b031990819083900960040994600160601b63ffffffff60c01b03198087600209600160601b63ffffffff60c01b0319908103908380090895600160601b63ffffffff60c01b031992839081908009600809600160601b63ffffffff60c01b03199081039290918290898203900890090892600160601b63ffffffff60c01b031991829109600209905f808080610f4e565b96999a5096509650985098505050600163ffffffff60601b0360601b1983800991600160601b63ffffffff60c01b03199083900991600160601b63ffffffff60c01b031990840991600160601b63ffffffff60c01b03198082600209600160601b63ffffffff60c01b03199081039085810381868009080897600160601b63ffffffff60c01b031993849109600160601b63ffffffff60c01b031990810392909182908a8203900890090893600160601b63ffffffff60c01b0319928391099009905f808080610f4e565b929180156111c5575f60c060209260405190848252848083015284604083015260608201527fffffffff00000001000000000000000000000000fffffffffffffffffffffffd6080820152600163ffffffff60601b0360601b1960a082015260055afa905f519115610ae957600160601b63ffffffff60c01b031982800993600160601b63ffffffff60c01b03199085900993600160601b63ffffffff60c01b031992839109900990565b505090505f905f9056feffffffff00000000ffffffffffffffffbce6faada7179e84f3b9cac2fc632551a26469706673582212206ce287b352bfd2d2700a07732c3b1f5d6d90e7d7060f656d313690661aa0749764736f6c634300081b0033","linkReferences":{}},"methodIdentifiers":{"verify(bytes,bytes32,bytes)":"024ad318"},"id":346}