{"abi":[{"type":"constructor","inputs":[],"stateMutability":"nonpayable"},{"type":"receive","stateMutability":"payable"},{"type":"function","name":"MAX_MULTIPLIER","inputs":[],"outputs":[{"name":"","type":"uint256","internalType":"uint256"}],"stateMutability":"view"},{"type":"function","name":"MIN_BASE_PRICE","inputs":[],"outputs":[{"name":"","type":"uint256","internalType":"uint256"}],"stateMutability":"view"},{"type":"function","name":"PRECISION","inputs":[],"outputs":[{"name":"","type":"uint256","internalType":"uint256"}],"stateMutability":"view"},{"type":"function","name":"UPGRADE_INTERFACE_VERSION","inputs":[],"outputs":[{"name":"","type":"string","internalType":"string"}],"stateMutability":"view"},{"type":"function","name":"basePrice","inputs":[],"outputs":[{"name":"","type":"uint256","internalType":"uint256"}],"stateMutability":"view"},{"type":"function","name":"createPersona","inputs":[{"name":"displayName","type":"string","internalType":"string"},{"name":"avatarUri","type":"string","internalType":"string"}],"outputs":[{"name":"personaId","type":"uint256","internalType":"uint256"}],"stateMutability":"payable"},{"type":"function","name":"decayRate","inputs":[],"outputs":[{"name":"","type":"uint256","internalType":"uint256"}],"stateMutability":"view"},{"type":"function","name":"getDecayAmount","inputs":[{"name":"personaId","type":"uint256","internalType":"uint256"}],"outputs":[{"name":"","type":"uint256","internalType":"uint256"}],"stateMutability":"view"},{"type":"function","name":"getNextPersonaPrice","inputs":[{"name":"owner","type":"address","internalType":"address"}],"outputs":[{"name":"","type":"uint256","internalType":"uint256"}],"stateMutability":"view"},{"type":"function","name":"getPersona","inputs":[{"name":"personaId","type":"uint256","internalType":"uint256"}],"outputs":[{"name":"","type":"tuple","internalType":"struct IPersonaRegistry.Persona","components":[{"name":"id","type":"uint256","internalType":"uint256"},{"name":"owner","type":"address","internalType":"address"},{"name":"displayName","type":"string","internalType":"string"},{"name":"avatarUri","type":"string","internalType":"string"},{"name":"createdAt","type":"uint256","internalType":"uint256"},{"name":"lastActive","type":"uint256","internalType":"uint256"},{"name":"upkeepPaidUntil","type":"uint256","internalType":"uint256"},{"name":"exists","type":"bool","internalType":"bool"}]}],"stateMutability":"view"},{"type":"function","name":"getPersonaCount","inputs":[{"name":"owner","type":"address","internalType":"address"}],"outputs":[{"name":"","type":"uint256","internalType":"uint256"}],"stateMutability":"view"},{"type":"function","name":"getPersonasByOwner","inputs":[{"name":"owner","type":"address","internalType":"address"}],"outputs":[{"name":"","type":"uint256[]","internalType":"uint256[]"}],"stateMutability":"view"},{"type":"function","name":"inactivityThreshold","inputs":[],"outputs":[{"name":"","type":"uint256","internalType":"uint256"}],"stateMutability":"view"},{"type":"function","name":"initialize","inputs":[{"name":"owner_","type":"address","internalType":"address"},{"name":"basePrice_","type":"uint256","internalType":"uint256"},{"name":"priceMultiplier_","type":"uint256","internalType":"uint256"}],"outputs":[],"stateMutability":"nonpayable"},{"type":"function","name":"isPersonaActive","inputs":[{"name":"personaId","type":"uint256","internalType":"uint256"}],"outputs":[{"name":"","type":"bool","internalType":"bool"}],"stateMutability":"view"},{"type":"function","name":"owner","inputs":[],"outputs":[{"name":"","type":"address","internalType":"address"}],"stateMutability":"view"},{"type":"function","name":"payUpkeep","inputs":[{"name":"personaId","type":"uint256","internalType":"uint256"}],"outputs":[],"stateMutability":"payable"},{"type":"function","name":"priceMultiplier","inputs":[],"outputs":[{"name":"","type":"uint256","internalType":"uint256"}],"stateMutability":"view"},{"type":"function","name":"proxiableUUID","inputs":[],"outputs":[{"name":"","type":"bytes32","internalType":"bytes32"}],"stateMutability":"view"},{"type":"function","name":"recordActivity","inputs":[{"name":"personaId","type":"uint256","internalType":"uint256"}],"outputs":[],"stateMutability":"nonpayable"},{"type":"function","name":"renounceOwnership","inputs":[],"outputs":[],"stateMutability":"nonpayable"},{"type":"function","name":"setBasePrice","inputs":[{"name":"newBasePrice","type":"uint256","internalType":"uint256"}],"outputs":[],"stateMutability":"nonpayable"},{"type":"function","name":"setDecayRate","inputs":[{"name":"newDecayRate","type":"uint256","internalType":"uint256"}],"outputs":[],"stateMutability":"nonpayable"},{"type":"function","name":"setInactivityThreshold","inputs":[{"name":"newThreshold","type":"uint256","internalType":"uint256"}],"outputs":[],"stateMutability":"nonpayable"},{"type":"function","name":"setPriceMultiplier","inputs":[{"name":"newMultiplier","type":"uint256","internalType":"uint256"}],"outputs":[],"stateMutability":"nonpayable"},{"type":"function","name":"setUpkeepCost","inputs":[{"name":"newCost","type":"uint256","internalType":"uint256"}],"outputs":[],"stateMutability":"nonpayable"},{"type":"function","name":"setUpkeepPeriod","inputs":[{"name":"newPeriod","type":"uint256","internalType":"uint256"}],"outputs":[],"stateMutability":"nonpayable"},{"type":"function","name":"transferOwnership","inputs":[{"name":"newOwner","type":"address","internalType":"address"}],"outputs":[],"stateMutability":"nonpayable"},{"type":"function","name":"updatePersona","inputs":[{"name":"personaId","type":"uint256","internalType":"uint256"},{"name":"displayName","type":"string","internalType":"string"},{"name":"avatarUri","type":"string","internalType":"string"}],"outputs":[],"stateMutability":"nonpayable"},{"type":"function","name":"upgradeToAndCall","inputs":[{"name":"newImplementation","type":"address","internalType":"address"},{"name":"data","type":"bytes","internalType":"bytes"}],"outputs":[],"stateMutability":"payable"},{"type":"function","name":"upkeepCost","inputs":[],"outputs":[{"name":"","type":"uint256","internalType":"uint256"}],"stateMutability":"view"},{"type":"function","name":"upkeepPeriod","inputs":[],"outputs":[{"name":"","type":"uint256","internalType":"uint256"}],"stateMutability":"view"},{"type":"function","name":"withdraw","inputs":[{"name":"to","type":"address","internalType":"address payable"}],"outputs":[],"stateMutability":"nonpayable"},{"type":"event","name":"DecayApplied","inputs":[{"name":"personaId","type":"uint256","indexed":true,"internalType":"uint256"},{"name":"decayAmount","type":"uint256","indexed":false,"internalType":"uint256"}],"anonymous":false},{"type":"event","name":"Initialized","inputs":[{"name":"version","type":"uint64","indexed":false,"internalType":"uint64"}],"anonymous":false},{"type":"event","name":"OwnershipTransferred","inputs":[{"name":"previousOwner","type":"address","indexed":true,"internalType":"address"},{"name":"newOwner","type":"address","indexed":true,"internalType":"address"}],"anonymous":false},{"type":"event","name":"PersonaActivityRecorded","inputs":[{"name":"personaId","type":"uint256","indexed":true,"internalType":"uint256"},{"name":"timestamp","type":"uint256","indexed":false,"internalType":"uint256"}],"anonymous":false},{"type":"event","name":"PersonaCreated","inputs":[{"name":"personaId","type":"uint256","indexed":true,"internalType":"uint256"},{"name":"owner","type":"address","indexed":true,"internalType":"address"},{"name":"displayName","type":"string","indexed":false,"internalType":"string"},{"name":"price","type":"uint256","indexed":false,"internalType":"uint256"}],"anonymous":false},{"type":"event","name":"PersonaUpdated","inputs":[{"name":"personaId","type":"uint256","indexed":true,"internalType":"uint256"},{"name":"displayName","type":"string","indexed":false,"internalType":"string"},{"name":"avatarUri","type":"string","indexed":false,"internalType":"string"}],"anonymous":false},{"type":"event","name":"Upgraded","inputs":[{"name":"implementation","type":"address","indexed":true,"internalType":"address"}],"anonymous":false},{"type":"event","name":"UpkeepPaid","inputs":[{"name":"personaId","type":"uint256","indexed":true,"internalType":"uint256"},{"name":"amount","type":"uint256","indexed":false,"internalType":"uint256"},{"name":"paidUntil","type":"uint256","indexed":false,"internalType":"uint256"}],"anonymous":false},{"type":"error","name":"AddressEmptyCode","inputs":[{"name":"target","type":"address","internalType":"address"}]},{"type":"error","name":"ERC1967InvalidImplementation","inputs":[{"name":"implementation","type":"address","internalType":"address"}]},{"type":"error","name":"ERC1967NonPayable","inputs":[]},{"type":"error","name":"FailedCall","inputs":[]},{"type":"error","name":"InsufficientPayment","inputs":[{"name":"required","type":"uint256","internalType":"uint256"},{"name":"provided","type":"uint256","internalType":"uint256"}]},{"type":"error","name":"InvalidInitialization","inputs":[]},{"type":"error","name":"InvalidParameter","inputs":[{"name":"param","type":"string","internalType":"string"}]},{"type":"error","name":"NotInitializing","inputs":[]},{"type":"error","name":"NotPersonaOwner","inputs":[{"name":"personaId","type":"uint256","internalType":"uint256"},{"name":"caller","type":"address","internalType":"address"}]},{"type":"error","name":"OwnableInvalidOwner","inputs":[{"name":"owner","type":"address","internalType":"address"}]},{"type":"error","name":"OwnableUnauthorizedAccount","inputs":[{"name":"account","type":"address","internalType":"address"}]},{"type":"error","name":"PersonaDoesNotExist","inputs":[{"name":"personaId","type":"uint256","internalType":"uint256"}]},{"type":"error","name":"ReentrancyGuardReentrantCall","inputs":[]},{"type":"error","name":"TransferFailed","inputs":[]},{"type":"error","name":"UUPSUnauthorizedCallContext","inputs":[]},{"type":"error","name":"UUPSUnsupportedProxiableUUID","inputs":[{"name":"slot","type":"bytes32","internalType":"bytes32"}]},{"type":"error","name":"ZeroAddress","inputs":[]}],"bytecode":{"object":"0x60a080604052346100e65760017f9b779b17422d0df92223018b32b4d1fa46e071723d6817e2486d003becc55f0055306080525f516020611bef5f395f51905f525460ff8160401c166100d7576002600160401b03196001600160401b03821601610084575b604051611b0490816100eb8239608051818181610fab015261109b0152f35b6001600160401b0319166001600160401b039081175f516020611bef5f395f51905f525581527fc7f505b2f371ae2175ee4913f4499e1f2633a7b5936321eed1cdaeb6115181d290602090a15f80610065565b63f92ee8a960e01b5f5260045ffd5b5f80fdfe6080604052600436101561001a575b3615610018575f80fd5b005b5f3560e01c806304e7e0b91461145e57806314f9dc8b1461130c5780631a60be57146112eb5780632081c4ea146112ae578063390ca2521461124f57806341f0368e146112175780634f1ef2861461104c57806351cff8d914610fff57806352d1902d14610f9957806353127f1a14610f7c57806354a8934514610f5e5780635d6a618d14610f415780635f51edac14610e8d578063715018a614610e265780637a1ac61e14610c2e5780638da5cb5b14610bfa5780639ec8627614610bdd578063a9c1f2f114610bc0578063aaf5eb6814610ba4578063ad3cb1cc14610b59578063c4a3b2ae146108b8578063c7876ea41461089b578063ca4bd4e714610841578063cb2462ca1461075a578063cbb2f66b146106fe578063d3d5e4ea14610300578063d50cb88b146102e3578063d589f5d7146102c2578063d7eaef491461025f578063de4b3262146101fe578063e94ca563146101d3578063f2fde38b146101aa5763ff01f5d70361000e57346101a6575f3660031901126101a6576020600454604051908152f35b5f80fd5b346101a65760203660031901126101a6576100186101c66114de565b6101ce6118ff565b61188e565b346101a65760203660031901126101a65760206101f66101f16114de565b611837565b604051908152f35b346101a65760203660031901126101a65760043561021a6118ff565b66038d7ea4c68000811061022d57600155005b6040516305519d6f60e51b815260206004820152600960248201526862617365507269636560b81b6044820152606490fd5b346101a65760203660031901126101a65760043561027b6118ff565b801561028657600555005b6040516305519d6f60e51b81526020600482015260136024820152721a5b9858dd1a5d9a5d1e551a1c995cda1bdb19606a1b6044820152606490fd5b346101a65760203660031901126101a6576102db6118ff565b600435600655005b346101a6575f3660031901126101a6576020600254604051908152f35b60403660031901126101a6576004356001600160401b0381116101a65761032b903690600401611582565b6024356001600160401b0381116101a65761034a903690600401611582565b92909161035561195f565b61035e33611837565b918234106106e7575f5493610372856116e4565b5f5561038060045442611687565b6040519061038d826114f4565b8682526103b560208301933385526103a636888861154c565b99604085019a8b52369161154c565b97606083019889526080830142815260a084019142835260c0850193845260e0850195600187528a5f52600760205260405f2095518655600186019060018060a01b039051166bffffffffffffffffffffffff60a01b8254161790556002850190518051906001600160401b0382116105f75761043c8261043685546115af565b856117c8565b602090601f83116001146106845761046b92915f918361060b575b50508160011b915f199060031b1c19161790565b90555b600384019951998a516001600160401b0381116105f7576104998161049384546115af565b846117c8565b6020601f82116001146106165790806104ce926007999a9b9c9d9e5f9261060b5750508160011b915f199060031b1c19161790565b90555b516004840155516005830155516006820155019051151560ff80198354169116179055335f52600860205260405f2054845f52600960205260405f2055335f52600860205260405f208054680100000000000000008110156105f757600181018083558110156105e35785928361057e927f86c084157c9f4c0d126fb165b8cf3e22e1176c3183206040925633c0f2eff275945f5260205f20015560405194604086526040860191611817565b928460208201528033940390a38034116105af575b60208260015f516020611a8f5f395f51905f5255604051908152f35b5f80806105bd8194346116d7565b335af16105c86116a8565b50156105d45781610593565b6312171d8360e31b5f5260045ffd5b634e487b7160e01b5f52603260045260245ffd5b634e487b7160e01b5f52604160045260245ffd5b015190508e80610457565b601f1982169c835f52815f209d5f5b8181106106675750916007999a9b9c9d9e9184600195941061064f575b505050811b0190556104d1565b01515f1960f88460031b161c191690558d8080610642565b919e8f60016020928684930151815501940192019e91929e610625565b90601f19831691845f52815f20925f5b8181106106cf57509084600195949392106106b7575b505050811b01905561046e565b01515f1960f88460031b161c191690558d80806106aa565b92936020600181928786015181550195019301610694565b8263b99e2ab760e01b5f526004523460245260445ffd5b346101a65760203660031901126101a65760043561071a6118ff565b801561072557600455005b6040516305519d6f60e51b815260206004820152600c60248201526b1d5c1ad9595c14195c9a5bd960a21b6044820152606490fd5b60203660031901126101a65760043561077161195f565b61077a81611932565b60065480341061082b5750805f5260076020527f7eea98e32e16222a4e77e179e37161d2cbb7641298d7e49ffdc699c0b4d1f54760406006815f200180544281115f14610821576107cf905b60045490611687565b8091558151903482526020820152a26006548034116107fc575b60015f516020611a8f5f395f51905f5255005b5f808061080a8194346116d7565b335af16108156116a8565b50156105d457806107e9565b506107cf426107c6565b63b99e2ab760e01b5f526004523460245260445ffd5b346101a65760203660031901126101a65760043561085e81611932565b805f52600760205242600560405f2001557f86b2462d13631144f1cca8a41671f3749fa7df1d2ae26cf9476391a0be52710f6020604051428152a2005b346101a6575f3660031901126101a6576020600154604051908152f35b346101a65760603660031901126101a6576004356024356001600160401b0381116101a6576108eb903690600401611582565b91906044356001600160401b0381116101a65761090c903690600401611582565b939061091784611932565b5f848152600760205260409020600101546001600160a01b03163303610b4257835f52600760205260405f2060028101906001600160401b0384116105f7576109648461049384546115af565b5f9184601f8111600114610adb5780610994916003955f91610ad0575b508160011b915f199060031b1c19161790565b90555b01946001600160401b0381116105f7576109bb816109b588546115af565b886117c8565b5f95601f8211600114610a475790610a379291610a0f82807f4e681ab559b289e3d892ae4ec22bd5757f6a9753a5d7bf25c392253ab30266f2999a5f91610a3c57508160011b915f199060031b1c19161790565b90555b610a29604051958695604087526040870191611817565b918483036020860152611817565b0390a2005b90508501358b610981565b601f198216815f5260205f20905f5b818110610ab85750907f4e681ab559b289e3d892ae4ec22bd5757f6a9753a5d7bf25c392253ab30266f2979884610a379695949310610a9f575b5050600182811b019055610a12565b8401355f19600385901b60f8161c191690558880610a90565b858a013583556020998a019960019093019201610a56565b90508801358b610981565b505f81815260208120909386601f1981165b808710610b24576003965010610b0d575b5050600185811b019055610997565b8701355f1987861b60f8161c191690558880610afe565b89830135845560209687019660019094019390920191889150610aed565b836323e5256560e11b5f526004523360245260445ffd5b346101a6575f3660031901126101a657610ba0604051610b7a604082611510565b60058152640352e302e360dc1b60208201526040519182916020835260208301906114ba565b0390f35b346101a6575f3660031901126101a65760206040516127108152f35b346101a6575f3660031901126101a6576020600354604051908152f35b346101a6575f3660031901126101a6576020600554604051908152f35b346101a6575f3660031901126101a6575f516020611a4f5f395f51905f52546040516001600160a01b039091168152602090f35b346101a65760603660031901126101a657610c476114de565b602435604435905f516020611aaf5f395f51905f52549260ff8460401c1615936001600160401b03811680159081610e1e575b6001149081610e14575b159081610e0b575b50610dfc5767ffffffffffffffff1981166001175f516020611aaf5f395f51905f525584610dd0575b506001600160a01b03811615610dc15766038d7ea4c68000821061022d5761271083108015610db5575b610d7d57610cf790610cef611997565b6101ce611997565b6001556002556103e860035562093a806004556212750060055566038d7ea4c6800060065560015f55610d2657005b68ff0000000000000000195f516020611aaf5f395f51905f5254165f516020611aaf5f395f51905f52557fc7f505b2f371ae2175ee4913f4499e1f2633a7b5936321eed1cdaeb6115181d2602060405160018152a1005b6040516305519d6f60e51b815260206004820152600f60248201526e383934b1b2a6bab63a34b83634b2b960891b6044820152606490fd5b50620186a08311610cdf565b63d92e233d60e01b5f5260045ffd5b68ffffffffffffffffff191668010000000000000001175f516020611aaf5f395f51905f525584610cb5565b63f92ee8a960e01b5f5260045ffd5b90501586610c8c565b303b159150610c84565b869150610c7a565b346101a6575f3660031901126101a657610e3e6118ff565b5f516020611a4f5f395f51905f5280546001600160a01b031981169091555f906001600160a01b03167f8be0079c531659141344cd1fd0a4f28419497f9722a3daafe3b4186f6b6457e08280a3005b346101a65760203660031901126101a6576001600160a01b03610eae6114de565b165f52600860205260405f20604051806020835491828152019081935f5260205f20905f5b818110610f2b5750505081610ee9910382611510565b604051918291602083019060208452518091526040830191905f5b818110610f12575050500390f35b8251845285945060209384019390920191600101610f04565b8254845260209093019260019283019201610ed3565b346101a6575f3660031901126101a6576020604051620186a08152f35b346101a65760203660031901126101a65760206101f6600435611705565b346101a6575f3660031901126101a6576020600654604051908152f35b346101a6575f3660031901126101a6577f00000000000000000000000000000000000000000000000000000000000000006001600160a01b03163003610ff05760206040515f516020611a6f5f395f51905f528152f35b63703e46dd60e11b5f5260045ffd5b346101a65760203660031901126101a6576004356001600160a01b038116908190036101a65761102d6118ff565b8015610dc1575f8080809347905af16110446116a8565b50156105d457005b60403660031901126101a6576110606114de565b6024356001600160401b0381116101a657366023820112156101a65761109090369060248160040135910161154c565b906001600160a01b037f0000000000000000000000000000000000000000000000000000000000000000163081149081156111f5575b50610ff0576110d36118ff565b6040516352d1902d60e01b81526001600160a01b0382169290602081600481875afa5f91816111c1575b506111155783634c9c8ce360e01b5f5260045260245ffd5b805f516020611a6f5f395f51905f528592036111af5750823b1561119d575f516020611a6f5f395f51905f5280546001600160a01b031916821790557fbc7cd75a20ee27fd9adebab32041f755214dbc6bffa90cc0225b39da2e5c2d3b5f80a280511561118557610018916119c2565b50503461118e57005b63b398979f60e01b5f5260045ffd5b634c9c8ce360e01b5f5260045260245ffd5b632a87526960e21b5f5260045260245ffd5b9091506020813d6020116111ed575b816111dd60209383611510565b810103126101a6575190856110fd565b3d91506111d0565b5f516020611a6f5f395f51905f52546001600160a01b031614159050836110c6565b346101a65760203660031901126101a6576001600160a01b036112386114de565b165f526008602052602060405f2054604051908152f35b346101a65760203660031901126101a65760043561126c81611932565b5f526007602052602060405f2061128a600582015460055490611687565b421090811561129f575b506040519015158152f35b90506006429101541182611294565b346101a65760203660031901126101a6576004356112ca6118ff565b612710811080156112df575b610d7d57600255005b50620186a081116112d6565b346101a6575f3660031901126101a657602060405166038d7ea4c680008152f35b346101a65760203660031901126101a6576004355f60e060405161132f816114f4565b828152826020820152606060408201526060808201528260808201528260a08201528260c0820152015261136281611932565b5f52600760205260405f20604051611379816114f4565b8154815260018201546001600160a01b0316602082019081529161139f600282016115e7565b604083019081526113b2600383016115e7565b91606084019283526004810154926080850193845261143e60058301549160a0870192835261142b60ff600760068701549660c08b019788520154169560e089019615158752604051998a9960208b525160208b015260018060a01b0390511660408a01525161010060608a01526101208901906114ba565b9051878203601f190160808901526114ba565b935160a08601525160c08501525160e08401525115156101008301520390f35b346101a65760203660031901126101a65760043561147a6118ff565b612710811161148857600355005b6040516305519d6f60e51b815260206004820152600960248201526864656361795261746560b81b6044820152606490fd5b805180835260209291819084018484015e5f828201840152601f01601f1916010190565b600435906001600160a01b03821682036101a657565b61010081019081106001600160401b038211176105f757604052565b90601f801991011681019081106001600160401b038211176105f757604052565b6001600160401b0381116105f757601f01601f191660200190565b92919261155882611531565b916115666040519384611510565b8294818452818301116101a6578281602093845f960137010152565b9181601f840112156101a6578235916001600160401b0383116101a657602083818601950101116101a657565b90600182811c921680156115dd575b60208310146115c957565b634e487b7160e01b5f52602260045260245ffd5b91607f16916115be565b9060405191825f8254926115fa846115af565b80845293600181169081156116655750600114611621575b5061161f92500383611510565b565b90505f9291925260205f20905f915b81831061164957505090602061161f928201015f611612565b6020919350806001915483858901015201910190918492611630565b90506020925061161f94915060ff191682840152151560051b8201015f611612565b9190820180921161169457565b634e487b7160e01b5f52601160045260245ffd5b3d156116d2573d906116b982611531565b916116c76040519384611510565b82523d5f602084013e565b606090565b9190820391821161169457565b5f1981146116945760010190565b8181029291811591840414171561169457565b61170e81611932565b5f52600760205260405f206005810154906005549061172d8284611687565b42109081156117b9575b506117b35761174d6117539162093a8093611687565b426116d7565b04905f90612710915f91600354915b858410806117aa575b156117a25761179561179b9161178f612710611787878a6116f2565b048092611687565b966116d7565b936116e4565b9293611762565b945092505050565b5084151561176b565b50505f90565b9050600642910154115f611737565b601f82116117d557505050565b5f5260205f20906020601f840160051c8301931061180d575b601f0160051c01905b818110611802575050565b5f81556001016117f7565b90915081906117ee565b908060209392818452848401375f828201840152601f01601f1916010190565b6001600160a01b03165f90815260086020526040902054801561188757600154905f906002545b81831061186b5750505090565b90919261271061187d836001936116f2565b049301919061185e565b5060015490565b6001600160a01b031680156118ec575f516020611a4f5f395f51905f5280546001600160a01b0319811683179091556001600160a01b03167f8be0079c531659141344cd1fd0a4f28419497f9722a3daafe3b4186f6b6457e05f80a3565b631e4fbdf760e01b5f525f60045260245ffd5b5f516020611a4f5f395f51905f52546001600160a01b0316330361191f57565b63118cdaa760e01b5f523360045260245ffd5b805f52600760205260ff600760405f200154161561194d5750565b631ebc117360e31b5f5260045260245ffd5b60025f516020611a8f5f395f51905f5254146119885760025f516020611a8f5f395f51905f5255565b633ee5aeb560e01b5f5260045ffd5b60ff5f516020611aaf5f395f51905f525460401c16156119b357565b631afcd79f60e31b5f5260045ffd5b905f8091602081519101845af48080611a3b575b156119f65750506040513d81523d5f602083013e60203d82010160405290565b15611a1b57639996b31560e01b5f9081526001600160a01b0391909116600452602490fd5b3d15611a2c576040513d5f823e3d90fd5b63d6bda27560e01b5f5260045ffd5b503d1515806119d65750813b15156119d656fe9016d09d72d40fdae2fd8ceac6b6234c7706214fd39c1cd1e609a0528c199300360894a13ba1a3210667c828492db98dca3e2076cc3735a920a3ca505d382bbc9b779b17422d0df92223018b32b4d1fa46e071723d6817e2486d003becc55f00f0c57e16840df040f15088dc2f81fe391c3923bec73e23a9662efc9c229c6a00a2646970667358221220261a437db8c685447555991632b7b7e00f180ce6e8838c7137146cead2d4291064736f6c634300081b0033f0c57e16840df040f15088dc2f81fe391c3923bec73e23a9662efc9c229c6a00","linkReferences":{}},"methodIdentifiers":{"MAX_MULTIPLIER()":"5d6a618d","MIN_BASE_PRICE()":"1a60be57","PRECISION()":"aaf5eb68","UPGRADE_INTERFACE_VERSION()":"ad3cb1cc","basePrice()":"c7876ea4","createPersona(string,string)":"d3d5e4ea","decayRate()":"a9c1f2f1","getDecayAmount(uint256)":"54a89345","getNextPersonaPrice(address)":"e94ca563","getPersona(uint256)":"14f9dc8b","getPersonaCount(address)":"41f0368e","getPersonasByOwner(address)":"5f51edac","inactivityThreshold()":"9ec86276","initialize(address,uint256,uint256)":"7a1ac61e","isPersonaActive(uint256)":"390ca252","owner()":"8da5cb5b","payUpkeep(uint256)":"cb2462ca","priceMultiplier()":"d50cb88b","proxiableUUID()":"52d1902d","recordActivity(uint256)":"ca4bd4e7","renounceOwnership()":"715018a6","setBasePrice(uint256)":"de4b3262","setDecayRate(uint256)":"04e7e0b9","setInactivityThreshold(uint256)":"d7eaef49","setPriceMultiplier(uint256)":"2081c4ea","setUpkeepCost(uint256)":"d589f5d7","setUpkeepPeriod(uint256)":"cbb2f66b","transferOwnership(address)":"f2fde38b","updatePersona(uint256,string,string)":"c4a3b2ae","upgradeToAndCall(address,bytes)":"4f1ef286","upkeepCost()":"53127f1a","upkeepPeriod()":"ff01f5d7","withdraw(address)":"51cff8d9"},"id":2}