{"abi":[{"type":"constructor","inputs":[],"stateMutability":"nonpayable"},{"type":"function","name":"LEVEL_2_THRESHOLD","inputs":[],"outputs":[{"name":"","type":"uint256","internalType":"uint256"}],"stateMutability":"view"},{"type":"function","name":"LEVEL_3_THRESHOLD","inputs":[],"outputs":[{"name":"","type":"uint256","internalType":"uint256"}],"stateMutability":"view"},{"type":"function","name":"LEVEL_4_THRESHOLD","inputs":[],"outputs":[{"name":"","type":"uint256","internalType":"uint256"}],"stateMutability":"view"},{"type":"function","name":"LEVEL_5_THRESHOLD","inputs":[],"outputs":[{"name":"","type":"uint256","internalType":"uint256"}],"stateMutability":"view"},{"type":"function","name":"MAX_SCORE","inputs":[],"outputs":[{"name":"","type":"uint256","internalType":"uint256"}],"stateMutability":"view"},{"type":"function","name":"PRECISION","inputs":[],"outputs":[{"name":"","type":"uint256","internalType":"uint256"}],"stateMutability":"view"},{"type":"function","name":"UPGRADE_INTERFACE_VERSION","inputs":[],"outputs":[{"name":"","type":"string","internalType":"string"}],"stateMutability":"view"},{"type":"function","name":"WEIGHT_ACTIVITY","inputs":[],"outputs":[{"name":"","type":"uint256","internalType":"uint256"}],"stateMutability":"view"},{"type":"function","name":"WEIGHT_CONSISTENCY","inputs":[],"outputs":[{"name":"","type":"uint256","internalType":"uint256"}],"stateMutability":"view"},{"type":"function","name":"WEIGHT_ENGAGEMENT","inputs":[],"outputs":[{"name":"","type":"uint256","internalType":"uint256"}],"stateMutability":"view"},{"type":"function","name":"WEIGHT_VERIFICATION","inputs":[],"outputs":[{"name":"","type":"uint256","internalType":"uint256"}],"stateMutability":"view"},{"type":"function","name":"algorithmVersion","inputs":[],"outputs":[{"name":"","type":"uint256","internalType":"uint256"}],"stateMutability":"view"},{"type":"function","name":"authorizedUpdaters","inputs":[{"name":"","type":"address","internalType":"address"}],"outputs":[{"name":"","type":"bool","internalType":"bool"}],"stateMutability":"view"},{"type":"function","name":"computeScore","inputs":[{"name":"metrics","type":"tuple","internalType":"struct TransparentScoring.ActivityMetrics","components":[{"name":"totalPosts","type":"uint256","internalType":"uint256"},{"name":"postsLast30Days","type":"uint256","internalType":"uint256"},{"name":"avgDaysBetweenPosts","type":"uint256","internalType":"uint256"},{"name":"totalLikesReceived","type":"uint256","internalType":"uint256"},{"name":"totalCommentsReceived","type":"uint256","internalType":"uint256"},{"name":"followerCount","type":"uint256","internalType":"uint256"},{"name":"consecutiveActiveDays","type":"uint256","internalType":"uint256"},{"name":"verifiedCredentials","type":"uint256","internalType":"uint256"}]}],"outputs":[{"name":"totalScore","type":"uint256","internalType":"uint256"},{"name":"level","type":"uint8","internalType":"uint8"}],"stateMutability":"pure"},{"type":"function","name":"currentWeights","inputs":[],"outputs":[{"name":"activity","type":"uint256","internalType":"uint256"},{"name":"engagement","type":"uint256","internalType":"uint256"},{"name":"consistency","type":"uint256","internalType":"uint256"},{"name":"verification","type":"uint256","internalType":"uint256"}],"stateMutability":"view"},{"type":"function","name":"getAlgorithmDocumentation","inputs":[],"outputs":[{"name":"","type":"string","internalType":"string"}],"stateMutability":"pure"},{"type":"function","name":"getAlgorithmVersion","inputs":[],"outputs":[{"name":"","type":"uint256","internalType":"uint256"}],"stateMutability":"view"},{"type":"function","name":"getScore","inputs":[{"name":"personaId","type":"uint256","internalType":"uint256"},{"name":"professionId","type":"uint256","internalType":"uint256"}],"outputs":[{"name":"","type":"tuple","internalType":"struct TransparentScoring.ScoreComponents","components":[{"name":"activityScore","type":"uint256","internalType":"uint256"},{"name":"engagementScore","type":"uint256","internalType":"uint256"},{"name":"consistencyScore","type":"uint256","internalType":"uint256"},{"name":"verificationScore","type":"uint256","internalType":"uint256"},{"name":"totalScore","type":"uint256","internalType":"uint256"},{"name":"level","type":"uint8","internalType":"uint8"},{"name":"lastUpdated","type":"uint256","internalType":"uint256"}]}],"stateMutability":"view"},{"type":"function","name":"getScoreHistory","inputs":[{"name":"personaId","type":"uint256","internalType":"uint256"},{"name":"professionId","type":"uint256","internalType":"uint256"}],"outputs":[{"name":"","type":"tuple[]","internalType":"struct TransparentScoring.ScoreHistory[]","components":[{"name":"timestamp","type":"uint256","internalType":"uint256"},{"name":"oldScore","type":"uint256","internalType":"uint256"},{"name":"newScore","type":"uint256","internalType":"uint256"},{"name":"oldLevel","type":"uint8","internalType":"uint8"},{"name":"newLevel","type":"uint8","internalType":"uint8"},{"name":"reason","type":"string","internalType":"string"}]}],"stateMutability":"view"},{"type":"function","name":"getWeights","inputs":[],"outputs":[{"name":"","type":"tuple","internalType":"struct TransparentScoring.ScoringWeights","components":[{"name":"activity","type":"uint256","internalType":"uint256"},{"name":"engagement","type":"uint256","internalType":"uint256"},{"name":"consistency","type":"uint256","internalType":"uint256"},{"name":"verification","type":"uint256","internalType":"uint256"}]}],"stateMutability":"view"},{"type":"function","name":"initialize","inputs":[{"name":"owner_","type":"address","internalType":"address"}],"outputs":[],"stateMutability":"nonpayable"},{"type":"function","name":"owner","inputs":[],"outputs":[{"name":"","type":"address","internalType":"address"}],"stateMutability":"view"},{"type":"function","name":"proxiableUUID","inputs":[],"outputs":[{"name":"","type":"bytes32","internalType":"bytes32"}],"stateMutability":"view"},{"type":"function","name":"renounceOwnership","inputs":[],"outputs":[],"stateMutability":"nonpayable"},{"type":"function","name":"setUpdaterAuthorized","inputs":[{"name":"updater","type":"address","internalType":"address"},{"name":"authorized","type":"bool","internalType":"bool"}],"outputs":[],"stateMutability":"nonpayable"},{"type":"function","name":"simulateScore","inputs":[{"name":"metrics","type":"tuple","internalType":"struct TransparentScoring.ActivityMetrics","components":[{"name":"totalPosts","type":"uint256","internalType":"uint256"},{"name":"postsLast30Days","type":"uint256","internalType":"uint256"},{"name":"avgDaysBetweenPosts","type":"uint256","internalType":"uint256"},{"name":"totalLikesReceived","type":"uint256","internalType":"uint256"},{"name":"totalCommentsReceived","type":"uint256","internalType":"uint256"},{"name":"followerCount","type":"uint256","internalType":"uint256"},{"name":"consecutiveActiveDays","type":"uint256","internalType":"uint256"},{"name":"verifiedCredentials","type":"uint256","internalType":"uint256"}]}],"outputs":[{"name":"activityScore","type":"uint256","internalType":"uint256"},{"name":"engagementScore","type":"uint256","internalType":"uint256"},{"name":"consistencyScore","type":"uint256","internalType":"uint256"},{"name":"verificationScore","type":"uint256","internalType":"uint256"},{"name":"totalScore","type":"uint256","internalType":"uint256"},{"name":"level","type":"uint8","internalType":"uint8"}],"stateMutability":"pure"},{"type":"function","name":"totalScoresComputed","inputs":[],"outputs":[{"name":"","type":"uint256","internalType":"uint256"}],"stateMutability":"view"},{"type":"function","name":"transferOwnership","inputs":[{"name":"newOwner","type":"address","internalType":"address"}],"outputs":[],"stateMutability":"nonpayable"},{"type":"function","name":"updateScore","inputs":[{"name":"personaId","type":"uint256","internalType":"uint256"},{"name":"professionId","type":"uint256","internalType":"uint256"},{"name":"metrics","type":"tuple","internalType":"struct TransparentScoring.ActivityMetrics","components":[{"name":"totalPosts","type":"uint256","internalType":"uint256"},{"name":"postsLast30Days","type":"uint256","internalType":"uint256"},{"name":"avgDaysBetweenPosts","type":"uint256","internalType":"uint256"},{"name":"totalLikesReceived","type":"uint256","internalType":"uint256"},{"name":"totalCommentsReceived","type":"uint256","internalType":"uint256"},{"name":"followerCount","type":"uint256","internalType":"uint256"},{"name":"consecutiveActiveDays","type":"uint256","internalType":"uint256"},{"name":"verifiedCredentials","type":"uint256","internalType":"uint256"}]},{"name":"reason","type":"string","internalType":"string"}],"outputs":[],"stateMutability":"nonpayable"},{"type":"function","name":"updateWeights","inputs":[{"name":"activity","type":"uint256","internalType":"uint256"},{"name":"engagement","type":"uint256","internalType":"uint256"},{"name":"consistency","type":"uint256","internalType":"uint256"},{"name":"verification","type":"uint256","internalType":"uint256"}],"outputs":[],"stateMutability":"nonpayable"},{"type":"function","name":"upgradeToAndCall","inputs":[{"name":"newImplementation","type":"address","internalType":"address"},{"name":"data","type":"bytes","internalType":"bytes"}],"outputs":[],"stateMutability":"payable"},{"type":"event","name":"Initialized","inputs":[{"name":"version","type":"uint64","indexed":false,"internalType":"uint64"}],"anonymous":false},{"type":"event","name":"OwnershipTransferred","inputs":[{"name":"previousOwner","type":"address","indexed":true,"internalType":"address"},{"name":"newOwner","type":"address","indexed":true,"internalType":"address"}],"anonymous":false},{"type":"event","name":"ScoreUpdated","inputs":[{"name":"personaId","type":"uint256","indexed":true,"internalType":"uint256"},{"name":"professionId","type":"uint256","indexed":true,"internalType":"uint256"},{"name":"oldScore","type":"uint256","indexed":false,"internalType":"uint256"},{"name":"newScore","type":"uint256","indexed":false,"internalType":"uint256"},{"name":"newLevel","type":"uint8","indexed":false,"internalType":"uint8"}],"anonymous":false},{"type":"event","name":"UpdaterAuthorized","inputs":[{"name":"updater","type":"address","indexed":true,"internalType":"address"},{"name":"authorized","type":"bool","indexed":false,"internalType":"bool"}],"anonymous":false},{"type":"event","name":"Upgraded","inputs":[{"name":"implementation","type":"address","indexed":true,"internalType":"address"}],"anonymous":false},{"type":"event","name":"WeightsUpdated","inputs":[{"name":"activity","type":"uint256","indexed":false,"internalType":"uint256"},{"name":"engagement","type":"uint256","indexed":false,"internalType":"uint256"},{"name":"consistency","type":"uint256","indexed":false,"internalType":"uint256"},{"name":"verification","type":"uint256","indexed":false,"internalType":"uint256"},{"name":"newVersion","type":"uint256","indexed":false,"internalType":"uint256"}],"anonymous":false},{"type":"error","name":"AddressEmptyCode","inputs":[{"name":"target","type":"address","internalType":"address"}]},{"type":"error","name":"ERC1967InvalidImplementation","inputs":[{"name":"implementation","type":"address","internalType":"address"}]},{"type":"error","name":"ERC1967NonPayable","inputs":[]},{"type":"error","name":"FailedCall","inputs":[]},{"type":"error","name":"InvalidInitialization","inputs":[]},{"type":"error","name":"InvalidScore","inputs":[]},{"type":"error","name":"InvalidWeights","inputs":[]},{"type":"error","name":"NotAuthorizedUpdater","inputs":[]},{"type":"error","name":"NotInitializing","inputs":[]},{"type":"error","name":"OwnableInvalidOwner","inputs":[{"name":"owner","type":"address","internalType":"address"}]},{"type":"error","name":"OwnableUnauthorizedAccount","inputs":[{"name":"account","type":"address","internalType":"address"}]},{"type":"error","name":"UUPSUnauthorizedCallContext","inputs":[]},{"type":"error","name":"UUPSUnsupportedProxiableUUID","inputs":[{"name":"slot","type":"bytes32","internalType":"bytes32"}]},{"type":"error","name":"ZeroAddress","inputs":[]}],"bytecode":{"object":"0x60a080604052346100c257306080525f516020611bfc5f395f51905f525460ff8160401c166100b3576002600160401b03196001600160401b03821601610060575b604051611b3590816100c78239608051818181610beb0152610c8f0152f35b6001600160401b0319166001600160401b039081175f516020611bfc5f395f51905f525581527fc7f505b2f371ae2175ee4913f4499e1f2633a7b5936321eed1cdaeb6115181d290602090a15f80610041565b63f92ee8a960e01b5f5260045ffd5b5f80fdfe6080806040526004361015610012575f80fd5b5f3560e01c9081630bd74f53146114d5575080631908df5a146114a85780631e1b97af1461148c57806322acb8671461140e5780632676d46f1461138a57806327ff6223146107fb5780632b5accc614610ec0578063322db68a14610e8a57806334adac1f14610e0b5780633815563f146109ab5780634f1ef28614610c3f578063510bb000146101d957806352d1902d14610bd957806354ce3f1f14610bbd57806358541a27146109b05780636c3175a3146109ab578063715018a6146109445780638da5cb5b146109105780638ff29cfe146108d3578063900ab5ce14610800578063aaf5eb68146107fb578063ad3cb1cc146107b4578063ad9d7500146104a0578063adc6ba73146103bb578063bd9e134e1461039f578063c26e428d146101d9578063c4d66de8146101de578063ca03e557146101d9578063e13de469146101bc578063f2fde38b146101915763fa58776814610171575f80fd5b3461018d575f36600319011261018d5760205f54604051908152f35b5f80fd5b3461018d57602036600319011261018d576101ba6101ad6114ee565b6101b56119b5565b611793565b005b3461018d575f36600319011261018d576020600854604051908152f35b6115f8565b3461018d57602036600319011261018d576101f76114ee565b5f516020611ae05f395f51905f52549060ff8260401c16159167ffffffffffffffff811680159081610397575b600114908161038d575b159081610384575b506103755767ffffffffffffffff1981166001175f516020611ae05f395f51905f525582610349575b506001600160a01b03811690811561033a576102859061027d6119e8565b6101b56119e8565b6107d060606040516102968161153c565b610bb88152610bb860208201528260408201520152610bb8600355610bb86004556107d06005556107d060065560015f555f52600760205260405f20600160ff198254161790556102e357005b68ff0000000000000000195f516020611ae05f395f51905f5254165f516020611ae05f395f51905f52557fc7f505b2f371ae2175ee4913f4499e1f2633a7b5936321eed1cdaeb6115181d2602060405160018152a1005b63d92e233d60e01b5f5260045ffd5b68ffffffffffffffffff191668010000000000000001175f516020611ae05f395f51905f52558261025f565b63f92ee8a960e01b5f5260045ffd5b90501584610236565b303b15915061022e565b849150610224565b3461018d575f36600319011261018d576020604051611f408152f35b3461018d576103c936611614565b905f60c06040516103d981611574565b8281528260208201528260408201528260608201528260808201528260a082015201525f52600160205260405f20905f5260205260e060405f2060405161041f81611574565b60ff825492838352600181015460208401908152600282015460408501908152600383015490606086019182526004840154926080870193845260c06006876005880154169660a08a0197885201549701968752604051978852516020880152516040870152516060860152516080850152511660a08301525160c0820152f35b3461018d575f36600319011261018d57604080517f56414c5545534b494e532053434f52494e4720414c474f524954484d2076312e602082015261180560f11b918101919091527f3d3d3d3d3d3d3d3d3d3d3d3d3d3d3d3d3d3d3d3d3d3d3d3d3d3d3d3d3d3d3d3d604282015261050560f11b6062820152712622ab22a6102a242922a9a427a622299d0560711b60648201527f2d204c6576656c20313a20302d313939392028456e747279290a00000000000060768201527f2d204c6576656c20323a20323030302d33393939202845737461626c6973686560908201526232148560e91b60b08201527f2d204c6576656c20333a20343030302d35393939202850726f66657373696f6e60b38201526330b6148560e11b60d38201527f2d204c6576656c20343a20363030302d373939392028457870657274290a000060d78201527f2d204c6576656c20353a20383030302d313030303020284c6567656e6461727960f58201526a16102a37b810189294850560a91b6101158201527129a1a7a9229021a7a6a827a722a72a299d0560711b6101208201527f312e2041637469766974792028333025293a20506f73747320636f756e74202b6101328201526d103932b1b2b73a103837b9ba398560911b6101528201527f322e20456e676167656d656e742028333025293a204c696b6573202b20636f6d6101608201526e36b2b73a39903932b1b2b4bb32b20560891b6101808201527f332e20436f6e73697374656e63792028323025293a20506f7374696e6720667261018f8201527132b8bab2b731bc90159039ba3932b0b5b98560711b6101af8201527f342e20566572696669636174696f6e2028323025293a204c696e6b65642063726101c18201526a32b232b73a34b0b639850560a91b6101e18201527f416c6c2063616c63756c6174696f6e73206172652064657465726d696e6973746101ec8201527f696320616e642076657269666961626c65206f6e2d636861696e2e000000000061020c82015261020781526107b09061079c61022782611590565b60405191829160208352602083019061162a565b0390f35b3461018d575f36600319011261018d576107b06040516107d5604082611590565b60058152640352e302e360dc1b602082015260405191829160208352602083019061162a565b611504565b3461018d57608036600319011261018d576064356044356004356024356108256119b5565b61271061083f8561083a8661083a868861164e565b61164e565b036108c4578360a0937f7a67f6b72b463e6dde3e06b84d460f1227df198ea0e692d44697112f1fc8cb549560606040516108788161153c565b8681528560208201528360408201520152836003558260045580600555816006556108a35f54611785565b92835f556040519485526020850152604084015260608301526080820152a1005b63108cef9d60e31b5f5260045ffd5b3461018d57602036600319011261018d576001600160a01b036108f46114ee565b165f526007602052602060ff60405f2054166040519015158152f35b3461018d575f36600319011261018d575f516020611aa05f395f51905f52546040516001600160a01b039091168152602090f35b3461018d575f36600319011261018d5761095c6119b5565b5f516020611aa05f395f51905f5280546001600160a01b031981169091555f906001600160a01b03167f8be0079c531659141344cd1fd0a4f28419497f9722a3daafe3b4186f6b6457e08280a3005b611520565b3461018d576109be36611614565b905f52600260205260405f20905f5260205260405f2080549067ffffffffffffffff8211610ba957604051916109fa60208260051b0184611590565b808352602083019081925f5260205f205f925b828410610ab957848660405191829160208301906020845251809152604083019060408160051b85010192915f905b828210610a4b57505050500390f35b91936001919395506020610aa98192603f198a820301865260c060a08a518051845285810151868501526040810151604085015260ff606082015116606085015260ff60808201511660808501520151918160a0820152019061162a565b9601920192018594939192610a3c565b604051610ac581611558565b82548152600183015460208201526002830154604082015260ff6003840154818116606084015260081c16608082015260048301604051905f90805490610b0b8261174d565b8085529160018116908115610b845750600114610b4d575b50509260059282610b3a6020946001970382611590565b60a0820152815201920193019290610a0d565b5f908152602081209092505b818310610b6e57505081016020018282610b23565b6001816020925483868801015201920191610b59565b60ff191660208087019190915292151560051b85019092019250849150839050610b23565b634e487b7160e01b5f52604160045260245ffd5b3461018d575f36600319011261018d576020604051610fa08152f35b3461018d575f36600319011261018d577f00000000000000000000000000000000000000000000000000000000000000006001600160a01b03163003610c305760206040515f516020611ac05f395f51905f528152f35b63703e46dd60e11b5f5260045ffd5b604036600319011261018d57610c536114ee565b60243567ffffffffffffffff811161018d573660238201121561018d57610c849036906024816004013591016115b2565b906001600160a01b037f000000000000000000000000000000000000000000000000000000000000000016308114908115610de9575b50610c3057610cc76119b5565b6040516352d1902d60e01b81526001600160a01b0382169290602081600481875afa5f9181610db5575b50610d095783634c9c8ce360e01b5f5260045260245ffd5b805f516020611ac05f395f51905f52859203610da35750823b15610d91575f516020611ac05f395f51905f5280546001600160a01b031916821790557fbc7cd75a20ee27fd9adebab32041f755214dbc6bffa90cc0225b39da2e5c2d3b5f80a2805115610d79576101ba91611a13565b505034610d8257005b63b398979f60e01b5f5260045ffd5b634c9c8ce360e01b5f5260045260245ffd5b632a87526960e21b5f5260045260245ffd5b9091506020813d602011610de1575b81610dd160209383611590565b8101031261018d57519085610cf1565b3d9150610dc4565b5f516020611ac05f395f51905f52546001600160a01b03161415905083610cba565b3461018d5761010036600319011261018d5760c060043560ff610e43610e3360243584611804565b9260a43590608435606435611858565b610e5160c4356044356118cf565b90610e5d60e435611951565b610e65611679565b93909260405196875260208701526040860152606085015260808401521660a0820152f35b3461018d575f36600319011261018d57608060035460045460055460065491604051938452602084015260408301526060820152f35b3461018d5761016036600319011261018d5760243560043561010036604319011261018d576101443567ffffffffffffffff811161018d573660238201121561018d5780600401359067ffffffffffffffff821161018d57366024838301011161018d57335f52600760205260ff60405f2054161580611369575b61135a57610f4d606435604435611804565b610f6160e43560443560c43560a435611858565b90610f71610104356084356118cf565b90610f7e61012435611951565b92610bb8820291808304610bb8149015171561134657610bb8810290808204610bb8149015171561134657610fb29161164e565b906107d08102908082046107d0149015171561134657610fd19161164e565b6107d08202918083046107d014901517156113465761271091610ff39161164e565b0490612710821161133c575b61100882611972565b9192845f52600160205260405f20865f5260205260405f209160068301546110e4575b50509160ff6060927f56d2b188329f90bf9da92b1d1b874a1e51af50ad529abf412eda09244f91c19894611063606435604435611804565b815561107960e43560443560c43560a435611858565b600182015561108d610104356084356118cf565b600282015561109e61012435611951565b600382015560048101908482556005810184841685198254161790556006429101556110cb600854611785565b60085554926040519384526020840152166040820152a3005b855f52600260205260405f20875f5260205260405f209060048401549260ff600586015416916040519461111786611558565b4286526020860190815261114860408701928a845260608801958652608088019460ff8b16865260243692016115b2565b9460a0870195865280549068010000000000000000821015610ba95760018201808255821015611328575f52600560205f209102019551865551600186015551600285015560ff80600386019351161660ff198354161782555161ff0082549160081b169061ff0019161790555180519067ffffffffffffffff8211610ba9576111d5600484015461174d565b601f81116112e0575b50602090601f831160011461124c5792600483606097947f56d2b188329f90bf9da92b1d1b874a1e51af50ad529abf412eda09244f91c19899979460ff975f92611241575b50508160011b915f199060031b1c1916179101555b9294509261102b565b015190508c80611223565b90600484015f52805f20915f5b601f19851681106112c857506001847f56d2b188329f90bf9da92b1d1b874a1e51af50ad529abf412eda09244f91c19899979460ff979460049460609b98601f198116106112b0575b505050811b01910155611238565b01515f1960f88460031b161c191690558c80806112a2565b91926020600181928685015181550194019201611259565b600484015f5260205f20601f840160051c8101916020851061131e575b601f0160051c01905b81811061131357506111de565b5f8155600101611306565b90915081906112fd565b634e487b7160e01b5f52603260045260245ffd5b6127109150610fff565b634e487b7160e01b5f52601160045260245ffd5b63320db8e160e01b5f5260045ffd5b505f516020611aa05f395f51905f52546001600160a01b0316331415610f3b565b3461018d57604036600319011261018d576113a36114ee565b6024359081151580920361018d576113b96119b5565b6001600160a01b031690811561033a5760207f5c001b1d70af3e0a09eed53bc0588d57fec6d23196319ba29c6313eb3321273c91835f526007825260405f2060ff1981541660ff8316179055604051908152a2005b3461018d575f36600319011261018d575f606060405161142d8161153c565b8281528260208201528260408201520152608060405161144c8161153c565b6003549081815260045460208201908152600554906040830191825260606006549301928352604051938452516020840152516040830152516060820152f35b3461018d575f36600319011261018d5760206040516117708152f35b3461018d5761010036600319011261018d57604060ff6114c6611679565b83519182529091166020820152f35b3461018d575f36600319011261018d576020905f548152f35b600435906001600160a01b038216820361018d57565b3461018d575f36600319011261018d5760206040516127108152f35b3461018d575f36600319011261018d576020604051610bb88152f35b6080810190811067ffffffffffffffff821117610ba957604052565b60c0810190811067ffffffffffffffff821117610ba957604052565b60e0810190811067ffffffffffffffff821117610ba957604052565b90601f8019910116810190811067ffffffffffffffff821117610ba957604052565b92919267ffffffffffffffff8211610ba957604051916115dc601f8201601f191660200184611590565b82948184528183011161018d578281602093845f960137010152565b3461018d575f36600319011261018d5760206040516107d08152f35b604090600319011261018d576004359060243590565b805180835260209291819084018484015e5f828201840152601f01601f1916010190565b9190820180921161134657565b8115611665570490565b634e487b7160e01b5f52601260045260245ffd5b60043561169b61168b60243583611804565b9160a43590608435606435611858565b906116aa60c4356044356118cf565b906116b660e435611951565b92610bb8820291808304610bb8149015171561134657610bb8810290808204610bb81490151715611346576116ea9161164e565b906107d08102908082046107d01490151715611346576117099161164e565b6107d08202918083046107d01490151715611346576127109161172b9161164e565b04906127108211611743575b61174082611972565b90565b6127109150611737565b90600182811c9216801561177b575b602083101461176757565b634e487b7160e01b5f52602260045260245ffd5b91607f169161175c565b5f1981146113465760010190565b6001600160a01b031680156117f1575f516020611aa05f395f51905f5280546001600160a01b0319811683179091556001600160a01b03167f8be0079c531659141344cd1fd0a4f28419497f9722a3daafe3b4186f6b6457e05f80a3565b631e4fbdf760e01b5f525f60045260245ffd5b9060328202918083046032149015171561134657611388821161184e575b60c881029080820460c81490151715611346576117409161138882111561164e575b611388915061164e565b6113889150611822565b919091811580156118c7575b6118bf576003830292808404600314901517156113465761188d926118889161164e565b61165b565b906127108202918083046127101490151715611346576118ac9161165b565b61271081116118b85790565b5061271090565b505050505f90565b508315611864565b600181116119025750611388905b606481029080820460641490151715611346576117409161138882116118445761164e565b600381116119145750610fa0906118dd565b6007811161192657506109c4906118dd565b600e811161193857506105dc906118dd565b601e10611948576103e8906118dd565b6101f4906118dd565b6109c48102908082046109c414901517156113465761271081116118b85790565b611f408110156119af576117708110156119a957610fa08110156119a3576107d0111561199e57600190565b600290565b50600390565b50600490565b50600590565b5f516020611aa05f395f51905f52546001600160a01b031633036119d557565b63118cdaa760e01b5f523360045260245ffd5b60ff5f516020611ae05f395f51905f525460401c1615611a0457565b631afcd79f60e31b5f5260045ffd5b905f8091602081519101845af48080611a8c575b15611a475750506040513d81523d5f602083013e60203d82010160405290565b15611a6c57639996b31560e01b5f9081526001600160a01b0391909116600452602490fd5b3d15611a7d576040513d5f823e3d90fd5b63d6bda27560e01b5f5260045ffd5b503d151580611a275750813b1515611a2756fe9016d09d72d40fdae2fd8ceac6b6234c7706214fd39c1cd1e609a0528c199300360894a13ba1a3210667c828492db98dca3e2076cc3735a920a3ca505d382bbcf0c57e16840df040f15088dc2f81fe391c3923bec73e23a9662efc9c229c6a00a2646970667358221220b461b4d2979b75a7c7dccace90314352b34f0c750e76a7b628aa11967498a79464736f6c634300081b0033f0c57e16840df040f15088dc2f81fe391c3923bec73e23a9662efc9c229c6a00","linkReferences":{}},"methodIdentifiers":{"LEVEL_2_THRESHOLD()":"c26e428d","LEVEL_3_THRESHOLD()":"54ce3f1f","LEVEL_4_THRESHOLD()":"1e1b97af","LEVEL_5_THRESHOLD()":"bd9e134e","MAX_SCORE()":"27ff6223","PRECISION()":"aaf5eb68","UPGRADE_INTERFACE_VERSION()":"ad3cb1cc","WEIGHT_ACTIVITY()":"3815563f","WEIGHT_CONSISTENCY()":"510bb000","WEIGHT_ENGAGEMENT()":"6c3175a3","WEIGHT_VERIFICATION()":"ca03e557","algorithmVersion()":"fa587768","authorizedUpdaters(address)":"8ff29cfe","computeScore((uint256,uint256,uint256,uint256,uint256,uint256,uint256,uint256))":"1908df5a","currentWeights()":"322db68a","getAlgorithmDocumentation()":"ad9d7500","getAlgorithmVersion()":"0bd74f53","getScore(uint256,uint256)":"adc6ba73","getScoreHistory(uint256,uint256)":"58541a27","getWeights()":"22acb867","initialize(address)":"c4d66de8","owner()":"8da5cb5b","proxiableUUID()":"52d1902d","renounceOwnership()":"715018a6","setUpdaterAuthorized(address,bool)":"2676d46f","simulateScore((uint256,uint256,uint256,uint256,uint256,uint256,uint256,uint256))":"34adac1f","totalScoresComputed()":"e13de469","transferOwnership(address)":"f2fde38b","updateScore(uint256,uint256,(uint256,uint256,uint256,uint256,uint256,uint256,uint256,uint256),string)":"2b5accc6","updateWeights(uint256,uint256,uint256,uint256)":"900ab5ce","upgradeToAndCall(address,bytes)":"4f1ef286"},"id":68}