{"abi":[{"type":"constructor","inputs":[{"name":"configFilePath","type":"string","internalType":"string"},{"name":"writeToFile","type":"bool","internalType":"bool"}],"stateMutability":"nonpayable"},{"type":"function","name":"exists","inputs":[{"name":"key","type":"string","internalType":"string"}],"outputs":[{"name":"","type":"bool","internalType":"bool"}],"stateMutability":"view"},{"type":"function","name":"exists","inputs":[{"name":"chain_id","type":"uint256","internalType":"uint256"},{"name":"key","type":"string","internalType":"string"}],"outputs":[{"name":"","type":"bool","internalType":"bool"}],"stateMutability":"view"},{"type":"function","name":"get","inputs":[{"name":"key","type":"string","internalType":"string"}],"outputs":[{"name":"","type":"tuple","internalType":"struct Variable","components":[{"name":"ty","type":"tuple","internalType":"struct Type","components":[{"name":"kind","type":"uint8","internalType":"enum TypeKind"},{"name":"isArray","type":"bool","internalType":"bool"}]},{"name":"data","type":"bytes","internalType":"bytes"}]}],"stateMutability":"view"},{"type":"function","name":"get","inputs":[{"name":"chain_id","type":"uint256","internalType":"uint256"},{"name":"key","type":"string","internalType":"string"}],"outputs":[{"name":"","type":"tuple","internalType":"struct Variable","components":[{"name":"ty","type":"tuple","internalType":"struct Type","components":[{"name":"kind","type":"uint8","internalType":"enum TypeKind"},{"name":"isArray","type":"bool","internalType":"bool"}]},{"name":"data","type":"bytes","internalType":"bytes"}]}],"stateMutability":"view"},{"type":"function","name":"getChainIds","inputs":[],"outputs":[{"name":"","type":"uint256[]","internalType":"uint256[]"}],"stateMutability":"view"},{"type":"function","name":"getRpcUrl","inputs":[],"outputs":[{"name":"","type":"string","internalType":"string"}],"stateMutability":"view"},{"type":"function","name":"getRpcUrl","inputs":[{"name":"chainId","type":"uint256","internalType":"uint256"}],"outputs":[{"name":"","type":"string","internalType":"string"}],"stateMutability":"view"},{"type":"function","name":"resolveChainId","inputs":[{"name":"aliasOrId","type":"string","internalType":"string"}],"outputs":[{"name":"","type":"uint256","internalType":"uint256"}],"stateMutability":"view"},{"type":"function","name":"set","inputs":[{"name":"chainId","type":"uint256","internalType":"uint256"},{"name":"key","type":"string","internalType":"string"},{"name":"value","type":"int256","internalType":"int256"}],"outputs":[],"stateMutability":"nonpayable"},{"type":"function","name":"set","inputs":[{"name":"chainId","type":"uint256","internalType":"uint256"},{"name":"key","type":"string","internalType":"string"},{"name":"value","type":"bytes32[]","internalType":"bytes32[]"}],"outputs":[],"stateMutability":"nonpayable"},{"type":"function","name":"set","inputs":[{"name":"chainId","type":"uint256","internalType":"uint256"},{"name":"key","type":"string","internalType":"string"},{"name":"value","type":"uint256","internalType":"uint256"}],"outputs":[],"stateMutability":"nonpayable"},{"type":"function","name":"set","inputs":[{"name":"key","type":"string","internalType":"string"},{"name":"value","type":"bytes","internalType":"bytes"}],"outputs":[],"stateMutability":"nonpayable"},{"type":"function","name":"set","inputs":[{"name":"key","type":"string","internalType":"string"},{"name":"value","type":"bytes32","internalType":"bytes32"}],"outputs":[],"stateMutability":"nonpayable"},{"type":"function","name":"set","inputs":[{"name":"key","type":"string","internalType":"string"},{"name":"value","type":"int256","internalType":"int256"}],"outputs":[],"stateMutability":"nonpayable"},{"type":"function","name":"set","inputs":[{"name":"chainId","type":"uint256","internalType":"uint256"},{"name":"key","type":"string","internalType":"string"},{"name":"value","type":"bytes","internalType":"bytes"}],"outputs":[],"stateMutability":"nonpayable"},{"type":"function","name":"set","inputs":[{"name":"key","type":"string","internalType":"string"},{"name":"value","type":"string[]","internalType":"string[]"}],"outputs":[],"stateMutability":"nonpayable"},{"type":"function","name":"set","inputs":[{"name":"chainId","type":"uint256","internalType":"uint256"},{"name":"key","type":"string","internalType":"string"},{"name":"value","type":"address","internalType":"address"}],"outputs":[],"stateMutability":"nonpayable"},{"type":"function","name":"set","inputs":[{"name":"chainId","type":"uint256","internalType":"uint256"},{"name":"key","type":"string","internalType":"string"},{"name":"value","type":"address[]","internalType":"address[]"}],"outputs":[],"stateMutability":"nonpayable"},{"type":"function","name":"set","inputs":[{"name":"chainId","type":"uint256","internalType":"uint256"},{"name":"key","type":"string","internalType":"string"},{"name":"value","type":"string","internalType":"string"}],"outputs":[],"stateMutability":"nonpayable"},{"type":"function","name":"set","inputs":[{"name":"key","type":"string","internalType":"string"},{"name":"value","type":"uint256[]","internalType":"uint256[]"}],"outputs":[],"stateMutability":"nonpayable"},{"type":"function","name":"set","inputs":[{"name":"key","type":"string","internalType":"string"},{"name":"value","type":"address[]","internalType":"address[]"}],"outputs":[],"stateMutability":"nonpayable"},{"type":"function","name":"set","inputs":[{"name":"key","type":"string","internalType":"string"},{"name":"value","type":"uint256","internalType":"uint256"}],"outputs":[],"stateMutability":"nonpayable"},{"type":"function","name":"set","inputs":[{"name":"chainId","type":"uint256","internalType":"uint256"},{"name":"key","type":"string","internalType":"string"},{"name":"value","type":"int256[]","internalType":"int256[]"}],"outputs":[],"stateMutability":"nonpayable"},{"type":"function","name":"set","inputs":[{"name":"chainId","type":"uint256","internalType":"uint256"},{"name":"key","type":"string","internalType":"string"},{"name":"value","type":"bytes[]","internalType":"bytes[]"}],"outputs":[],"stateMutability":"nonpayable"},{"type":"function","name":"set","inputs":[{"name":"key","type":"string","internalType":"string"},{"name":"value","type":"address","internalType":"address"}],"outputs":[],"stateMutability":"nonpayable"},{"type":"function","name":"set","inputs":[{"name":"chainId","type":"uint256","internalType":"uint256"},{"name":"key","type":"string","internalType":"string"},{"name":"value","type":"bool","internalType":"bool"}],"outputs":[],"stateMutability":"nonpayable"},{"type":"function","name":"set","inputs":[{"name":"key","type":"string","internalType":"string"},{"name":"value","type":"bool","internalType":"bool"}],"outputs":[],"stateMutability":"nonpayable"},{"type":"function","name":"set","inputs":[{"name":"key","type":"string","internalType":"string"},{"name":"value","type":"bytes[]","internalType":"bytes[]"}],"outputs":[],"stateMutability":"nonpayable"},{"type":"function","name":"set","inputs":[{"name":"chainId","type":"uint256","internalType":"uint256"},{"name":"key","type":"string","internalType":"string"},{"name":"value","type":"bytes32","internalType":"bytes32"}],"outputs":[],"stateMutability":"nonpayable"},{"type":"function","name":"set","inputs":[{"name":"chainId","type":"uint256","internalType":"uint256"},{"name":"key","type":"string","internalType":"string"},{"name":"value","type":"string[]","internalType":"string[]"}],"outputs":[],"stateMutability":"nonpayable"},{"type":"function","name":"set","inputs":[{"name":"chainId","type":"uint256","internalType":"uint256"},{"name":"key","type":"string","internalType":"string"},{"name":"value","type":"uint256[]","internalType":"uint256[]"}],"outputs":[],"stateMutability":"nonpayable"},{"type":"function","name":"set","inputs":[{"name":"key","type":"string","internalType":"string"},{"name":"value","type":"int256[]","internalType":"int256[]"}],"outputs":[],"stateMutability":"nonpayable"},{"type":"function","name":"set","inputs":[{"name":"chainId","type":"uint256","internalType":"uint256"},{"name":"key","type":"string","internalType":"string"},{"name":"value","type":"bool[]","internalType":"bool[]"}],"outputs":[],"stateMutability":"nonpayable"},{"type":"function","name":"set","inputs":[{"name":"key","type":"string","internalType":"string"},{"name":"value","type":"bytes32[]","internalType":"bytes32[]"}],"outputs":[],"stateMutability":"nonpayable"},{"type":"function","name":"set","inputs":[{"name":"key","type":"string","internalType":"string"},{"name":"value","type":"string","internalType":"string"}],"outputs":[],"stateMutability":"nonpayable"},{"type":"function","name":"set","inputs":[{"name":"key","type":"string","internalType":"string"},{"name":"value","type":"bool[]","internalType":"bool[]"}],"outputs":[],"stateMutability":"nonpayable"},{"type":"function","name":"writeUpdatesBackToFile","inputs":[{"name":"enabled","type":"bool","internalType":"bool"}],"outputs":[],"stateMutability":"nonpayable"},{"type":"error","name":"AlreadyInitialized","inputs":[{"name":"key","type":"string","internalType":"string"}]},{"type":"error","name":"ChainNotInitialized","inputs":[{"name":"chainId","type":"uint256","internalType":"uint256"}]},{"type":"error","name":"InvalidChainKey","inputs":[{"name":"aliasOrId","type":"string","internalType":"string"}]},{"type":"error","name":"TypeMismatch","inputs":[{"name":"expected","type":"string","internalType":"string"},{"name":"actual","type":"string","internalType":"string"}]},{"type":"error","name":"UnableToParseVariable","inputs":[{"name":"key","type":"string","internalType":"string"}]},{"type":"error","name":"WriteToFileInForbiddenCtxt","inputs":[]}],"bytecode":{"object":"0x6080806040523461088e57616e64803803809161001c828561271d565b8339810160408282031261088e578151906001600160401b03821161088e5761004c602091610053938501612740565b9201612793565b8080612689575b61267a5781516001600160401b0381116107c2576100828161007c5f546127a0565b5f6127d8565b6020601f821160011461261457916100b5826100ea95935f958691612609575b508160011b915f199060031b1c19161790565b83555b60ff8019600554169115151617600555604051809381926360f9bb1160e01b8352602060048401526024830190612907565b03815f516020616e445f395f51905f525afa9081156124e957610133915f9182916124f4575b506040518093819263ddd2128d60e01b8352602060048401526024830190612907565b0381835f516020616e445f395f51905f525af19081156124e9575f916125ef575b50604051634095225960e11b8152604060048201525f81604061017a6044830186612907565b600960fa1b6020848303926003198401602487015260018152015201815f516020616e445f395f51905f525afa9081156124e9575f916125d5575b50905f905b82518210156125c6576101cd82846129dc565b51926040519061121760f11b60208301526102275f86519361020c60228260208b019780898484015e810185838201520301601f19810183528261271d565b60405180938192634095225960e11b835288600484016129f0565b03815f516020616e445f395f51905f525afa9081156124e9575f916125ac575b50511561259f5761025785612a15565b90600154680100000000000000008110156107c257600181018060015581101561258b5760015f526102ac9087907fb10e2d527612073b26eecdfd717e6a320cf44b4afac2b0732d9fcbe2b7fa0cf601612827565b6103105f60405161121760f11b60208201526102f5600d6022838c51808b8484015e81016c0b995b991c1bda5b9d17dd5c9b609a1b83820152030160121981018452018261271d565b60405180938192638bb8dd4360e01b835289600484016129f0565b03815f516020616e445f395f51905f525afa5f918161256f575b5061250e575060405163975a6ce960e01b8152602060048201525f8180610354602482018b612907565b03815f516020616e445f395f51905f525afa9081156124e95761039c915f9182916124f457506040518093819263ddd2128d60e01b8352602060048401526024830190612907565b0381835f516020616e445f395f51905f525af180156124e9576103d2915f916124cf575b50835f52600260205260405f20612827565b60015b60ff8116600781116124bb576008811015806107405760208961044560016103fc86612bce565b60226040519586928d8285019761121760f11b89525180918587015e840190601760f91b84830152805192839101602383015e01015f838201520301601f19810184528361271d565b604051634095225960e11b81525f8180610463868e600484016129f0565b03815f516020616e445f395f51905f525afa5f918161249f575b506104af575b505050505060ff1660ff811461049b576001016103d5565b634e487b7160e01b5f52601160045260245ffd5b939990955f9b92989399959b5b8551811015612486576104cf81876129dc565b51895f52600460205260405f2060ff604051602081855194828701958087845e8201908152030190205416600881101561074057612464578c908a61054a60018f60206040519485925180918385015e8201601760f91b828201528851908188602183015e01015f838201520301601f19810183528261271d565b5f92610740578f60018103610a2c575061057c6020828d6040519384928392636986e76b60e11b8452600484016129f0565b03815f516020616e445f395f51905f525afa5f91816109f1575b50610892575060405163093e7f4d60e11b8152905f90829081906105be908f600484016129f0565b03815f516020616e445f395f51905f525afa5f91816107f4575b50610618575b50505b156105ef57506001016104bc565b60405163ea00fa1360e01b815260206004820152908190610614906024830190612907565b0390fd5b9091506040519081604081019160208083015280518093526020606083019101925f905b8082106107d6575050610658925003601f19810183528261271d565b8b5f52600360205260405f206020604051809286518087845e820190815203019020815190916001600160401b0382116107c2576106a08261069a85546127a0565b856127d8565b602090601f831160011461075f576106cf92915f9183610754575b50508160011b915f199060031b1c19161790565b90555b604051906106df82612702565b600182526020820190600182528c5f526004602052602060405f209160405192839187518091845e82019081520301902091519060088210156107405760ff61ff0084549251151560081b1692169061ffff19161717905560015f806105de565b634e487b7160e01b5f52602160045260245ffd5b015190505f806106bb565b90601f19831691845f52815f20925f5b8181106107aa5750908460019594939210610792575b505050811b0190556106d2565b01515f1960f88460031b161c191690555f8080610785565b9293602060018192878601518155019501930161076f565b634e487b7160e01b5f52604160045260245ffd5b9160019193506020809186511515815201940192018492939161063c565b9091503d805f833e610806818361271d565b81019060208183031261088e578051906001600160401b03821161088e57019080601f8301121561088e57815161083c8161292b565b9261084a604051948561271d565b81845260208085019260051b82010192831161088e57602001905b82821061087657505050905f6105d8565b6020809161088384612793565b815201910190610865565b5f80fd5b919250506040519015156020820152602081526108b060408261271d565b8b5f52600360205260405f206020604051809286518087845e820190815203019020815190916001600160401b0382116107c2576108f28261069a85546127a0565b602090601f831160011461098e5761092092915f91836107545750508160011b915f199060031b1c19161790565b90555b6040519061093082612702565b6001825260208201905f82528c5f526004602052602060405f209160405192839187518091845e82019081520301902091519060088210156107405760ff61ff0084549251151560081b1692169061ffff19161717905560016105e1565b90601f19831691845f52815f20925f5b8181106109d957509084600195949392106109c1575b505050811b019055610923565b01515f1960f88460031b161c191690555f80806109b4565b9293602060018192878601518155019501930161099e565b9091506020813d8211610a24575b81610a0c6020938361271d565b8101031261088e57610a1d90612793565b905f610596565b3d91506109ff565b5f9f5060028103610ea75750610a5a6020828d6040519384928392631979f21160e21b8452600484016129f0565b03815f516020616e445f395f51905f525afa5f9181610e6c575b50610d0757506040516365c428e760e01b8152905f9082908190610a9c908f600484016129f0565b03815f516020616e445f395f51905f525afa5f9181610c6d575b50610ac3575b50506105e1565b9091506040519081604081019160208083015280518093526020606083019101925f905b808210610c47575050610b03925003601f19810183528261271d565b8b5f52600360205260405f206020604051809286518087845e820190815203019020815190916001600160401b0382116107c257610b458261069a85546127a0565b602090601f8311600114610be457610b7392915f91836107545750508160011b915f199060031b1c19161790565b90555b60405190610b8382612702565b600282526020820190600182528c5f526004602052602060405f209160405192839187518091845e82019081520301902091519060088210156107405760ff61ff0084549251151560081b1692169061ffff19161717905560015f80610abc565b90601f19831691845f52815f20925f5b818110610c2f5750908460019594939210610c17575b505050811b019055610b76565b01515f1960f88460031b161c191690555f8080610c0a565b92936020600181928786015181550195019301610bf4565b84516001600160a01b031683526020948501948694509092019160019190910190610ae7565b9091503d805f833e610c7f818361271d565b81019060208183031261088e578051906001600160401b03821161088e57019080601f8301121561088e578151610cb58161292b565b92610cc3604051948561271d565b81845260208085019260051b82010192831161088e57602001905b828210610cef57505050905f610ab6565b60208091610cfc84612d2c565b815201910190610cde565b919250506040519060018060a01b0316602082015260208152610d2b60408261271d565b8b5f52600360205260405f206020604051809286518087845e820190815203019020815190916001600160401b0382116107c257610d6d8261069a85546127a0565b602090601f8311600114610e0957610d9b92915f91836107545750508160011b915f199060031b1c19161790565b90555b60405190610dab82612702565b6002825260208201905f82528c5f526004602052602060405f209160405192839187518091845e82019081520301902091519060088210156107405760ff61ff0084549251151560081b1692169061ffff19161717905560016105e1565b90601f19831691845f52815f20925f5b818110610e545750908460019594939210610e3c575b505050811b019055610d9e565b01515f1960f88460031b161c191690555f8080610e2f565b92936020600181928786015181550195019301610e19565b9091506020813d8211610e9f575b81610e876020938361271d565b8101031261088e57610e9890612d2c565b905f610a74565b3d9150610e7a565b5f9f50600381036112ff5750610ed56020828d60405193849283926308e2148160e41b8452600484016129f0565b03815f516020616e445f395f51905f525afa5f91816112cc575b5061116f5750604051633e716f8160e01b8152905f9082908190610f17908f600484016129f0565b03815f516020616e445f395f51905f525afa5f91816110dd575b50610f3d5750506105e1565b9091506040519081604081019160208083015280518093526020606083019101925f905b8082106110c1575050610f7d925003601f19810183528261271d565b8b5f52600360205260405f206020604051809286518087845e820190815203019020815190916001600160401b0382116107c257610fbf8261069a85546127a0565b602090601f831160011461105e57610fed92915f91836107545750508160011b915f199060031b1c19161790565b90555b60405190610ffd82612702565b600382526020820190600182528c5f526004602052602060405f209160405192839187518091845e82019081520301902091519060088210156107405760ff61ff0084549251151560081b1692169061ffff19161717905560015f80610abc565b90601f19831691845f52815f20925f5b8181106110a95750908460019594939210611091575b505050811b019055610ff0565b01515f1960f88460031b161c191690555f8080611084565b9293602060018192878601518155019501930161106e565b9160019193506020809186518152019401920184929391610f61565b9091503d805f833e6110ef818361271d565b81019060208183031261088e578051906001600160401b03821161088e57019080601f8301121561088e5781516111258161292b565b92611133604051948561271d565b81845260208085019260051b82010192831161088e57602001905b82821061115f57505050905f610f31565b815181526020918201910161114e565b919250506040519060208201526020815261118b60408261271d565b8b5f52600360205260405f206020604051809286518087845e820190815203019020815190916001600160401b0382116107c2576111cd8261069a85546127a0565b602090601f8311600114611269576111fb92915f91836107545750508160011b915f199060031b1c19161790565b90555b6040519061120b82612702565b6003825260208201905f82528c5f526004602052602060405f209160405192839187518091845e82019081520301902091519060088210156107405760ff61ff0084549251151560081b1692169061ffff19161717905560016105e1565b90601f19831691845f52815f20925f5b8181106112b4575090846001959493921061129c575b505050811b0190556111fe565b01515f1960f88460031b161c191690555f808061128f565b92936020600181928786015181550195019301611279565b9091506020813d82116112f7575b816112e76020938361271d565b8101031261088e5751905f610eef565b3d91506112da565b5f9f5060048103611757575061132d6020828d604051938492839263cc7b048760e01b8452600484016129f0565b03815f516020616e445f395f51905f525afa5f9181611724575b506115c757506040516316bbe4f960e31b8152905f908290819061136f908f600484016129f0565b03815f516020616e445f395f51905f525afa5f9181611535575b506113955750506105e1565b9091506040519081604081019160208083015280518093526020606083019101925f905b8082106115195750506113d5925003601f19810183528261271d565b8b5f52600360205260405f206020604051809286518087845e820190815203019020815190916001600160401b0382116107c2576114178261069a85546127a0565b602090601f83116001146114b65761144592915f91836107545750508160011b915f199060031b1c19161790565b90555b6040519061145582612702565b600482526020820190600182528c5f526004602052602060405f209160405192839187518091845e82019081520301902091519060088210156107405760ff61ff0084549251151560081b1692169061ffff19161717905560015f80610abc565b90601f19831691845f52815f20925f5b81811061150157509084600195949392106114e9575b505050811b019055611448565b01515f1960f88460031b161c191690555f80806114dc565b929360206001819287860151815501950193016114c6565b91600191935060208091865181520194019201849293916113b9565b9091503d805f833e611547818361271d565b81019060208183031261088e578051906001600160401b03821161088e57019080601f8301121561088e57815161157d8161292b565b9261158b604051948561271d565b81845260208085019260051b82010192831161088e57602001905b8282106115b757505050905f611389565b81518152602091820191016115a6565b91925050604051906020820152602081526115e360408261271d565b8b5f52600360205260405f206020604051809286518087845e820190815203019020815190916001600160401b0382116107c2576116258261069a85546127a0565b602090601f83116001146116c15761165392915f91836107545750508160011b915f199060031b1c19161790565b90555b6040519061166382612702565b6004825260208201905f82528c5f526004602052602060405f209160405192839187518091845e82019081520301902091519060088210156107405760ff61ff0084549251151560081b1692169061ffff19161717905560016105e1565b90601f19831691845f52815f20925f5b81811061170c57509084600195949392106116f4575b505050811b019055611656565b01515f1960f88460031b161c191690555f80806116e7565b929360206001819287860151815501950193016116d1565b9091506020813d821161174f575b8161173f6020938361271d565b8101031261088e5751905f611347565b3d9150611732565b5f9f5060058103611baf57506117856020828d604051938492839263c135073960e01b8452600484016129f0565b03815f516020616e445f395f51905f525afa5f9181611b7c575b50611a1f57506040516369a9157360e11b8152905f90829081906117c7908f600484016129f0565b03815f516020616e445f395f51905f525afa5f918161198d575b506117ed5750506105e1565b9091506040519081604081019160208083015280518093526020606083019101925f905b80821061197157505061182d925003601f19810183528261271d565b8b5f52600360205260405f206020604051809286518087845e820190815203019020815190916001600160401b0382116107c25761186f8261069a85546127a0565b602090601f831160011461190e5761189d92915f91836107545750508160011b915f199060031b1c19161790565b90555b604051906118ad82612702565b600582526020820190600182528c5f526004602052602060405f209160405192839187518091845e82019081520301902091519060088210156107405760ff61ff0084549251151560081b1692169061ffff19161717905560015f80610abc565b90601f19831691845f52815f20925f5b8181106119595750908460019594939210611941575b505050811b0190556118a0565b01515f1960f88460031b161c191690555f8080611934565b9293602060018192878601518155019501930161191e565b9160019193506020809186518152019401920184929391611811565b9091503d805f833e61199f818361271d565b81019060208183031261088e578051906001600160401b03821161088e57019080601f8301121561088e5781516119d58161292b565b926119e3604051948561271d565b81845260208085019260051b82010192831161088e57602001905b828210611a0f57505050905f6117e1565b81518152602091820191016119fe565b9192505060405190602082015260208152611a3b60408261271d565b8b5f52600360205260405f206020604051809286518087845e820190815203019020815190916001600160401b0382116107c257611a7d8261069a85546127a0565b602090601f8311600114611b1957611aab92915f91836107545750508160011b915f199060031b1c19161790565b90555b60405190611abb82612702565b6005825260208201905f82528c5f526004602052602060405f209160405192839187518091845e82019081520301902091519060088210156107405760ff61ff0084549251151560081b1692169061ffff19161717905560016105e1565b90601f19831691845f52815f20925f5b818110611b645750908460019594939210611b4c575b505050811b019055611aae565b01515f1960f88460031b161c191690555f8080611b3f565b92936020600181928786015181550195019301611b29565b9091506020813d8211611ba7575b81611b976020938361271d565b8101031261088e5751905f61179f565b3d9150611b8a565b5f9f50600781036120615750611bdc5f828d604051938492839263d77bfdb960e01b8452600484016129f0565b03815f516020616e445f395f51905f525afa5f9181612022575b50611eb2575060405163b197c24760e01b8152905f9082908190611c1e908f600484016129f0565b03815f516020616e445f395f51905f525afa5f9181611dff575b50611c445750506105e1565b90915060405190816040810191602080830152805180935260608201602060608560051b8501019201935f905b808210611dd257505050611c8e925003601f19810183528261271d565b8b5f52600360205260405f206020604051809286518087845e820190815203019020815190916001600160401b0382116107c257611cd08261069a85546127a0565b602090601f8311600114611d6f57611cfe92915f91836107545750508160011b915f199060031b1c19161790565b90555b60405190611d0e82612702565b600782526020820190600182528c5f526004602052602060405f209160405192839187518091845e82019081520301902091519060088210156107405760ff61ff0084549251151560081b1692169061ffff19161717905560015f80610abc565b90601f19831691845f52815f20925f5b818110611dba5750908460019594939210611da2575b505050811b019055611d01565b01515f1960f88460031b161c191690555f8080611d95565b92936020600181928786015181550195019301611d7f565b91935091602080611def600193605f198a82030188528851612907565b9601940192018593949291611c71565b9091503d805f833e611e11818361271d565b81019060208183031261088e578051906001600160401b03821161088e57019080601f8301121561088e578151611e478161292b565b92611e55604051948561271d565b81845260208085019260051b8201019183831161088e5760208201905b838210611e85575050505050905f611c38565b81516001600160401b03811161088e57602091611ea787848094880101612740565b815201910190611e72565b611ed3929350611ee191506040519283916020808401526040830190612907565b03601f19810183528261271d565b8b5f52600360205260405f206020604051809286518087845e820190815203019020815190916001600160401b0382116107c257611f238261069a85546127a0565b602090601f8311600114611fbf57611f5192915f91836107545750508160011b915f199060031b1c19161790565b90555b60405190611f6182612702565b6007825260208201905f82528c5f526004602052602060405f209160405192839187518091845e82019081520301902091519060088210156107405760ff61ff0084549251151560081b1692169061ffff19161717905560016105e1565b90601f19831691845f52815f20925f5b81811061200a5750908460019594939210611ff2575b505050811b019055611f54565b01515f1960f88460031b161c191690555f8080611fe5565b92936020600181928786015181550195019301611fcf565b9091503d805f833e612034818361271d565b810160208282031261088e5781516001600160401b03811161088e5761205a9201612740565b905f611bf6565b5f9f506006146120725750506105e1565b6120935f828d6040519384928392638bb8dd4360e01b8452600484016129f0565b03815f516020616e445f395f51905f525afa5f9181612440575b506122de5750604051639f62928160e01b8152905f90829081906120d5908f600484016129f0565b03815f516020616e445f395f51905f525afa5f91816122ba575b506120ff575b50505b5f80610abc565b90915060405190816040810191602080830152805180935260608201602060608560051b8501019201935f905b80821061228d57505050612149925003601f19810183528261271d565b8b5f52600360205260405f206020604051809286518087845e820190815203019020815190916001600160401b0382116107c25761218b8261069a85546127a0565b602090601f831160011461222a576121b992915f91836107545750508160011b915f199060031b1c19161790565b90555b604051906121c982612702565b600682526020820190600182528c5f526004602052602060405f209160405192839187518091845e82019081520301902091519060088210156107405760ff61ff0084549251151560081b1692169061ffff19161717905560015f806120f5565b90601f19831691845f52815f20925f5b818110612275575090846001959493921061225d575b505050811b0190556121bc565b01515f1960f88460031b161c191690555f8080612250565b9293602060018192878601518155019501930161223a565b919350916020806122aa600193605f198a82030188528851612907565b960194019201859394929161212c565b6122d79192503d805f833e6122cf818361271d565b810190612942565b905f6120ef565b611ed39293506122ff91506040519283916020808401526040830190612907565b8b5f52600360205260405f206020604051809286518087845e820190815203019020815190916001600160401b0382116107c2576123418261069a85546127a0565b602090601f83116001146123dd5761236f92915f91836107545750508160011b915f199060031b1c19161790565b90555b6040519061237f82612702565b6006825260208201905f82528c5f526004602052602060405f209160405192839187518091845e82019081520301902091519060088210156107405760ff61ff0084549251151560081b1692169061ffff19161717905560016120f8565b90601f19831691845f52815f20925f5b8181106124285750908460019594939210612410575b505050811b019055612372565b01515f1960f88460031b161c191690555f8080612403565b929360206001819287860151815501950193016123ed565b61245d9192503d805f833e612455818361271d565b8101906128df565b905f6120ad565b60405163038a07f760e51b815260206004820152806106146024820185612907565b5095509850989150945060ff919550905f808080610483565b6124b49192503d805f833e6122cf818361271d565b905f61047d565b50509391505060019193505b0190916101ba565b6124e391503d805f833e612455818361271d565b5f6103c0565b6040513d5f823e3d90fd5b61250891503d8084833e612455818361271d565b5f610110565b5f612535916040518093819263ddd2128d60e01b8352602060048401526024830190612907565b0381835f516020616e445f395f51905f525af180156124e95761256a915f916124cf5750835f52600260205260405f20612827565b6103d2565b6125849192503d805f833e612455818361271d565b905f61032a565b634e487b7160e01b5f52603260045260245ffd5b92905060019193506124c7565b6125c091503d805f833e6122cf818361271d565b5f610247565b6040516141039081612d418239f35b6125e991503d805f833e6122cf818361271d565b5f6101b5565b61260391503d805f833e612455818361271d565b5f610154565b90508401515f6100a2565b601f198216905f8052805f20915f5b8181106126625750925f9492600192826100ea98961061264a575b5050811b0183556100b8565b850151861960f88460031b161c191690555f8061263e565b9192602060018192868a015181550194019201612623565b6305d79a4360e31b5f5260045ffd5b506040516364af255d60e01b81526004808201526020816024815f516020616e445f395f51905f525afa9081156124e9575f916126c8575b501561005a565b90506020813d6020116126fa575b816126e36020938361271d565b8101031261088e576126f490612793565b5f6126c1565b3d91506126d6565b604081019081106001600160401b038211176107c257604052565b601f909101601f19168101906001600160401b038211908210176107c257604052565b81601f8201121561088e578051906020016001600160401b0382116107c25760405192612777601f8401601f19166020018561271d565b8284528282011161088e57815f926020928386015e8301015290565b5190811515820361088e57565b90600182811c921680156127ce575b60208310146127ba57565b634e487b7160e01b5f52602260045260245ffd5b91607f16916127af565b601f82116127e557505050565b5f5260205f20906020601f840160051c8301931061281d575b601f0160051c01905b818110612812575050565b5f8155600101612807565b90915081906127fe565b81519192916001600160401b0381116107c25761284e8161284884546127a0565b846127d8565b6020601f821160011461288157819061287d9394955f926107545750508160011b915f199060031b1c19161790565b9055565b601f19821690835f52805f20915f5b8181106128c7575095836001959697106128af575b505050811b019055565b01515f1960f88460031b161c191690555f80806128a5565b9192602060018192868b015181550194019201612890565b9060208282031261088e5781516001600160401b03811161088e576129049201612740565b90565b805180835260209291819084018484015e5f828201840152601f01601f1916010190565b6001600160401b0381116107c25760051b60200190565b60208183031261088e578051906001600160401b03821161088e57019080601f8301121561088e5781516129758161292b565b92612983604051948561271d565b81845260208085019260051b8201019183831161088e5760208201905b8382106129af57505050505090565b81516001600160401b03811161088e576020916129d187848094880101612740565b8152019101906129a0565b805182101561258b5760209160051b010190565b9091612a0761290493604084526040840190612907565b916020818403910152612907565b60405163fa91454d60e01b81526020600482018190528180612a3a6024820186612907565b03815f516020616e445f395f51905f525afa5f9181612b9a575b50612b955750604051634cc1c2bb60e01b8152602060048201525f8180612a7e6024820186612907565b03815f516020616e445f395f51905f525afa5f9181612ac8575b50612abf576040516397aa94df60e01b815260206004820152806106146024820185612907565b60209150015190565b9091503d805f833e612ada818361271d565b81019060208183031261088e578051906001600160401b03821161088e570160808183031261088e5760405191608083016001600160401b038111848210176107c25760405281516001600160401b03811161088e5781612b3c918401612740565b83526020828101519084015260408201516001600160401b03811161088e5781612b67918401612740565b604084015260608201516001600160401b03811161088e57612b899201612740565b6060820152905f612a98565b905090565b9091506020813d602011612bc6575b81612bb66020938361271d565b8101031261088e5751905f612a54565b3d9150612ba9565b60088110156107405760018114612d095760028114612ce35760038114612cbd5760048114612c9a5760058114612c785760068114612c5357600714612c3057604051612c1c60408261271d565b60048152636e6f6e6560e01b602082015290565b604051612c3e60408261271d565b6005815264627974657360d81b602082015290565b50604051612c6260408261271d565b6006815265737472696e6760d01b602082015290565b50604051612c8760408261271d565b60038152621a5b9d60ea1b602082015290565b50604051612ca960408261271d565b60048152631d5a5b9d60e21b602082015290565b50604051612ccc60408261271d565b6007815266313cba32b9999960c91b602082015290565b50604051612cf260408261271d565b60078152666164647265737360c81b602082015290565b50604051612d1860408261271d565b6004815263189bdbdb60e21b602082015290565b51906001600160a01b038216820361088e5756fe60806040526004361015610011575f80fd5b5f3560e01c806307d79d9a1461148557806308f7b4b2146114295780631d7763231461133457806322dc48fd146112f5578063261a323e146112555780632b29c0fa146111975780632e3196a5146110f15780632ef8ba741461104b5780633f3a75881461100957806343d9eb7b14610fe657806343ec8b6a14610f525780634d85ce8014610ef657806359b3952614610e385780635eba0df014610de957806361141c9714610d8d5780636556095014610d31578063693ec85e14610c865780637b8fed8114610bc85780637df3ef1214610b79578063805da4ad14610b4f57806388c63d4514610a915780638a42ebe9146109eb5780638be199241461098f57806393dbe6e014610933578063a815ff1514610881578063b3a6400114610839578063ba0ff22c1461078e578063c91ca7ba146106d0578063cf1cfa9914610691578063cf72a2f314610635578063d6698dc414610571578063db0075df14610515578063de0fc9b314610457578063e298d00b146103fb578063e60532501461033d578063e942b5161461027f5763fa3c074a146101b0575f80fd5b34610268576040366003190112610268576004356001600160401b038111610268576101e090369060040161152f565b6024356001600160401b038111610268576101ff9036906004016117b0565b6040516303408e4760e41b8152916020836004815f5160206140ae5f395f51905f525afa8015610274575f9061023c575b61023a9350613843565b005b506020833d60201161026c575b81610256602093836114f3565b810103126102685761023a9251610230565b5f80fd5b3d9150610249565b6040513d5f823e3d90fd5b34610268576040366003190112610268576004356001600160401b038111610268576102af90369060040161152f565b6024356001600160401b038111610268576102ce90369060040161152f565b6040516303408e4760e41b8152916020836004815f5160206140ae5f395f51905f525afa8015610274575f90610309575b61023a93506128df565b506020833d602011610335575b81610323602093836114f3565b810103126102685761023a92516102ff565b3d9150610316565b34610268576040366003190112610268576004356001600160401b0381116102685761036d90369060040161152f565b6024356001600160401b0381116102685761038c90369060040161158a565b6040516303408e4760e41b8152916020836004815f5160206140ae5f395f51905f525afa8015610274575f906103c7575b61023a9350611ba9565b506020833d6020116103f3575b816103e1602093836114f3565b810103126102685761023a92516103bd565b3d91506103d4565b34610268576060366003190112610268576024356001600160401b0381116102685761042b90369060040161152f565b604435906001600160401b0382116102685761044e61023a9236906004016117b0565b90600435613843565b34610268576040366003190112610268576004356001600160401b0381116102685761048790369060040161152f565b6024356001600160401b038111610268576104a690369060040161158a565b6040516303408e4760e41b8152916020836004815f5160206140ae5f395f51905f525afa8015610274575f906104e1575b61023a9350612b5d565b506020833d60201161050d575b816104fb602093836114f3565b810103126102685761023a92516104d7565b3d91506104ee565b34610268576060366003190112610268576024356001600160401b0381116102685761054590369060040161152f565b604435906001600160401b0382116102685761056861023a92369060040161158a565b90600435613632565b34610268576020366003190112610268576004358015159081810361026857806105bb575b6105ac5760ff8019600554169116176005555f80f35b6305d79a4360e31b5f5260045ffd5b506040516364af255d60e01b81526004808201526020816024815f5160206140ae5f395f51905f525afa908115610274575f916105fa575b5015610596565b90506020813d60201161062d575b81610615602093836114f3565b810103126102685751801515810361026857826105f3565b3d9150610608565b34610268576060366003190112610268576024356001600160401b0381116102685761066590369060040161152f565b604435906001600160401b0382116102685761068861023a923690600401611676565b906004356133f5565b34610268576060366003190112610268576024356001600160401b038111610268576106c461023a91369060040161152f565b60443590600435613222565b34610268576040366003190112610268576004356001600160401b0381116102685761070090369060040161152f565b6024356001600160401b0381116102685761071f903690600401611676565b6040516303408e4760e41b8152916020836004815f5160206140ae5f395f51905f525afa8015610274575f9061075a575b61023a9350612dca565b506020833d602011610786575b81610774602093836114f3565b810103126102685761023a9251610750565b3d9150610767565b34610268576040366003190112610268576004356001600160401b038111610268576107be90369060040161152f565b6024358015158103610268576040516303408e4760e41b8152916020836004815f5160206140ae5f395f51905f525afa8015610274575f90610805575b61023a935061304f565b506020833d602011610831575b8161081f602093836114f3565b810103126102685761023a92516107fb565b3d9150610812565b34610268576060366003190112610268576024356001600160401b0381116102685761086990369060040161152f565b60443580151581036102685761023a9160043561304f565b34610268576040366003190112610268576004356001600160401b038111610268576108b190369060040161152f565b6024356001600160a01b0381168103610268576040516303408e4760e41b8152916020836004815f5160206140ae5f395f51905f525afa8015610274575f906108ff575b61023a935061249c565b506020833d60201161092b575b81610919602093836114f3565b810103126102685761023a92516108f5565b3d915061090c565b34610268576060366003190112610268576024356001600160401b0381116102685761096390369060040161152f565b604435906001600160401b0382116102685761098661023a923690600401611676565b90600435612dca565b34610268576060366003190112610268576024356001600160401b038111610268576109bf90369060040161152f565b604435906001600160401b038211610268576109e261023a92369060040161158a565b90600435612b5d565b34610268576040366003190112610268576004356001600160401b03811161026857610a1b90369060040161152f565b6040516303408e4760e41b8152906020826004815f5160206140ae5f395f51905f525afa908115610274575f91610a5b575b61023a925060243591611ee1565b90506020823d602011610a89575b81610a76602093836114f3565b810103126102685761023a915190610a4d565b3d9150610a69565b34610268576040366003190112610268576004356001600160401b03811161026857610ac190369060040161152f565b6024356001600160401b03811161026857610ae09036906004016116f4565b6040516303408e4760e41b8152916020836004815f5160206140ae5f395f51905f525afa8015610274575f90610b1b575b61023a9350612679565b506020833d602011610b47575b81610b35602093836114f3565b810103126102685761023a9251610b11565b3d9150610b28565b3461026857610b75610b69610b6336611620565b90612ada565b60405191829182611762565b0390f35b34610268576020366003190112610268576004355f526002602052610b75610bad610bb460405f2060405192838092611e60565b03826114f3565b604051918291602083526020830190611652565b34610268576040366003190112610268576004356001600160401b03811161026857610bf890369060040161152f565b6024356001600160401b03811161026857610c1790369060040161158a565b6040516303408e4760e41b8152916020836004815f5160206140ae5f395f51905f525afa8015610274575f90610c52575b61023a9350613632565b506020833d602011610c7e575b81610c6c602093836114f3565b810103126102685761023a9251610c48565b3d9150610c5f565b34610268576020366003190112610268576004356001600160401b03811161026857610cb690369060040161152f565b610cbe612a7e565b506040516303408e4760e41b81526020816004815f5160206140ae5f395f51905f525afa908115610274575f91610cfd575b610b75610b698484612ada565b90506020813d602011610d29575b81610d18602093836114f3565b810103126102685751610b75610cf0565b3d9150610d0b565b34610268576060366003190112610268576024356001600160401b03811161026857610d6190369060040161152f565b604435906001600160401b03821161026857610d8461023a92369060040161152f565b906004356128df565b34610268576060366003190112610268576024356001600160401b03811161026857610dbd90369060040161152f565b604435906001600160401b03821161026857610de061023a9236906004016116f4565b90600435612679565b34610268576060366003190112610268576024356001600160401b03811161026857610e1990369060040161152f565b6044356001600160a01b03811681036102685761023a9160043561249c565b34610268576040366003190112610268576004356001600160401b03811161026857610e6890369060040161152f565b6024356001600160401b03811161026857610e87903690600401611676565b6040516303408e4760e41b8152916020836004815f5160206140ae5f395f51905f525afa8015610274575f90610ec2575b61023a93506133f5565b506020833d602011610eee575b81610edc602093836114f3565b810103126102685761023a9251610eb8565b3d9150610ecf565b34610268576060366003190112610268576024356001600160401b03811161026857610f2690369060040161152f565b604435906001600160401b03821161026857610f4961023a92369060040161152f565b906004356122a1565b34610268575f366003190112610268576040516303408e4760e41b81526020816004815f5160206140ae5f395f51905f525afa908115610274575f91610fb4575b505f526002602052610b75610bad610bb460405f2060405192838092611e60565b90506020813d602011610fde575b81610fcf602093836114f3565b81010312610268575181610f93565b3d9150610fc2565b34610268576020610fff610ff936611620565b9061226d565b6040519015158152f35b34610268576020366003190112610268576004356001600160401b0381116102685761104361103e602092369060040161152f565b6120b0565b604051908152f35b34610268576040366003190112610268576004356001600160401b0381116102685761107b90369060040161152f565b6040516303408e4760e41b8152906020826004815f5160206140ae5f395f51905f525afa908115610274575f916110bb575b61023a9250602435916118ba565b90506020823d6020116110e9575b816110d6602093836114f3565b810103126102685761023a9151906110ad565b3d91506110c9565b34610268576040366003190112610268576004356001600160401b0381116102685761112190369060040161152f565b6040516303408e4760e41b8152906020826004815f5160206140ae5f395f51905f525afa908115610274575f91611161575b61023a925060243591613222565b90506020823d60201161118f575b8161117c602093836114f3565b810103126102685761023a915190611153565b3d915061116f565b34610268576040366003190112610268576004356001600160401b038111610268576111c790369060040161152f565b6024356001600160401b038111610268576111e690369060040161152f565b6040516303408e4760e41b8152916020836004815f5160206140ae5f395f51905f525afa8015610274575f90611221575b61023a93506122a1565b506020833d60201161124d575b8161123b602093836114f3565b810103126102685761023a9251611217565b3d915061122e565b34610268576020366003190112610268576004356001600160401b0381116102685761128590369060040161152f565b6040516303408e4760e41b81526020816004815f5160206140ae5f395f51905f525afa908115610274575f916112c2575b6020610fff848461226d565b90506020813d6020116112ed575b816112dd602093836114f3565b81010312610268575160206112b6565b3d91506112d0565b34610268576060366003190112610268576024356001600160401b0381116102685761132861023a91369060040161152f565b60443590600435611ee1565b34610268575f3660031901126102685760015461135081611573565b9061135e60405192836114f3565b8082526020820160015f527fb10e2d527612073b26eecdfd717e6a320cf44b4afac2b0732d9fcbe2b7fa0cf65f915b838310611404578451856113a082611573565b916113ae60405193846114f3565b8083526113bd601f1991611573565b013660208401375f5b81518110156113f657806113e56113df60019385611ad7565b516120b0565b6113ef8286611ad7565b52016113c6565b60405180610b7585826115e7565b60016020819260405161141b81610bad8189611e60565b81520192019201919061138d565b34610268576060366003190112610268576024356001600160401b0381116102685761145990369060040161152f565b604435906001600160401b0382116102685761147c61023a92369060040161158a565b90600435611ba9565b34610268576060366003190112610268576024356001600160401b038111610268576114b861023a91369060040161152f565b604435906004356118ba565b604081019081106001600160401b038211176114df57604052565b634e487b7160e01b5f52604160045260245ffd5b90601f801991011681019081106001600160401b038211176114df57604052565b6001600160401b0381116114df57601f01601f191660200190565b81601f820112156102685760208135910161154982611514565b9261155760405194856114f3565b8284528282011161026857815f92602092838601378301015290565b6001600160401b0381116114df5760051b60200190565b9080601f830112156102685781356115a181611573565b926115af60405194856114f3565b81845260208085019260051b82010192831161026857602001905b8282106115d75750505090565b81358152602091820191016115ca565b60206040818301928281528451809452019201905f5b81811061160a5750505090565b82518452602093840193909201916001016115fd565b9060406003198301126102685760043591602435906001600160401b0382116102685761164f9160040161152f565b90565b805180835260209291819084018484015e5f828201840152601f01601f1916010190565b9080601f8301121561026857813561168d81611573565b9261169b60405194856114f3565b81845260208085019260051b820101918383116102685760208201905b8382106116c757505050505090565b81356001600160401b038111610268576020916116e98784809488010161152f565b8152019101906116b8565b9080601f830112156102685781359061170c82611573565b9261171a60405194856114f3565b82845260208085019360051b82010191821161026857602001915b8183106117425750505090565b82356001600160a01b038116810361026857815260209283019201611735565b602081528151805190600882101561179c5761164f9360208092608094828701520151151560408501520151916060808201520190611652565b634e487b7160e01b5f52602160045260245ffd5b9080601f83011215610268578135906117c882611573565b926117d660405194856114f3565b82845260208085019360051b82010191821161026857602001915b8183106117fe5750505090565b82358015158103610268578152602092830192016117f1565b90600182811c92168015611845575b602083101461183157565b634e487b7160e01b5f52602260045260245ffd5b91607f1691611826565b81601f820112156102685780519061186682611514565b9261187460405194856114f3565b8284526020838301011161026857815f9260208093018386015e8301015290565b906020828203126102685781516001600160401b0381116102685761164f920161184f565b906040516118c7816114c4565b600581525f60208201526118dc818385613a97565b604051846020820152602081526118f46040826114f3565b835f52600360205260405f2060206040518092865180848901845e820190815203019020908051906001600160401b0382116114df5781906119368454611817565b601f8111611a68575b50602090601f8311600114611a05575f926119fa575b50508160011b915f199060031b1c19161790555b60ff6005541661197a575b50505050565b51600881101561179c5761198d90613c89565b60405193635191620760e11b855260048501525f846024815f5160206140ae5f395f51905f525afa928315610274576119cd945f946119d6575b50613d42565b5f808080611974565b6119f39194503d805f833e6119eb81836114f3565b810190611895565b925f6119c7565b015190505f80611955565b5f8581528281209350601f198516905b818110611a505750908460019594939210611a38575b505050811b019055611969565b01515f1960f88460031b161c191690555f8080611a2b565b92936020600181928786015181550195019301611a15565b909150835f5260205f20601f840160051c81019160208510611aae575b90601f859493920160051c01905b818110611aa0575061193f565b5f8155849350600101611a93565b9091508190611a85565b60405190611ac76040836114f3565b60018252605b60f81b6020830152565b8051821015611aeb5760209160051b010190565b634e487b7160e01b5f52603260045260245ffd5b611b3d906020808095946040519684889551918291018487015e8401908282015f8152815193849201905e01015f815203601f1981018452836114f3565b565b90611b3d6001602080946040519581879251918291018484015e8101600b60fa1b838201520301601e198101855201836114f3565b90611b3d6001602080946040519581879251918291018484015e8101605d60f81b838201520301601e198101855201836114f3565b60405190611bb6826114c4565b6003825260016020830152611bcc828483613a97565b604051604081016020808301528551809152816060810160208801925f5b818110611e47575050611c06925003601f1981018352826114f3565b815f52600360205260405f2060206040518092875180848a01845e820190815203019020908051906001600160401b0382116114df578190611c488454611817565b601f8111611df7575b50602090601f8311600114611d94575f92611d89575b50508160011b915f199060031b1c19161790555b60ff60055416611c8b5750505050565b611c989491929394611ab8565b925f935b8651851015611d5b57611caf8588611ad7565b519060405191631623433d60e31b835260048301525f826024815f5160206140ae5f395f51905f525afa91821561027457611cfb92611cf5915f91611d41575b50613eed565b90611aff565b9386515f198101908111611d2d578110611d19575b60010193611c9c565b93611d25600191611b3f565b949050611d10565b634e487b7160e01b5f52601160045260245ffd5b611d5591503d805f833e6119eb81836114f3565b5f611cef565b909350611d6b9194929550611b74565b915192600884101561179c57611d836119cd94613c89565b90613d42565b015190505f80611c67565b5f8581528281209350601f198516905b818110611ddf5750908460019594939210611dc7575b505050811b019055611c7b565b01515f1960f88460031b161c191690555f8080611dba565b92936020600181928786015181550195019301611da4565b909150835f5260205f20601f840160051c81019160208510611e3d575b90601f859493920160051c01905b818110611e2f5750611c51565b5f8155849350600101611e22565b9091508190611e14565b8451835260209485019486945090920191600101611bea565b5f9291815491611e6f83611817565b8083529260018116908115611ec45750600114611e8b57505050565b5f9081526020812093945091925b838310611eaa575060209250010190565b600181602092949394548385870101520191019190611e99565b915050602093945060ff929192191683830152151560051b010190565b90604051611eee816114c4565b600481525f6020820152611f03818385613a97565b60405184602082015260208152611f1b6040826114f3565b835f52600360205260405f2060206040518092865180848901845e820190815203019020908051906001600160401b0382116114df578190611f5d8454611817565b601f8111612060575b50602090601f8311600114611ffd575f92611ff2575b50508160011b915f199060031b1c19161790555b60ff60055416611fa05750505050565b51600881101561179c57611fb390613c89565b6040519363348051d760e11b855260048501525f846024815f5160206140ae5f395f51905f525afa928315610274576119cd945f946119d65750613d42565b015190505f80611f7c565b5f8581528281209350601f198516905b8181106120485750908460019594939210612030575b505050811b019055611f90565b01515f1960f88460031b161c191690555f8080612023565b9293602060018192878601518155019501930161200d565b909150835f5260205f20601f840160051c810191602085106120a6575b90601f859493920160051c01905b8181106120985750611f66565b5f815584935060010161208b565b909150819061207d565b60405163fa91454d60e01b815260206004820181905281806120d56024820186611652565b03815f5160206140ae5f395f51905f525afa5f9181612239575b506122345750604051634cc1c2bb60e01b8152602060048201525f81806121196024820186611652565b03815f5160206140ae5f395f51905f525afa5f9181612167575b5061215e576040516397aa94df60e01b8152602060048201528061215a6024820185611652565b0390fd5b60209150015190565b9091503d805f833e61217981836114f3565b810190602081830312610268578051906001600160401b03821161026857016080818303126102685760405191608083018381106001600160401b038211176114df5760405281516001600160401b03811161026857816121db91840161184f565b83526020820151602084015260408201516001600160401b038111610268578161220691840161184f565b604084015260608201516001600160401b03811161026857612228920161184f565b6060820152905f612133565b905090565b9091506020813d602011612265575b81612255602093836114f3565b810103126102685751905f6120ef565b3d9150612248565b602061229c9281925f526003825260405f20604051938285935191829101845e82019081520301902054611817565b151590565b906040516122ae816114c4565b600781525f60208201526122c3818385613a97565b6040516020808201526122eb816122dd6040820188611652565b03601f1981018352826114f3565b835f52600360205260405f2060206040518092865180848901845e820190815203019020908051906001600160401b0382116114df57819061232d8454611817565b601f811161244c575b50602090601f83116001146123e9575f926123de575b50508160011b915f199060031b1c19161790555b60ff600554166123705750505050565b5192600884101561179c575f6123886123ab95613c89565b91604051809681926371aad10d60e01b8352602060048401526024830190611652565b03815f5160206140ae5f395f51905f525afa938415610274576119cd946123d8915f91611d415750613eed565b92613d42565b015190505f8061234c565b5f8581528281209350601f198516905b818110612434575090846001959493921061241c575b505050811b019055612360565b01515f1960f88460031b161c191690555f808061240f565b929360206001819287860151815501950193016123f9565b909150835f5260205f20601f840160051c81019160208510612492575b90601f859493920160051c01905b8181106124845750612336565b5f8155849350600101612477565b9091508190612469565b906040516124a9816114c4565b600281525f60208201526124be818385613a97565b6040519360018060a01b031693846020820152602081526124e06040826114f3565b835f52600360205260405f2060206040518092865180848901845e820190815203019020908051906001600160401b0382116114df5781906125228454611817565b601f8111612629575b50602090601f83116001146125c6575f926125bb575b50508160011b915f199060031b1c19161790555b60ff600554166125655750505050565b51600881101561179c5761257890613c89565b60405193632b65311f60e11b855260048501525f846024815f5160206140ae5f395f51905f525afa938415610274576119cd946123d8915f91611d415750613eed565b015190505f80612541565b5f8581528281209350601f198516905b81811061261157509084600195949392106125f9575b505050811b019055612555565b01515f1960f88460031b161c191690555f80806125ec565b929360206001819287860151815501950193016125d6565b909150835f5260205f20601f840160051c8101916020851061266f575b90601f859493920160051c01905b818110612661575061252b565b5f8155849350600101612654565b9091508190612646565b60405190612686826114c4565b600282526001602083015261269c828483613a97565b604051604081016020808301528551809152816060810160208801925f5b8181106128bd5750506126d6925003601f1981018352826114f3565b815f52600360205260405f2060206040518092875180848a01845e820190815203019020908051906001600160401b0382116114df5781906127188454611817565b601f811161286d575b50602090601f831160011461280a575f926127ff575b50508160011b915f199060031b1c19161790555b60ff6005541661275b5750505050565b6127689491929394611ab8565b925f935b8651851015611d5b576001600160a01b036127878689611ad7565b51604051632b65311f60e11b815291166004820152905f826024815f5160206140ae5f395f51905f525afa918215610274576127cd92611cf5915f91611d415750613eed565b9386515f198101908111611d2d5781106127eb575b6001019361276c565b936127f7600191611b3f565b9490506127e2565b015190505f80612737565b5f8581528281209350601f198516905b818110612855575090846001959493921061283d575b505050811b01905561274b565b01515f1960f88460031b161c191690555f8080612830565b9293602060018192878601518155019501930161281a565b909150835f5260205f20601f840160051c810191602085106128b3575b90601f859493920160051c01905b8181106128a55750612721565b5f8155849350600101612898565b909150819061288a565b84516001600160a01b03168352602094850194869450909201916001016126ba565b906040516128ec816114c4565b600681525f6020820152612901818385613a97565b60405160208082015261291b816122dd6040820188611652565b835f52600360205260405f2060206040518092865180848901845e820190815203019020908051906001600160401b0382116114df57819061295d8454611817565b601f8111612a2e575b50602090601f83116001146129cb575f926129c0575b50508160011b915f199060031b1c19161790555b60ff600554166129a05750505050565b5192600884101561179c576123d86129ba6119cd95613c89565b91613eed565b015190505f8061297c565b5f8581528281209350601f198516905b818110612a1657509084600195949392106129fe575b505050811b019055612990565b01515f1960f88460031b161c191690555f80806129f1565b929360206001819287860151815501950193016129db565b909150835f5260205f20601f840160051c81019160208510612a74575b90601f859493920160051c01905b818110612a665750612966565b5f8155849350600101612a59565b9091508190612a4b565b60405190612a8b826114c4565b6060602083604051612a9c816114c4565b5f81525f8382015281520152565b90604051612ab7816114c4565b80925460ff8116600881101561179c5760209160ff91845260081c161515910152565b90612b55610bad91612aea612a7e565b50835f526004602052602060405f20916040518281835195828501968088845e820190815203019020955f526003825260405f20604051938492518091845e820190815203019020612b4760405194612b42866114c4565b612aaa565b845260405192838092611e60565b602082015290565b60405190612b6a826114c4565b6005825260016020830152612b80828483613a97565b604051604081016020808301528551809152816060810160208801925f5b818110612db1575050612bba925003601f1981018352826114f3565b815f52600360205260405f2060206040518092875180848a01845e820190815203019020908051906001600160401b0382116114df578190612bfc8454611817565b601f8111612d61575b50602090601f8311600114612cfe575f92612cf3575b50508160011b915f199060031b1c19161790555b60ff60055416612c3f5750505050565b612c4c9491929394611ab8565b925f935b8651851015611d5b57612c638588611ad7565b519060405191635191620760e11b835260048301525f826024815f5160206140ae5f395f51905f525afa90811561027457612ca5925f92612cd7575b50611aff565b9386515f198101908111611d2d578110612cc3575b60010193612c50565b93612ccf600191611b3f565b949050612cba565b612cec9192503d805f833e6119eb81836114f3565b905f612c9f565b015190505f80612c1b565b5f8581528281209350601f198516905b818110612d495750908460019594939210612d31575b505050811b019055612c2f565b01515f1960f88460031b161c191690555f8080612d24565b92936020600181928786015181550195019301612d0e565b909150835f5260205f20601f840160051c81019160208510612da7575b90601f859493920160051c01905b818110612d995750612c05565b5f8155849350600101612d8c565b9091508190612d7e565b8451835260209485019486945090920191600101612b9e565b60405190612dd7826114c4565b6007825260016020830152612ded828483613a97565b60405160408101602080830152855180915281606081019160608160051b8301019060208901935f905b82821061302257505050612e34925003601f1981018352826114f3565b815f52600360205260405f2060206040518092875180848a01845e820190815203019020908051906001600160401b0382116114df578190612e768454611817565b601f8111612fd2575b50602090601f8311600114612f6f575f92612f64575b50508160011b915f199060031b1c19161790555b60ff60055416612eb95750505050565b612ec69491929394611ab8565b925f935b8651851015611d5b57612f05905f612ee2878a611ad7565b51604051809481926371aad10d60e01b8352602060048401526024830190611652565b03815f5160206140ae5f395f51905f525afa91821561027457612f3292611cf5915f91611d415750613eed565b9386515f198101908111611d2d578110612f50575b60010193612eca565b93612f5c600191611b3f565b949050612f47565b015190505f80612e95565b5f8581528281209350601f198516905b818110612fba5750908460019594939210612fa2575b505050811b019055612ea9565b01515f1960f88460031b161c191690555f8080612f95565b92936020600181928786015181550195019301612f7f565b909150835f5260205f20601f840160051c81019160208510613018575b90601f859493920160051c01905b81811061300a5750612e7f565b5f8155849350600101612ffd565b9091508190612fef565b9193509160208061303f600193605f198a82030186528851611652565b9601920192018593919492612e17565b9060405161305c816114c4565b600181525f6020820152613071818385613a97565b604051931515938460208201526020815261308d6040826114f3565b835f52600360205260405f2060206040518092865180848901845e820190815203019020908051906001600160401b0382116114df5781906130cf8454611817565b601f81116131d2575b50602090601f831160011461316f575f92613164575b50508160011b915f199060031b1c19161790555b60ff600554166131125750505050565b51600881101561179c5761312590613c89565b604051936338ee73ed60e11b855260048501525f846024815f5160206140ae5f395f51905f525afa928315610274576119cd945f946119d65750613d42565b015190505f806130ee565b5f8581528281209350601f198516905b8181106131ba57509084600195949392106131a2575b505050811b019055613102565b01515f1960f88460031b161c191690555f8080613195565b9293602060018192878601518155019501930161317f565b909150835f5260205f20601f840160051c81019160208510613218575b90601f859493920160051c01905b81811061320a57506130d8565b5f81558493506001016131fd565b90915081906131ef565b9060405161322f816114c4565b600381525f6020820152613244818385613a97565b6040518460208201526020815261325c6040826114f3565b835f52600360205260405f2060206040518092865180848901845e820190815203019020908051906001600160401b0382116114df57819061329e8454611817565b601f81116133a5575b50602090601f8311600114613342575f92613337575b50508160011b915f199060031b1c19161790555b60ff600554166132e15750505050565b51600881101561179c576132f490613c89565b60405193631623433d60e31b855260048501525f846024815f5160206140ae5f395f51905f525afa938415610274576119cd946123d8915f91611d415750613eed565b015190505f806132bd565b5f8581528281209350601f198516905b81811061338d5750908460019594939210613375575b505050811b0190556132d1565b01515f1960f88460031b161c191690555f8080613368565b92936020600181928786015181550195019301613352565b909150835f5260205f20601f840160051c810191602085106133eb575b90601f859493920160051c01905b8181106133dd57506132a7565b5f81558493506001016133d0565b90915081906133c2565b60405190613402826114c4565b6006825260016020830152613418828483613a97565b60405160408101602080830152855180915281606081019160608160051b8301019060208901935f905b8282106136055750505061345f925003601f1981018352826114f3565b815f52600360205260405f2060206040518092875180848a01845e820190815203019020908051906001600160401b0382116114df5781906134a18454611817565b601f81116135b5575b50602090601f8311600114613552575f92613547575b50508160011b915f199060031b1c19161790555b60ff600554166134e45750505050565b6134f19491929394611ab8565b925f935b8651851015611d5b5761351590611cf561350f878a611ad7565b51613eed565b9386515f198101908111611d2d578110613533575b600101936134f5565b9361353f600191611b3f565b94905061352a565b015190505f806134c0565b5f8581528281209350601f198516905b81811061359d5750908460019594939210613585575b505050811b0190556134d4565b01515f1960f88460031b161c191690555f8080613578565b92936020600181928786015181550195019301613562565b909150835f5260205f20601f840160051c810191602085106135fb575b90601f859493920160051c01905b8181106135ed57506134aa565b5f81558493506001016135e0565b90915081906135d2565b91935091602080613622600193605f198a82030186528851611652565b9601920192018593919492613442565b6040519061363f826114c4565b6004825260016020830152613655828483613a97565b604051613669816122dd87602083016115e7565b815f52600360205260405f2060206040518092875180848a01845e820190815203019020908051906001600160401b0382116114df5781906136ab8454611817565b601f81116137f3575b50602090601f8311600114613790575f92613785575b50508160011b915f199060031b1c19161790555b60ff600554166136ee5750505050565b6136fb9491929394611ab8565b925f935b8651851015611d5b576137128588611ad7565b51906040519163348051d760e11b835260048301525f826024815f5160206140ae5f395f51905f525afa90811561027457613753925f92612cd75750611aff565b9386515f198101908111611d2d578110613771575b600101936136ff565b9361377d600191611b3f565b949050613768565b015190505f806136ca565b5f8581528281209350601f198516905b8181106137db57509084600195949392106137c3575b505050811b0190556136de565b01515f1960f88460031b161c191690555f80806137b6565b929360206001819287860151815501950193016137a0565b909150835f5260205f20601f840160051c81019160208510613839575b90601f859493920160051c01905b81811061382b57506136b4565b5f815584935060010161381e565b9091508190613810565b60405190613850826114c4565b6001825260016020830152613866828483613a97565b604051604081016020808301528551809152816060810160208801925f5b818110613a7c5750506138a0925003601f1981018352826114f3565b815f52600360205260405f2060206040518092875180848a01845e820190815203019020908051906001600160401b0382116114df5781906138e28454611817565b601f8111613a2c575b50602090601f83116001146139c9575f926139be575b50508160011b915f199060031b1c19161790555b60ff600554166139255750505050565b6139329491929394611ab8565b925f935b8651851015611d5b576139498588611ad7565b516040516338ee73ed60e11b81529015156004820152905f826024815f5160206140ae5f395f51905f525afa9081156102745761398c925f92612cd75750611aff565b9386515f198101908111611d2d5781106139aa575b60010193613936565b936139b6600191611b3f565b9490506139a1565b015190505f80613901565b5f8581528281209350601f198516905b818110613a1457509084600195949392106139fc575b505050811b019055613915565b01515f1960f88460031b161c191690555f80806139ef565b929360206001819287860151815501950193016139d9565b909150835f5260205f20601f840160051c81019160208510613a72575b90601f859493920160051c01905b818110613a6457506138eb565b5f8155849350600101613a57565b9091508190613a49565b84511515835260209485019486945090920191600101613884565b9190825f52600460205260405f2090613ac8604051602081845195828601968088845e820190815203019020612aaa565b938451600881101561179c57613b29576020929394505f526004825260405f20604051938492518091845e82019081520301902090805190600882101561179c5760ff61ff0060208554930151151560081b1692169061ffff191617179055565b5050508151600881101561179c57815190600882101561179c571480613b9f575b15613b53575050565b9061215a613b6c613b66613b8d94613fa6565b92613fa6565b60405193849363b02cf71d60e01b8552604060048601526044850190611652565b83810360031901602485015290611652565b50602082015115156020820151151514613b4a565b60405190613bc36040836114f3565b6004825263189bdbdb60e21b6020830152565b60405190613be56040836114f3565b60078252666164647265737360c81b6020830152565b60405190613c0a6040836114f3565b6007825266313cba32b9999960c91b6020830152565b60405190613c2f6040836114f3565b6006825265737472696e6760d01b6020830152565b60405190613c536040836114f3565b6005825264627974657360d81b6020830152565b60405190613c766040836114f3565b60048252636e6f6e6560e01b6020830152565b600881101561179c5760018114613d395760028114613d305760038114613d275760048114613d045760058114613ce25760068114613cd957600714613cd15761164f613c67565b61164f613c44565b5061164f613c20565b50604051613cf16040826114f3565b60038152621a5b9d60ea1b602082015290565b50604051613d136040826114f3565b60048152631d5a5b9d60e21b602082015290565b5061164f613bfb565b5061164f613bd6565b5061164f613bb4565b613db891600160208095602282613d598597613f44565b95604051998a9761121760f11b828a0152805191829101858a015e870190601760f91b84830152805192839101602383015e010190601760f91b84830152805192839101600283015e01015f838201520301601f1981018352826114f3565b5f5160206140ae5f395f51905f523b15610268576040516351ac6a3360e01b815260606004820152918290613df1906064830190611652565b8181036003190160248301525f80549091613e0b82611817565b8082529160018116908115613ec75750600114613e67575b5050613e3d82915f94600319848303016044850152611652565b0381835f5160206140ae5f395f51905f525af1801561027457613e5d5750565b5f611b3d916114f3565b5f8080527f290decd9548b62a8d60345a988386fc84ba6bc95484008f6362f93160ef3e563959350915b808310613ea9575091935001602001613e3d5f613e23565b93509193600181602092548385870101520191019093918593613e91565b60ff191660208381019190915292151560051b9091019091019150613e3d90505f613e23565b90611b3d60016021602094604051958691601160f91b828401528051918291018484015e8101601160f91b838201520301601e198101855201836114f3565b600154811015611aeb5760015f5260205f2001905f90565b905f600154905b818110613f655783631ff94f8360e11b5f5260045260245ffd5b83613f85610bad61103e613f7885613f2c565b5060405192838092611e60565b14613f9257600101613f4b565b610bad92935061164f9150613f7890613f2c565b8051600881101561179c57613fba9061401a565b90602081015115908115614007575b5015613fd25790565b61164f6002602080936040519481869251918291018484015e8101615b5d60f01b838201520301601d198101845201826114f3565b905051600881101561179c57155f613fc9565b600881101561179c5760018114613d395760028114613d305760038114613d27576004811461408757600581146140625760068114613cd957600714613cd15761164f613c67565b506040516140716040826114f3565b600681526534b73a191a9b60d11b602082015290565b506040516140966040826114f3565b60078152663ab4b73a191a9b60c91b60208201529056fe0000000000000000000000007109709ecfa91a80626ff3989d68f67f5b1dd12da264697066735822122036ad4cac8cd9a76a9ca5fd499ced6befcfd45026bdf701d785bd825bbd910ace64736f6c634300081b00330000000000000000000000007109709ecfa91a80626ff3989d68f67f5b1dd12d","linkReferences":{}},"methodIdentifiers":{"exists(string)":"261a323e","exists(uint256,string)":"43d9eb7b","get(string)":"693ec85e","get(uint256,string)":"805da4ad","getChainIds()":"1d776323","getRpcUrl()":"43ec8b6a","getRpcUrl(uint256)":"7df3ef12","resolveChainId(string)":"3f3a7588","set(string,address)":"a815ff15","set(string,address[])":"88c63d45","set(string,bool)":"ba0ff22c","set(string,bool[])":"fa3c074a","set(string,bytes)":"2b29c0fa","set(string,bytes32)":"2e3196a5","set(string,bytes32[])":"e6053250","set(string,bytes[])":"c91ca7ba","set(string,int256)":"2ef8ba74","set(string,int256[])":"de0fc9b3","set(string,string)":"e942b516","set(string,string[])":"59b39526","set(string,uint256)":"8a42ebe9","set(string,uint256[])":"7b8fed81","set(uint256,string,address)":"5eba0df0","set(uint256,string,address[])":"61141c97","set(uint256,string,bool)":"b3a64001","set(uint256,string,bool[])":"e298d00b","set(uint256,string,bytes)":"4d85ce80","set(uint256,string,bytes32)":"cf1cfa99","set(uint256,string,bytes32[])":"08f7b4b2","set(uint256,string,bytes[])":"93dbe6e0","set(uint256,string,int256)":"07d79d9a","set(uint256,string,int256[])":"8be19924","set(uint256,string,string)":"65560950","set(uint256,string,string[])":"cf72a2f3","set(uint256,string,uint256)":"22dc48fd","set(uint256,string,uint256[])":"db0075df","writeUpdatesBackToFile(bool)":"d6698dc4"},"id":11}