{"abi":[{"type":"function","name":"allowance","inputs":[{"name":"owner","type":"address","internalType":"address"},{"name":"spender","type":"address","internalType":"address"},{"name":"id","type":"uint256","internalType":"uint256"}],"outputs":[{"name":"","type":"uint256","internalType":"uint256"}],"stateMutability":"view"},{"type":"function","name":"approve","inputs":[{"name":"spender","type":"address","internalType":"address"},{"name":"id","type":"uint256","internalType":"uint256"},{"name":"amount","type":"uint256","internalType":"uint256"}],"outputs":[{"name":"","type":"bool","internalType":"bool"}],"stateMutability":"nonpayable"},{"type":"function","name":"balanceOf","inputs":[{"name":"owner","type":"address","internalType":"address"},{"name":"id","type":"uint256","internalType":"uint256"}],"outputs":[{"name":"","type":"uint256","internalType":"uint256"}],"stateMutability":"view"},{"type":"function","name":"contractURI","inputs":[],"outputs":[{"name":"","type":"string","internalType":"string"}],"stateMutability":"view"},{"type":"function","name":"isOperator","inputs":[{"name":"owner","type":"address","internalType":"address"},{"name":"spender","type":"address","internalType":"address"}],"outputs":[{"name":"","type":"bool","internalType":"bool"}],"stateMutability":"view"},{"type":"function","name":"setOperator","inputs":[{"name":"spender","type":"address","internalType":"address"},{"name":"approved","type":"bool","internalType":"bool"}],"outputs":[{"name":"","type":"bool","internalType":"bool"}],"stateMutability":"nonpayable"},{"type":"function","name":"supportsInterface","inputs":[{"name":"interfaceId","type":"bytes4","internalType":"bytes4"}],"outputs":[{"name":"","type":"bool","internalType":"bool"}],"stateMutability":"view"},{"type":"function","name":"tokenURI","inputs":[{"name":"id","type":"uint256","internalType":"uint256"}],"outputs":[{"name":"","type":"string","internalType":"string"}],"stateMutability":"view"},{"type":"function","name":"transfer","inputs":[{"name":"receiver","type":"address","internalType":"address"},{"name":"id","type":"uint256","internalType":"uint256"},{"name":"amount","type":"uint256","internalType":"uint256"}],"outputs":[{"name":"","type":"bool","internalType":"bool"}],"stateMutability":"nonpayable"},{"type":"function","name":"transferFrom","inputs":[{"name":"sender","type":"address","internalType":"address"},{"name":"receiver","type":"address","internalType":"address"},{"name":"id","type":"uint256","internalType":"uint256"},{"name":"amount","type":"uint256","internalType":"uint256"}],"outputs":[{"name":"","type":"bool","internalType":"bool"}],"stateMutability":"nonpayable"},{"type":"event","name":"Approval","inputs":[{"name":"owner","type":"address","indexed":true,"internalType":"address"},{"name":"spender","type":"address","indexed":true,"internalType":"address"},{"name":"id","type":"uint256","indexed":true,"internalType":"uint256"},{"name":"amount","type":"uint256","indexed":false,"internalType":"uint256"}],"anonymous":false},{"type":"event","name":"ContractURIUpdated","inputs":[],"anonymous":false},{"type":"event","name":"Initialized","inputs":[{"name":"version","type":"uint64","indexed":false,"internalType":"uint64"}],"anonymous":false},{"type":"event","name":"OperatorSet","inputs":[{"name":"owner","type":"address","indexed":true,"internalType":"address"},{"name":"spender","type":"address","indexed":true,"internalType":"address"},{"name":"approved","type":"bool","indexed":false,"internalType":"bool"}],"anonymous":false},{"type":"event","name":"Transfer","inputs":[{"name":"caller","type":"address","indexed":false,"internalType":"address"},{"name":"sender","type":"address","indexed":true,"internalType":"address"},{"name":"receiver","type":"address","indexed":true,"internalType":"address"},{"name":"id","type":"uint256","indexed":true,"internalType":"uint256"},{"name":"amount","type":"uint256","indexed":false,"internalType":"uint256"}],"anonymous":false},{"type":"event","name":"URI","inputs":[{"name":"value","type":"string","indexed":false,"internalType":"string"},{"name":"id","type":"uint256","indexed":true,"internalType":"uint256"}],"anonymous":false},{"type":"error","name":"ERC6909InsufficientAllowance","inputs":[{"name":"spender","type":"address","internalType":"address"},{"name":"allowance","type":"uint256","internalType":"uint256"},{"name":"needed","type":"uint256","internalType":"uint256"},{"name":"id","type":"uint256","internalType":"uint256"}]},{"type":"error","name":"ERC6909InsufficientBalance","inputs":[{"name":"sender","type":"address","internalType":"address"},{"name":"balance","type":"uint256","internalType":"uint256"},{"name":"needed","type":"uint256","internalType":"uint256"},{"name":"id","type":"uint256","internalType":"uint256"}]},{"type":"error","name":"ERC6909InvalidApprover","inputs":[{"name":"approver","type":"address","internalType":"address"}]},{"type":"error","name":"ERC6909InvalidReceiver","inputs":[{"name":"receiver","type":"address","internalType":"address"}]},{"type":"error","name":"ERC6909InvalidSender","inputs":[{"name":"sender","type":"address","internalType":"address"}]},{"type":"error","name":"ERC6909InvalidSpender","inputs":[{"name":"spender","type":"address","internalType":"address"}]},{"type":"error","name":"InvalidInitialization","inputs":[]},{"type":"error","name":"NotInitializing","inputs":[]}],"bytecode":{"object":"0x60808060405234601557610912908161001a8239f35b5f80fdfe60806040526004361015610011575f80fd5b5f3560e01c8062fdd58e1461060957806301ffc9a7146105b3578063095bcdb61461059b578063426a84931461051f578063558a729714610465578063598af9e71461042e578063b6363cf2146103e2578063c87b56dd146102dd578063e8a3d485146101845763fe99049a14610086575f80fd5b346101805760803660031901126101805761009f610658565b6100a761066e565b60643590604435906001600160a01b0384163314158061015d575b6100db575b6100d093610771565b602060405160018152f35b6100e6823386610748565b5f1981106100f5575b506100c7565b83811061012f5793836100d09561010b836106d8565b60018060a01b0333165f5260205260405f20855f526020520360405f2055936100ef565b604051632c51fead60e11b815233600482015260248101919091526044810193909352506064820152608490fd5b5061016784610710565b335f908152602091909152604090205460ff16156100c2565b5f80fd5b34610180575f366003190112610180576040515f7f2ada2772a8c4d40c4be8741992e423a9f97d5f4ef76852e5c17a40aa7fb9e500548060011c906001811680156102d3575b6020831081146102bf578285529081156102a3575060011461022f575b50819003601f01601f191681019067ffffffffffffffff82118183101761021b57610217829182604052826106ae565b0390f35b634e487b7160e01b5f52604160045260245ffd5b90507f2ada2772a8c4d40c4be8741992e423a9f97d5f4ef76852e5c17a40aa7fb9e5005f527f3c3e06d9bfc62150629755de01905146019fd001590851c8d68c1a72c76f81db5f905b82821061028d575060209150820101826101e7565b6001816020925483858801015201910190610278565b90506020925060ff191682840152151560051b820101826101e7565b634e487b7160e01b5f52602260045260245ffd5b91607f16916101ca565b34610180576020366003190112610180576004355f527f2ada2772a8c4d40c4be8741992e423a9f97d5f4ef76852e5c17a40aa7fb9e50160205260405f20604051905f908054908160011c916001811680156103d8575b6020841081146102bf578386529081156103ba5750600114610382575b5050819003601f01601f191681019067ffffffffffffffff82118183101761021b57610217829182604052826106ae565b9091505f5260205f205f905b8282106103a45750602091508201018280610351565b600181602092548385880101520191019061038e565b9150506020925060ff191682840152151560051b8201018280610351565b92607f1692610334565b34610180576040366003190112610180576103fb610658565b61040c61040661066e565b91610710565b9060018060a01b03165f52602052602060ff60405f2054166040519015158152f35b3461018057606036600319011261018057602061045d61044c610658565b61045461066e565b60443591610748565b604051908152f35b346101805760403660031901126101805761047e610658565b6024359081151580920361018057331561050c576001600160a01b03169081156104f9576104ab33610710565b825f5260205260405f2060ff1981541660ff83161790556040519081527fceb576d9f15e4e200fdb5096d64d5dfd667e16def20c1eefd14256d8e3faa26760203392a3602060405160018152f35b636f65f46560e01b5f525f60045260245ffd5b63198ecd5360e31b5f525f60045260245ffd5b346101805761052d36610684565b9091331561050c576001600160a01b03169081156104f95761054e336106d8565b825f5260205260405f20835f526020528060405f20556040519081527fb3fd5071835887567a0671151121894ddccc2842f1d10bedad13e0d17cace9a760203392a4602060405160018152f35b34610180576100d06105ac36610684565b9133610771565b346101805760203660031901126101805760043563ffffffff60e01b811680910361018057602090630f632fb360e01b81149081156105f8575b506040519015158152f35b6301ffc9a760e01b149050826105ed565b3461018057604036600319011261018057610622610658565b60018060a01b03165f525f5160206108bd5f395f51905f5260205260405f206024355f52602052602060405f2054604051908152f35b600435906001600160a01b038216820361018057565b602435906001600160a01b038216820361018057565b6060906003190112610180576004356001600160a01b038116810361018057906024359060443590565b602060409281835280519182918282860152018484015e5f828201840152601f01601f1916010190565b6001600160a01b03165f9081527f9e75074fe7582401cc58901f6bda367c4d687c51437956963a7c06ef5cfaf9026020526040902090565b6001600160a01b03165f9081527f9e75074fe7582401cc58901f6bda367c4d687c51437956963a7c06ef5cfaf9016020526040902090565b610751906106d8565b9060018060a01b03165f5260205260405f20905f5260205260405f205490565b91926001600160a01b0383169182156108a9576001600160a01b031692831561089657825f525f5160206108bd5f395f51905f5260205260405f20855f5260205260405f20549082821061085d57508190835f525f5160206108bd5f395f51905f5260205260405f20865f526020520360405f2055825f525f5160206108bd5f395f51905f5260205260405f20845f5260205260405f20805491808301809311610849577f1b3d7edb2e9c0b0e7c525b20aaaef0f5940d2ed71663c7d39266ecafac72885992604092558151903382526020820152a4565b634e487b7160e01b5f52601160045260245ffd5b6040516302c6d3fb60e61b81526001600160a01b0391909116600482015260248101919091526044810182905260648101859052608490fd5b630b8bbd6160e41b5f525f60045260245ffd5b6301486a4160e71b5f525f60045260245ffdfe9e75074fe7582401cc58901f6bda367c4d687c51437956963a7c06ef5cfaf900a264697066735822122071d59bed895fd98e19ec743aa7c1a587e7fcd158b5802f3a6559b61a70f4fa9564736f6c634300081b0033","linkReferences":{}},"methodIdentifiers":{"allowance(address,address,uint256)":"598af9e7","approve(address,uint256,uint256)":"426a8493","balanceOf(address,uint256)":"00fdd58e","contractURI()":"e8a3d485","isOperator(address,address)":"b6363cf2","setOperator(address,bool)":"558a7297","supportsInterface(bytes4)":"01ffc9a7","tokenURI(uint256)":"c87b56dd","transfer(address,uint256,uint256)":"095bcdb6","transferFrom(address,address,uint256,uint256)":"fe99049a"},"id":89}