{"abi":[{"type":"constructor","inputs":[],"stateMutability":"nonpayable"},{"type":"receive","stateMutability":"payable"},{"type":"function","name":"MAX_OPPORTUNITY_DURATION","inputs":[],"outputs":[{"name":"","type":"uint256","internalType":"uint256"}],"stateMutability":"view"},{"type":"function","name":"MAX_PLATFORM_FEE","inputs":[],"outputs":[{"name":"","type":"uint256","internalType":"uint256"}],"stateMutability":"view"},{"type":"function","name":"MIN_OPPORTUNITY_DURATION","inputs":[],"outputs":[{"name":"","type":"uint256","internalType":"uint256"}],"stateMutability":"view"},{"type":"function","name":"PRECISION","inputs":[],"outputs":[{"name":"","type":"uint256","internalType":"uint256"}],"stateMutability":"view"},{"type":"function","name":"UPGRADE_INTERFACE_VERSION","inputs":[],"outputs":[{"name":"","type":"string","internalType":"string"}],"stateMutability":"view"},{"type":"function","name":"acceptApplication","inputs":[{"name":"opportunityId","type":"uint256","internalType":"uint256"},{"name":"personaId","type":"uint256","internalType":"uint256"}],"outputs":[],"stateMutability":"nonpayable"},{"type":"function","name":"applyToOpportunity","inputs":[{"name":"opportunityId","type":"uint256","internalType":"uint256"},{"name":"personaId","type":"uint256","internalType":"uint256"},{"name":"pitch","type":"string","internalType":"string"}],"outputs":[],"stateMutability":"nonpayable"},{"type":"function","name":"cancelOpportunity","inputs":[{"name":"opportunityId","type":"uint256","internalType":"uint256"}],"outputs":[],"stateMutability":"nonpayable"},{"type":"function","name":"completeDeal","inputs":[{"name":"opportunityId","type":"uint256","internalType":"uint256"}],"outputs":[],"stateMutability":"nonpayable"},{"type":"function","name":"createOpportunity","inputs":[{"name":"title","type":"string","internalType":"string"},{"name":"description","type":"string","internalType":"string"},{"name":"category","type":"string","internalType":"string"},{"name":"requiredProfessionId","type":"uint256","internalType":"uint256"},{"name":"requiredLevel","type":"uint8","internalType":"uint8"},{"name":"reward","type":"uint256","internalType":"uint256"},{"name":"paymentToken","type":"address","internalType":"address"},{"name":"duration","type":"uint256","internalType":"uint256"}],"outputs":[{"name":"opportunityId","type":"uint256","internalType":"uint256"}],"stateMutability":"payable"},{"type":"function","name":"feeRecipient","inputs":[],"outputs":[{"name":"","type":"address","internalType":"address"}],"stateMutability":"view"},{"type":"function","name":"getApplications","inputs":[{"name":"opportunityId","type":"uint256","internalType":"uint256"}],"outputs":[{"name":"","type":"tuple[]","internalType":"struct BrandMarketplace.Application[]","components":[{"name":"opportunityId","type":"uint256","internalType":"uint256"},{"name":"personaId","type":"uint256","internalType":"uint256"},{"name":"applicant","type":"address","internalType":"address"},{"name":"pitch","type":"string","internalType":"string"},{"name":"appliedAt","type":"uint256","internalType":"uint256"},{"name":"status","type":"uint8","internalType":"enum BrandMarketplace.ApplicationStatus"},{"name":"exists","type":"bool","internalType":"bool"}]}],"stateMutability":"view"},{"type":"function","name":"getBrandOpportunities","inputs":[{"name":"brand","type":"address","internalType":"address"}],"outputs":[{"name":"","type":"uint256[]","internalType":"uint256[]"}],"stateMutability":"view"},{"type":"function","name":"getBrandProfile","inputs":[{"name":"brand","type":"address","internalType":"address"}],"outputs":[{"name":"","type":"tuple","internalType":"struct BrandMarketplace.BrandProfile","components":[{"name":"name","type":"string","internalType":"string"},{"name":"category","type":"string","internalType":"string"},{"name":"logoUri","type":"string","internalType":"string"},{"name":"totalDeals","type":"uint256","internalType":"uint256"},{"name":"totalSpent","type":"uint256","internalType":"uint256"},{"name":"verified","type":"bool","internalType":"bool"},{"name":"exists","type":"bool","internalType":"bool"}]}],"stateMutability":"view"},{"type":"function","name":"getEscrowBalance","inputs":[{"name":"opportunityId","type":"uint256","internalType":"uint256"}],"outputs":[{"name":"","type":"uint256","internalType":"uint256"}],"stateMutability":"view"},{"type":"function","name":"getOpportunity","inputs":[{"name":"opportunityId","type":"uint256","internalType":"uint256"}],"outputs":[{"name":"","type":"tuple","internalType":"struct BrandMarketplace.Opportunity","components":[{"name":"id","type":"uint256","internalType":"uint256"},{"name":"brand","type":"address","internalType":"address"},{"name":"title","type":"string","internalType":"string"},{"name":"description","type":"string","internalType":"string"},{"name":"category","type":"string","internalType":"string"},{"name":"requiredProfessionId","type":"uint256","internalType":"uint256"},{"name":"requiredLevel","type":"uint8","internalType":"uint8"},{"name":"reward","type":"uint256","internalType":"uint256"},{"name":"paymentToken","type":"address","internalType":"address"},{"name":"deadline","type":"uint256","internalType":"uint256"},{"name":"createdAt","type":"uint256","internalType":"uint256"},{"name":"status","type":"uint8","internalType":"enum BrandMarketplace.OpportunityStatus"},{"name":"selectedPersonaId","type":"uint256","internalType":"uint256"},{"name":"exists","type":"bool","internalType":"bool"}]}],"stateMutability":"view"},{"type":"function","name":"getRevenueMetrics","inputs":[],"outputs":[{"name":"platformRevenue","type":"uint256","internalType":"uint256"},{"name":"creatorPayouts","type":"uint256","internalType":"uint256"},{"name":"dealsCompleted","type":"uint256","internalType":"uint256"},{"name":"currentFeeRate","type":"uint256","internalType":"uint256"}],"stateMutability":"view"},{"type":"function","name":"initialize","inputs":[{"name":"owner_","type":"address","internalType":"address"},{"name":"personaRegistry_","type":"address","internalType":"address"},{"name":"professionRegistry_","type":"address","internalType":"address"},{"name":"feeRecipient_","type":"address","internalType":"address"},{"name":"platformFee_","type":"uint256","internalType":"uint256"}],"outputs":[],"stateMutability":"nonpayable"},{"type":"function","name":"owner","inputs":[],"outputs":[{"name":"","type":"address","internalType":"address"}],"stateMutability":"view"},{"type":"function","name":"personaRegistry","inputs":[],"outputs":[{"name":"","type":"address","internalType":"contract IPersonaRegistry"}],"stateMutability":"view"},{"type":"function","name":"platformFee","inputs":[],"outputs":[{"name":"","type":"uint256","internalType":"uint256"}],"stateMutability":"view"},{"type":"function","name":"professionRegistry","inputs":[],"outputs":[{"name":"","type":"address","internalType":"contract IProfessionRegistry"}],"stateMutability":"view"},{"type":"function","name":"proxiableUUID","inputs":[],"outputs":[{"name":"","type":"bytes32","internalType":"bytes32"}],"stateMutability":"view"},{"type":"function","name":"renounceOwnership","inputs":[],"outputs":[],"stateMutability":"nonpayable"},{"type":"function","name":"setFeeRecipient","inputs":[{"name":"newRecipient","type":"address","internalType":"address"}],"outputs":[],"stateMutability":"nonpayable"},{"type":"function","name":"setPlatformFee","inputs":[{"name":"newFee","type":"uint256","internalType":"uint256"}],"outputs":[],"stateMutability":"nonpayable"},{"type":"function","name":"totalCreatorPayouts","inputs":[],"outputs":[{"name":"","type":"uint256","internalType":"uint256"}],"stateMutability":"view"},{"type":"function","name":"totalDealsCompleted","inputs":[],"outputs":[{"name":"","type":"uint256","internalType":"uint256"}],"stateMutability":"view"},{"type":"function","name":"totalPlatformRevenue","inputs":[],"outputs":[{"name":"","type":"uint256","internalType":"uint256"}],"stateMutability":"view"},{"type":"function","name":"transferOwnership","inputs":[{"name":"newOwner","type":"address","internalType":"address"}],"outputs":[],"stateMutability":"nonpayable"},{"type":"function","name":"updateBrandProfile","inputs":[{"name":"brand","type":"address","internalType":"address"},{"name":"name","type":"string","internalType":"string"},{"name":"logoUri","type":"string","internalType":"string"},{"name":"verified","type":"bool","internalType":"bool"}],"outputs":[],"stateMutability":"nonpayable"},{"type":"function","name":"upgradeToAndCall","inputs":[{"name":"newImplementation","type":"address","internalType":"address"},{"name":"data","type":"bytes","internalType":"bytes"}],"outputs":[],"stateMutability":"payable"},{"type":"event","name":"ApplicationAccepted","inputs":[{"name":"opportunityId","type":"uint256","indexed":true,"internalType":"uint256"},{"name":"personaId","type":"uint256","indexed":true,"internalType":"uint256"}],"anonymous":false},{"type":"event","name":"ApplicationSubmitted","inputs":[{"name":"opportunityId","type":"uint256","indexed":true,"internalType":"uint256"},{"name":"personaId","type":"uint256","indexed":true,"internalType":"uint256"},{"name":"applicant","type":"address","indexed":false,"internalType":"address"}],"anonymous":false},{"type":"event","name":"BrandProfileUpdated","inputs":[{"name":"brand","type":"address","indexed":true,"internalType":"address"},{"name":"name","type":"string","indexed":false,"internalType":"string"}],"anonymous":false},{"type":"event","name":"DealCompleted","inputs":[{"name":"opportunityId","type":"uint256","indexed":true,"internalType":"uint256"},{"name":"personaId","type":"uint256","indexed":true,"internalType":"uint256"},{"name":"creatorPayout","type":"uint256","indexed":false,"internalType":"uint256"},{"name":"platformFeeAmount","type":"uint256","indexed":false,"internalType":"uint256"}],"anonymous":false},{"type":"event","name":"DisputeRaised","inputs":[{"name":"opportunityId","type":"uint256","indexed":true,"internalType":"uint256"},{"name":"raisedBy","type":"address","indexed":true,"internalType":"address"}],"anonymous":false},{"type":"event","name":"Initialized","inputs":[{"name":"version","type":"uint64","indexed":false,"internalType":"uint64"}],"anonymous":false},{"type":"event","name":"OpportunityCancelled","inputs":[{"name":"opportunityId","type":"uint256","indexed":true,"internalType":"uint256"}],"anonymous":false},{"type":"event","name":"OpportunityCreated","inputs":[{"name":"opportunityId","type":"uint256","indexed":true,"internalType":"uint256"},{"name":"brand","type":"address","indexed":true,"internalType":"address"},{"name":"requiredProfessionId","type":"uint256","indexed":false,"internalType":"uint256"},{"name":"requiredLevel","type":"uint8","indexed":false,"internalType":"uint8"},{"name":"reward","type":"uint256","indexed":false,"internalType":"uint256"}],"anonymous":false},{"type":"event","name":"OwnershipTransferred","inputs":[{"name":"previousOwner","type":"address","indexed":true,"internalType":"address"},{"name":"newOwner","type":"address","indexed":true,"internalType":"address"}],"anonymous":false},{"type":"event","name":"Upgraded","inputs":[{"name":"implementation","type":"address","indexed":true,"internalType":"address"}],"anonymous":false},{"type":"error","name":"AddressEmptyCode","inputs":[{"name":"target","type":"address","internalType":"address"}]},{"type":"error","name":"AlreadyApplied","inputs":[{"name":"opportunityId","type":"uint256","internalType":"uint256"},{"name":"personaId","type":"uint256","internalType":"uint256"}]},{"type":"error","name":"AlreadyCompleted","inputs":[]},{"type":"error","name":"ApplicationNotFound","inputs":[{"name":"opportunityId","type":"uint256","internalType":"uint256"},{"name":"personaId","type":"uint256","internalType":"uint256"}]},{"type":"error","name":"ERC1967InvalidImplementation","inputs":[{"name":"implementation","type":"address","internalType":"address"}]},{"type":"error","name":"ERC1967NonPayable","inputs":[]},{"type":"error","name":"FailedCall","inputs":[]},{"type":"error","name":"InsufficientLevel","inputs":[{"name":"personaId","type":"uint256","internalType":"uint256"},{"name":"required","type":"uint8","internalType":"uint8"},{"name":"actual","type":"uint8","internalType":"uint8"}]},{"type":"error","name":"InsufficientPayment","inputs":[{"name":"required","type":"uint256","internalType":"uint256"},{"name":"provided","type":"uint256","internalType":"uint256"}]},{"type":"error","name":"InvalidDeadline","inputs":[]},{"type":"error","name":"InvalidFee","inputs":[]},{"type":"error","name":"InvalidInitialization","inputs":[]},{"type":"error","name":"NotBrandOwner","inputs":[{"name":"opportunityId","type":"uint256","internalType":"uint256"}]},{"type":"error","name":"NotFilled","inputs":[]},{"type":"error","name":"NotInitializing","inputs":[]},{"type":"error","name":"NotPersonaOwner","inputs":[{"name":"personaId","type":"uint256","internalType":"uint256"}]},{"type":"error","name":"OpportunityDoesNotExist","inputs":[{"name":"opportunityId","type":"uint256","internalType":"uint256"}]},{"type":"error","name":"OpportunityExpired","inputs":[]},{"type":"error","name":"OpportunityNotOpen","inputs":[{"name":"opportunityId","type":"uint256","internalType":"uint256"}]},{"type":"error","name":"OwnableInvalidOwner","inputs":[{"name":"owner","type":"address","internalType":"address"}]},{"type":"error","name":"OwnableUnauthorizedAccount","inputs":[{"name":"account","type":"address","internalType":"address"}]},{"type":"error","name":"ReentrancyGuardReentrantCall","inputs":[]},{"type":"error","name":"SafeERC20FailedOperation","inputs":[{"name":"token","type":"address","internalType":"address"}]},{"type":"error","name":"TransferFailed","inputs":[]},{"type":"error","name":"UUPSUnauthorizedCallContext","inputs":[]},{"type":"error","name":"UUPSUnsupportedProxiableUUID","inputs":[{"name":"slot","type":"bytes32","internalType":"bytes32"}]},{"type":"error","name":"ZeroAddress","inputs":[]}],"bytecode":{"object":"0x60a080604052346100e65760017f9b779b17422d0df92223018b32b4d1fa46e071723d6817e2486d003becc55f0055306080525f516020612cd75f395f51905f525460ff8160401c166100d7576002600160401b03196001600160401b03821601610084575b604051612bec90816100eb8239608051818181611c3f0152611ce20152f35b6001600160401b0319166001600160401b039081175f516020612cd75f395f51905f525581527fc7f505b2f371ae2175ee4913f4499e1f2633a7b5936321eed1cdaeb6115181d290602090a15f80610065565b63f92ee8a960e01b5f5260045ffd5b5f80fdfe608080604052600436101561001c575b50361561001a575f80fd5b005b5f3560e01c908162d54fa5146125205750806312e8e2c3146124f65780631f1e9cae146124d957806320cfa53e1461239157806326232a2e1461237457806338ea4759146123565780633998a6811461233a578063426c413b14611e865780634690484014611e5e5780634f1ef28614611c9357806352d1902d14611c2d578063715018a614611bc657806372a8841214611a975780637ae61b1414611a7a57806383dbb7aa14611a5357806383f67f6e146118ed5780638da5cb5b146118b9578063912b8b3c1461189c5780639ce3905914611645578063a162a8691461161d578063a5c70a7014610ce4578063aaf5eb6814610cc8578063ad3cb1cc14610c7d578063bc8c937d14610ae3578063dec3456b146107fa578063e735d4cc14610524578063e74b981b146104dd578063e9c18fb814610429578063f213edb91461040c578063f2fde38b146103e8578063f7013ef6146101b55763fce6090314610187575f61000f565b346101b15760203660031901126101b1576004355f52600d602052602060405f2054604051908152f35b5f80fd5b346101b15760a03660031901126101b1576101ce612554565b6024356001600160a01b038116908190036101b1576044356001600160a01b038116908190036101b1576064356001600160a01b03811691908290036101b157608435925f516020612b975f395f51905f52549460ff8660401c1615956001600160401b038116801590816103e0575b60011490816103d6575b1590816103cd575b506103be5767ffffffffffffffff1981166001175f516020612b975f395f51905f525586610392575b506001600160a01b03811615801561038a575b8015610382575b801561037a575b61036b576107d0851161035c576102c0906102b3612a7f565b6102bb612a7f565b61292b565b6001600160601b0360a01b5f5416175f556001600160601b0360a01b60015416176001556001600160601b0360a01b6004541617600455600355600160025561030557005b68ff0000000000000000195f516020612b975f395f51905f5254165f516020612b975f395f51905f52557fc7f505b2f371ae2175ee4913f4499e1f2633a7b5936321eed1cdaeb6115181d2602060405160018152a1005b6358d620b360e01b5f5260045ffd5b63d92e233d60e01b5f5260045ffd5b50831561029a565b508215610293565b50811561028c565b68ffffffffffffffffff191668010000000000000001175f516020612b975f395f51905f525586610279565b63f92ee8a960e01b5f5260045ffd5b90501588610250565b303b159150610248565b88915061023e565b346101b15760203660031901126101b15761001a610404612554565b6102bb61299c565b346101b1575f3660031901126101b1576020600554604051908152f35b346101b15760203660031901126101b1576001600160a01b0361044a612554565b165f52600c60205260405f20604051806020835491828152019081935f5260205f20905f5b8181106104c757505050816104859103826125f2565b604051918291602083019060208452518091526040830191905f5b8181106104ae575050500390f35b82518452859450602093840193909201916001016104a0565b825484526020909301926001928301920161046f565b346101b15760203660031901126101b1576104f6612554565b6104fe61299c565b6001600160a01b0316801561036b576001600160601b0360a01b60045416176004555f80f35b346101b15760803660031901126101b15761053d612554565b6024356001600160401b0381116101b15761055c90369060040161258e565b6044356001600160401b0381116101b15761057b90369060040161258e565b9290936064359081151582036101b15761059361299c565b6001600160a01b03165f818152600b6020526040902090946001600160401b038511610778576105cd856105c78454612664565b84612885565b5f85601f811160011461079757806105f9925f9161078c575b508160011b915f199060031b1c19161790565b82555b60028201906001600160401b0381116107785761061d816105c78454612664565b5f601f82116001146106e7579261068f926106788360059460409998977f2eaa581ebe77a644ed0a2313c581c483f8a8e797429fac00df30e2511b4b8eda9c9d5f926106dc575b50508160011b915f199060031b1c19161790565b90555b0191829060ff801983541691151516179055565b805460ff8160081c16156106ca575b505082825193849260208452816020850152848401375f828201840152601f01601f19168101030190a2005b61ff001916610100179055858061069e565b013590508d80610664565b601f19821690835f5260205f20915f5b8181106107605750836040989796937f2eaa581ebe77a644ed0a2313c581c483f8a8e797429fac00df30e2511b4b8eda9b9c61068f979460059760019510610747575b505050811b01905561067b565b01355f19600384901b60f8161c191690558c808061073a565b9192602060018192868f0135815501940192016106f7565b634e487b7160e01b5f52604160045260245ffd5b90508601358a6105e6565b50601f19861690835f528660205f20925f5b8181106107df5750106107c6575b5050600185811b0182556105fc565b8501355f19600388901b60f8161c1916905587806107b7565b8884013585556001909401936020938401938a9350016107a9565b346101b15760203660031901126101b1576004356108166129cf565b805f52600860205260405f209060ff600d8301541615610ad1576001820180546001600160a01b03163303610abe57600b830160ff8154166005811015610aaa57600103610a9b57805460ff191660021790555f828152600d6020526040812080549190556003549093908085029085158683049091141715610a87576127106108a29104809561291e565b60018060a01b035f5416600c8301905f82546024604051809481936314f9dc8b60e01b835260048301525afa908115610a7c575f91610a5a575b50602001516008840180546001600160a01b03928316928992911680610a08575050505f80808581945af161090f6128d4565b50156109f9575f8080808960018060a01b03600454165af161092f6128d4565b50156109f9577f7786e4328630f61ee97ed12ef4f313661cd4ef470854e3477f2df398f2cc8a549360076040945b61096989600554612911565b60055561097885600654612911565b6006556109858254612903565b825582546001600160a01b03165f908152600b60205286902060030180546109ac90612903565b9055015490546001600160a01b03165f908152600b602052849020600401805490916109d791612911565b9055549482519182526020820152a360015f516020612b775f395f51905f5255005b6312171d8360e31b5f5260045ffd5b60079260409792610a3f887f7786e4328630f61ee97ed12ef4f313661cd4ef470854e3477f2df398f2cc8a549b97610a5595612a07565b546004546001600160a01b039081169116612a07565b61095d565b610a7691503d805f833e610a6e81836125f2565b81019061278f565b876108dc565b6040513d5f823e3d90fd5b634e487b7160e01b5f52601160045260245ffd5b6306cb6fbf60e41b5f5260045ffd5b634e487b7160e01b5f52602160045260245ffd5b50635d3cde5960e01b5f5260045260245ffd5b630f129cad60e21b5f5260045260245ffd5b346101b15760203660031901126101b1576004355f52600960205260405f2080546001600160401b0381116107785760405190610b2660208260051b01836125f2565b808252602082019081935f5260205f205f925b828410610bf85784866040519060208201926020835251809352604082019260408160051b84010191935f5b828110610b725784840385f35b909192603f198582030183528551805182526020810151602083015260018060a01b036040820151166040830152610bb9606082015160e0606085015260e084019061256a565b6080820151608084015260a0820151906004821015610aaa578360c080602095869560a060019901520151151591015297019301910194929194610b65565b60405190610c05826125bb565b825482526001830154602083015260028301546001600160a01b03166040830152610c326003840161269c565b606083015260048301546080830152600583015460ff8116916004831015610aaa578360ff60209360069560a0600198015260081c16151560c0820152815201920193019290610b39565b346101b1575f3660031901126101b157610cc4604051610c9e6040826125f2565b60058152640352e302e360dc1b602082015260405191829160208352602083019061256a565b0390f35b346101b1575f3660031901126101b15760206040516127108152f35b6101003660031901126101b1576004356001600160401b0381116101b157610d1090369060040161258e565b906024356001600160401b0381116101b157610d3090369060040161258e565b6044939193356001600160401b0381116101b157610d5290369060040161258e565b606492919235926084359260ff84168094036101b15760a4359660c4356001600160a01b03811697908890036101b15760e435610d8d6129cf565b6201518081108015611610575b611601578815988915611583578a341061156c57610dce9b5b610e006002549d8e94610dc586612903565b60025542612911565b91610df160405197610ddf896125d6565b8689526020890197338952369161262e565b9760408801988952369161262e565b91606086019283528c610e14368b8b61262e565b6080880190815260a088018d815260c08901918d835260e08a019384526101008a019485526101208a019586526101408a01964288526101608b019b5f8d526101808c019a5f8c526101a08d019a60018c525f52600860205260405f209c518d5560018060a01b0390511660018d019060018060a01b03166001600160601b0360a01b82541617905560028c0190518051906001600160401b03821161077857610ec882610ec28554612664565b85612885565b602090601f831160011461150957610ef692915f91836112eb5750508160011b915f199060031b1c19161790565b90555b51805160038c01916001600160401b03821161077857610f1d82610ec28554612664565b602090601f83116001146114a657610f4b92915f91836112eb5750508160011b915f199060031b1c19161790565b90555b51805160048b01916001600160401b03821161077857610f7282610ec28554612664565b602090601f831160011461144357610fa092915f91836112eb5750508160011b915f199060031b1c19161790565b90555b51600589015560ff6006890191511660ff1982541617905551600787015560018060a01b03905116600886019060018060a01b03166001600160601b0360a01b82541617905551600985015551600a840155600b83019351916005831015610aaa5761103494600d9360ff8019835416911617905551600c84015551151591019060ff801983541691151516179055565b865f52600d6020528560405f2055335f52600c60205260405f208054600160401b811015610778576001810180835581101561142f5788915f5260205f200155335f52600b60205260ff600560405f20015460081c161561111f575b50506040519182526020820152826040820152837fd4463874ed379ec44311194f2ba7b8b8221d7f71719139395f66b3c60f32a7f360603393a380611116575b6110f1575b60208260015f516020612b775f395f51905f5255604051908152f35b5f80806110ff81943461291e565b335af161110a6128d4565b50156109f957816110d5565b508034116110d0565b61114b6040519161112f836125bb565b60209360405161113f86826125f2565b5f81528452369161262e565b9082810191825260405161115f84826125f2565b5f815260408201908152606082015f815260808301915f835260a08401955f875260c085019560018752335f52600b825260405f2095518051906001600160401b038211610778576111bb826111b58a54612664565b8a612885565b8390601f83116001146113cc576111e892915f91836112eb5750508160011b915f199060031b1c19161790565b86555b51805160018701916001600160401b0382116107785761120f82610ec28554612664565b8390601f83116001146113695761123c92915f91836112eb5750508160011b915f199060031b1c19161790565b90555b600285019151908151916001600160401b0383116107785761126b836112658654612664565b86612885565b81601f84116001146112f65750926112a7836112cd9794600597946112e49c9b9a975f926112eb5750508160011b915f199060031b1c19161790565b90555b5160038301555160048201550192511515839060ff801983541691151516179055565b51815461ff00191690151560081b61ff0016179055565b8580611090565b015190505f80610664565b9190601f198416855f52835f20935f905b82821061135157505093600596936112e49b9a999693600193836112cd9b9810611339575b505050811b0190556112aa565b01515f1960f88460031b161c191690555f808061132c565b80600186978294978701518155019601940190611307565b90601f19831691845f52855f20925f5b878282106113b657505090846001959493921061139e575b505050811b01905561123f565b01515f1960f88460031b161c191690558f8080611391565b6001859682939686015181550195019301611379565b90601f19831691895f52855f20925f5b87828210611419575050908460019594939210611401575b505050811b0186556111eb565b01515f1960f88460031b161c191690558f80806113f4565b60018596829396860151815501950193016113dc565b634e487b7160e01b5f52603260045260245ffd5b90601f19831691845f52815f20925f5b81811061148e5750908460019594939210611476575b505050811b019055610fa3565b01515f1960f88460031b161c191690555f8080611469565b92936020600181928786015181550195019301611453565b90601f19831691845f52815f20925f5b8181106114f157509084600195949392106114d9575b505050811b019055610f4e565b01515f1960f88460031b161c191690555f80806114cc565b929360206001819287860151815501950193016114b6565b90601f19831691845f52815f20925f5b818110611554575090846001959493921061153c575b505050811b019055610ef9565b01515f1960f88460031b161c191690555f808061152f565b92936020600181928786015181550195019301611519565b8a63b99e2ab760e01b5f526004523460245260445ffd5b9a8a60205f60648f828091604051966323b872dd60e01b835233600452306024526044525af19060015f51148216156115e0575b6040525f606052156115cd579a610dce9b610db3565b8b635274afe760e01b5f5260045260245ffd5b9060018115166115f8578d3b15153d151616906115b7565b503d5f823e3d90fd5b631da7447960e21b5f5260045ffd5b506301e133808111610d9a565b346101b1575f3660031901126101b1576001546040516001600160a01b039091168152602090f35b346101b15760203660031901126101b1576004355f6101a0604051611669816125d6565b82815282602082015260606040820152606080820152606060808201528260a08201528260c08201528260e082015282610100820152826101208201528261014082015282610160820152826101808201520152805f52600860205260ff600d60405f2001541615610ad1575f52600860205260405f20604051906116ed826125d6565b8054825260018101546001600160a01b031660208301908152916117136002830161269c565b90604081019182526117276003840161269c565b916060820192835261173b6004850161269c565b926080830193845260058501549360a0840194855260ff60068701541660c08501908152600787015460e0860190815260018060a01b036008890154169161010087019283526009890154936101208801948552600a8a015495610140890196875260ff600b8c015416976101608a01986005811015610aaa578952600c8c01549b6101808b019c8d52600d015460ff16996101a081019a15158b526040519d8e9160208352516020830152600160a01b6001900390511690604001525160608d016101c090526101e08d016118109161256a565b90518c8203601f190160808e0152611828919061256a565b90518b8203601f190160a08d0152611840919061256a565b975160c08b01525160ff1660e08a015251610100890152516001600160a01b0316610120880152516101408701525161016086015251926005841015610aaa578493610180850152516101a08401525115156101c08301520390f35b346101b1575f3660031901126101b1576020600754604051908152f35b346101b1575f3660031901126101b1575f516020612b375f395f51905f52546040516001600160a01b039091168152602090f35b346101b15760403660031901126101b15760243560043561190c6129cf565b805f52600860205260405f2060ff600d8201541615611a405760018101546001600160a01b03163303610abe57600b810160ff8154166005811015610aaa57611a2d5760098201544211611a1e578391835f52600a60205260405f20835f5260205261198760405f2054855f52600960205260405f2061286c565b509160058301928460ff855460081c1615918215611a0f575b50506119f857600c92600160ff19825416179055600160ff1982541617905501557f0dbd6b38649f9c145377d24edf7b3c82c7e082f57f136879a7bf38f876799af35f80a360015f516020612b775f395f51905f5255005b8385635a72158360e11b5f5260045260245260445ffd5b600101541415905084886119a0565b6327ae510760e21b5f5260045ffd5b826312348a0960e01b5f5260045260245ffd5b50630f129cad60e21b5f5260045260245ffd5b346101b1575f3660031901126101b1575f546040516001600160a01b039091168152602090f35b346101b1575f3660031901126101b1576020600654604051908152f35b346101b15760203660031901126101b157600435611ab36129cf565b805f52600860205260405f2060ff600d8201541615611a40576001810180546001600160a01b03163303611bb357600b820160ff8154166005811015610aaa57611ba057805460ff191660031790555f838152600d6020526040812080549190556008909201546001600160a01b031680611b835750545f918291829182916001600160a01b03165af1611b456128d4565b50156109f9575b7f253f680fab3cfea163478a670340922d20a71712ce4eb847d060f37e1764f7355f80a260015f516020612b775f395f51905f5255005b9054611b9b92916001600160a01b0390911690612a07565b611b4c565b836312348a0960e01b5f5260045260245ffd5b82635d3cde5960e01b5f5260045260245ffd5b346101b1575f3660031901126101b157611bde61299c565b5f516020612b375f395f51905f5280546001600160a01b031981169091555f906001600160a01b03167f8be0079c531659141344cd1fd0a4f28419497f9722a3daafe3b4186f6b6457e08280a3005b346101b1575f3660031901126101b1577f00000000000000000000000000000000000000000000000000000000000000006001600160a01b03163003611c845760206040515f516020612b575f395f51905f528152f35b63703e46dd60e11b5f5260045ffd5b60403660031901126101b157611ca7612554565b6024356001600160401b0381116101b157366023820112156101b157611cd790369060248160040135910161262e565b906001600160a01b037f000000000000000000000000000000000000000000000000000000000000000016308114908115611e3c575b50611c8457611d1a61299c565b6040516352d1902d60e01b81526001600160a01b0382169290602081600481875afa5f9181611e08575b50611d5c5783634c9c8ce360e01b5f5260045260245ffd5b805f516020612b575f395f51905f52859203611df65750823b15611de4575f516020612b575f395f51905f5280546001600160a01b031916821790557fbc7cd75a20ee27fd9adebab32041f755214dbc6bffa90cc0225b39da2e5c2d3b5f80a2805115611dcc5761001a91612aaa565b505034611dd557005b63b398979f60e01b5f5260045ffd5b634c9c8ce360e01b5f5260045260245ffd5b632a87526960e21b5f5260045260245ffd5b9091506020813d602011611e34575b81611e24602093836125f2565b810103126101b157519085611d44565b3d9150611e17565b5f516020612b575f395f51905f52546001600160a01b03161415905083611d0d565b346101b1575f3660031901126101b1576004546040516001600160a01b039091168152602090f35b346101b15760603660031901126101b1576024356004356044356001600160401b0381116101b157611ebc90369060040161258e565b611ec46129cf565b825f52600860205260405f2060ff600d82015416156123275760ff600b820154166005811015610aaa57611ba05760098101544211611a1e575f80546040516314f9dc8b60e01b8152600481018890529190829060249082906001600160a01b03165afa908115610a7c575f9161230d575b50602001516001600160a01b031633036122fa5760018060a01b036001541660c06005830154604460405180948193637182ef5160e11b83528b600484015260248301525afa908115610a7c575f91612259575b50600660ff6020819301511692015416808210612240575050825f52600960205260405f20546121cf575b5f83815260096020526040908190208054915191939092909190611fd8826125bb565b858252611ff560208301938885526040840192338452369161262e565b60608301908152608083019142835260a08401945f865260c0850196600188528054600160401b811015610778576120329160018201815561286c565b9590956121bc57518555516001850155516002840180546001600160a01b0319166001600160a01b039290921691909117905551805160038401916001600160401b0382116107785761208982610ec28554612664565b602090601f83116001146121545791806120bd926005979695945f926121495750508160011b915f199060031b1c19161790565b90555b516004820155019051916004831015610aaa578154905161ff0090151560081b1660ff9390931661ffff1990911617919091179055815f52600a60205260405f20835f5260205260405f20557ffdb73f695bc6f43d03128339b6d99121833f5cb8d65f8cb3ffc6abe2e08a0a5b6020604051338152a360015f516020612b775f395f51905f5255005b015190508c80610664565b90601f19831691845f52815f20925f5b8181106121a45750916001939185600599989796941061218c575b505050811b0190556120c0565b01515f1960f88460031b161c191690558b808061217f565b92936020600181928786015181550195019301612164565b634e487b7160e01b5f525f60045260245ffd5b825f52600a60205260405f20845f5260205260405f2054835f5260096020528460405f20548210918261221b575b505015611fb55750506323bff93d60e21b5f5260045260245260445ffd5b600191925061223590865f52600960205260405f2061286c565b5001541484866121fd565b856321a36c2360e21b5f5260045260245260445260645ffd5b905060c0813d60c0116122f2575b8161227460c093836125f2565b810103126101b15760405160c081018181106001600160401b03821117610778576040528151815260208201519160ff831683036101b1576020826122e460a060ff9694879585600698015260408101516040850152606081015160608501526080810151608085015201612782565b60a082015293505050611f8a565b3d9150612267565b8463aa1673a760e01b5f5260045260245ffd5b61232191503d805f833e610a6e81836125f2565b86611f36565b83630f129cad60e21b5f5260045260245ffd5b346101b1575f3660031901126101b15760206040516107d08152f35b346101b1575f3660031901126101b15760206040516301e133808152f35b346101b1575f3660031901126101b1576020600354604051908152f35b346101b15760203660031901126101b1576123aa612554565b5f60c06040516123b9816125bb565b6060815260606020820152606060408201528260608201528260808201528260a0820152015260018060a01b03165f52600b60205261249260405f2060405190612402826125bb565b61240b8161269c565b82526124196001820161269c565b6020830190815261242c6002830161269c565b9060408401918252600383015492606085019384526124b86005600483015492608088019384520154936124a560a088019460ff87161515865260ff60c08a019760081c1615158752604051998a9960208b525160e060208c01526101008b019061256a565b9051898203601f190160408b015261256a565b9051878203601f1901606089015261256a565b935160808601525160a085015251151560c084015251151560e08301520390f35b346101b1575f3660031901126101b1576020604051620151808152f35b346101b15760203660031901126101b15760043561251261299c565b6107d0811161035c57600355005b346101b1575f3660031901126101b15760809060055460065460075490600354928452602084015260408301526060820152f35b600435906001600160a01b03821682036101b157565b805180835260209291819084018484015e5f828201840152601f01601f1916010190565b9181601f840112156101b1578235916001600160401b0383116101b157602083818601950101116101b157565b60e081019081106001600160401b0382111761077857604052565b6101c081019081106001600160401b0382111761077857604052565b90601f801991011681019081106001600160401b0382111761077857604052565b6001600160401b03811161077857601f01601f191660200190565b92919261263a82612613565b9161264860405193846125f2565b8294818452818301116101b1578281602093845f960137010152565b90600182811c92168015612692575b602083101461267e57565b634e487b7160e01b5f52602260045260245ffd5b91607f1691612673565b9060405191825f8254926126af84612664565b808452936001811690811561271a57506001146126d6575b506126d4925003836125f2565b565b90505f9291925260205f20905f915b8183106126fe5750509060206126d4928201015f6126c7565b60209193508060019154838589010152019101909184926126e5565b9050602092506126d494915060ff191682840152151560051b8201015f6126c7565b81601f820112156101b15780519061275382612613565b9261276160405194856125f2565b828452602083830101116101b157815f9260208093018386015e8301015290565b519081151582036101b157565b6020818303126101b1578051906001600160401b0382116101b15701610100818303126101b1576040519161010083018381106001600160401b03821117610778576040528151835260208201516001600160a01b03811681036101b157602084015260408201516001600160401b0381116101b1578161281191840161273c565b60408401526060820151916001600160401b0383116101b15761283b60e09261286494830161273c565b60608501526080810151608085015260a081015160a085015260c081015160c085015201612782565b60e082015290565b805482101561142f575f52600660205f20910201905f90565b601f821161289257505050565b5f5260205f20906020601f840160051c830193106128ca575b601f0160051c01905b8181106128bf575050565b5f81556001016128b4565b90915081906128ab565b3d156128fe573d906128e582612613565b916128f360405193846125f2565b82523d5f602084013e565b606090565b5f198114610a875760010190565b91908201809211610a8757565b91908203918211610a8757565b6001600160a01b03168015612989575f516020612b375f395f51905f5280546001600160a01b0319811683179091556001600160a01b03167f8be0079c531659141344cd1fd0a4f28419497f9722a3daafe3b4186f6b6457e05f80a3565b631e4fbdf760e01b5f525f60045260245ffd5b5f516020612b375f395f51905f52546001600160a01b031633036129bc57565b63118cdaa760e01b5f523360045260245ffd5b60025f516020612b775f395f51905f5254146129f85760025f516020612b775f395f51905f5255565b633ee5aeb560e01b5f5260045ffd5b916040519163a9059cbb60e01b5f5260018060a01b031660045260245260205f60448180865af19060015f5114821615612a67575b60405215612a475750565b635274afe760e01b5f9081526001600160a01b0391909116600452602490fd5b9060018115166115f857823b15153d15161690612a3c565b60ff5f516020612b975f395f51905f525460401c1615612a9b57565b631afcd79f60e31b5f5260045ffd5b905f8091602081519101845af48080612b23575b15612ade5750506040513d81523d5f602083013e60203d82010160405290565b15612b0357639996b31560e01b5f9081526001600160a01b0391909116600452602490fd5b3d15612b14576040513d5f823e3d90fd5b63d6bda27560e01b5f5260045ffd5b503d151580612abe5750813b1515612abe56fe9016d09d72d40fdae2fd8ceac6b6234c7706214fd39c1cd1e609a0528c199300360894a13ba1a3210667c828492db98dca3e2076cc3735a920a3ca505d382bbc9b779b17422d0df92223018b32b4d1fa46e071723d6817e2486d003becc55f00f0c57e16840df040f15088dc2f81fe391c3923bec73e23a9662efc9c229c6a00a264697066735822122031ba284880027683471f7695c6c35ac5dfb27a1756548afddb6c8e2cfef4c71c64736f6c634300081b0033f0c57e16840df040f15088dc2f81fe391c3923bec73e23a9662efc9c229c6a00","linkReferences":{}},"methodIdentifiers":{"MAX_OPPORTUNITY_DURATION()":"38ea4759","MAX_PLATFORM_FEE()":"3998a681","MIN_OPPORTUNITY_DURATION()":"1f1e9cae","PRECISION()":"aaf5eb68","UPGRADE_INTERFACE_VERSION()":"ad3cb1cc","acceptApplication(uint256,uint256)":"83f67f6e","applyToOpportunity(uint256,uint256,string)":"426c413b","cancelOpportunity(uint256)":"72a88412","completeDeal(uint256)":"dec3456b","createOpportunity(string,string,string,uint256,uint8,uint256,address,uint256)":"a5c70a70","feeRecipient()":"46904840","getApplications(uint256)":"bc8c937d","getBrandOpportunities(address)":"e9c18fb8","getBrandProfile(address)":"20cfa53e","getEscrowBalance(uint256)":"fce60903","getOpportunity(uint256)":"9ce39059","getRevenueMetrics()":"00d54fa5","initialize(address,address,address,address,uint256)":"f7013ef6","owner()":"8da5cb5b","personaRegistry()":"83dbb7aa","platformFee()":"26232a2e","professionRegistry()":"a162a869","proxiableUUID()":"52d1902d","renounceOwnership()":"715018a6","setFeeRecipient(address)":"e74b981b","setPlatformFee(uint256)":"12e8e2c3","totalCreatorPayouts()":"7ae61b14","totalDealsCompleted()":"912b8b3c","totalPlatformRevenue()":"f213edb9","transferOwnership(address)":"f2fde38b","updateBrandProfile(address,string,string,bool)":"e735d4cc","upgradeToAndCall(address,bytes)":"4f1ef286"},"id":64}