{"abi":[{"type":"receive","stateMutability":"payable"},{"type":"function","name":"CANCELLER_ROLE","inputs":[],"outputs":[{"name":"","type":"bytes32","internalType":"bytes32"}],"stateMutability":"view"},{"type":"function","name":"DEFAULT_ADMIN_ROLE","inputs":[],"outputs":[{"name":"","type":"bytes32","internalType":"bytes32"}],"stateMutability":"view"},{"type":"function","name":"EXECUTOR_ROLE","inputs":[],"outputs":[{"name":"","type":"bytes32","internalType":"bytes32"}],"stateMutability":"view"},{"type":"function","name":"PROPOSER_ROLE","inputs":[],"outputs":[{"name":"","type":"bytes32","internalType":"bytes32"}],"stateMutability":"view"},{"type":"function","name":"cancel","inputs":[{"name":"id","type":"bytes32","internalType":"bytes32"}],"outputs":[],"stateMutability":"nonpayable"},{"type":"function","name":"execute","inputs":[{"name":"target","type":"address","internalType":"address"},{"name":"value","type":"uint256","internalType":"uint256"},{"name":"payload","type":"bytes","internalType":"bytes"},{"name":"predecessor","type":"bytes32","internalType":"bytes32"},{"name":"salt","type":"bytes32","internalType":"bytes32"}],"outputs":[],"stateMutability":"payable"},{"type":"function","name":"executeBatch","inputs":[{"name":"targets","type":"address[]","internalType":"address[]"},{"name":"values","type":"uint256[]","internalType":"uint256[]"},{"name":"payloads","type":"bytes[]","internalType":"bytes[]"},{"name":"predecessor","type":"bytes32","internalType":"bytes32"},{"name":"salt","type":"bytes32","internalType":"bytes32"}],"outputs":[],"stateMutability":"payable"},{"type":"function","name":"getMinDelay","inputs":[],"outputs":[{"name":"","type":"uint256","internalType":"uint256"}],"stateMutability":"view"},{"type":"function","name":"getOperationState","inputs":[{"name":"id","type":"bytes32","internalType":"bytes32"}],"outputs":[{"name":"","type":"uint8","internalType":"enum TimelockControllerUpgradeable.OperationState"}],"stateMutability":"view"},{"type":"function","name":"getRoleAdmin","inputs":[{"name":"role","type":"bytes32","internalType":"bytes32"}],"outputs":[{"name":"","type":"bytes32","internalType":"bytes32"}],"stateMutability":"view"},{"type":"function","name":"getTimestamp","inputs":[{"name":"id","type":"bytes32","internalType":"bytes32"}],"outputs":[{"name":"","type":"uint256","internalType":"uint256"}],"stateMutability":"view"},{"type":"function","name":"grantRole","inputs":[{"name":"role","type":"bytes32","internalType":"bytes32"},{"name":"account","type":"address","internalType":"address"}],"outputs":[],"stateMutability":"nonpayable"},{"type":"function","name":"hasRole","inputs":[{"name":"role","type":"bytes32","internalType":"bytes32"},{"name":"account","type":"address","internalType":"address"}],"outputs":[{"name":"","type":"bool","internalType":"bool"}],"stateMutability":"view"},{"type":"function","name":"hashOperation","inputs":[{"name":"target","type":"address","internalType":"address"},{"name":"value","type":"uint256","internalType":"uint256"},{"name":"data","type":"bytes","internalType":"bytes"},{"name":"predecessor","type":"bytes32","internalType":"bytes32"},{"name":"salt","type":"bytes32","internalType":"bytes32"}],"outputs":[{"name":"","type":"bytes32","internalType":"bytes32"}],"stateMutability":"pure"},{"type":"function","name":"hashOperationBatch","inputs":[{"name":"targets","type":"address[]","internalType":"address[]"},{"name":"values","type":"uint256[]","internalType":"uint256[]"},{"name":"payloads","type":"bytes[]","internalType":"bytes[]"},{"name":"predecessor","type":"bytes32","internalType":"bytes32"},{"name":"salt","type":"bytes32","internalType":"bytes32"}],"outputs":[{"name":"","type":"bytes32","internalType":"bytes32"}],"stateMutability":"pure"},{"type":"function","name":"initialize","inputs":[{"name":"minDelay","type":"uint256","internalType":"uint256"},{"name":"proposers","type":"address[]","internalType":"address[]"},{"name":"executors","type":"address[]","internalType":"address[]"},{"name":"admin","type":"address","internalType":"address"}],"outputs":[],"stateMutability":"nonpayable"},{"type":"function","name":"isOperation","inputs":[{"name":"id","type":"bytes32","internalType":"bytes32"}],"outputs":[{"name":"","type":"bool","internalType":"bool"}],"stateMutability":"view"},{"type":"function","name":"isOperationDone","inputs":[{"name":"id","type":"bytes32","internalType":"bytes32"}],"outputs":[{"name":"","type":"bool","internalType":"bool"}],"stateMutability":"view"},{"type":"function","name":"isOperationPending","inputs":[{"name":"id","type":"bytes32","internalType":"bytes32"}],"outputs":[{"name":"","type":"bool","internalType":"bool"}],"stateMutability":"view"},{"type":"function","name":"isOperationReady","inputs":[{"name":"id","type":"bytes32","internalType":"bytes32"}],"outputs":[{"name":"","type":"bool","internalType":"bool"}],"stateMutability":"view"},{"type":"function","name":"onERC1155BatchReceived","inputs":[{"name":"","type":"address","internalType":"address"},{"name":"","type":"address","internalType":"address"},{"name":"","type":"uint256[]","internalType":"uint256[]"},{"name":"","type":"uint256[]","internalType":"uint256[]"},{"name":"","type":"bytes","internalType":"bytes"}],"outputs":[{"name":"","type":"bytes4","internalType":"bytes4"}],"stateMutability":"nonpayable"},{"type":"function","name":"onERC1155Received","inputs":[{"name":"","type":"address","internalType":"address"},{"name":"","type":"address","internalType":"address"},{"name":"","type":"uint256","internalType":"uint256"},{"name":"","type":"uint256","internalType":"uint256"},{"name":"","type":"bytes","internalType":"bytes"}],"outputs":[{"name":"","type":"bytes4","internalType":"bytes4"}],"stateMutability":"nonpayable"},{"type":"function","name":"onERC721Received","inputs":[{"name":"","type":"address","internalType":"address"},{"name":"","type":"address","internalType":"address"},{"name":"","type":"uint256","internalType":"uint256"},{"name":"","type":"bytes","internalType":"bytes"}],"outputs":[{"name":"","type":"bytes4","internalType":"bytes4"}],"stateMutability":"nonpayable"},{"type":"function","name":"renounceRole","inputs":[{"name":"role","type":"bytes32","internalType":"bytes32"},{"name":"callerConfirmation","type":"address","internalType":"address"}],"outputs":[],"stateMutability":"nonpayable"},{"type":"function","name":"revokeRole","inputs":[{"name":"role","type":"bytes32","internalType":"bytes32"},{"name":"account","type":"address","internalType":"address"}],"outputs":[],"stateMutability":"nonpayable"},{"type":"function","name":"schedule","inputs":[{"name":"target","type":"address","internalType":"address"},{"name":"value","type":"uint256","internalType":"uint256"},{"name":"data","type":"bytes","internalType":"bytes"},{"name":"predecessor","type":"bytes32","internalType":"bytes32"},{"name":"salt","type":"bytes32","internalType":"bytes32"},{"name":"delay","type":"uint256","internalType":"uint256"}],"outputs":[],"stateMutability":"nonpayable"},{"type":"function","name":"scheduleBatch","inputs":[{"name":"targets","type":"address[]","internalType":"address[]"},{"name":"values","type":"uint256[]","internalType":"uint256[]"},{"name":"payloads","type":"bytes[]","internalType":"bytes[]"},{"name":"predecessor","type":"bytes32","internalType":"bytes32"},{"name":"salt","type":"bytes32","internalType":"bytes32"},{"name":"delay","type":"uint256","internalType":"uint256"}],"outputs":[],"stateMutability":"nonpayable"},{"type":"function","name":"supportsInterface","inputs":[{"name":"interfaceId","type":"bytes4","internalType":"bytes4"}],"outputs":[{"name":"","type":"bool","internalType":"bool"}],"stateMutability":"view"},{"type":"function","name":"updateDelay","inputs":[{"name":"newDelay","type":"uint256","internalType":"uint256"}],"outputs":[],"stateMutability":"nonpayable"},{"type":"event","name":"CallExecuted","inputs":[{"name":"id","type":"bytes32","indexed":true,"internalType":"bytes32"},{"name":"index","type":"uint256","indexed":true,"internalType":"uint256"},{"name":"target","type":"address","indexed":false,"internalType":"address"},{"name":"value","type":"uint256","indexed":false,"internalType":"uint256"},{"name":"data","type":"bytes","indexed":false,"internalType":"bytes"}],"anonymous":false},{"type":"event","name":"CallSalt","inputs":[{"name":"id","type":"bytes32","indexed":true,"internalType":"bytes32"},{"name":"salt","type":"bytes32","indexed":false,"internalType":"bytes32"}],"anonymous":false},{"type":"event","name":"CallScheduled","inputs":[{"name":"id","type":"bytes32","indexed":true,"internalType":"bytes32"},{"name":"index","type":"uint256","indexed":true,"internalType":"uint256"},{"name":"target","type":"address","indexed":false,"internalType":"address"},{"name":"value","type":"uint256","indexed":false,"internalType":"uint256"},{"name":"data","type":"bytes","indexed":false,"internalType":"bytes"},{"name":"predecessor","type":"bytes32","indexed":false,"internalType":"bytes32"},{"name":"delay","type":"uint256","indexed":false,"internalType":"uint256"}],"anonymous":false},{"type":"event","name":"Cancelled","inputs":[{"name":"id","type":"bytes32","indexed":true,"internalType":"bytes32"}],"anonymous":false},{"type":"event","name":"Initialized","inputs":[{"name":"version","type":"uint64","indexed":false,"internalType":"uint64"}],"anonymous":false},{"type":"event","name":"MinDelayChange","inputs":[{"name":"oldDuration","type":"uint256","indexed":false,"internalType":"uint256"},{"name":"newDuration","type":"uint256","indexed":false,"internalType":"uint256"}],"anonymous":false},{"type":"event","name":"RoleAdminChanged","inputs":[{"name":"role","type":"bytes32","indexed":true,"internalType":"bytes32"},{"name":"previousAdminRole","type":"bytes32","indexed":true,"internalType":"bytes32"},{"name":"newAdminRole","type":"bytes32","indexed":true,"internalType":"bytes32"}],"anonymous":false},{"type":"event","name":"RoleGranted","inputs":[{"name":"role","type":"bytes32","indexed":true,"internalType":"bytes32"},{"name":"account","type":"address","indexed":true,"internalType":"address"},{"name":"sender","type":"address","indexed":true,"internalType":"address"}],"anonymous":false},{"type":"event","name":"RoleRevoked","inputs":[{"name":"role","type":"bytes32","indexed":true,"internalType":"bytes32"},{"name":"account","type":"address","indexed":true,"internalType":"address"},{"name":"sender","type":"address","indexed":true,"internalType":"address"}],"anonymous":false},{"type":"error","name":"AccessControlBadConfirmation","inputs":[]},{"type":"error","name":"AccessControlUnauthorizedAccount","inputs":[{"name":"account","type":"address","internalType":"address"},{"name":"neededRole","type":"bytes32","internalType":"bytes32"}]},{"type":"error","name":"FailedCall","inputs":[]},{"type":"error","name":"InvalidInitialization","inputs":[]},{"type":"error","name":"NotInitializing","inputs":[]},{"type":"error","name":"TimelockInsufficientDelay","inputs":[{"name":"delay","type":"uint256","internalType":"uint256"},{"name":"minDelay","type":"uint256","internalType":"uint256"}]},{"type":"error","name":"TimelockInvalidOperationLength","inputs":[{"name":"targets","type":"uint256","internalType":"uint256"},{"name":"payloads","type":"uint256","internalType":"uint256"},{"name":"values","type":"uint256","internalType":"uint256"}]},{"type":"error","name":"TimelockUnauthorizedCaller","inputs":[{"name":"caller","type":"address","internalType":"address"}]},{"type":"error","name":"TimelockUnexecutedPredecessor","inputs":[{"name":"predecessorId","type":"bytes32","internalType":"bytes32"}]},{"type":"error","name":"TimelockUnexpectedOperationState","inputs":[{"name":"operationId","type":"bytes32","internalType":"bytes32"},{"name":"expectedStates","type":"bytes32","internalType":"bytes32"}]}],"bytecode":{"object":"0x60808060405234601557611c4f908161001a8239f35b5f80fdfe6080604052600436101561001a575b3615610018575f80fd5b005b5f3560e01c806301d5062a14610dc957806301ffc9a714610d7357806307bd026514610d4c578063134008d314610c9f57806313bc9f2014610c81578063150b7a0214610c2c578063248a9ca314610bf55780632ab0f52914610bd75780632f2ff15d14610b8d57806331d5075014610b6f57806336568abe14610b2b578063584b153e14610b0357806364d6235314610a865780637958004c14610a435780638065657f14610a245780638f2a0bb01461089f5780638f61f4f51461086557806391d1485414610810578063a217fddf146107f6578063b08e51c0146107bc578063b1c5f42714610792578063bc197c81146106fd578063c4c4c7b314610489578063c4d252f51461039f578063d45c443514610369578063d547741f14610318578063e38335e5146101df578063f23a6e611461018a5763f27a0c920361000e5734610186575f3660031901126101865760205f516020611b9a5f395f51905f5254604051908152f35b5f80fd5b346101865760a0366003190112610186576101a3610e74565b506101ac610e8a565b506084356001600160401b038111610186576101cc903690600401610f7f565b5060405163f23a6e6160e01b8152602090f35b6101e836610ff5565b5f80525f516020611bda5f395f51905f526020527fdd1864c1ab258d549957f6a4d7e3a5005661df58241dbbc1700fb170ef0615465492979196919593949260ff161561030a575b828214801590610300575b6102e55761025261025991888a888789888d61133d565b9687611644565b5f5b81811061026b57610018876116ef565b8080887fc2617efa69bab66782fa219543714338489c4e9e178271560a91b82c3f612b5888886102dc6102c38f986001998f828e6102b68f836102b1916102bc966112c4565b6112e8565b976112c4565b35956112fc565b906102d08282878761169c565b60405194859485611194565b0390a30161025b565b50869063ffb0321160e01b5f5260045260245260445260645ffd5b508782141561023b565b6103133361158f565b610230565b3461018657604036600319011261018657610018600435610337610e8a565b9061036461035d825f525f516020611b7a5f395f51905f52602052600160405f20015490565b33906115ef565b611a38565b34610186576020366003190112610186576004355f525f516020611b5a5f395f51905f52602052602060405f2054604051908152f35b3461018657602036600319011261018657335f9081527ffa71e07f24c4701ef65a970775979de1292cfe909335cd18a32d2b7b7398791460205260409020546004359060ff1615610452576103f381611202565b1561043857805f525f516020611b5a5f395f51905f526020525f60408120557fbaa1eb22f2a492ba1a5fea61b8df4d27c6c8b5f3971e63bb58fa14ff72eedb705f80a2005b635ead8eb560e01b5f52600452600460021760245260445ffd5b63e2517d3f60e01b5f52336004527ffd643c72710c63c0180259aba6b2d05451e3591a24e58b62239378085726f78360245260445ffd5b34610186576080366003190112610186576004356024356001600160401b038111610186576104bc9036906004016110d7565b906044356001600160401b038111610186576104dc9036906004016110d7565b6064356001600160a01b0381169290838103610186575f516020611bfa5f395f51905f52549360ff8560401c1615946001600160401b038116801590816106f5575b60011490816106eb575b1590816106e2575b506106d35767ffffffffffffffff1981166001175f516020611bfa5f395f51905f5255856106a7575b50610562611afa565b61056a611afa565b61057330611719565b50610697575b505f5b84518110156105c6576001906105a46001600160a01b0361059d8389611b25565b51166117b5565b506105bf828060a01b036105b88389611b25565b511661186e565b500161057c565b50825f5b83518110156105f9576001906105f26001600160a01b036105eb8388611b25565b5116611927565b50016105ca565b507f11c24f4ead16507c69ac467fbd5e4eed5fb5c699626d2cc6d66421df253886d5604083805f516020611b9a5f395f51905f52558151905f82526020820152a161064057005b68ff0000000000000000195f516020611bfa5f395f51905f5254165f516020611bfa5f395f51905f52557fc7f505b2f371ae2175ee4913f4499e1f2633a7b5936321eed1cdaeb6115181d2602060405160018152a1005b6106a090611719565b5084610579565b68ffffffffffffffffff191668010000000000000001175f516020611bfa5f395f51905f525586610559565b63f92ee8a960e01b5f5260045ffd5b90501588610530565b303b159150610528565b87915061051e565b346101865760a036600319011261018657610716610e74565b5061071f610e8a565b506044356001600160401b0381116101865761073f90369060040161107a565b506064356001600160401b0381116101865761075f90369060040161107a565b506084356001600160401b0381116101865761077f903690600401610f7f565b5060405163bc197c8160e01b8152602090f35b346101865760206107b46107a536610ff5565b9695909594919493929361133d565b604051908152f35b34610186575f3660031901126101865760206040517ffd643c72710c63c0180259aba6b2d05451e3591a24e58b62239378085726f7838152f35b34610186575f3660031901126101865760206040515f8152f35b3461018657604036600319011261018657610829610e8a565b6004355f525f516020611b7a5f395f51905f5260205260405f209060018060a01b03165f52602052602060ff60405f2054166040519015158152f35b34610186575f3660031901126101865760206040517fb09aa5aeb3702cfd50b6b62bc4532604938f21248a27a1d5ca736082b6819cc18152f35b346101865760c0366003190112610186576004356001600160401b038111610186576108cf903690600401610fc5565b906024356001600160401b038111610186576108ef903690600401610fc5565b6044929192356001600160401b03811161018657610911903690600401610fc5565b9390916064356084359560a4359261092833611509565b808914801590610a1a575b610a005761094788848489858a8f8e61133d565b98610952858b61147e565b895f5b8281106109925750898061096557005b60207f20fda5fd27a1ea7bf5b9567f143ac5470bb059374a27e8f67cb44f946f6d038791604051908152a2005b806001927f4cf4410cc57040e44862ef0f45f3dd5a5e02db8eb8add648d4b0e236f1d07dca8b8b6109f58f8c6109e88f928e6109e18f8f906109db6102b18f80979481956112c4565b996112c4565b35976112fc565b906040519687968761115c565b0390a3018a90610955565b908863ffb0321160e01b5f5260045260245260445260645ffd5b5081891415610933565b346101865760206107b4610a3736610ee1565b9493909392919261126f565b3461018657602036600319011261018657610a5f60043561122b565b6040516004821015610a72576020918152f35b634e487b7160e01b5f52602160045260245ffd5b3461018657602036600319011261018657600435303303610af0577f11c24f4ead16507c69ac467fbd5e4eed5fb5c699626d2cc6d66421df253886d560405f516020611b9a5f395f51905f52548151908152836020820152a15f516020611b9a5f395f51905f5255005b63e2850c5960e01b5f523360045260245ffd5b34610186576020366003190112610186576020610b21600435611202565b6040519015158152f35b3461018657604036600319011261018657610b44610e8a565b336001600160a01b03821603610b605761001890600435611a38565b63334bd91960e11b5f5260045ffd5b34610186576020366003190112610186576020610b216004356111eb565b3461018657604036600319011261018657610018600435610bac610e8a565b90610bd261035d825f525f516020611b7a5f395f51905f52602052600160405f20015490565b6119a7565b34610186576020366003190112610186576020610b216004356111d3565b346101865760203660031901126101865760206107b46004355f525f516020611b7a5f395f51905f52602052600160405f20015490565b3461018657608036600319011261018657610c45610e74565b50610c4e610e8a565b506064356001600160401b03811161018657610c6e903690600401610f7f565b50604051630a85bd0160e11b8152602090f35b34610186576020366003190112610186576020610b216004356111bb565b610018610d2a5f610d367fc2617efa69bab66782fa219543714338489c4e9e178271560a91b82c3f612b58610d21610cd636610ee1565b5f516020611bba5f395f51905f528a9995979299949394525f516020611b7a5f395f51905f5260205260408a208a805260205260ff60408b20541615610d3e575b888484898961126f565b98899788611644565b6102d08282878761169c565b0390a36116ef565b610d473361158f565b610d17565b34610186575f3660031901126101865760206040515f516020611bba5f395f51905f528152f35b346101865760203660031901126101865760043563ffffffff60e01b811680910361018657602090630271189760e51b8114908115610db8575b506040519015158152f35b6301ffc9a760e01b14905082610dad565b346101865760c036600319011261018657610de2610e74565b602435906044356001600160401b038111610186577f4cf4410cc57040e44862ef0f45f3dd5a5e02db8eb8add648d4b0e236f1d07dca92610e285f923690600401610eb4565b94909160643594610e6a6084359660a43590610e4333611509565b610e5189828c8a898961126f565b998a97610e5e848a61147e565b6040519687968761115c565b0390a38061096557005b600435906001600160a01b038216820361018657565b602435906001600160a01b038216820361018657565b35906001600160a01b038216820361018657565b9181601f84011215610186578235916001600160401b038311610186576020838186019501011161018657565b60a0600319820112610186576004356001600160a01b0381168103610186579160243591604435906001600160401b03821161018657610f2391600401610eb4565b90916064359060843590565b90601f801991011681019081106001600160401b03821117610f5057604052565b634e487b7160e01b5f52604160045260245ffd5b6001600160401b038111610f5057601f01601f191660200190565b81601f8201121561018657803590610f9682610f64565b92610fa46040519485610f2f565b8284526020838301011161018657815f926020809301838601378301015290565b9181601f84011215610186578235916001600160401b038311610186576020808501948460051b01011161018657565b60a0600319820112610186576004356001600160401b038111610186578161101f91600401610fc5565b929092916024356001600160401b038111610186578161104191600401610fc5565b92909291604435906001600160401b03821161018657610f2391600401610fc5565b6001600160401b038111610f505760051b60200190565b9080601f8301121561018657813561109181611063565b9261109f6040519485610f2f565b81845260208085019260051b82010192831161018657602001905b8282106110c75750505090565b81358152602091820191016110ba565b9080601f830112156101865781356110ee81611063565b926110fc6040519485610f2f565b81845260208085019260051b82010192831161018657602001905b8282106111245750505090565b6020809161113184610ea0565b815201910190611117565b908060209392818452848401375f828201840152601f01601f1916010190565b92909361118a926080959897969860018060a01b03168552602085015260a0604085015260a084019161113c565b9460608201520152565b6111b8949260609260018060a01b031682526020820152816040820152019161113c565b90565b6111c49061122b565b6004811015610a725760021490565b6111dc9061122b565b6004811015610a725760031490565b6111f49061122b565b6004811015610a7257151590565b61120b9061122b565b6004811015610a725760018114908115611223575090565b600291501490565b5f525f516020611b5a5f395f51905f5260205260405f205480155f1461125057505f90565b6001810361125e5750600390565b42101561126a57600190565b600290565b946112a56112be94959293604051968795602087019960018060a01b03168a52604087015260a0606087015260c086019161113c565b91608084015260a083015203601f198101835282610f2f565b51902090565b91908110156112d45760051b0190565b634e487b7160e01b5f52603260045260245ffd5b356001600160a01b03811681036101865790565b91908110156112d45760051b81013590601e19813603018212156101865701908135916001600160401b038311610186576020018236038113610186579190565b9693949190969592956040519660208801988060c08a0160a08c525260e0890192905f5b81811061145857505050878203601f190160408901528082526001600160fb1b038111610186579087959394929160051b8092602083013701848103606086015260208101849052600584901b8101604090810194908201915f90889036829003601e1901905b8484106113f2575050505050506112be9450608084015260a083015203601f198101835282610f2f565b91939597909294969850601f19601f198383030101875289358381121561018657840190602082359201916001600160401b03811161018657803603831361018657611444602092839260019561113c565b9b0197019401918a989699979593916113c8565b909193602080600192838060a01b0361147089610ea0565b168152019501929101611361565b90611488826111eb565b6114f1575f516020611b9a5f395f51905f52548082106114db57504201908142116114c7575f525f516020611b5a5f395f51905f5260205260405f2055565b634e487b7160e01b5f52601160045260245ffd5b90635433660960e01b5f5260045260245260445ffd5b50635ead8eb560e01b5f52600452600160245260445ffd5b6001600160a01b0381165f9081527f5a8734c34b98d7c96eb2ea25f298989407e1f25da116ec139bcce0887bcb7cf7602052604090205460ff161561154b5750565b63e2517d3f60e01b5f9081526001600160a01b03919091166004527fb09aa5aeb3702cfd50b6b62bc4532604938f21248a27a1d5ca736082b6819cc1602452604490fd5b6001600160a01b0381165f9081525f516020611bda5f395f51905f52602052604090205460ff16156115be5750565b63e2517d3f60e01b5f9081526001600160a01b03919091166004525f516020611bba5f395f51905f52602452604490fd5b90815f525f516020611b7a5f395f51905f5260205260405f2060018060a01b0382165f5260205260ff60405f20541615611627575050565b63e2517d3f60e01b5f5260018060a01b031660045260245260445ffd5b61164d816111bb565b15611685575080151580611675575b6116635750565b63121534c360e31b5f5260045260245ffd5b5061167f816111d3565b1561165c565b635ead8eb560e01b5f52600452600460245260445ffd5b6116e4935f93928493826040519384928337810185815203925af13d156116e7573d906116c882610f64565b916116d66040519384610f2f565b82523d5f602084013e611ad4565b50565b606090611ad4565b6116f8816111bb565b15611685575f525f516020611b5a5f395f51905f52602052600160405f2055565b6001600160a01b0381165f9081527fb7db2dd08fcb62d0c9e08c51941cae53c267786a0b75803fb7960902fc8ef97d602052604090205460ff166117b0576001600160a01b03165f8181527fb7db2dd08fcb62d0c9e08c51941cae53c267786a0b75803fb7960902fc8ef97d60205260408120805460ff191660011790553391905f516020611b3a5f395f51905f528180a4600190565b505f90565b6001600160a01b0381165f9081527f5a8734c34b98d7c96eb2ea25f298989407e1f25da116ec139bcce0887bcb7cf7602052604090205460ff166117b0576001600160a01b03165f8181527f5a8734c34b98d7c96eb2ea25f298989407e1f25da116ec139bcce0887bcb7cf760205260408120805460ff191660011790553391907fb09aa5aeb3702cfd50b6b62bc4532604938f21248a27a1d5ca736082b6819cc1905f516020611b3a5f395f51905f529080a4600190565b6001600160a01b0381165f9081527ffa71e07f24c4701ef65a970775979de1292cfe909335cd18a32d2b7b73987914602052604090205460ff166117b0576001600160a01b03165f8181527ffa71e07f24c4701ef65a970775979de1292cfe909335cd18a32d2b7b7398791460205260408120805460ff191660011790553391907ffd643c72710c63c0180259aba6b2d05451e3591a24e58b62239378085726f783905f516020611b3a5f395f51905f529080a4600190565b6001600160a01b0381165f9081525f516020611bda5f395f51905f52602052604090205460ff166117b0576001600160a01b03165f8181525f516020611bda5f395f51905f5260205260408120805460ff191660011790553391905f516020611bba5f395f51905f52905f516020611b3a5f395f51905f529080a4600190565b5f8181525f516020611b7a5f395f51905f52602090815260408083206001600160a01b038616845290915290205460ff16611a32575f8181525f516020611b7a5f395f51905f52602090815260408083206001600160a01b0395909516808452949091528120805460ff19166001179055339291905f516020611b3a5f395f51905f529080a4600190565b50505f90565b5f8181525f516020611b7a5f395f51905f52602090815260408083206001600160a01b038616845290915290205460ff1615611a32575f8181525f516020611b7a5f395f51905f52602090815260408083206001600160a01b0395909516808452949091528120805460ff19169055339291907ff6391f5c32d9c69d2a47ea670b442974b53935d1edc7fd64eb21e047a839171b9080a4600190565b15611adc5790565b805115611aeb57602081519101fd5b63d6bda27560e01b5f5260045ffd5b60ff5f516020611bfa5f395f51905f525460401c1615611b1657565b631afcd79f60e31b5f5260045ffd5b80518210156112d45760209160051b01019056fe2f8788117e7eff1d82e926ec794901d17c78024a50270940304540a733656f0d9a37c2aa9d186a0969ff8a8267bf4e07e864c2f2768f5040949e28a624fb360002dd7bc7dec4dceedda775e58dd541e08a116c6c53815c0bd028192f7b6268009a37c2aa9d186a0969ff8a8267bf4e07e864c2f2768f5040949e28a624fb3601d8aa0f3194971a2a116679f7c2090f6939c8d4e01a2a8d7e41d55e5351469e6352fce5e8a5d0d9e8d1ea29f4525e512e9c27bf92cae50374d497f918ab48f382f0c57e16840df040f15088dc2f81fe391c3923bec73e23a9662efc9c229c6a00a264697066735822122025f7cda3aefec1e2625f8a73900fe6792f71ef20f8e3b89f87b6db65efafa87564736f6c634300081b0033","linkReferences":{}},"methodIdentifiers":{"CANCELLER_ROLE()":"b08e51c0","DEFAULT_ADMIN_ROLE()":"a217fddf","EXECUTOR_ROLE()":"07bd0265","PROPOSER_ROLE()":"8f61f4f5","cancel(bytes32)":"c4d252f5","execute(address,uint256,bytes,bytes32,bytes32)":"134008d3","executeBatch(address[],uint256[],bytes[],bytes32,bytes32)":"e38335e5","getMinDelay()":"f27a0c92","getOperationState(bytes32)":"7958004c","getRoleAdmin(bytes32)":"248a9ca3","getTimestamp(bytes32)":"d45c4435","grantRole(bytes32,address)":"2f2ff15d","hasRole(bytes32,address)":"91d14854","hashOperation(address,uint256,bytes,bytes32,bytes32)":"8065657f","hashOperationBatch(address[],uint256[],bytes[],bytes32,bytes32)":"b1c5f427","initialize(uint256,address[],address[],address)":"c4c4c7b3","isOperation(bytes32)":"31d50750","isOperationDone(bytes32)":"2ab0f529","isOperationPending(bytes32)":"584b153e","isOperationReady(bytes32)":"13bc9f20","onERC1155BatchReceived(address,address,uint256[],uint256[],bytes)":"bc197c81","onERC1155Received(address,address,uint256,uint256,bytes)":"f23a6e61","onERC721Received(address,address,uint256,bytes)":"150b7a02","renounceRole(bytes32,address)":"36568abe","revokeRole(bytes32,address)":"d547741f","schedule(address,uint256,bytes,bytes32,bytes32,uint256)":"01d5062a","scheduleBatch(address[],uint256[],bytes[],bytes32,bytes32,uint256)":"8f2a0bb0","supportsInterface(bytes4)":"01ffc9a7","updateDelay(uint256)":"64d62353"},"id":48}